{"contracts/DatasetRegistry.sol":{"DatasetRegistry":{"abi":[{"inputs":[],"stateMutability":"nonpayable","type":"constructor"},{"anonymous":false,"inputs":[{"indexed":true,"internalType":"string","name":"cid","type":"string"},{"indexed":true,"internalType":"address","name":"owner","type":"address"},{"indexed":false,"internalType":"uint256","name":"price","type":"uint256"},{"indexed":false,"internalType":"string","name":"name","type":"string"},{"indexed":false,"internalType":"string","name":"description","type":"string"}],"name":"DatasetRegistered","type":"event"},{"anonymous":false,"inputs":[{"indexed":true,"internalType":"string","name":"cid","type":"string"}],"name":"DatasetRemoved","type":"event"},{"anonymous":false,"inputs":[{"indexed":true,"internalType":"string","name":"cid","type":"string"},{"indexed":true,"internalType":"address","name":"licensee","type":"address"}],"name":"LicenseGranted","type":"event"},{"anonymous":false,"inputs":[{"indexed":false,"internalType":"address","name":"account","type":"address"}],"name":"Paused","type":"event"},{"anonymous":false,"inputs":[{"indexed":true,"internalType":"bytes32","name":"role","type":"bytes32"},{"indexed":true,"internalType":"bytes32","name":"previousAdminRole","type":"bytes32"},{"indexed":true,"internalType":"bytes32","name":"newAdminRole","type":"bytes32"}],"name":"RoleAdminChanged","type":"event"},{"anonymous":false,"inputs":[{"indexed":true,"internalType":"bytes32","name":"role","type":"bytes32"},{"indexed":true,"internalType":"address","name":"account","type":"address"},{"indexed":true,"internalType":"address","name":"sender","type":"address"}],"name":"RoleGranted","type":"event"},{"anonymous":false,"inputs":[{"indexed":true,"internalType":"bytes32","name":"role","type":"bytes32"},{"indexed":true,"internalType":"address","name":"account","type":"address"},{"indexed":true,"internalType":"address","name":"sender","type":"address"}],"name":"RoleRevoked","type":"event"},{"anonymous":false,"inputs":[{"indexed":false,"internalType":"address","name":"account","type":"address"}],"name":"Unpaused","type":"event"},{"inputs":[],"name":"ADMIN_ROLE","outputs":[{"internalType":"bytes32","name":"","type":"bytes32"}],"stateMutability":"view","type":"function"},{"inputs":[],"name":"COMPLIANCE_ROLE","outputs":[{"internalType":"bytes32","name":"","type":"bytes32"}],"stateMutability":"view","type":"function"},{"inputs":[],"name":"DEFAULT_ADMIN_ROLE","outputs":[{"internalType":"bytes32","name":"","type":"bytes32"}],"stateMutability":"view","type":"function"},{"inputs":[{"internalType":"uint256","name":"","type":"uint256"}],"name":"datasetCids","outputs":[{"internalType":"string","name":"","type":"string"}],"stateMutability":"view","type":"function"},{"inputs":[{"internalType":"string","name":"","type":"string"}],"name":"datasets","outputs":[{"internalType":"address","name":"owner","type":"address"},{"internalType":"string","name":"cid","type":"string"},{"internalType":"string","name":"name","type":"string"},{"internalType":"string","name":"description","type":"string"},{"internalType":"uint256","name":"price","type":"uint256"},{"internalType":"bool","name":"isPublic","type":"bool"},{"internalType":"bool","name":"isRemoved","type":"bool"},{"internalType":"uint256","name":"uploadTimestamp","type":"uint256"}],"stateMutability":"view","type":"function"},{"inputs":[{"internalType":"uint256","name":"index","type":"uint256"}],"name":"getDatasetCid","outputs":[{"internalType":"string","name":"","type":"string"}],"stateMutability":"view","type":"function"},{"inputs":[],"name":"getDatasetCount","outputs":[{"internalType":"uint256","name":"","type":"uint256"}],"stateMutability":"view","type":"function"},{"inputs":[{"internalType":"string","name":"_cid","type":"string"}],"name":"getDatasetInfo","outputs":[{"internalType":"address","name":"owner","type":"address"},{"internalType":"string","name":"cid","type":"string"},{"internalType":"string","name":"name","type":"string"},{"internalType":"string","name":"description","type":"string"},{"internalType":"uint256","name":"price","type":"uint256"},{"internalType":"bool","name":"isPublic","type":"bool"},{"internalType":"bool","name":"isRemoved","type":"bool"},{"internalType":"uint256","name":"uploadTimestamp","type":"uint256"}],"stateMutability":"view","type":"function"},{"inputs":[{"internalType":"bytes32","name":"role","type":"bytes32"}],"name":"getRoleAdmin","outputs":[{"internalType":"bytes32","name":"","type":"bytes32"}],"stateMutability":"view","type":"function"},{"inputs":[{"internalType":"string","name":"_cid","type":"string"},{"internalType":"address","name":"_licensee","type":"address"}],"name":"grantLicense","outputs":[],"stateMutability":"nonpayable","type":"function"},{"inputs":[{"internalType":"bytes32","name":"role","type":"bytes32"},{"internalType":"address","name":"account","type":"address"}],"name":"grantRole","outputs":[],"stateMutability":"nonpayable","type":"function"},{"inputs":[{"internalType":"string","name":"_cid","type":"string"},{"internalType":"address","name":"_user","type":"address"}],"name":"hasLicense","outputs":[{"internalType":"bool","name":"","type":"bool"}],"stateMutability":"view","type":"function"},{"inputs":[{"internalType":"bytes32","name":"role","type":"bytes32"},{"internalType":"address","name":"account","type":"address"}],"name":"hasRole","outputs":[{"internalType":"bool","name":"","type":"bool"}],"stateMutability":"view","type":"function"},{"inputs":[],"name":"pause","outputs":[],"stateMutability":"nonpayable","type":"function"},{"inputs":[],"name":"paused","outputs":[{"internalType":"bool","name":"","type":"bool"}],"stateMutability":"view","type":"function"},{"inputs":[{"internalType":"string","name":"_cid","type":"string"},{"internalType":"string","name":"_name","type":"string"},{"internalType":"string","name":"_description","type":"string"},{"internalType":"uint256","name":"_price","type":"uint256"},{"internalType":"bool","name":"_isPublic","type":"bool"}],"name":"registerDataset","outputs":[],"stateMutability":"nonpayable","type":"function"},{"inputs":[{"internalType":"string","name":"_cid","type":"string"}],"name":"removeDataset","outputs":[],"stateMutability":"nonpayable","type":"function"},{"inputs":[{"internalType":"bytes32","name":"role","type":"bytes32"},{"internalType":"address","name":"account","type":"address"}],"name":"renounceRole","outputs":[],"stateMutability":"nonpayable","type":"function"},{"inputs":[{"internalType":"bytes32","name":"role","type":"bytes32"},{"internalType":"address","name":"account","type":"address"}],"name":"revokeRole","outputs":[],"stateMutability":"nonpayable","type":"function"},{"inputs":[{"internalType":"bytes4","name":"interfaceId","type":"bytes4"}],"name":"supportsInterface","outputs":[{"internalType":"bool","name":"","type":"bool"}],"stateMutability":"view","type":"function"},{"inputs":[],"name":"unpause","outputs":[],"stateMutability":"nonpayable","type":"function"}],"evm":{"bytecode":{"linkReferences":{},"object":"60806040818152346101635760ff1980600154166001556000908180526020828152838320338452815260ff84842054161561012e575b7fa49807205ce4d355092ef5a8a18f56e8913cf4a201fbe287825b095693c21775808452838252848420338552825260ff8585205416156100f7575b507f442a94f1a1fac79af32856af2a64f63648cfa2ef3b98610a5bb7cbec4cee698593848452838252808420338552825260ff8185205416156100bd575b61171e8681620001698239f35b6001918585528481528185209033865252832091825416179055339160008051602062001887833981519152339280a438808080806100b0565b808452838252848420338552825284842060018482541617905533903390600080516020620018878339815191528680a438610072565b8280528281528383203384528152838320600183825416179055333384600080516020620018878339815191528180a4610036565b600080fdfe608060408181526004918236101561001657600080fd5b600090813560e01c90816301ffc9a714610d4157508063062d3bd714610d065780631fbb269c14610c60578063248a9ca314610c365780632f2ff15d14610b8d5780632f5201bd14610b6e5780632fbb7ddc14610aaf57806336568abe14610a1e5780633f4ba83a146109885780635ae5d5fc1461083b5780635c975abb1461081757806375b238fc146107dc578063837808931461068f5780638456cb59146106355780638b8f9e341461033957806390996c3b146102c857806391d1485414610282578063a217fddf14610267578063c7ba77a914610203578063d547741f146101c15763de570c971461010b57600080fd5b346101be5760203660031901126101be5782359067ffffffffffffffff82116101be575061015660206101446101ba9336908701610de9565b81855193828580945193849201610e45565b60029082019081520301902080546001600160a01b0316929061017b60018201610fd0565b9361018860028301610fd0565b9561019560038401610fd0565b908301549060066005850154940154945197889760ff808760081c1696169489610e8d565b0390f35b80fd5b509190346101ff57806003193601126101ff576101fc91356101f760016101e6610ef1565b938387528660205286200154611291565b61139b565b80f35b8280fd5b50346101be5760203660031901126101be5782356003548110156102635761022a90610f49565b939093610251576101ba8361023e86610fd0565b9051918291602083526020830190610e68565b634e487b7160e01b8252819052602490fd5b5080fd5b50903461026357816003193601126102635751908152602090f35b5091346101ff57816003193601126101ff578160209360ff926102a3610ef1565b903582528186528282206001600160a01b039091168252855220549151911615158152f35b508290346101be5760203660031901126101be5750803590600354821015610300576101ba8361023e6102fa85610f49565b50610fd0565b606490602084519162461bcd60e51b83528201526013602482015272496e646578206f7574206f6620626f756e647360681b6044820152fd5b509190346101ff5760a03660031901126101ff5767ffffffffffffffff82358181116106315761036c9036908501610de9565b602490813583811161062d576103859036908701610de9565b9260443590811161062d5761039d9036908701610de9565b9460643592608435801515809103610629576103b761165f565b8351156105f1578551156105b857841561057657865184519060208601916103e0818385610e45565b60029082019081528190036020019020546001600160a01b0316610534576020610414918951809381928951928391610e45565b81016002815203019020336bffffffffffffffffffffffff60a01b825416178155610442856001830161152f565b61044f876002830161152f565b61045c896003830161152f565b858482015560ff6005820192835492600642910155169061ffff1916179055600354680100000000000000008110156105225780600161049f9201600355610f49565b9290926105125750506104e1826104dc7f8e2d3b3c71fd6bfbc17d8af09bdc22cd02a0c7dd03d88986f2a2429c37e1feee96959461050c9461152f565b61163f565b946104fd81519485948552606060208601526060850190610e68565b90838203908401523396610e68565b0390a380f35b634e487b7160e01b895288905287fd5b50634e487b7160e01b88526041825287fd5b875162461bcd60e51b8152602081860152601a818501527f4461746173657420616c726561647920726567697374657265640000000000006044820152606490fd5b865162461bcd60e51b8152602081850152601c818401527f5072696365206d7573742062652067726561746572207468616e2030000000006044820152606490fd5b865162461bcd60e51b8152602081850152601481840152734e616d652063616e6e6f7420626520656d70747960601b6044820152606490fd5b865162461bcd60e51b8152602081850152601381840152724349442063616e6e6f7420626520656d70747960681b6044820152606490fd5b8880fd5b8680fd5b8480fd5b50903461026357816003193601126102635760207f62e78cea01bee320cd4e420270b5ea74000d11b0c9f74754ebdbfc544b05a25891610673611076565b61067b61165f565b600160ff198154161760015551338152a180f35b5091346101ff57602090816003193601126107d857803567ffffffffffffffff8111610631576106c29036908301610de9565b92805191845192848601936106d8818387610e45565b81019060028252858160018060a01b03930301902054163314801561079d575b1561075d575061073693926005926107199251809381928751928391610e45565b810160028152030190200161010061ff001982541617905561163f565b7fea6733fa1b715b965438ebe2d353c8268c90229f18723a993d9c71e0e6a1dda28280a280f35b8380606493519262461bcd60e51b845283015260248201527f4e6f7420617574686f72697a656420746f2072656d6f766520646174617365746044820152fd5b507f442a94f1a1fac79af32856af2a64f63648cfa2ef3b98610a5bb7cbec4cee69858652858452818620338752845260ff82872054166106f8565b8380fd5b509034610263578160031936011261026357602090517fa49807205ce4d355092ef5a8a18f56e8913cf4a201fbe287825b095693c217758152f35b50903461026357816003193601126102635760209060ff6001541690519015158152f35b5082346102635761084b36610f07565b93805194859360ff60058686516020988161086b8b93848c019e8f610e45565b81016002815203019020015460081c1661095057825190845161088f81848b610e45565b820160028152828760018060a01b039485930301902054163303610915575060076108ca866108ee9798998651809381928a51928391610e45565b8101600281520301902001911694858752528420600160ff1982541617905561163f565b7f11b0a410791b8098fe2e0349d7eb5beb5a377011c7c99b7c11114107128c72968380a380f35b835162461bcd60e51b815290810186905260156024820152742737ba103a3432903230ba30b9b2ba1037bbb732b960591b6044820152606490fd5b825162461bcd60e51b8152908101859052601260248201527111185d185cd95d081a5cc81c995b5bdd995960721b6044820152606490fd5b5091346101ff57826003193601126101ff576109a2611076565b6001549060ff8216156109e4575060ff1916600155513381527f5db9ee0a495bf2e6ff9c91a7834c1ba4fdd244a5e8aa4e537bd38aeae4b073aa90602090a180f35b606490602084519162461bcd60e51b8352820152601460248201527314185d5cd8589b194e881b9bdd081c185d5cd95960621b6044820152fd5b508234610263578260031936011261026357610a38610ef1565b90336001600160a01b03831603610a5457906101fc913561139b565b608490602085519162461bcd60e51b8352820152602f60248201527f416363657373436f6e74726f6c3a2063616e206f6e6c792072656e6f756e636560448201526e103937b632b9903337b91039b2b63360891b6064820152fd5b50903461026357610abf36610f07565b918051938251936020958695610afc87870191610add818585610e45565b830160028152838960018060a01b0395869303019020541615156116a3565b60ff6005865189818a51610b11818389610e45565b81016002815203019020015416958615610b31575b878787519015158152f35b60ff96508597600792610b4e928851938492839251928391610e45565b810160028152030190200191168252855220541682918480808080610b26565b5090346102635781600319360112610263576020906003549051908152f35b5091346101ff57816003193601126101ff573590610ba9610ef1565b9082845283602052610bc060018286200154611291565b82845260208481528185206001600160a01b039093168086529290528084205460ff1615610bec578380f35b828452836020528084208285526020528320600160ff1982541617905533917f2f8788117e7eff1d82e926ec794901d17c78024a50270940304540a733656f0d8480a43880808380f35b5091346101ff5760203660031901126101ff57816020936001923581528085522001549051908152f35b50346101be5760203660031901126101be5782359067ffffffffffffffff82116101be5750610c9a60206101446101ba9336908701610de9565b810160028152030190209260018060a01b0384541690610cbb8215156116a3565b84015490600585015490600686015492610cd760018801610fd0565b95610cf06003610ce960028b01610fd0565b9901610fd0565b905197889760ff808760081c1696169489610e8d565b509034610263578160031936011261026357602090517f442a94f1a1fac79af32856af2a64f63648cfa2ef3b98610a5bb7cbec4cee69858152f35b905083346101ff5760203660031901126101ff573563ffffffff60e01b81168091036101ff5760209250637965db0b60e01b8114908115610d84575b5015158152f35b6301ffc9a760e01b14905083610d7d565b6080810190811067ffffffffffffffff821117610db157604052565b634e487b7160e01b600052604160045260246000fd5b90601f8019910116810190811067ffffffffffffffff821117610db157604052565b81601f82011215610e405780359067ffffffffffffffff8211610db15760405192610e1e601f8401601f191660200185610dc7565b82845260208383010111610e4057816000926020809301838601378301015290565b600080fd5b60005b838110610e585750506000910152565b8181015183820152602001610e48565b90602091610e8181518092818552858086019101610e45565b601f01601f1916010190565b94989796939060e09693610ebd610ed994610ecb9360018060a01b031689526101008060208b0152890190610e68565b908782036040890152610e68565b908582036060870152610e68565b966080840152151560a0830152151560c08201520152565b602435906001600160a01b0382168203610e4057565b6040600319820112610e40576004359067ffffffffffffffff8211610e4057610f3291600401610de9565b906024356001600160a01b0381168103610e405790565b600354811015610f805760036000527fc2575a0e9e593c00f959f8c92f12db2869c3395a3b0502d05e2516446f71f85b0190600090565b634e487b7160e01b600052603260045260246000fd5b90600182811c92168015610fc6575b6020831014610fb057565b634e487b7160e01b600052602260045260246000fd5b91607f1691610fa5565b9060405191826000825492610fe484610f96565b9081845260019485811690816000146110535750600114611010575b505061100e92500383610dc7565b565b9093915060005260209081600020936000915b81831061103b57505061100e93508201013880611000565b85548884018501529485019487945091830191611023565b91505061100e94506020925060ff191682840152151560051b8201013880611000565b3360009081527f7d7ffb7a348e1c6a02869081a26547b49160dd3df72d1d75a570eb9b698292ec602090815260408083205490927fa49807205ce4d355092ef5a8a18f56e8913cf4a201fbe287825b095693c217759160ff16156110da5750505050565b6110e333611420565b918451906110f082610d95565b6042825284820192606036853782511561127d576030845382519060019182101561127d5790607860218501536041915b81831161120f575050506111cd5760486111c99386936111ad9361119e985198899376020b1b1b2b9b9a1b7b73a3937b61d1030b1b1b7bab73a1604d1b8a860152611175815180928c603789019101610e45565b8401917001034b99036b4b9b9b4b733903937b6329607d1b603784015251809386840190610e45565b01036028810187520185610dc7565b5192839262461bcd60e51b845260048401526024830190610e68565b0390fd5b60648486519062461bcd60e51b825280600483015260248201527f537472696e67733a20686578206c656e67746820696e73756666696369656e746044820152fd5b909192600f81166010811015611269576f181899199a1a9b1b9c1cb0b131b232b360811b901a61123f858761140f565b5360041c92801561125557600019019190611121565b634e487b7160e01b82526011600452602482fd5b634e487b7160e01b83526032600452602483fd5b634e487b7160e01b81526032600452602490fd5b600090808252602090828252604092838120338252835260ff8482205416156112ba5750505050565b6112c333611420565b918451906112d082610d95565b6042825284820192606036853782511561127d576030845382519060019182101561127d5790607860218501536041915b818311611355575050506111cd5760486111c99386936111ad9361119e985198899376020b1b1b2b9b9a1b7b73a3937b61d1030b1b1b7bab73a1604d1b8a860152611175815180928c603789019101610e45565b909192600f81166010811015611269576f181899199a1a9b1b9c1cb0b131b232b360811b901a611385858761140f565b5360041c92801561125557600019019190611301565b9060009180835282602052604083209160018060a01b03169182845260205260ff6040842054166113cb57505050565b80835282602052604083208284526020526040832060ff1981541690557ff6391f5c32d9c69d2a47ea670b442974b53935d1edc7fd64eb21e047a839171b339380a4565b908151811015610f80570160200190565b604051906060820182811067ffffffffffffffff821117610db157604052602a8252602082016040368237825115610f8057603090538151600190811015610f8057607860218401536029905b8082116114c157505061147d5790565b606460405162461bcd60e51b815260206004820152602060248201527f537472696e67733a20686578206c656e67746820696e73756666696369656e746044820152fd5b9091600f8116601081101561151a576f181899199a1a9b1b9c1cb0b131b232b360811b901a6114f0848661140f565b5360041c91801561150557600019019061146d565b60246000634e487b7160e01b81526011600452fd5b60246000634e487b7160e01b81526032600452fd5b919091825167ffffffffffffffff8111610db15761154d8254610f96565b601f81116115f7575b50602080601f8311600114611593575081929394600092611588575b50508160011b916000199060031b1c1916179055565b015190503880611572565b90601f198316958460005282600020926000905b8882106115df575050836001959697106115c6575b505050811b019055565b015160001960f88460031b161c191690553880806115bc565b806001859682949686015181550195019301906115a7565b600083815260208120601f840160051c81019260208510611635575b601f0160051c01915b82811061162a575050611556565b81815560010161161c565b9092508290611613565b61165790602060405192828480945193849201610e45565b810103902090565b60ff6001541661166b57565b60405162461bcd60e51b815260206004820152601060248201526f14185d5cd8589b194e881c185d5cd95960821b6044820152606490fd5b156116aa57565b60405162461bcd60e51b815260206004820152601660248201527511185d185cd95d08191bd95cc81b9bdd08195e1a5cdd60521b6044820152606490fdfea2646970667358221220f29f7738909748e2c1535cdcd6a74dbe98cf79cd6e50671cc6e310509b780a9164736f6c634300081300332f8788117e7eff1d82e926ec794901d17c78024a50270940304540a733656f0d","opcodes":"PUSH1 0x80 PUSH1 0x40 DUP2 DUP2 MSTORE CALLVALUE PUSH2 0x163 JUMPI PUSH1 0xFF NOT DUP1 PUSH1 0x1 SLOAD AND PUSH1 0x1 SSTORE PUSH1 0x0 SWAP1 DUP2 DUP1 MSTORE PUSH1 0x20 DUP3 DUP2 MSTORE DUP4 DUP4 KECCAK256 CALLER DUP5 MSTORE DUP2 MSTORE PUSH1 0xFF DUP5 DUP5 KECCAK256 SLOAD AND ISZERO PUSH2 0x12E JUMPI JUMPDEST PUSH32 0xA49807205CE4D355092EF5A8A18F56E8913CF4A201FBE287825B095693C21775 DUP1 DUP5 MSTORE DUP4 DUP3 MSTORE DUP5 DUP5 KECCAK256 CALLER DUP6 MSTORE DUP3 MSTORE PUSH1 0xFF DUP6 DUP6 KECCAK256 SLOAD AND ISZERO PUSH2 0xF7 JUMPI JUMPDEST POP PUSH32 0x442A94F1A1FAC79AF32856AF2A64F63648CFA2EF3B98610A5BB7CBEC4CEE6985 SWAP4 DUP5 DUP5 MSTORE DUP4 DUP3 MSTORE DUP1 DUP5 KECCAK256 CALLER DUP6 MSTORE DUP3 MSTORE PUSH1 0xFF DUP2 DUP6 KECCAK256 SLOAD AND ISZERO PUSH2 0xBD JUMPI JUMPDEST PUSH2 0x171E DUP7 DUP2 PUSH3 0x169 DUP3 CODECOPY RETURN JUMPDEST PUSH1 0x1 SWAP2 DUP6 DUP6 MSTORE DUP5 DUP2 MSTORE DUP2 DUP6 KECCAK256 SWAP1 CALLER DUP7 MSTORE MSTORE DUP4 KECCAK256 SWAP2 DUP3 SLOAD AND OR SWAP1 SSTORE CALLER SWAP2 PUSH1 0x0 DUP1 MLOAD PUSH1 0x20 PUSH3 0x1887 DUP4 CODECOPY DUP2 MLOAD SWAP2 MSTORE CALLER SWAP3 DUP1 LOG4 CODESIZE DUP1 DUP1 DUP1 DUP1 PUSH2 0xB0 JUMP JUMPDEST DUP1 DUP5 MSTORE DUP4 DUP3 MSTORE DUP5 DUP5 KECCAK256 CALLER DUP6 MSTORE DUP3 MSTORE DUP5 DUP5 KECCAK256 PUSH1 0x1 DUP5 DUP3 SLOAD AND OR SWAP1 SSTORE CALLER SWAP1 CALLER SWAP1 PUSH1 0x0 DUP1 MLOAD PUSH1 0x20 PUSH3 0x1887 DUP4 CODECOPY DUP2 MLOAD SWAP2 MSTORE DUP7 DUP1 LOG4 CODESIZE PUSH2 0x72 JUMP JUMPDEST DUP3 DUP1 MSTORE DUP3 DUP2 MSTORE DUP4 DUP4 KECCAK256 CALLER DUP5 MSTORE DUP2 MSTORE DUP4 DUP4 KECCAK256 PUSH1 0x1 DUP4 DUP3 SLOAD AND OR SWAP1 SSTORE CALLER CALLER DUP5 PUSH1 0x0 DUP1 MLOAD PUSH1 0x20 PUSH3 0x1887 DUP4 CODECOPY DUP2 MLOAD SWAP2 MSTORE DUP2 DUP1 LOG4 PUSH2 0x36 JUMP JUMPDEST PUSH1 0x0 DUP1 REVERT INVALID PUSH1 0x80 PUSH1 0x40 DUP2 DUP2 MSTORE PUSH1 0x4 SWAP2 DUP3 CALLDATASIZE LT ISZERO PUSH2 0x16 JUMPI PUSH1 0x0 DUP1 REVERT JUMPDEST PUSH1 0x0 SWAP1 DUP2 CALLDATALOAD PUSH1 0xE0 SHR SWAP1 DUP2 PUSH4 0x1FFC9A7 EQ PUSH2 0xD41 JUMPI POP DUP1 PUSH4 0x62D3BD7 EQ PUSH2 0xD06 JUMPI DUP1 PUSH4 0x1FBB269C EQ PUSH2 0xC60 JUMPI DUP1 PUSH4 0x248A9CA3 EQ PUSH2 0xC36 JUMPI DUP1 PUSH4 0x2F2FF15D EQ PUSH2 0xB8D JUMPI DUP1 PUSH4 0x2F5201BD EQ PUSH2 0xB6E JUMPI DUP1 PUSH4 0x2FBB7DDC EQ PUSH2 0xAAF JUMPI DUP1 PUSH4 0x36568ABE EQ PUSH2 0xA1E JUMPI DUP1 PUSH4 0x3F4BA83A EQ PUSH2 0x988 JUMPI DUP1 PUSH4 0x5AE5D5FC EQ PUSH2 0x83B JUMPI DUP1 PUSH4 0x5C975ABB EQ PUSH2 0x817 JUMPI DUP1 PUSH4 0x75B238FC EQ PUSH2 0x7DC JUMPI DUP1 PUSH4 0x83780893 EQ PUSH2 0x68F JUMPI DUP1 PUSH4 0x8456CB59 EQ PUSH2 0x635 JUMPI DUP1 PUSH4 0x8B8F9E34 EQ PUSH2 0x339 JUMPI DUP1 PUSH4 0x90996C3B EQ PUSH2 0x2C8 JUMPI DUP1 PUSH4 0x91D14854 EQ PUSH2 0x282 JUMPI DUP1 PUSH4 0xA217FDDF EQ PUSH2 0x267 JUMPI DUP1 PUSH4 0xC7BA77A9 EQ PUSH2 0x203 JUMPI DUP1 PUSH4 0xD547741F EQ PUSH2 0x1C1 JUMPI PUSH4 0xDE570C97 EQ PUSH2 0x10B JUMPI PUSH1 0x0 DUP1 REVERT JUMPDEST CALLVALUE PUSH2 0x1BE JUMPI PUSH1 0x20 CALLDATASIZE PUSH1 0x3 NOT ADD SLT PUSH2 0x1BE JUMPI DUP3 CALLDATALOAD SWAP1 PUSH8 0xFFFFFFFFFFFFFFFF DUP3 GT PUSH2 0x1BE JUMPI POP PUSH2 0x156 PUSH1 0x20 PUSH2 0x144 PUSH2 0x1BA SWAP4 CALLDATASIZE SWAP1 DUP8 ADD PUSH2 0xDE9 JUMP JUMPDEST DUP2 DUP6 MLOAD SWAP4 DUP3 DUP6 DUP1 SWAP5 MLOAD SWAP4 DUP5 SWAP3 ADD PUSH2 0xE45 JUMP JUMPDEST PUSH1 0x2 SWAP1 DUP3 ADD SWAP1 DUP2 MSTORE SUB ADD SWAP1 KECCAK256 DUP1 SLOAD PUSH1 0x1 PUSH1 0x1 PUSH1 0xA0 SHL SUB AND SWAP3 SWAP1 PUSH2 0x17B PUSH1 0x1 DUP3 ADD PUSH2 0xFD0 JUMP JUMPDEST SWAP4 PUSH2 0x188 PUSH1 0x2 DUP4 ADD PUSH2 0xFD0 JUMP JUMPDEST SWAP6 PUSH2 0x195 PUSH1 0x3 DUP5 ADD PUSH2 0xFD0 JUMP JUMPDEST SWAP1 DUP4 ADD SLOAD SWAP1 PUSH1 0x6 PUSH1 0x5 DUP6 ADD SLOAD SWAP5 ADD SLOAD SWAP5 MLOAD SWAP8 DUP9 SWAP8 PUSH1 0xFF DUP1 DUP8 PUSH1 0x8 SHR AND SWAP7 AND SWAP5 DUP10 PUSH2 0xE8D JUMP JUMPDEST SUB SWAP1 RETURN JUMPDEST DUP1 REVERT JUMPDEST POP SWAP2 SWAP1 CALLVALUE PUSH2 0x1FF JUMPI DUP1 PUSH1 0x3 NOT CALLDATASIZE ADD SLT PUSH2 0x1FF JUMPI PUSH2 0x1FC SWAP2 CALLDATALOAD PUSH2 0x1F7 PUSH1 0x1 PUSH2 0x1E6 PUSH2 0xEF1 JUMP JUMPDEST SWAP4 DUP4 DUP8 MSTORE DUP7 PUSH1 0x20 MSTORE DUP7 KECCAK256 ADD SLOAD PUSH2 0x1291 JUMP JUMPDEST PUSH2 0x139B JUMP JUMPDEST DUP1 RETURN JUMPDEST DUP3 DUP1 REVERT JUMPDEST POP CALLVALUE PUSH2 0x1BE JUMPI PUSH1 0x20 CALLDATASIZE PUSH1 0x3 NOT ADD SLT PUSH2 0x1BE JUMPI DUP3 CALLDATALOAD PUSH1 0x3 SLOAD DUP2 LT ISZERO PUSH2 0x263 JUMPI PUSH2 0x22A SWAP1 PUSH2 0xF49 JUMP JUMPDEST SWAP4 SWAP1 SWAP4 PUSH2 0x251 JUMPI PUSH2 0x1BA DUP4 PUSH2 0x23E DUP7 PUSH2 0xFD0 JUMP JUMPDEST SWAP1 MLOAD SWAP2 DUP3 SWAP2 PUSH1 0x20 DUP4 MSTORE PUSH1 0x20 DUP4 ADD SWAP1 PUSH2 0xE68 JUMP JUMPDEST PUSH4 0x4E487B71 PUSH1 0xE0 SHL DUP3 MSTORE DUP2 SWAP1 MSTORE PUSH1 0x24 SWAP1 REVERT JUMPDEST POP DUP1 REVERT JUMPDEST POP SWAP1 CALLVALUE PUSH2 0x263 JUMPI DUP2 PUSH1 0x3 NOT CALLDATASIZE ADD SLT PUSH2 0x263 JUMPI MLOAD SWAP1 DUP2 MSTORE PUSH1 0x20 SWAP1 RETURN JUMPDEST POP SWAP2 CALLVALUE PUSH2 0x1FF JUMPI DUP2 PUSH1 0x3 NOT CALLDATASIZE ADD SLT PUSH2 0x1FF JUMPI DUP2 PUSH1 0x20 SWAP4 PUSH1 0xFF SWAP3 PUSH2 0x2A3 PUSH2 0xEF1 JUMP JUMPDEST SWAP1 CALLDATALOAD DUP3 MSTORE DUP2 DUP7 MSTORE DUP3 DUP3 KECCAK256 PUSH1 0x1 PUSH1 0x1 PUSH1 0xA0 SHL SUB SWAP1 SWAP2 AND DUP3 MSTORE DUP6 MSTORE KECCAK256 SLOAD SWAP2 MLOAD SWAP2 AND ISZERO ISZERO DUP2 MSTORE RETURN JUMPDEST POP DUP3 SWAP1 CALLVALUE PUSH2 0x1BE JUMPI PUSH1 0x20 CALLDATASIZE PUSH1 0x3 NOT ADD SLT PUSH2 0x1BE JUMPI POP DUP1 CALLDATALOAD SWAP1 PUSH1 0x3 SLOAD DUP3 LT ISZERO PUSH2 0x300 JUMPI PUSH2 0x1BA DUP4 PUSH2 0x23E PUSH2 0x2FA DUP6 PUSH2 0xF49 JUMP JUMPDEST POP PUSH2 0xFD0 JUMP JUMPDEST PUSH1 0x64 SWAP1 PUSH1 0x20 DUP5 MLOAD SWAP2 PUSH3 0x461BCD PUSH1 0xE5 SHL DUP4 MSTORE DUP3 ADD MSTORE PUSH1 0x13 PUSH1 0x24 DUP3 ADD MSTORE PUSH19 0x496E646578206F7574206F6620626F756E6473 PUSH1 0x68 SHL PUSH1 0x44 DUP3 ADD MSTORE REVERT JUMPDEST POP SWAP2 SWAP1 CALLVALUE PUSH2 0x1FF JUMPI PUSH1 0xA0 CALLDATASIZE PUSH1 0x3 NOT ADD SLT PUSH2 0x1FF JUMPI PUSH8 0xFFFFFFFFFFFFFFFF DUP3 CALLDATALOAD DUP2 DUP2 GT PUSH2 0x631 JUMPI PUSH2 0x36C SWAP1 CALLDATASIZE SWAP1 DUP6 ADD PUSH2 0xDE9 JUMP JUMPDEST PUSH1 0x24 SWAP1 DUP2 CALLDATALOAD DUP4 DUP2 GT PUSH2 0x62D JUMPI PUSH2 0x385 SWAP1 CALLDATASIZE SWAP1 DUP8 ADD PUSH2 0xDE9 JUMP JUMPDEST SWAP3 PUSH1 0x44 CALLDATALOAD SWAP1 DUP2 GT PUSH2 0x62D JUMPI PUSH2 0x39D SWAP1 CALLDATASIZE SWAP1 DUP8 ADD PUSH2 0xDE9 JUMP JUMPDEST SWAP5 PUSH1 0x64 CALLDATALOAD SWAP3 PUSH1 0x84 CALLDATALOAD DUP1 ISZERO ISZERO DUP1 SWAP2 SUB PUSH2 0x629 JUMPI PUSH2 0x3B7 PUSH2 0x165F JUMP JUMPDEST DUP4 MLOAD ISZERO PUSH2 0x5F1 JUMPI DUP6 MLOAD ISZERO PUSH2 0x5B8 JUMPI DUP5 ISZERO PUSH2 0x576 JUMPI DUP7 MLOAD DUP5 MLOAD SWAP1 PUSH1 0x20 DUP7 ADD SWAP2 PUSH2 0x3E0 DUP2 DUP4 DUP6 PUSH2 0xE45 JUMP JUMPDEST PUSH1 0x2 SWAP1 DUP3 ADD SWAP1 DUP2 MSTORE DUP2 SWAP1 SUB PUSH1 0x20 ADD SWAP1 KECCAK256 SLOAD PUSH1 0x1 PUSH1 0x1 PUSH1 0xA0 SHL SUB AND PUSH2 0x534 JUMPI PUSH1 0x20 PUSH2 0x414 SWAP2 DUP10 MLOAD DUP1 SWAP4 DUP2 SWAP3 DUP10 MLOAD SWAP3 DUP4 SWAP2 PUSH2 0xE45 JUMP JUMPDEST DUP2 ADD PUSH1 0x2 DUP2 MSTORE SUB ADD SWAP1 KECCAK256 CALLER PUSH12 0xFFFFFFFFFFFFFFFFFFFFFFFF PUSH1 0xA0 SHL DUP3 SLOAD AND OR DUP2 SSTORE PUSH2 0x442 DUP6 PUSH1 0x1 DUP4 ADD PUSH2 0x152F JUMP JUMPDEST PUSH2 0x44F DUP8 PUSH1 0x2 DUP4 ADD PUSH2 0x152F JUMP JUMPDEST PUSH2 0x45C DUP10 PUSH1 0x3 DUP4 ADD PUSH2 0x152F JUMP JUMPDEST DUP6 DUP5 DUP3 ADD SSTORE PUSH1 0xFF PUSH1 0x5 DUP3 ADD SWAP3 DUP4 SLOAD SWAP3 PUSH1 0x6 TIMESTAMP SWAP2 ADD SSTORE AND SWAP1 PUSH2 0xFFFF NOT AND OR SWAP1 SSTORE PUSH1 0x3 SLOAD PUSH9 0x10000000000000000 DUP2 LT ISZERO PUSH2 0x522 JUMPI DUP1 PUSH1 0x1 PUSH2 0x49F SWAP3 ADD PUSH1 0x3 SSTORE PUSH2 0xF49 JUMP JUMPDEST SWAP3 SWAP1 SWAP3 PUSH2 0x512 JUMPI POP POP PUSH2 0x4E1 DUP3 PUSH2 0x4DC PUSH32 0x8E2D3B3C71FD6BFBC17D8AF09BDC22CD02A0C7DD03D88986F2A2429C37E1FEEE SWAP7 SWAP6 SWAP5 PUSH2 0x50C SWAP5 PUSH2 0x152F JUMP JUMPDEST PUSH2 0x163F JUMP JUMPDEST SWAP5 PUSH2 0x4FD DUP2 MLOAD SWAP5 DUP6 SWAP5 DUP6 MSTORE PUSH1 0x60 PUSH1 0x20 DUP7 ADD MSTORE PUSH1 0x60 DUP6 ADD SWAP1 PUSH2 0xE68 JUMP JUMPDEST SWAP1 DUP4 DUP3 SUB SWAP1 DUP5 ADD MSTORE CALLER SWAP7 PUSH2 0xE68 JUMP JUMPDEST SUB SWAP1 LOG3 DUP1 RETURN JUMPDEST PUSH4 0x4E487B71 PUSH1 0xE0 SHL DUP10 MSTORE DUP9 SWAP1 MSTORE DUP8 REVERT JUMPDEST POP PUSH4 0x4E487B71 PUSH1 0xE0 SHL DUP9 MSTORE PUSH1 0x41 DUP3 MSTORE DUP8 REVERT JUMPDEST DUP8 MLOAD PUSH3 0x461BCD PUSH1 0xE5 SHL DUP2 MSTORE PUSH1 0x20 DUP2 DUP7 ADD MSTORE PUSH1 0x1A DUP2 DUP6 ADD MSTORE PUSH32 0x4461746173657420616C72656164792072656769737465726564000000000000 PUSH1 0x44 DUP3 ADD MSTORE PUSH1 0x64 SWAP1 REVERT JUMPDEST DUP7 MLOAD PUSH3 0x461BCD PUSH1 0xE5 SHL DUP2 MSTORE PUSH1 0x20 DUP2 DUP6 ADD MSTORE PUSH1 0x1C DUP2 DUP5 ADD MSTORE PUSH32 0x5072696365206D7573742062652067726561746572207468616E203000000000 PUSH1 0x44 DUP3 ADD MSTORE PUSH1 0x64 SWAP1 REVERT JUMPDEST DUP7 MLOAD PUSH3 0x461BCD PUSH1 0xE5 SHL DUP2 MSTORE PUSH1 0x20 DUP2 DUP6 ADD MSTORE PUSH1 0x14 DUP2 DUP5 ADD MSTORE PUSH20 0x4E616D652063616E6E6F7420626520656D707479 PUSH1 0x60 SHL PUSH1 0x44 DUP3 ADD MSTORE PUSH1 0x64 SWAP1 REVERT JUMPDEST DUP7 MLOAD PUSH3 0x461BCD PUSH1 0xE5 SHL DUP2 MSTORE PUSH1 0x20 DUP2 DUP6 ADD MSTORE PUSH1 0x13 DUP2 DUP5 ADD MSTORE PUSH19 0x4349442063616E6E6F7420626520656D707479 PUSH1 0x68 SHL PUSH1 0x44 DUP3 ADD MSTORE PUSH1 0x64 SWAP1 REVERT JUMPDEST DUP9 DUP1 REVERT JUMPDEST DUP7 DUP1 REVERT JUMPDEST DUP5 DUP1 REVERT JUMPDEST POP SWAP1 CALLVALUE PUSH2 0x263 JUMPI DUP2 PUSH1 0x3 NOT CALLDATASIZE ADD SLT PUSH2 0x263 JUMPI PUSH1 0x20 PUSH32 0x62E78CEA01BEE320CD4E420270B5EA74000D11B0C9F74754EBDBFC544B05A258 SWAP2 PUSH2 0x673 PUSH2 0x1076 JUMP JUMPDEST PUSH2 0x67B PUSH2 0x165F JUMP JUMPDEST PUSH1 0x1 PUSH1 0xFF NOT DUP2 SLOAD AND OR PUSH1 0x1 SSTORE MLOAD CALLER DUP2 MSTORE LOG1 DUP1 RETURN JUMPDEST POP SWAP2 CALLVALUE PUSH2 0x1FF JUMPI PUSH1 0x20 SWAP1 DUP2 PUSH1 0x3 NOT CALLDATASIZE ADD SLT PUSH2 0x7D8 JUMPI DUP1 CALLDATALOAD PUSH8 0xFFFFFFFFFFFFFFFF DUP2 GT PUSH2 0x631 JUMPI PUSH2 0x6C2 SWAP1 CALLDATASIZE SWAP1 DUP4 ADD PUSH2 0xDE9 JUMP JUMPDEST SWAP3 DUP1 MLOAD SWAP2 DUP5 MLOAD SWAP3 DUP5 DUP7 ADD SWAP4 PUSH2 0x6D8 DUP2 DUP4 DUP8 PUSH2 0xE45 JUMP JUMPDEST DUP2 ADD SWAP1 PUSH1 0x2 DUP3 MSTORE DUP6 DUP2 PUSH1 0x1 DUP1 PUSH1 0xA0 SHL SUB SWAP4 SUB ADD SWAP1 KECCAK256 SLOAD AND CALLER EQ DUP1 ISZERO PUSH2 0x79D JUMPI JUMPDEST ISZERO PUSH2 0x75D JUMPI POP PUSH2 0x736 SWAP4 SWAP3 PUSH1 0x5 SWAP3 PUSH2 0x719 SWAP3 MLOAD DUP1 SWAP4 DUP2 SWAP3 DUP8 MLOAD SWAP3 DUP4 SWAP2 PUSH2 0xE45 JUMP JUMPDEST DUP2 ADD PUSH1 0x2 DUP2 MSTORE SUB ADD SWAP1 KECCAK256 ADD PUSH2 0x100 PUSH2 0xFF00 NOT DUP3 SLOAD AND OR SWAP1 SSTORE PUSH2 0x163F JUMP JUMPDEST PUSH32 0xEA6733FA1B715B965438EBE2D353C8268C90229F18723A993D9C71E0E6A1DDA2 DUP3 DUP1 LOG2 DUP1 RETURN JUMPDEST DUP4 DUP1 PUSH1 0x64 SWAP4 MLOAD SWAP3 PUSH3 0x461BCD PUSH1 0xE5 SHL DUP5 MSTORE DUP4 ADD MSTORE PUSH1 0x24 DUP3 ADD MSTORE PUSH32 0x4E6F7420617574686F72697A656420746F2072656D6F76652064617461736574 PUSH1 0x44 DUP3 ADD MSTORE REVERT JUMPDEST POP PUSH32 0x442A94F1A1FAC79AF32856AF2A64F63648CFA2EF3B98610A5BB7CBEC4CEE6985 DUP7 MSTORE DUP6 DUP5 MSTORE DUP2 DUP7 KECCAK256 CALLER DUP8 MSTORE DUP5 MSTORE PUSH1 0xFF DUP3 DUP8 KECCAK256 SLOAD AND PUSH2 0x6F8 JUMP JUMPDEST DUP4 DUP1 REVERT JUMPDEST POP SWAP1 CALLVALUE PUSH2 0x263 JUMPI DUP2 PUSH1 0x3 NOT CALLDATASIZE ADD SLT PUSH2 0x263 JUMPI PUSH1 0x20 SWAP1 MLOAD PUSH32 0xA49807205CE4D355092EF5A8A18F56E8913CF4A201FBE287825B095693C21775 DUP2 MSTORE RETURN JUMPDEST POP SWAP1 CALLVALUE PUSH2 0x263 JUMPI DUP2 PUSH1 0x3 NOT CALLDATASIZE ADD SLT PUSH2 0x263 JUMPI PUSH1 0x20 SWAP1 PUSH1 0xFF PUSH1 0x1 SLOAD AND SWAP1 MLOAD SWAP1 ISZERO ISZERO DUP2 MSTORE RETURN JUMPDEST POP DUP3 CALLVALUE PUSH2 0x263 JUMPI PUSH2 0x84B CALLDATASIZE PUSH2 0xF07 JUMP JUMPDEST SWAP4 DUP1 MLOAD SWAP5 DUP6 SWAP4 PUSH1 0xFF PUSH1 0x5 DUP7 DUP7 MLOAD PUSH1 0x20 SWAP9 DUP2 PUSH2 0x86B DUP12 SWAP4 DUP5 DUP13 ADD SWAP15 DUP16 PUSH2 0xE45 JUMP JUMPDEST DUP2 ADD PUSH1 0x2 DUP2 MSTORE SUB ADD SWAP1 KECCAK256 ADD SLOAD PUSH1 0x8 SHR AND PUSH2 0x950 JUMPI DUP3 MLOAD SWAP1 DUP5 MLOAD PUSH2 0x88F DUP2 DUP5 DUP12 PUSH2 0xE45 JUMP JUMPDEST DUP3 ADD PUSH1 0x2 DUP2 MSTORE DUP3 DUP8 PUSH1 0x1 DUP1 PUSH1 0xA0 SHL SUB SWAP5 DUP6 SWAP4 SUB ADD SWAP1 KECCAK256 SLOAD AND CALLER SUB PUSH2 0x915 JUMPI POP PUSH1 0x7 PUSH2 0x8CA DUP7 PUSH2 0x8EE SWAP8 SWAP9 SWAP10 DUP7 MLOAD DUP1 SWAP4 DUP2 SWAP3 DUP11 MLOAD SWAP3 DUP4 SWAP2 PUSH2 0xE45 JUMP JUMPDEST DUP2 ADD PUSH1 0x2 DUP2 MSTORE SUB ADD SWAP1 KECCAK256 ADD SWAP2 AND SWAP5 DUP6 DUP8 MSTORE MSTORE DUP5 KECCAK256 PUSH1 0x1 PUSH1 0xFF NOT DUP3 SLOAD AND OR SWAP1 SSTORE PUSH2 0x163F JUMP JUMPDEST PUSH32 0x11B0A410791B8098FE2E0349D7EB5BEB5A377011C7C99B7C11114107128C7296 DUP4 DUP1 LOG3 DUP1 RETURN JUMPDEST DUP4 MLOAD PUSH3 0x461BCD PUSH1 0xE5 SHL DUP2 MSTORE SWAP1 DUP2 ADD DUP7 SWAP1 MSTORE PUSH1 0x15 PUSH1 0x24 DUP3 ADD MSTORE PUSH21 0x2737BA103A3432903230BA30B9B2BA1037BBB732B9 PUSH1 0x59 SHL PUSH1 0x44 DUP3 ADD MSTORE PUSH1 0x64 SWAP1 REVERT JUMPDEST DUP3 MLOAD PUSH3 0x461BCD PUSH1 0xE5 SHL DUP2 MSTORE SWAP1 DUP2 ADD DUP6 SWAP1 MSTORE PUSH1 0x12 PUSH1 0x24 DUP3 ADD MSTORE PUSH18 0x11185D185CD95D081A5CC81C995B5BDD9959 PUSH1 0x72 SHL PUSH1 0x44 DUP3 ADD MSTORE PUSH1 0x64 SWAP1 REVERT JUMPDEST POP SWAP2 CALLVALUE PUSH2 0x1FF JUMPI DUP3 PUSH1 0x3 NOT CALLDATASIZE ADD SLT PUSH2 0x1FF JUMPI PUSH2 0x9A2 PUSH2 0x1076 JUMP JUMPDEST PUSH1 0x1 SLOAD SWAP1 PUSH1 0xFF DUP3 AND ISZERO PUSH2 0x9E4 JUMPI POP PUSH1 0xFF NOT AND PUSH1 0x1 SSTORE MLOAD CALLER DUP2 MSTORE PUSH32 0x5DB9EE0A495BF2E6FF9C91A7834C1BA4FDD244A5E8AA4E537BD38AEAE4B073AA SWAP1 PUSH1 0x20 SWAP1 LOG1 DUP1 RETURN JUMPDEST PUSH1 0x64 SWAP1 PUSH1 0x20 DUP5 MLOAD SWAP2 PUSH3 0x461BCD PUSH1 0xE5 SHL DUP4 MSTORE DUP3 ADD MSTORE PUSH1 0x14 PUSH1 0x24 DUP3 ADD MSTORE PUSH20 0x14185D5CD8589B194E881B9BDD081C185D5CD959 PUSH1 0x62 SHL PUSH1 0x44 DUP3 ADD MSTORE REVERT JUMPDEST POP DUP3 CALLVALUE PUSH2 0x263 JUMPI DUP3 PUSH1 0x3 NOT CALLDATASIZE ADD SLT PUSH2 0x263 JUMPI PUSH2 0xA38 PUSH2 0xEF1 JUMP JUMPDEST SWAP1 CALLER PUSH1 0x1 PUSH1 0x1 PUSH1 0xA0 SHL SUB DUP4 AND SUB PUSH2 0xA54 JUMPI SWAP1 PUSH2 0x1FC SWAP2 CALLDATALOAD PUSH2 0x139B JUMP JUMPDEST PUSH1 0x84 SWAP1 PUSH1 0x20 DUP6 MLOAD SWAP2 PUSH3 0x461BCD PUSH1 0xE5 SHL DUP4 MSTORE DUP3 ADD MSTORE PUSH1 0x2F PUSH1 0x24 DUP3 ADD MSTORE PUSH32 0x416363657373436F6E74726F6C3A2063616E206F6E6C792072656E6F756E6365 PUSH1 0x44 DUP3 ADD MSTORE PUSH15 0x103937B632B9903337B91039B2B633 PUSH1 0x89 SHL PUSH1 0x64 DUP3 ADD MSTORE REVERT JUMPDEST POP SWAP1 CALLVALUE PUSH2 0x263 JUMPI PUSH2 0xABF CALLDATASIZE PUSH2 0xF07 JUMP JUMPDEST SWAP2 DUP1 MLOAD SWAP4 DUP3 MLOAD SWAP4 PUSH1 0x20 SWAP6 DUP7 SWAP6 PUSH2 0xAFC DUP8 DUP8 ADD SWAP2 PUSH2 0xADD DUP2 DUP6 DUP6 PUSH2 0xE45 JUMP JUMPDEST DUP4 ADD PUSH1 0x2 DUP2 MSTORE DUP4 DUP10 PUSH1 0x1 DUP1 PUSH1 0xA0 SHL SUB SWAP6 DUP7 SWAP4 SUB ADD SWAP1 KECCAK256 SLOAD AND ISZERO ISZERO PUSH2 0x16A3 JUMP JUMPDEST PUSH1 0xFF PUSH1 0x5 DUP7 MLOAD DUP10 DUP2 DUP11 MLOAD PUSH2 0xB11 DUP2 DUP4 DUP10 PUSH2 0xE45 JUMP JUMPDEST DUP2 ADD PUSH1 0x2 DUP2 MSTORE SUB ADD SWAP1 KECCAK256 ADD SLOAD AND SWAP6 DUP7 ISZERO PUSH2 0xB31 JUMPI JUMPDEST DUP8 DUP8 DUP8 MLOAD SWAP1 ISZERO ISZERO DUP2 MSTORE RETURN JUMPDEST PUSH1 0xFF SWAP7 POP DUP6 SWAP8 PUSH1 0x7 SWAP3 PUSH2 0xB4E SWAP3 DUP9 MLOAD SWAP4 DUP5 SWAP3 DUP4 SWAP3 MLOAD SWAP3 DUP4 SWAP2 PUSH2 0xE45 JUMP JUMPDEST DUP2 ADD PUSH1 0x2 DUP2 MSTORE SUB ADD SWAP1 KECCAK256 ADD SWAP2 AND DUP3 MSTORE DUP6 MSTORE KECCAK256 SLOAD AND DUP3 SWAP2 DUP5 DUP1 DUP1 DUP1 DUP1 PUSH2 0xB26 JUMP JUMPDEST POP SWAP1 CALLVALUE PUSH2 0x263 JUMPI DUP2 PUSH1 0x3 NOT CALLDATASIZE ADD SLT PUSH2 0x263 JUMPI PUSH1 0x20 SWAP1 PUSH1 0x3 SLOAD SWAP1 MLOAD SWAP1 DUP2 MSTORE RETURN JUMPDEST POP SWAP2 CALLVALUE PUSH2 0x1FF JUMPI DUP2 PUSH1 0x3 NOT CALLDATASIZE ADD SLT PUSH2 0x1FF JUMPI CALLDATALOAD SWAP1 PUSH2 0xBA9 PUSH2 0xEF1 JUMP JUMPDEST SWAP1 DUP3 DUP5 MSTORE DUP4 PUSH1 0x20 MSTORE PUSH2 0xBC0 PUSH1 0x1 DUP3 DUP7 KECCAK256 ADD SLOAD PUSH2 0x1291 JUMP JUMPDEST DUP3 DUP5 MSTORE PUSH1 0x20 DUP5 DUP2 MSTORE DUP2 DUP6 KECCAK256 PUSH1 0x1 PUSH1 0x1 PUSH1 0xA0 SHL SUB SWAP1 SWAP4 AND DUP1 DUP7 MSTORE SWAP3 SWAP1 MSTORE DUP1 DUP5 KECCAK256 SLOAD PUSH1 0xFF AND ISZERO PUSH2 0xBEC JUMPI DUP4 DUP1 RETURN JUMPDEST DUP3 DUP5 MSTORE DUP4 PUSH1 0x20 MSTORE DUP1 DUP5 KECCAK256 DUP3 DUP6 MSTORE PUSH1 0x20 MSTORE DUP4 KECCAK256 PUSH1 0x1 PUSH1 0xFF NOT DUP3 SLOAD AND OR SWAP1 SSTORE CALLER SWAP2 PUSH32 0x2F8788117E7EFF1D82E926EC794901D17C78024A50270940304540A733656F0D DUP5 DUP1 LOG4 CODESIZE DUP1 DUP1 DUP4 DUP1 RETURN JUMPDEST POP SWAP2 CALLVALUE PUSH2 0x1FF JUMPI PUSH1 0x20 CALLDATASIZE PUSH1 0x3 NOT ADD SLT PUSH2 0x1FF JUMPI DUP2 PUSH1 0x20 SWAP4 PUSH1 0x1 SWAP3 CALLDATALOAD DUP2 MSTORE DUP1 DUP6 MSTORE KECCAK256 ADD SLOAD SWAP1 MLOAD SWAP1 DUP2 MSTORE RETURN JUMPDEST POP CALLVALUE PUSH2 0x1BE JUMPI PUSH1 0x20 CALLDATASIZE PUSH1 0x3 NOT ADD SLT PUSH2 0x1BE JUMPI DUP3 CALLDATALOAD SWAP1 PUSH8 0xFFFFFFFFFFFFFFFF DUP3 GT PUSH2 0x1BE JUMPI POP PUSH2 0xC9A PUSH1 0x20 PUSH2 0x144 PUSH2 0x1BA SWAP4 CALLDATASIZE SWAP1 DUP8 ADD PUSH2 0xDE9 JUMP JUMPDEST DUP2 ADD PUSH1 0x2 DUP2 MSTORE SUB ADD SWAP1 KECCAK256 SWAP3 PUSH1 0x1 DUP1 PUSH1 0xA0 SHL SUB DUP5 SLOAD AND SWAP1 PUSH2 0xCBB DUP3 ISZERO ISZERO PUSH2 0x16A3 JUMP JUMPDEST DUP5 ADD SLOAD SWAP1 PUSH1 0x5 DUP6 ADD SLOAD SWAP1 PUSH1 0x6 DUP7 ADD SLOAD SWAP3 PUSH2 0xCD7 PUSH1 0x1 DUP9 ADD PUSH2 0xFD0 JUMP JUMPDEST SWAP6 PUSH2 0xCF0 PUSH1 0x3 PUSH2 0xCE9 PUSH1 0x2 DUP12 ADD PUSH2 0xFD0 JUMP JUMPDEST SWAP10 ADD PUSH2 0xFD0 JUMP JUMPDEST SWAP1 MLOAD SWAP8 DUP9 SWAP8 PUSH1 0xFF DUP1 DUP8 PUSH1 0x8 SHR AND SWAP7 AND SWAP5 DUP10 PUSH2 0xE8D JUMP JUMPDEST POP SWAP1 CALLVALUE PUSH2 0x263 JUMPI DUP2 PUSH1 0x3 NOT CALLDATASIZE ADD SLT PUSH2 0x263 JUMPI PUSH1 0x20 SWAP1 MLOAD PUSH32 0x442A94F1A1FAC79AF32856AF2A64F63648CFA2EF3B98610A5BB7CBEC4CEE6985 DUP2 MSTORE RETURN JUMPDEST SWAP1 POP DUP4 CALLVALUE PUSH2 0x1FF JUMPI PUSH1 0x20 CALLDATASIZE PUSH1 0x3 NOT ADD SLT PUSH2 0x1FF JUMPI CALLDATALOAD PUSH4 0xFFFFFFFF PUSH1 0xE0 SHL DUP2 AND DUP1 SWAP2 SUB PUSH2 0x1FF JUMPI PUSH1 0x20 SWAP3 POP PUSH4 0x7965DB0B PUSH1 0xE0 SHL DUP2 EQ SWAP1 DUP2 ISZERO PUSH2 0xD84 JUMPI JUMPDEST POP ISZERO ISZERO DUP2 MSTORE RETURN JUMPDEST PUSH4 0x1FFC9A7 PUSH1 0xE0 SHL EQ SWAP1 POP DUP4 PUSH2 0xD7D JUMP JUMPDEST PUSH1 0x80 DUP2 ADD SWAP1 DUP2 LT PUSH8 0xFFFFFFFFFFFFFFFF DUP3 GT OR PUSH2 0xDB1 JUMPI PUSH1 0x40 MSTORE JUMP JUMPDEST PUSH4 0x4E487B71 PUSH1 0xE0 SHL PUSH1 0x0 MSTORE PUSH1 0x41 PUSH1 0x4 MSTORE PUSH1 0x24 PUSH1 0x0 REVERT JUMPDEST SWAP1 PUSH1 0x1F DUP1 NOT SWAP2 ADD AND DUP2 ADD SWAP1 DUP2 LT PUSH8 0xFFFFFFFFFFFFFFFF DUP3 GT OR PUSH2 0xDB1 JUMPI PUSH1 0x40 MSTORE JUMP JUMPDEST DUP2 PUSH1 0x1F DUP3 ADD SLT ISZERO PUSH2 0xE40 JUMPI DUP1 CALLDATALOAD SWAP1 PUSH8 0xFFFFFFFFFFFFFFFF DUP3 GT PUSH2 0xDB1 JUMPI PUSH1 0x40 MLOAD SWAP3 PUSH2 0xE1E PUSH1 0x1F DUP5 ADD PUSH1 0x1F NOT AND PUSH1 0x20 ADD DUP6 PUSH2 0xDC7 JUMP JUMPDEST DUP3 DUP5 MSTORE PUSH1 0x20 DUP4 DUP4 ADD ADD GT PUSH2 0xE40 JUMPI DUP2 PUSH1 0x0 SWAP3 PUSH1 0x20 DUP1 SWAP4 ADD DUP4 DUP7 ADD CALLDATACOPY DUP4 ADD ADD MSTORE SWAP1 JUMP JUMPDEST PUSH1 0x0 DUP1 REVERT JUMPDEST PUSH1 0x0 JUMPDEST DUP4 DUP2 LT PUSH2 0xE58 JUMPI POP POP PUSH1 0x0 SWAP2 ADD MSTORE JUMP JUMPDEST DUP2 DUP2 ADD MLOAD DUP4 DUP3 ADD MSTORE PUSH1 0x20 ADD PUSH2 0xE48 JUMP JUMPDEST SWAP1 PUSH1 0x20 SWAP2 PUSH2 0xE81 DUP2 MLOAD DUP1 SWAP3 DUP2 DUP6 MSTORE DUP6 DUP1 DUP7 ADD SWAP2 ADD PUSH2 0xE45 JUMP JUMPDEST PUSH1 0x1F ADD PUSH1 0x1F NOT AND ADD ADD SWAP1 JUMP JUMPDEST SWAP5 SWAP9 SWAP8 SWAP7 SWAP4 SWAP1 PUSH1 0xE0 SWAP7 SWAP4 PUSH2 0xEBD PUSH2 0xED9 SWAP5 PUSH2 0xECB SWAP4 PUSH1 0x1 DUP1 PUSH1 0xA0 SHL SUB AND DUP10 MSTORE PUSH2 0x100 DUP1 PUSH1 0x20 DUP12 ADD MSTORE DUP10 ADD SWAP1 PUSH2 0xE68 JUMP JUMPDEST SWAP1 DUP8 DUP3 SUB PUSH1 0x40 DUP10 ADD MSTORE PUSH2 0xE68 JUMP JUMPDEST SWAP1 DUP6 DUP3 SUB PUSH1 0x60 DUP8 ADD MSTORE PUSH2 0xE68 JUMP JUMPDEST SWAP7 PUSH1 0x80 DUP5 ADD MSTORE ISZERO ISZERO PUSH1 0xA0 DUP4 ADD MSTORE ISZERO ISZERO PUSH1 0xC0 DUP3 ADD MSTORE ADD MSTORE JUMP JUMPDEST PUSH1 0x24 CALLDATALOAD SWAP1 PUSH1 0x1 PUSH1 0x1 PUSH1 0xA0 SHL SUB DUP3 AND DUP3 SUB PUSH2 0xE40 JUMPI JUMP JUMPDEST PUSH1 0x40 PUSH1 0x3 NOT DUP3 ADD SLT PUSH2 0xE40 JUMPI PUSH1 0x4 CALLDATALOAD SWAP1 PUSH8 0xFFFFFFFFFFFFFFFF DUP3 GT PUSH2 0xE40 JUMPI PUSH2 0xF32 SWAP2 PUSH1 0x4 ADD PUSH2 0xDE9 JUMP JUMPDEST SWAP1 PUSH1 0x24 CALLDATALOAD PUSH1 0x1 PUSH1 0x1 PUSH1 0xA0 SHL SUB DUP2 AND DUP2 SUB PUSH2 0xE40 JUMPI SWAP1 JUMP JUMPDEST PUSH1 0x3 SLOAD DUP2 LT ISZERO PUSH2 0xF80 JUMPI PUSH1 0x3 PUSH1 0x0 MSTORE PUSH32 0xC2575A0E9E593C00F959F8C92F12DB2869C3395A3B0502D05E2516446F71F85B ADD SWAP1 PUSH1 0x0 SWAP1 JUMP JUMPDEST PUSH4 0x4E487B71 PUSH1 0xE0 SHL PUSH1 0x0 MSTORE PUSH1 0x32 PUSH1 0x4 MSTORE PUSH1 0x24 PUSH1 0x0 REVERT JUMPDEST SWAP1 PUSH1 0x1 DUP3 DUP2 SHR SWAP3 AND DUP1 ISZERO PUSH2 0xFC6 JUMPI JUMPDEST PUSH1 0x20 DUP4 LT EQ PUSH2 0xFB0 JUMPI JUMP JUMPDEST PUSH4 0x4E487B71 PUSH1 0xE0 SHL PUSH1 0x0 MSTORE PUSH1 0x22 PUSH1 0x4 MSTORE PUSH1 0x24 PUSH1 0x0 REVERT JUMPDEST SWAP2 PUSH1 0x7F AND SWAP2 PUSH2 0xFA5 JUMP JUMPDEST SWAP1 PUSH1 0x40 MLOAD SWAP2 DUP3 PUSH1 0x0 DUP3 SLOAD SWAP3 PUSH2 0xFE4 DUP5 PUSH2 0xF96 JUMP JUMPDEST SWAP1 DUP2 DUP5 MSTORE PUSH1 0x1 SWAP5 DUP6 DUP2 AND SWAP1 DUP2 PUSH1 0x0 EQ PUSH2 0x1053 JUMPI POP PUSH1 0x1 EQ PUSH2 0x1010 JUMPI JUMPDEST POP POP PUSH2 0x100E SWAP3 POP SUB DUP4 PUSH2 0xDC7 JUMP JUMPDEST JUMP JUMPDEST SWAP1 SWAP4 SWAP2 POP PUSH1 0x0 MSTORE PUSH1 0x20 SWAP1 DUP2 PUSH1 0x0 KECCAK256 SWAP4 PUSH1 0x0 SWAP2 JUMPDEST DUP2 DUP4 LT PUSH2 0x103B JUMPI POP POP PUSH2 0x100E SWAP4 POP DUP3 ADD ADD CODESIZE DUP1 PUSH2 0x1000 JUMP JUMPDEST DUP6 SLOAD DUP9 DUP5 ADD DUP6 ADD MSTORE SWAP5 DUP6 ADD SWAP5 DUP8 SWAP5 POP SWAP2 DUP4 ADD SWAP2 PUSH2 0x1023 JUMP JUMPDEST SWAP2 POP POP PUSH2 0x100E SWAP5 POP PUSH1 0x20 SWAP3 POP PUSH1 0xFF NOT AND DUP3 DUP5 ADD MSTORE ISZERO ISZERO PUSH1 0x5 SHL DUP3 ADD ADD CODESIZE DUP1 PUSH2 0x1000 JUMP JUMPDEST CALLER PUSH1 0x0 SWAP1 DUP2 MSTORE PUSH32 0x7D7FFB7A348E1C6A02869081A26547B49160DD3DF72D1D75A570EB9B698292EC PUSH1 0x20 SWAP1 DUP2 MSTORE PUSH1 0x40 DUP1 DUP4 KECCAK256 SLOAD SWAP1 SWAP3 PUSH32 0xA49807205CE4D355092EF5A8A18F56E8913CF4A201FBE287825B095693C21775 SWAP2 PUSH1 0xFF AND ISZERO PUSH2 0x10DA JUMPI POP POP POP POP JUMP JUMPDEST PUSH2 0x10E3 CALLER PUSH2 0x1420 JUMP JUMPDEST SWAP2 DUP5 MLOAD SWAP1 PUSH2 0x10F0 DUP3 PUSH2 0xD95 JUMP JUMPDEST PUSH1 0x42 DUP3 MSTORE DUP5 DUP3 ADD SWAP3 PUSH1 0x60 CALLDATASIZE DUP6 CALLDATACOPY DUP3 MLOAD ISZERO PUSH2 0x127D JUMPI PUSH1 0x30 DUP5 MSTORE8 DUP3 MLOAD SWAP1 PUSH1 0x1 SWAP2 DUP3 LT ISZERO PUSH2 0x127D JUMPI SWAP1 PUSH1 0x78 PUSH1 0x21 DUP6 ADD MSTORE8 PUSH1 0x41 SWAP2 JUMPDEST DUP2 DUP4 GT PUSH2 0x120F JUMPI POP POP POP PUSH2 0x11CD JUMPI PUSH1 0x48 PUSH2 0x11C9 SWAP4 DUP7 SWAP4 PUSH2 0x11AD SWAP4 PUSH2 0x119E SWAP9 MLOAD SWAP9 DUP10 SWAP4 PUSH23 0x20B1B1B2B9B9A1B7B73A3937B61D1030B1B1B7BAB73A1 PUSH1 0x4D SHL DUP11 DUP7 ADD MSTORE PUSH2 0x1175 DUP2 MLOAD DUP1 SWAP3 DUP13 PUSH1 0x37 DUP10 ADD SWAP2 ADD PUSH2 0xE45 JUMP JUMPDEST DUP5 ADD SWAP2 PUSH17 0x1034B99036B4B9B9B4B733903937B6329 PUSH1 0x7D SHL PUSH1 0x37 DUP5 ADD MSTORE MLOAD DUP1 SWAP4 DUP7 DUP5 ADD SWAP1 PUSH2 0xE45 JUMP JUMPDEST ADD SUB PUSH1 0x28 DUP2 ADD DUP8 MSTORE ADD DUP6 PUSH2 0xDC7 JUMP JUMPDEST MLOAD SWAP3 DUP4 SWAP3 PUSH3 0x461BCD PUSH1 0xE5 SHL DUP5 MSTORE PUSH1 0x4 DUP5 ADD MSTORE PUSH1 0x24 DUP4 ADD SWAP1 PUSH2 0xE68 JUMP JUMPDEST SUB SWAP1 REVERT JUMPDEST PUSH1 0x64 DUP5 DUP7 MLOAD SWAP1 PUSH3 0x461BCD PUSH1 0xE5 SHL DUP3 MSTORE DUP1 PUSH1 0x4 DUP4 ADD MSTORE PUSH1 0x24 DUP3 ADD MSTORE PUSH32 0x537472696E67733A20686578206C656E67746820696E73756666696369656E74 PUSH1 0x44 DUP3 ADD MSTORE REVERT JUMPDEST SWAP1 SWAP2 SWAP3 PUSH1 0xF DUP2 AND PUSH1 0x10 DUP2 LT ISZERO PUSH2 0x1269 JUMPI PUSH16 0x181899199A1A9B1B9C1CB0B131B232B3 PUSH1 0x81 SHL SWAP1 BYTE PUSH2 0x123F DUP6 DUP8 PUSH2 0x140F JUMP JUMPDEST MSTORE8 PUSH1 0x4 SHR SWAP3 DUP1 ISZERO PUSH2 0x1255 JUMPI PUSH1 0x0 NOT ADD SWAP2 SWAP1 PUSH2 0x1121 JUMP JUMPDEST PUSH4 0x4E487B71 PUSH1 0xE0 SHL DUP3 MSTORE PUSH1 0x11 PUSH1 0x4 MSTORE PUSH1 0x24 DUP3 REVERT JUMPDEST PUSH4 0x4E487B71 PUSH1 0xE0 SHL DUP4 MSTORE PUSH1 0x32 PUSH1 0x4 MSTORE PUSH1 0x24 DUP4 REVERT JUMPDEST PUSH4 0x4E487B71 PUSH1 0xE0 SHL DUP2 MSTORE PUSH1 0x32 PUSH1 0x4 MSTORE PUSH1 0x24 SWAP1 REVERT JUMPDEST PUSH1 0x0 SWAP1 DUP1 DUP3 MSTORE PUSH1 0x20 SWAP1 DUP3 DUP3 MSTORE PUSH1 0x40 SWAP3 DUP4 DUP2 KECCAK256 CALLER DUP3 MSTORE DUP4 MSTORE PUSH1 0xFF DUP5 DUP3 KECCAK256 SLOAD AND ISZERO PUSH2 0x12BA JUMPI POP POP POP POP JUMP JUMPDEST PUSH2 0x12C3 CALLER PUSH2 0x1420 JUMP JUMPDEST SWAP2 DUP5 MLOAD SWAP1 PUSH2 0x12D0 DUP3 PUSH2 0xD95 JUMP JUMPDEST PUSH1 0x42 DUP3 MSTORE DUP5 DUP3 ADD SWAP3 PUSH1 0x60 CALLDATASIZE DUP6 CALLDATACOPY DUP3 MLOAD ISZERO PUSH2 0x127D JUMPI PUSH1 0x30 DUP5 MSTORE8 DUP3 MLOAD SWAP1 PUSH1 0x1 SWAP2 DUP3 LT ISZERO PUSH2 0x127D JUMPI SWAP1 PUSH1 0x78 PUSH1 0x21 DUP6 ADD MSTORE8 PUSH1 0x41 SWAP2 JUMPDEST DUP2 DUP4 GT PUSH2 0x1355 JUMPI POP POP POP PUSH2 0x11CD JUMPI PUSH1 0x48 PUSH2 0x11C9 SWAP4 DUP7 SWAP4 PUSH2 0x11AD SWAP4 PUSH2 0x119E SWAP9 MLOAD SWAP9 DUP10 SWAP4 PUSH23 0x20B1B1B2B9B9A1B7B73A3937B61D1030B1B1B7BAB73A1 PUSH1 0x4D SHL DUP11 DUP7 ADD MSTORE PUSH2 0x1175 DUP2 MLOAD DUP1 SWAP3 DUP13 PUSH1 0x37 DUP10 ADD SWAP2 ADD PUSH2 0xE45 JUMP JUMPDEST SWAP1 SWAP2 SWAP3 PUSH1 0xF DUP2 AND PUSH1 0x10 DUP2 LT ISZERO PUSH2 0x1269 JUMPI PUSH16 0x181899199A1A9B1B9C1CB0B131B232B3 PUSH1 0x81 SHL SWAP1 BYTE PUSH2 0x1385 DUP6 DUP8 PUSH2 0x140F JUMP JUMPDEST MSTORE8 PUSH1 0x4 SHR SWAP3 DUP1 ISZERO PUSH2 0x1255 JUMPI PUSH1 0x0 NOT ADD SWAP2 SWAP1 PUSH2 0x1301 JUMP JUMPDEST SWAP1 PUSH1 0x0 SWAP2 DUP1 DUP4 MSTORE DUP3 PUSH1 0x20 MSTORE PUSH1 0x40 DUP4 KECCAK256 SWAP2 PUSH1 0x1 DUP1 PUSH1 0xA0 SHL SUB AND SWAP2 DUP3 DUP5 MSTORE PUSH1 0x20 MSTORE PUSH1 0xFF PUSH1 0x40 DUP5 KECCAK256 SLOAD AND PUSH2 0x13CB JUMPI POP POP POP JUMP JUMPDEST DUP1 DUP4 MSTORE DUP3 PUSH1 0x20 MSTORE PUSH1 0x40 DUP4 KECCAK256 DUP3 DUP5 MSTORE PUSH1 0x20 MSTORE PUSH1 0x40 DUP4 KECCAK256 PUSH1 0xFF NOT DUP2 SLOAD AND SWAP1 SSTORE PUSH32 0xF6391F5C32D9C69D2A47EA670B442974B53935D1EDC7FD64EB21E047A839171B CALLER SWAP4 DUP1 LOG4 JUMP JUMPDEST SWAP1 DUP2 MLOAD DUP2 LT ISZERO PUSH2 0xF80 JUMPI ADD PUSH1 0x20 ADD SWAP1 JUMP JUMPDEST PUSH1 0x40 MLOAD SWAP1 PUSH1 0x60 DUP3 ADD DUP3 DUP2 LT PUSH8 0xFFFFFFFFFFFFFFFF DUP3 GT OR PUSH2 0xDB1 JUMPI PUSH1 0x40 MSTORE PUSH1 0x2A DUP3 MSTORE PUSH1 0x20 DUP3 ADD PUSH1 0x40 CALLDATASIZE DUP3 CALLDATACOPY DUP3 MLOAD ISZERO PUSH2 0xF80 JUMPI PUSH1 0x30 SWAP1 MSTORE8 DUP2 MLOAD PUSH1 0x1 SWAP1 DUP2 LT ISZERO PUSH2 0xF80 JUMPI PUSH1 0x78 PUSH1 0x21 DUP5 ADD MSTORE8 PUSH1 0x29 SWAP1 JUMPDEST DUP1 DUP3 GT PUSH2 0x14C1 JUMPI POP POP PUSH2 0x147D JUMPI SWAP1 JUMP JUMPDEST PUSH1 0x64 PUSH1 0x40 MLOAD PUSH3 0x461BCD PUSH1 0xE5 SHL DUP2 MSTORE PUSH1 0x20 PUSH1 0x4 DUP3 ADD MSTORE PUSH1 0x20 PUSH1 0x24 DUP3 ADD MSTORE PUSH32 0x537472696E67733A20686578206C656E67746820696E73756666696369656E74 PUSH1 0x44 DUP3 ADD MSTORE REVERT JUMPDEST SWAP1 SWAP2 PUSH1 0xF DUP2 AND PUSH1 0x10 DUP2 LT ISZERO PUSH2 0x151A JUMPI PUSH16 0x181899199A1A9B1B9C1CB0B131B232B3 PUSH1 0x81 SHL SWAP1 BYTE PUSH2 0x14F0 DUP5 DUP7 PUSH2 0x140F JUMP JUMPDEST MSTORE8 PUSH1 0x4 SHR SWAP2 DUP1 ISZERO PUSH2 0x1505 JUMPI PUSH1 0x0 NOT ADD SWAP1 PUSH2 0x146D JUMP JUMPDEST PUSH1 0x24 PUSH1 0x0 PUSH4 0x4E487B71 PUSH1 0xE0 SHL DUP2 MSTORE PUSH1 0x11 PUSH1 0x4 MSTORE REVERT JUMPDEST PUSH1 0x24 PUSH1 0x0 PUSH4 0x4E487B71 PUSH1 0xE0 SHL DUP2 MSTORE PUSH1 0x32 PUSH1 0x4 MSTORE REVERT JUMPDEST SWAP2 SWAP1 SWAP2 DUP3 MLOAD PUSH8 0xFFFFFFFFFFFFFFFF DUP2 GT PUSH2 0xDB1 JUMPI PUSH2 0x154D DUP3 SLOAD PUSH2 0xF96 JUMP JUMPDEST PUSH1 0x1F DUP2 GT PUSH2 0x15F7 JUMPI JUMPDEST POP PUSH1 0x20 DUP1 PUSH1 0x1F DUP4 GT PUSH1 0x1 EQ PUSH2 0x1593 JUMPI POP DUP2 SWAP3 SWAP4 SWAP5 PUSH1 0x0 SWAP3 PUSH2 0x1588 JUMPI JUMPDEST POP POP DUP2 PUSH1 0x1 SHL SWAP2 PUSH1 0x0 NOT SWAP1 PUSH1 0x3 SHL SHR NOT AND OR SWAP1 SSTORE JUMP JUMPDEST ADD MLOAD SWAP1 POP CODESIZE DUP1 PUSH2 0x1572 JUMP JUMPDEST SWAP1 PUSH1 0x1F NOT DUP4 AND SWAP6 DUP5 PUSH1 0x0 MSTORE DUP3 PUSH1 0x0 KECCAK256 SWAP3 PUSH1 0x0 SWAP1 JUMPDEST DUP9 DUP3 LT PUSH2 0x15DF JUMPI POP POP DUP4 PUSH1 0x1 SWAP6 SWAP7 SWAP8 LT PUSH2 0x15C6 JUMPI JUMPDEST POP POP POP DUP2 SHL ADD SWAP1 SSTORE JUMP JUMPDEST ADD MLOAD PUSH1 0x0 NOT PUSH1 0xF8 DUP5 PUSH1 0x3 SHL AND SHR NOT AND SWAP1 SSTORE CODESIZE DUP1 DUP1 PUSH2 0x15BC JUMP JUMPDEST DUP1 PUSH1 0x1 DUP6 SWAP7 DUP3 SWAP5 SWAP7 DUP7 ADD MLOAD DUP2 SSTORE ADD SWAP6 ADD SWAP4 ADD SWAP1 PUSH2 0x15A7 JUMP JUMPDEST PUSH1 0x0 DUP4 DUP2 MSTORE PUSH1 0x20 DUP2 KECCAK256 PUSH1 0x1F DUP5 ADD PUSH1 0x5 SHR DUP2 ADD SWAP3 PUSH1 0x20 DUP6 LT PUSH2 0x1635 JUMPI JUMPDEST PUSH1 0x1F ADD PUSH1 0x5 SHR ADD SWAP2 JUMPDEST DUP3 DUP2 LT PUSH2 0x162A JUMPI POP POP PUSH2 0x1556 JUMP JUMPDEST DUP2 DUP2 SSTORE PUSH1 0x1 ADD PUSH2 0x161C JUMP JUMPDEST SWAP1 SWAP3 POP DUP3 SWAP1 PUSH2 0x1613 JUMP JUMPDEST PUSH2 0x1657 SWAP1 PUSH1 0x20 PUSH1 0x40 MLOAD SWAP3 DUP3 DUP5 DUP1 SWAP5 MLOAD SWAP4 DUP5 SWAP3 ADD PUSH2 0xE45 JUMP JUMPDEST DUP2 ADD SUB SWAP1 KECCAK256 SWAP1 JUMP JUMPDEST PUSH1 0xFF PUSH1 0x1 SLOAD AND PUSH2 0x166B JUMPI JUMP JUMPDEST PUSH1 0x40 MLOAD PUSH3 0x461BCD PUSH1 0xE5 SHL DUP2 MSTORE PUSH1 0x20 PUSH1 0x4 DUP3 ADD MSTORE PUSH1 0x10 PUSH1 0x24 DUP3 ADD MSTORE PUSH16 0x14185D5CD8589B194E881C185D5CD959 PUSH1 0x82 SHL PUSH1 0x44 DUP3 ADD MSTORE PUSH1 0x64 SWAP1 REVERT JUMPDEST ISZERO PUSH2 0x16AA JUMPI JUMP JUMPDEST PUSH1 0x40 MLOAD PUSH3 0x461BCD PUSH1 0xE5 SHL DUP2 MSTORE PUSH1 0x20 PUSH1 0x4 DUP3 ADD MSTORE PUSH1 0x16 PUSH1 0x24 DUP3 ADD MSTORE PUSH22 0x11185D185CD95D08191BD95CC81B9BDD08195E1A5CDD PUSH1 0x52 SHL PUSH1 0x44 DUP3 ADD MSTORE PUSH1 0x64 SWAP1 REVERT INVALID LOG2 PUSH5 0x6970667358 0x22 SLT KECCAK256 CALLCODE SWAP16 PUSH24 0x38909748E2C1535CDCD6A74DBE98CF79CD6E50671CC6E310 POP SWAP12 PUSH25 0xA9164736F6C634300081300332F8788117E7EFF1D82E926EC PUSH26 0x4901D17C78024A50270940304540A733656F0D00000000000000 "},"methodIdentifiers":{"ADMIN_ROLE()":"75b238fc","COMPLIANCE_ROLE()":"062d3bd7","DEFAULT_ADMIN_ROLE()":"a217fddf","datasetCids(uint256)":"c7ba77a9","datasets(string)":"de570c97","getDatasetCid(uint256)":"90996c3b","getDatasetCount()":"2f5201bd","getDatasetInfo(string)":"1fbb269c","getRoleAdmin(bytes32)":"248a9ca3","grantLicense(string,address)":"5ae5d5fc","grantRole(bytes32,address)":"2f2ff15d","hasLicense(string,address)":"2fbb7ddc","hasRole(bytes32,address)":"91d14854","pause()":"8456cb59","paused()":"5c975abb","registerDataset(string,string,string,uint256,bool)":"8b8f9e34","removeDataset(string)":"83780893","renounceRole(bytes32,address)":"36568abe","revokeRole(bytes32,address)":"d547741f","supportsInterface(bytes4)":"01ffc9a7","unpause()":"3f4ba83a"}}}}}