{"contracts/LicenseManager.sol":{"LicenseManager":{"abi":[{"inputs":[{"internalType":"address","name":"_token","type":"address"},{"internalType":"address","name":"_registry","type":"address"}],"stateMutability":"nonpayable","type":"constructor"},{"anonymous":false,"inputs":[{"indexed":true,"internalType":"bytes32","name":"licenseId","type":"bytes32"},{"indexed":true,"internalType":"address","name":"licensee","type":"address"},{"indexed":false,"internalType":"string","name":"datasetCid","type":"string"},{"indexed":false,"internalType":"string","name":"name","type":"string"},{"indexed":false,"internalType":"string","name":"description","type":"string"},{"indexed":false,"internalType":"uint256","name":"expirationTimestamp","type":"uint256"}],"name":"LicenseGranted","type":"event"},{"anonymous":false,"inputs":[{"indexed":true,"internalType":"bytes32","name":"licenseId","type":"bytes32"}],"name":"LicenseRevoked","type":"event"},{"anonymous":false,"inputs":[{"indexed":false,"internalType":"address","name":"account","type":"address"}],"name":"Paused","type":"event"},{"anonymous":false,"inputs":[{"indexed":true,"internalType":"bytes32","name":"role","type":"bytes32"},{"indexed":true,"internalType":"bytes32","name":"previousAdminRole","type":"bytes32"},{"indexed":true,"internalType":"bytes32","name":"newAdminRole","type":"bytes32"}],"name":"RoleAdminChanged","type":"event"},{"anonymous":false,"inputs":[{"indexed":true,"internalType":"bytes32","name":"role","type":"bytes32"},{"indexed":true,"internalType":"address","name":"account","type":"address"},{"indexed":true,"internalType":"address","name":"sender","type":"address"}],"name":"RoleGranted","type":"event"},{"anonymous":false,"inputs":[{"indexed":true,"internalType":"bytes32","name":"role","type":"bytes32"},{"indexed":true,"internalType":"address","name":"account","type":"address"},{"indexed":true,"internalType":"address","name":"sender","type":"address"}],"name":"RoleRevoked","type":"event"},{"anonymous":false,"inputs":[{"indexed":true,"internalType":"address","name":"user","type":"address"},{"indexed":false,"internalType":"uint256","name":"amount","type":"uint256"}],"name":"TokenApprovalChecked","type":"event"},{"anonymous":false,"inputs":[{"indexed":true,"internalType":"address","name":"buyer","type":"address"},{"indexed":false,"internalType":"uint256","name":"hbarAmount","type":"uint256"},{"indexed":false,"internalType":"uint256","name":"tokenAmount","type":"uint256"}],"name":"TokensPurchased","type":"event"},{"anonymous":false,"inputs":[{"indexed":false,"internalType":"address","name":"account","type":"address"}],"name":"Unpaused","type":"event"},{"inputs":[],"name":"ADMIN_ROLE","outputs":[{"internalType":"bytes32","name":"","type":"bytes32"}],"stateMutability":"view","type":"function"},{"inputs":[],"name":"COMPLIANCE_ROLE","outputs":[{"internalType":"bytes32","name":"","type":"bytes32"}],"stateMutability":"view","type":"function"},{"inputs":[],"name":"DEFAULT_ADMIN_ROLE","outputs":[{"internalType":"bytes32","name":"","type":"bytes32"}],"stateMutability":"view","type":"function"},{"inputs":[],"name":"EXCHANGE_RATE","outputs":[{"internalType":"uint256","name":"","type":"uint256"}],"stateMutability":"view","type":"function"},{"inputs":[],"name":"GAS_LIMIT","outputs":[{"internalType":"uint256","name":"","type":"uint256"}],"stateMutability":"view","type":"function"},{"inputs":[{"internalType":"uint256","name":"tokenAmount","type":"uint256"}],"name":"buyTokens","outputs":[],"stateMutability":"payable","type":"function"},{"inputs":[{"internalType":"uint256","name":"amount","type":"uint256"}],"name":"checkAndApproveTokenAllowance","outputs":[],"stateMutability":"nonpayable","type":"function"},{"inputs":[{"internalType":"bytes32","name":"role","type":"bytes32"}],"name":"getRoleAdmin","outputs":[{"internalType":"bytes32","name":"","type":"bytes32"}],"stateMutability":"view","type":"function"},{"inputs":[{"internalType":"address","name":"user","type":"address"}],"name":"getUserLicenses","outputs":[{"internalType":"bytes32[]","name":"","type":"bytes32[]"}],"stateMutability":"view","type":"function"},{"inputs":[{"internalType":"bytes32","name":"role","type":"bytes32"},{"internalType":"address","name":"account","type":"address"}],"name":"grantRole","outputs":[],"stateMutability":"nonpayable","type":"function"},{"inputs":[{"internalType":"bytes32","name":"role","type":"bytes32"},{"internalType":"address","name":"account","type":"address"}],"name":"hasRole","outputs":[{"internalType":"bool","name":"","type":"bool"}],"stateMutability":"view","type":"function"},{"inputs":[{"internalType":"bytes32","name":"licenseId","type":"bytes32"}],"name":"isValidLicense","outputs":[{"internalType":"bool","name":"","type":"bool"}],"stateMutability":"view","type":"function"},{"inputs":[{"internalType":"bytes32","name":"","type":"bytes32"}],"name":"licenses","outputs":[{"internalType":"address","name":"licensee","type":"address"},{"internalType":"string","name":"datasetCid","type":"string"},{"internalType":"uint256","name":"purchaseTimestamp","type":"uint256"},{"internalType":"uint256","name":"expirationTimestamp","type":"uint256"},{"internalType":"bool","name":"isActive","type":"bool"}],"stateMutability":"view","type":"function"},{"inputs":[],"name":"pause","outputs":[],"stateMutability":"nonpayable","type":"function"},{"inputs":[],"name":"paused","outputs":[{"internalType":"bool","name":"","type":"bool"}],"stateMutability":"view","type":"function"},{"inputs":[{"internalType":"string","name":"datasetCid","type":"string"}],"name":"purchaseLicense","outputs":[],"stateMutability":"nonpayable","type":"function"},{"inputs":[],"name":"registry","outputs":[{"internalType":"contract DatasetRegistry","name":"","type":"address"}],"stateMutability":"view","type":"function"},{"inputs":[{"internalType":"bytes32","name":"role","type":"bytes32"},{"internalType":"address","name":"account","type":"address"}],"name":"renounceRole","outputs":[],"stateMutability":"nonpayable","type":"function"},{"inputs":[{"internalType":"string","name":"datasetCid","type":"string"},{"internalType":"address","name":"licensee","type":"address"}],"name":"revokeLicense","outputs":[],"stateMutability":"nonpayable","type":"function"},{"inputs":[{"internalType":"bytes32","name":"role","type":"bytes32"},{"internalType":"address","name":"account","type":"address"}],"name":"revokeRole","outputs":[],"stateMutability":"nonpayable","type":"function"},{"inputs":[{"internalType":"bytes4","name":"interfaceId","type":"bytes4"}],"name":"supportsInterface","outputs":[{"internalType":"bool","name":"","type":"bool"}],"stateMutability":"view","type":"function"},{"inputs":[],"name":"token","outputs":[{"internalType":"contract DatasetToken","name":"","type":"address"}],"stateMutability":"view","type":"function"},{"inputs":[],"name":"unpause","outputs":[],"stateMutability":"nonpayable","type":"function"},{"inputs":[{"internalType":"address","name":"","type":"address"},{"internalType":"string","name":"","type":"string"}],"name":"userDatasetLicenses","outputs":[{"internalType":"bytes32","name":"","type":"bytes32"}],"stateMutability":"view","type":"function"},{"inputs":[{"internalType":"address","name":"","type":"address"},{"internalType":"uint256","name":"","type":"uint256"}],"name":"userLicenses","outputs":[{"internalType":"bytes32","name":"","type":"bytes32"}],"stateMutability":"view","type":"function"}],"evm":{"bytecode":{"linkReferences":{},"object":"6080346200028f57620021b690601f38839003908101601f19168201906001600160401b038211838310176200029457808391604095869485528339810103126200028f576200004f81620002aa565b6200005e6020809301620002aa565b600154906001600160a01b0390838216156200024b571691821562000207576001600160a81b031990911660089190911b610100600160a81b031617600155600280546001600160a01b031916919091179055600080805280825282812033825282528281205460ff1615620001cf575b7fa49807205ce4d355092ef5a8a18f56e8913cf4a201fbe287825b095693c21775808252818352838220338352835260ff84832054161562000195575b507f442a94f1a1fac79af32856af2a64f63648cfa2ef3b98610a5bb7cbec4cee698591828252818152838220338352815260ff8483205416156200015a575b8351611ed69081620002c08239f35b8282528181528382209033835252828120600160ff19825416179055339160008051602062002196833981519152339280a43880806200014b565b8082528183528382203383528352838220600160ff1982541617905533903390600080516020620021968339815191528480a4386200010c565b8080528082528281203382528252828120600160ff19825416179055333382600080516020620021968339815191528180a4620000cf565b845162461bcd60e51b815260048101859052601860248201527f496e76616c6964207265676973747279206164647265737300000000000000006044820152606490fd5b855162461bcd60e51b815260048101869052601560248201527f496e76616c696420746f6b656e206164647265737300000000000000000000006044820152606490fd5b600080fd5b634e487b7160e01b600052604160045260246000fd5b51906001600160a01b03821682036200028f5756fe608080604052600436101561001357600080fd5b600090813560e01c90816301ffc9a7146116c657508063062d3bd71461168b578063091d27881461166d57806314a8bd0d14611650578063248a9ca3146116245780632f2ff15d1461157657806331745c5d146114fa5780633610724e146112f957806336568abe146112665780633f4ba83a146111d1578063454c1d311461117b5780635c975abb1461115857806374e078dc14610e3c57806375a106c314610d8e57806375b238fc14610d535780637b10399914610d2a5780638456cb5914610cd057806391d1485414610c85578063a217fddf14610c69578063ba810a4a14610bc0578063c5703e5e14610402578063cde74e5114610384578063d547741f14610344578063dd40222d146101635763fc0c546a1461013457600080fd5b3461016057806003193601126101605760015460405160089190911c6001600160a01b03168152602090f35b80fd5b503461016057602080600319360112610340576004359081156102fc57600154604051636eb1769f60e11b815233600482015230602482015260089190911c6001600160a01b0316908281604481855afa80156102f157849186916102bb575b50106101f9575b507fd77f6026a9a673fa73b17897e7995a1103bb5a14b6e6ff141f5a3d4eb835457c906040519283523392a280f35b60405163095ea7b360e01b8152306004820152602481018490529082908290604490829088905af19081156102b0578491610277575b501561023b57386101ca565b6064906040519062461bcd60e51b825260048201526015602482015274151bdad95b88185c1c1c9bdd985b0819985a5b1959605a1b6044820152fd5b90508181813d83116102a9575b61028e8183611795565b810103126102a55761029f90611dc5565b3861022f565b8380fd5b503d610284565b6040513d86823e3d90fd5b809250848092503d83116102ea575b6102d48183611795565b810103126102e557839051386101c3565b600080fd5b503d6102ca565b6040513d87823e3d90fd5b6064906040519062461bcd60e51b82526004820152601d60248201527f416d6f756e74206d7573742062652067726561746572207468616e20300000006044820152fd5b5080fd5b50346101605760403660031901126101605761038160043561036461171b565b908084528360205261037c6001604086200154611b27565b611c31565b80f35b503461016057602036600319011261016057600435815260036020526040902080546001600160a01b03166103bb6001830161188f565b9160028101549060ff6004600383015492015416906103ec604051958695865260a0602087015260a0860190611935565b9260408501526060840152151560808301520390f35b50346101605760203660031901126101605767ffffffffffffffff600435818111610bbc576104359036906004016117d3565b9061043e611e17565b6002546040516307eec9a760e21b8152602060048201526001600160a01b03929160249086908390861681806104768682018b611935565b03915afa928315610bb15786928793889589928a908b92610b00575b50610aaf57610a76578115610a255733895260056020526040892060206040518092826104c58d8481519384920161181a565b820190815203019020548015908115610a0b575b50156109ce576103e8808302928304036109bb57600154604051636eb1769f60e11b815233600482015230602482015260089190911c881690602081604481855afa80156109b05784918c9161097b575b50106108fb5760646020928b8a9360405196879586946323b872dd60e01b8652336004870152168a85015260448401525af19081156108f05788916108b2575b501561086e5760405160208101903360601b82526105ae6054828a51610598818d602060348601910161181a565b8101426034820152036034810184520182611795565b519020946301e133804201421161085b57604051916105cc83611747565b338352602083018881524260408501526301e133804201606085015260016080850152878a52600360205260408a20928451166bffffffffffffffffffffffff60a01b8454161783555180519182116108485761062c6001840154611855565b601f8111610803575b50602090601f8311600114610794579180608094926004948d92610789575b50508160011b916000199060031b1c19161760018201555b604084015160028201556060840151600382015501910151151560ff80198354169116179055338652600460205260408620805491680100000000000000008310156107775750610761926106ec836107539360017f0f7a6a93cc87f3c3ddcee49509d83978b1d5c57288095fd0b07e6ab7ae6a8c92989601815561183d565b81549060031b9088821b91600019901b19161790553388526005602052856040892060206040518092826107268d8481519384920161181a565b8201908152030190205561074560405197608089526080890190611935565b908782036020890152611935565b908582036040870152611935565b926301e13380420160608201528033940390a380f35b634e487b7160e01b8852604160045287fd5b015190503880610654565b600184018b5260208b209190601f1984168c5b8181106107eb575092600192859260049660809896106107d2575b505050811b01600182015561066c565b015160001960f88460031b161c191690553880806107c2565b929360206001819287860151815501950193016107a7565b600184018b5260208b20601f840160051c810160208510610841575b601f830160051c82018110610835575050610635565b6000815560010161081f565b508061081f565b634e487b7160e01b8a526041600452848afd5b634e487b7160e01b885260116004528288fd5b60405162461bcd60e51b815260206004820152601e818401527f546f6b656e207472616e7366657220746f206f776e6572206661696c656400006044820152606490fd5b90506020813d6020116108e8575b816108cd60209383611795565b810103126108e4576108de90611dc5565b3861056a565b8780fd5b3d91506108c0565b6040513d8a823e3d90fd5b60405162461bcd60e51b815260206004820152604d818701527f496e73756666696369656e7420746f6b656e20616c6c6f77616e63652e20506c60448201527f656173652063616c6c20636865636b416e64417070726f7665546f6b656e416c60648201526c1b1bddd85b98d948199a5c9cdd609a1b608482015260a490fd5b9150506020813d6020116109a8575b8161099760209383611795565b810103126102e5578390513861052a565b3d915061098a565b6040513d8d823e3d90fd5b634e487b7160e01b895260116004528389fd5b60405162461bcd60e51b815260206004820152601681860152754c6963656e736520616c72656164792061637469766560501b6044820152606490fd5b8a52506003602052604089206004015460ff1615386104d9565b60405162461bcd60e51b8152602060048201528085018590527f44617461736574207072696365206d75737420626520677265617465722074686044820152630616e20360e41b6064820152608490fd5b60405162461bcd60e51b8152602060048201526012818601527111185d185cd95d081a5cc81c995b5bdd995960721b6044820152606490fd5b60405162461bcd60e51b8152602060048201528086018690527f44617461736574206973207075626c69632c206e6f206c6963656e7365206e656044820152631959195960e21b6064820152608490fd5b97505050505091503d8087853e610b178185611795565b83019161010084840312610bad5783519385851685036108e4576020810151828111610ba95784610b49918301611dd2565b506040810151828111610ba95784610b62918301611dd2565b93606082015190838211610ba557610b7b918301611dd2565b93608082015195610b9a60c0610b9360a08601611dc5565b9401611dc5565b909195969238610492565b8980fd5b8880fd5b8680fd5b6040513d88823e3d90fd5b8280fd5b5034610160576020366003190112610160576004358082526003602090815260408084205491936080936001600160a01b0393610c009085161515611e5b565b815260038552209060405190610c1582611747565b8254168152610c266001830161188f565b848201526002820154604082015260ff60046003840154938460608501520154161515928391015281610c5f575b506040519015158152f35b9050421038610c54565b5034610160578060031936011261016057602090604051908152f35b5034610160576040366003190112610160576040610ca161171b565b91600435815280602052209060018060a01b0316600052602052602060ff604060002054166040519015158152f35b5034610160578060031936011261016057610ce961195a565b610cf1611e17565b600160ff19815416176001557f62e78cea01bee320cd4e420270b5ea74000d11b0c9f74754ebdbfc544b05a2586020604051338152a180f35b50346101605780600319360112610160576002546040516001600160a01b039091168152602090f35b503461016057806003193601126101605760206040517fa49807205ce4d355092ef5a8a18f56e8913cf4a201fbe287825b095693c217758152f35b503461016057602080600319360112610340576001600160a01b03610db1611731565b168252600481526040822060405192838383549182815201908193835284832090835b818110610e285750505084610dea910385611795565b60405193838594850191818652518092526040850193925b828110610e1157505050500390f35b835185528695509381019392810192600101610e02565b825484529286019260019283019201610dd4565b50346101605760403660031901126101605760043567ffffffffffffffff811161034057610e6e9036906004016117d3565b610e7661171b565b3360009081527f335573aa7cafba10a32e2694464d1e7e5294d917876d04d506249fbf84d791af6020908152604090912054909291907f442a94f1a1fac79af32856af2a64f63648cfa2ef3b98610a5bb7cbec4cee69859060ff1615610fb25750610f0c918391610ee5611e17565b6001600160a01b03168552600582526040808620905182519094859382908590870161181a565b8201908152030190205490610f22821515611e5b565b8183526003815260ff60046040852001541615610f76578183526003905260408220600401805460ff191690557f0cddff7d26fb450c5bd6fa66ef9bd79abd5f2424333c0381532898b0ef59638c8280a280f35b6064906040519062461bcd60e51b8252600482015260156024820152744c6963656e7365206973206e6f742061637469766560581b6044820152fd5b83610fbc33611cb6565b91604051610fc981611779565b604281528281019160603684378151156111425760308353815160019081101561114257607860218401536041905b8082116110e85750506110a557611071936110809260489260405196879376020b1b1b2b9b9a1b7b73a3937b61d1030b1b1b7bab73a1604d1b88860152611048815180928a60378901910161181a565b8401917001034b99036b4b9b9b4b733903937b6329607d1b60378401525180938684019061181a565b01036028810185520183611795565b6110a160405192839262461bcd60e51b845260048401526024830190611935565b0390fd5b6064836040519062461bcd60e51b825280600483015260248201527f537472696e67733a20686578206c656e67746820696e73756666696369656e746044820152fd5b9091600f81166010811015611142576f181899199a1a9b1b9c1cb0b131b232b360811b901a6111178486611ca5565b5360041c91801561112c576000190190610ff8565b634e487b7160e01b600052601160045260246000fd5b634e487b7160e01b600052603260045260246000fd5b5034610160578060031936011261016057602060ff600154166040519015158152f35b503461016057604036600319011261016057611195611731565b6001600160a01b03168152600460205260408120805460243592908310156101605760206111c3848461183d565b90546040519160031b1c8152f35b50346101605780600319360112610160576111ea61195a565b60015460ff81161561122a5760ff19166001557f5db9ee0a495bf2e6ff9c91a7834c1ba4fdd244a5e8aa4e537bd38aeae4b073aa6020604051338152a180f35b60405162461bcd60e51b815260206004820152601460248201527314185d5cd8589b194e881b9bdd081c185d5cd95960621b6044820152606490fd5b50346101605760403660031901126101605761128061171b565b336001600160a01b0382160361129c5761038190600435611c31565b60405162461bcd60e51b815260206004820152602f60248201527f416363657373436f6e74726f6c3a2063616e206f6e6c792072656e6f756e636560448201526e103937b632b9903337b91039b2b63360891b6064820152608490fd5b5060208060031936011261034057600435611312611e17565b80156114a9576103e881049182341061146c5760015460081c6001600160a01b0316803b15611468576040516340c10f1960e01b8152336004820152602481018490529085908290604490829084905af180156102f157611438575b508234116113a9575b6040519283528201527f8fafebcaf9d154343dad25669bfa277f4fbacd7ac6b0c4fed522580e040a0f3360403392a280f35b823403348111611424578480808093335af13d1561141f573d6113cb816117b7565b906113d96040519283611795565b815285833d92013e5b611377576064906040519062461bcd60e51b82526004820152601260248201527112109054881c99599d5b990819985a5b195960721b6044820152fd5b6113e2565b634e487b7160e01b85526011600452602485fd5b67ffffffffffffffff819592951161145457604052923861136e565b634e487b7160e01b82526041600452602482fd5b8480fd5b6064906040519062461bcd60e51b825260048201526016602482015275125b9cdd59999a58da595b9d0812109054881cd95b9d60521b6044820152fd5b60405162461bcd60e51b815260048101839052602360248201527f546f6b656e20616d6f756e74206d75737420626520677265617465722074686160448201526206e20360ec1b6064820152608490fd5b503461016057604036600319011261016057611514611731565b60243567ffffffffffffffff8111610bbc5761156491604060209461153e869436906004016117d3565b6001600160a01b039093168152600584522060405182519094859382908590870161181a565b82019081520301902054604051908152f35b50346101605760403660031901126101605760043561159361171b565b818352826020526115aa6001604085200154611b27565b818352602083815260408085206001600160a01b039093168086529290915283205460ff16156115d8578280f35b818352826020526040832081845260205260408320600160ff1982541617905533917f2f8788117e7eff1d82e926ec794901d17c78024a50270940304540a733656f0d8480a438808280f35b503461016057602036600319011261016057600160406020926004358152808452200154604051908152f35b503461016057806003193601126101605760206040516103e88152f35b503461016057806003193601126101605760206040516207a1208152f35b503461016057806003193601126101605760206040517f442a94f1a1fac79af32856af2a64f63648cfa2ef3b98610a5bb7cbec4cee69858152f35b9050346103405760203660031901126103405760043563ffffffff60e01b8116809103610bbc5760209250637965db0b60e01b811490811561170a575b5015158152f35b6301ffc9a760e01b14905038611703565b602435906001600160a01b03821682036102e557565b600435906001600160a01b03821682036102e557565b60a0810190811067ffffffffffffffff82111761176357604052565b634e487b7160e01b600052604160045260246000fd5b6080810190811067ffffffffffffffff82111761176357604052565b90601f8019910116810190811067ffffffffffffffff82111761176357604052565b67ffffffffffffffff811161176357601f01601f191660200190565b81601f820112156102e5578035906117ea826117b7565b926117f86040519485611795565b828452602083830101116102e557816000926020809301838601378301015290565b60005b83811061182d5750506000910152565b818101518382015260200161181d565b80548210156111425760005260206000200190600090565b90600182811c92168015611885575b602083101461186f57565b634e487b7160e01b600052602260045260246000fd5b91607f1691611864565b90604051918260008254926118a384611855565b90818452600194858116908160001461191257506001146118cf575b50506118cd92500383611795565b565b9093915060005260209081600020936000915b8183106118fa5750506118cd935082010138806118bf565b855488840185015294850194879450918301916118e2565b9150506118cd94506020925060ff191682840152151560051b82010138806118bf565b9060209161194e8151809281855285808601910161181a565b601f01601f1916010190565b3360009081527fad3228b676f7d3cd4284a5443f17f1962b36e491b30a40b2405849e597ba5fb5602090815260408083205490929060ff161561199c57505050565b6119a533611cb6565b90808451906119b382611779565b60428252848201926060368537825115611b135760308453825190600191821015611b135790607860218501536041915b818311611aa557505050611a635760486110a1938693611a4793611a38985198899376020b1b1b2b9b9a1b7b73a3937b61d1030b1b1b7bab73a1604d1b8a860152611048815180928c60378901910161181a565b01036028810187520185611795565b5192839262461bcd60e51b845260048401526024830190611935565b60648486519062461bcd60e51b825280600483015260248201527f537472696e67733a20686578206c656e67746820696e73756666696369656e746044820152fd5b909192600f81166010811015611aff576f181899199a1a9b1b9c1cb0b131b232b360811b901a611ad58587611ca5565b5360041c928015611aeb576000190191906119e4565b634e487b7160e01b82526011600452602482fd5b634e487b7160e01b83526032600452602483fd5b634e487b7160e01b81526032600452602490fd5b600090808252602090828252604092838120338252835260ff848220541615611b505750505050565b611b5933611cb6565b91845190611b6682611779565b60428252848201926060368537825115611b135760308453825190600191821015611b135790607860218501536041915b818311611beb57505050611a635760486110a1938693611a4793611a38985198899376020b1b1b2b9b9a1b7b73a3937b61d1030b1b1b7bab73a1604d1b8a860152611048815180928c60378901910161181a565b909192600f81166010811015611aff576f181899199a1a9b1b9c1cb0b131b232b360811b901a611c1b8587611ca5565b5360041c928015611aeb57600019019190611b97565b9060009180835282602052604083209160018060a01b03169182845260205260ff604084205416611c6157505050565b80835282602052604083208284526020526040832060ff1981541690557ff6391f5c32d9c69d2a47ea670b442974b53935d1edc7fd64eb21e047a839171b339380a4565b908151811015611142570160200190565b604051906060820182811067ffffffffffffffff82111761176357604052602a82526020820160403682378251156111425760309053815160019081101561114257607860218401536029905b808211611d57575050611d135790565b606460405162461bcd60e51b815260206004820152602060248201527f537472696e67733a20686578206c656e67746820696e73756666696369656e746044820152fd5b9091600f81166010811015611db0576f181899199a1a9b1b9c1cb0b131b232b360811b901a611d868486611ca5565b5360041c918015611d9b576000190190611d03565b60246000634e487b7160e01b81526011600452fd5b60246000634e487b7160e01b81526032600452fd5b519081151582036102e557565b81601f820112156102e5578051611de8816117b7565b92611df66040519485611795565b818452602082840101116102e557611e14916020808501910161181a565b90565b60ff60015416611e2357565b60405162461bcd60e51b815260206004820152601060248201526f14185d5cd8589b194e881c185d5cd95960821b6044820152606490fd5b15611e6257565b60405162461bcd60e51b8152602060048201526016602482015275131a58d95b9cd948191bd95cc81b9bdd08195e1a5cdd60521b6044820152606490fdfea2646970667358221220db6387ed2908c964d7df2a4ea51edf498e7f2bfbb19a44df79583c49f74ee3be64736f6c634300081300332f8788117e7eff1d82e926ec794901d17c78024a50270940304540a733656f0d","opcodes":"PUSH1 0x80 CALLVALUE PUSH3 0x28F JUMPI PUSH3 0x21B6 SWAP1 PUSH1 0x1F CODESIZE DUP4 SWAP1 SUB SWAP1 DUP2 ADD PUSH1 0x1F NOT AND DUP3 ADD SWAP1 PUSH1 0x1 PUSH1 0x1 PUSH1 0x40 SHL SUB DUP3 GT DUP4 DUP4 LT OR PUSH3 0x294 JUMPI DUP1 DUP4 SWAP2 PUSH1 0x40 SWAP6 DUP7 SWAP5 DUP6 MSTORE DUP4 CODECOPY DUP2 ADD SUB SLT PUSH3 0x28F JUMPI PUSH3 0x4F DUP2 PUSH3 0x2AA JUMP JUMPDEST PUSH3 0x5E PUSH1 0x20 DUP1 SWAP4 ADD PUSH3 0x2AA JUMP JUMPDEST PUSH1 0x1 SLOAD SWAP1 PUSH1 0x1 PUSH1 0x1 PUSH1 0xA0 SHL SUB SWAP1 DUP4 DUP3 AND ISZERO PUSH3 0x24B JUMPI AND SWAP2 DUP3 ISZERO PUSH3 0x207 JUMPI PUSH1 0x1 PUSH1 0x1 PUSH1 0xA8 SHL SUB NOT SWAP1 SWAP2 AND PUSH1 0x8 SWAP2 SWAP1 SWAP2 SHL PUSH2 0x100 PUSH1 0x1 PUSH1 0xA8 SHL SUB AND OR PUSH1 0x1 SSTORE PUSH1 0x2 DUP1 SLOAD PUSH1 0x1 PUSH1 0x1 PUSH1 0xA0 SHL SUB NOT AND SWAP2 SWAP1 SWAP2 OR SWAP1 SSTORE PUSH1 0x0 DUP1 DUP1 MSTORE DUP1 DUP3 MSTORE DUP3 DUP2 KECCAK256 CALLER DUP3 MSTORE DUP3 MSTORE DUP3 DUP2 KECCAK256 SLOAD PUSH1 0xFF AND ISZERO PUSH3 0x1CF JUMPI JUMPDEST PUSH32 0xA49807205CE4D355092EF5A8A18F56E8913CF4A201FBE287825B095693C21775 DUP1 DUP3 MSTORE DUP2 DUP4 MSTORE DUP4 DUP3 KECCAK256 CALLER DUP4 MSTORE DUP4 MSTORE PUSH1 0xFF DUP5 DUP4 KECCAK256 SLOAD AND ISZERO PUSH3 0x195 JUMPI JUMPDEST POP PUSH32 0x442A94F1A1FAC79AF32856AF2A64F63648CFA2EF3B98610A5BB7CBEC4CEE6985 SWAP2 DUP3 DUP3 MSTORE DUP2 DUP2 MSTORE DUP4 DUP3 KECCAK256 CALLER DUP4 MSTORE DUP2 MSTORE PUSH1 0xFF DUP5 DUP4 KECCAK256 SLOAD AND ISZERO PUSH3 0x15A JUMPI JUMPDEST DUP4 MLOAD PUSH2 0x1ED6 SWAP1 DUP2 PUSH3 0x2C0 DUP3 CODECOPY RETURN JUMPDEST DUP3 DUP3 MSTORE DUP2 DUP2 MSTORE DUP4 DUP3 KECCAK256 SWAP1 CALLER DUP4 MSTORE MSTORE DUP3 DUP2 KECCAK256 PUSH1 0x1 PUSH1 0xFF NOT DUP3 SLOAD AND OR SWAP1 SSTORE CALLER SWAP2 PUSH1 0x0 DUP1 MLOAD PUSH1 0x20 PUSH3 0x2196 DUP4 CODECOPY DUP2 MLOAD SWAP2 MSTORE CALLER SWAP3 DUP1 LOG4 CODESIZE DUP1 DUP1 PUSH3 0x14B JUMP JUMPDEST DUP1 DUP3 MSTORE DUP2 DUP4 MSTORE DUP4 DUP3 KECCAK256 CALLER DUP4 MSTORE DUP4 MSTORE DUP4 DUP3 KECCAK256 PUSH1 0x1 PUSH1 0xFF NOT DUP3 SLOAD AND OR SWAP1 SSTORE CALLER SWAP1 CALLER SWAP1 PUSH1 0x0 DUP1 MLOAD PUSH1 0x20 PUSH3 0x2196 DUP4 CODECOPY DUP2 MLOAD SWAP2 MSTORE DUP5 DUP1 LOG4 CODESIZE PUSH3 0x10C JUMP JUMPDEST DUP1 DUP1 MSTORE DUP1 DUP3 MSTORE DUP3 DUP2 KECCAK256 CALLER DUP3 MSTORE DUP3 MSTORE DUP3 DUP2 KECCAK256 PUSH1 0x1 PUSH1 0xFF NOT DUP3 SLOAD AND OR SWAP1 SSTORE CALLER CALLER DUP3 PUSH1 0x0 DUP1 MLOAD PUSH1 0x20 PUSH3 0x2196 DUP4 CODECOPY DUP2 MLOAD SWAP2 MSTORE DUP2 DUP1 LOG4 PUSH3 0xCF JUMP JUMPDEST DUP5 MLOAD PUSH3 0x461BCD PUSH1 0xE5 SHL DUP2 MSTORE PUSH1 0x4 DUP2 ADD DUP6 SWAP1 MSTORE PUSH1 0x18 PUSH1 0x24 DUP3 ADD MSTORE PUSH32 0x496E76616C696420726567697374727920616464726573730000000000000000 PUSH1 0x44 DUP3 ADD MSTORE PUSH1 0x64 SWAP1 REVERT JUMPDEST DUP6 MLOAD PUSH3 0x461BCD PUSH1 0xE5 SHL DUP2 MSTORE PUSH1 0x4 DUP2 ADD DUP7 SWAP1 MSTORE PUSH1 0x15 PUSH1 0x24 DUP3 ADD MSTORE PUSH32 0x496E76616C696420746F6B656E20616464726573730000000000000000000000 PUSH1 0x44 DUP3 ADD MSTORE PUSH1 0x64 SWAP1 REVERT JUMPDEST PUSH1 0x0 DUP1 REVERT JUMPDEST PUSH4 0x4E487B71 PUSH1 0xE0 SHL PUSH1 0x0 MSTORE PUSH1 0x41 PUSH1 0x4 MSTORE PUSH1 0x24 PUSH1 0x0 REVERT JUMPDEST MLOAD SWAP1 PUSH1 0x1 PUSH1 0x1 PUSH1 0xA0 SHL SUB DUP3 AND DUP3 SUB PUSH3 0x28F JUMPI JUMP INVALID PUSH1 0x80 DUP1 PUSH1 0x40 MSTORE PUSH1 0x4 CALLDATASIZE LT ISZERO PUSH2 0x13 JUMPI PUSH1 0x0 DUP1 REVERT JUMPDEST PUSH1 0x0 SWAP1 DUP2 CALLDATALOAD PUSH1 0xE0 SHR SWAP1 DUP2 PUSH4 0x1FFC9A7 EQ PUSH2 0x16C6 JUMPI POP DUP1 PUSH4 0x62D3BD7 EQ PUSH2 0x168B JUMPI DUP1 PUSH4 0x91D2788 EQ PUSH2 0x166D JUMPI DUP1 PUSH4 0x14A8BD0D EQ PUSH2 0x1650 JUMPI DUP1 PUSH4 0x248A9CA3 EQ PUSH2 0x1624 JUMPI DUP1 PUSH4 0x2F2FF15D EQ PUSH2 0x1576 JUMPI DUP1 PUSH4 0x31745C5D EQ PUSH2 0x14FA JUMPI DUP1 PUSH4 0x3610724E EQ PUSH2 0x12F9 JUMPI DUP1 PUSH4 0x36568ABE EQ PUSH2 0x1266 JUMPI DUP1 PUSH4 0x3F4BA83A EQ PUSH2 0x11D1 JUMPI DUP1 PUSH4 0x454C1D31 EQ PUSH2 0x117B JUMPI DUP1 PUSH4 0x5C975ABB EQ PUSH2 0x1158 JUMPI DUP1 PUSH4 0x74E078DC EQ PUSH2 0xE3C JUMPI DUP1 PUSH4 0x75A106C3 EQ PUSH2 0xD8E JUMPI DUP1 PUSH4 0x75B238FC EQ PUSH2 0xD53 JUMPI DUP1 PUSH4 0x7B103999 EQ PUSH2 0xD2A JUMPI DUP1 PUSH4 0x8456CB59 EQ PUSH2 0xCD0 JUMPI DUP1 PUSH4 0x91D14854 EQ PUSH2 0xC85 JUMPI DUP1 PUSH4 0xA217FDDF EQ PUSH2 0xC69 JUMPI DUP1 PUSH4 0xBA810A4A EQ PUSH2 0xBC0 JUMPI DUP1 PUSH4 0xC5703E5E EQ PUSH2 0x402 JUMPI DUP1 PUSH4 0xCDE74E51 EQ PUSH2 0x384 JUMPI DUP1 PUSH4 0xD547741F EQ PUSH2 0x344 JUMPI DUP1 PUSH4 0xDD40222D EQ PUSH2 0x163 JUMPI PUSH4 0xFC0C546A EQ PUSH2 0x134 JUMPI PUSH1 0x0 DUP1 REVERT JUMPDEST CALLVALUE PUSH2 0x160 JUMPI DUP1 PUSH1 0x3 NOT CALLDATASIZE ADD SLT PUSH2 0x160 JUMPI PUSH1 0x1 SLOAD PUSH1 0x40 MLOAD PUSH1 0x8 SWAP2 SWAP1 SWAP2 SHR PUSH1 0x1 PUSH1 0x1 PUSH1 0xA0 SHL SUB AND DUP2 MSTORE PUSH1 0x20 SWAP1 RETURN JUMPDEST DUP1 REVERT JUMPDEST POP CALLVALUE PUSH2 0x160 JUMPI PUSH1 0x20 DUP1 PUSH1 0x3 NOT CALLDATASIZE ADD SLT PUSH2 0x340 JUMPI PUSH1 0x4 CALLDATALOAD SWAP1 DUP2 ISZERO PUSH2 0x2FC JUMPI PUSH1 0x1 SLOAD PUSH1 0x40 MLOAD PUSH4 0x6EB1769F PUSH1 0xE1 SHL DUP2 MSTORE CALLER PUSH1 0x4 DUP3 ADD MSTORE ADDRESS PUSH1 0x24 DUP3 ADD MSTORE PUSH1 0x8 SWAP2 SWAP1 SWAP2 SHR PUSH1 0x1 PUSH1 0x1 PUSH1 0xA0 SHL SUB AND SWAP1 DUP3 DUP2 PUSH1 0x44 DUP2 DUP6 GAS STATICCALL DUP1 ISZERO PUSH2 0x2F1 JUMPI DUP5 SWAP2 DUP7 SWAP2 PUSH2 0x2BB JUMPI JUMPDEST POP LT PUSH2 0x1F9 JUMPI JUMPDEST POP PUSH32 0xD77F6026A9A673FA73B17897E7995A1103BB5A14B6E6FF141F5A3D4EB835457C SWAP1 PUSH1 0x40 MLOAD SWAP3 DUP4 MSTORE CALLER SWAP3 LOG2 DUP1 RETURN JUMPDEST PUSH1 0x40 MLOAD PUSH4 0x95EA7B3 PUSH1 0xE0 SHL DUP2 MSTORE ADDRESS PUSH1 0x4 DUP3 ADD MSTORE PUSH1 0x24 DUP2 ADD DUP5 SWAP1 MSTORE SWAP1 DUP3 SWAP1 DUP3 SWAP1 PUSH1 0x44 SWAP1 DUP3 SWAP1 DUP9 SWAP1 GAS CALL SWAP1 DUP2 ISZERO PUSH2 0x2B0 JUMPI DUP5 SWAP2 PUSH2 0x277 JUMPI JUMPDEST POP ISZERO PUSH2 0x23B JUMPI CODESIZE PUSH2 0x1CA JUMP JUMPDEST PUSH1 0x64 SWAP1 PUSH1 0x40 MLOAD SWAP1 PUSH3 0x461BCD PUSH1 0xE5 SHL DUP3 MSTORE PUSH1 0x4 DUP3 ADD MSTORE PUSH1 0x15 PUSH1 0x24 DUP3 ADD MSTORE PUSH21 0x151BDAD95B88185C1C1C9BDD985B0819985A5B1959 PUSH1 0x5A SHL PUSH1 0x44 DUP3 ADD MSTORE REVERT JUMPDEST SWAP1 POP DUP2 DUP2 DUP2 RETURNDATASIZE DUP4 GT PUSH2 0x2A9 JUMPI JUMPDEST PUSH2 0x28E DUP2 DUP4 PUSH2 0x1795 JUMP JUMPDEST DUP2 ADD SUB SLT PUSH2 0x2A5 JUMPI PUSH2 0x29F SWAP1 PUSH2 0x1DC5 JUMP JUMPDEST CODESIZE PUSH2 0x22F JUMP JUMPDEST DUP4 DUP1 REVERT JUMPDEST POP RETURNDATASIZE PUSH2 0x284 JUMP JUMPDEST PUSH1 0x40 MLOAD RETURNDATASIZE DUP7 DUP3 RETURNDATACOPY RETURNDATASIZE SWAP1 REVERT JUMPDEST DUP1 SWAP3 POP DUP5 DUP1 SWAP3 POP RETURNDATASIZE DUP4 GT PUSH2 0x2EA JUMPI JUMPDEST PUSH2 0x2D4 DUP2 DUP4 PUSH2 0x1795 JUMP JUMPDEST DUP2 ADD SUB SLT PUSH2 0x2E5 JUMPI DUP4 SWAP1 MLOAD CODESIZE PUSH2 0x1C3 JUMP JUMPDEST PUSH1 0x0 DUP1 REVERT JUMPDEST POP RETURNDATASIZE PUSH2 0x2CA JUMP JUMPDEST PUSH1 0x40 MLOAD RETURNDATASIZE DUP8 DUP3 RETURNDATACOPY RETURNDATASIZE SWAP1 REVERT JUMPDEST PUSH1 0x64 SWAP1 PUSH1 0x40 MLOAD SWAP1 PUSH3 0x461BCD PUSH1 0xE5 SHL DUP3 MSTORE PUSH1 0x4 DUP3 ADD MSTORE PUSH1 0x1D PUSH1 0x24 DUP3 ADD MSTORE PUSH32 0x416D6F756E74206D7573742062652067726561746572207468616E2030000000 PUSH1 0x44 DUP3 ADD MSTORE REVERT JUMPDEST POP DUP1 REVERT JUMPDEST POP CALLVALUE PUSH2 0x160 JUMPI PUSH1 0x40 CALLDATASIZE PUSH1 0x3 NOT ADD SLT PUSH2 0x160 JUMPI PUSH2 0x381 PUSH1 0x4 CALLDATALOAD PUSH2 0x364 PUSH2 0x171B JUMP JUMPDEST SWAP1 DUP1 DUP5 MSTORE DUP4 PUSH1 0x20 MSTORE PUSH2 0x37C PUSH1 0x1 PUSH1 0x40 DUP7 KECCAK256 ADD SLOAD PUSH2 0x1B27 JUMP JUMPDEST PUSH2 0x1C31 JUMP JUMPDEST DUP1 RETURN JUMPDEST POP CALLVALUE PUSH2 0x160 JUMPI PUSH1 0x20 CALLDATASIZE PUSH1 0x3 NOT ADD SLT PUSH2 0x160 JUMPI PUSH1 0x4 CALLDATALOAD DUP2 MSTORE PUSH1 0x3 PUSH1 0x20 MSTORE PUSH1 0x40 SWAP1 KECCAK256 DUP1 SLOAD PUSH1 0x1 PUSH1 0x1 PUSH1 0xA0 SHL SUB AND PUSH2 0x3BB PUSH1 0x1 DUP4 ADD PUSH2 0x188F JUMP JUMPDEST SWAP2 PUSH1 0x2 DUP2 ADD SLOAD SWAP1 PUSH1 0xFF PUSH1 0x4 PUSH1 0x3 DUP4 ADD SLOAD SWAP3 ADD SLOAD AND SWAP1 PUSH2 0x3EC PUSH1 0x40 MLOAD SWAP6 DUP7 SWAP6 DUP7 MSTORE PUSH1 0xA0 PUSH1 0x20 DUP8 ADD MSTORE PUSH1 0xA0 DUP7 ADD SWAP1 PUSH2 0x1935 JUMP JUMPDEST SWAP3 PUSH1 0x40 DUP6 ADD MSTORE PUSH1 0x60 DUP5 ADD MSTORE ISZERO ISZERO PUSH1 0x80 DUP4 ADD MSTORE SUB SWAP1 RETURN JUMPDEST POP CALLVALUE PUSH2 0x160 JUMPI PUSH1 0x20 CALLDATASIZE PUSH1 0x3 NOT ADD SLT PUSH2 0x160 JUMPI PUSH8 0xFFFFFFFFFFFFFFFF PUSH1 0x4 CALLDATALOAD DUP2 DUP2 GT PUSH2 0xBBC JUMPI PUSH2 0x435 SWAP1 CALLDATASIZE SWAP1 PUSH1 0x4 ADD PUSH2 0x17D3 JUMP JUMPDEST SWAP1 PUSH2 0x43E PUSH2 0x1E17 JUMP JUMPDEST PUSH1 0x2 SLOAD PUSH1 0x40 MLOAD PUSH4 0x7EEC9A7 PUSH1 0xE2 SHL DUP2 MSTORE PUSH1 0x20 PUSH1 0x4 DUP3 ADD MSTORE PUSH1 0x1 PUSH1 0x1 PUSH1 0xA0 SHL SUB SWAP3 SWAP2 PUSH1 0x24 SWAP1 DUP7 SWAP1 DUP4 SWAP1 DUP7 AND DUP2 DUP1 PUSH2 0x476 DUP7 DUP3 ADD DUP12 PUSH2 0x1935 JUMP JUMPDEST SUB SWAP2 GAS STATICCALL SWAP3 DUP4 ISZERO PUSH2 0xBB1 JUMPI DUP7 SWAP3 DUP8 SWAP4 DUP9 SWAP6 DUP10 SWAP3 DUP11 SWAP1 DUP12 SWAP3 PUSH2 0xB00 JUMPI JUMPDEST POP PUSH2 0xAAF JUMPI PUSH2 0xA76 JUMPI DUP2 ISZERO PUSH2 0xA25 JUMPI CALLER DUP10 MSTORE PUSH1 0x5 PUSH1 0x20 MSTORE PUSH1 0x40 DUP10 KECCAK256 PUSH1 0x20 PUSH1 0x40 MLOAD DUP1 SWAP3 DUP3 PUSH2 0x4C5 DUP14 DUP5 DUP2 MLOAD SWAP4 DUP5 SWAP3 ADD PUSH2 0x181A JUMP JUMPDEST DUP3 ADD SWAP1 DUP2 MSTORE SUB ADD SWAP1 KECCAK256 SLOAD DUP1 ISZERO SWAP1 DUP2 ISZERO PUSH2 0xA0B JUMPI JUMPDEST POP ISZERO PUSH2 0x9CE JUMPI PUSH2 0x3E8 DUP1 DUP4 MUL SWAP3 DUP4 DIV SUB PUSH2 0x9BB JUMPI PUSH1 0x1 SLOAD PUSH1 0x40 MLOAD PUSH4 0x6EB1769F PUSH1 0xE1 SHL DUP2 MSTORE CALLER PUSH1 0x4 DUP3 ADD MSTORE ADDRESS PUSH1 0x24 DUP3 ADD MSTORE PUSH1 0x8 SWAP2 SWAP1 SWAP2 SHR DUP9 AND SWAP1 PUSH1 0x20 DUP2 PUSH1 0x44 DUP2 DUP6 GAS STATICCALL DUP1 ISZERO PUSH2 0x9B0 JUMPI DUP5 SWAP2 DUP13 SWAP2 PUSH2 0x97B JUMPI JUMPDEST POP LT PUSH2 0x8FB JUMPI PUSH1 0x64 PUSH1 0x20 SWAP3 DUP12 DUP11 SWAP4 PUSH1 0x40 MLOAD SWAP7 DUP8 SWAP6 DUP7 SWAP5 PUSH4 0x23B872DD PUSH1 0xE0 SHL DUP7 MSTORE CALLER PUSH1 0x4 DUP8 ADD MSTORE AND DUP11 DUP6 ADD MSTORE PUSH1 0x44 DUP5 ADD MSTORE GAS CALL SWAP1 DUP2 ISZERO PUSH2 0x8F0 JUMPI DUP9 SWAP2 PUSH2 0x8B2 JUMPI JUMPDEST POP ISZERO PUSH2 0x86E JUMPI PUSH1 0x40 MLOAD PUSH1 0x20 DUP2 ADD SWAP1 CALLER PUSH1 0x60 SHL DUP3 MSTORE PUSH2 0x5AE PUSH1 0x54 DUP3 DUP11 MLOAD PUSH2 0x598 DUP2 DUP14 PUSH1 0x20 PUSH1 0x34 DUP7 ADD SWAP2 ADD PUSH2 0x181A JUMP JUMPDEST DUP2 ADD TIMESTAMP PUSH1 0x34 DUP3 ADD MSTORE SUB PUSH1 0x34 DUP2 ADD DUP5 MSTORE ADD DUP3 PUSH2 0x1795 JUMP JUMPDEST MLOAD SWAP1 KECCAK256 SWAP5 PUSH4 0x1E13380 TIMESTAMP ADD TIMESTAMP GT PUSH2 0x85B JUMPI PUSH1 0x40 MLOAD SWAP2 PUSH2 0x5CC DUP4 PUSH2 0x1747 JUMP JUMPDEST CALLER DUP4 MSTORE PUSH1 0x20 DUP4 ADD DUP9 DUP2 MSTORE TIMESTAMP PUSH1 0x40 DUP6 ADD MSTORE PUSH4 0x1E13380 TIMESTAMP ADD PUSH1 0x60 DUP6 ADD MSTORE PUSH1 0x1 PUSH1 0x80 DUP6 ADD MSTORE DUP8 DUP11 MSTORE PUSH1 0x3 PUSH1 0x20 MSTORE PUSH1 0x40 DUP11 KECCAK256 SWAP3 DUP5 MLOAD AND PUSH12 0xFFFFFFFFFFFFFFFFFFFFFFFF PUSH1 0xA0 SHL DUP5 SLOAD AND OR DUP4 SSTORE MLOAD DUP1 MLOAD SWAP2 DUP3 GT PUSH2 0x848 JUMPI PUSH2 0x62C PUSH1 0x1 DUP5 ADD SLOAD PUSH2 0x1855 JUMP JUMPDEST PUSH1 0x1F DUP2 GT PUSH2 0x803 JUMPI JUMPDEST POP PUSH1 0x20 SWAP1 PUSH1 0x1F DUP4 GT PUSH1 0x1 EQ PUSH2 0x794 JUMPI SWAP2 DUP1 PUSH1 0x80 SWAP5 SWAP3 PUSH1 0x4 SWAP5 DUP14 SWAP3 PUSH2 0x789 JUMPI JUMPDEST POP POP DUP2 PUSH1 0x1 SHL SWAP2 PUSH1 0x0 NOT SWAP1 PUSH1 0x3 SHL SHR NOT AND OR PUSH1 0x1 DUP3 ADD SSTORE JUMPDEST PUSH1 0x40 DUP5 ADD MLOAD PUSH1 0x2 DUP3 ADD SSTORE PUSH1 0x60 DUP5 ADD MLOAD PUSH1 0x3 DUP3 ADD SSTORE ADD SWAP2 ADD MLOAD ISZERO ISZERO PUSH1 0xFF DUP1 NOT DUP4 SLOAD AND SWAP2 AND OR SWAP1 SSTORE CALLER DUP7 MSTORE PUSH1 0x4 PUSH1 0x20 MSTORE PUSH1 0x40 DUP7 KECCAK256 DUP1 SLOAD SWAP2 PUSH9 0x10000000000000000 DUP4 LT ISZERO PUSH2 0x777 JUMPI POP PUSH2 0x761 SWAP3 PUSH2 0x6EC DUP4 PUSH2 0x753 SWAP4 PUSH1 0x1 PUSH32 0xF7A6A93CC87F3C3DDCEE49509D83978B1D5C57288095FD0B07E6AB7AE6A8C92 SWAP9 SWAP7 ADD DUP2 SSTORE PUSH2 0x183D JUMP JUMPDEST DUP2 SLOAD SWAP1 PUSH1 0x3 SHL SWAP1 DUP9 DUP3 SHL SWAP2 PUSH1 0x0 NOT SWAP1 SHL NOT AND OR SWAP1 SSTORE CALLER DUP9 MSTORE PUSH1 0x5 PUSH1 0x20 MSTORE DUP6 PUSH1 0x40 DUP10 KECCAK256 PUSH1 0x20 PUSH1 0x40 MLOAD DUP1 SWAP3 DUP3 PUSH2 0x726 DUP14 DUP5 DUP2 MLOAD SWAP4 DUP5 SWAP3 ADD PUSH2 0x181A JUMP JUMPDEST DUP3 ADD SWAP1 DUP2 MSTORE SUB ADD SWAP1 KECCAK256 SSTORE PUSH2 0x745 PUSH1 0x40 MLOAD SWAP8 PUSH1 0x80 DUP10 MSTORE PUSH1 0x80 DUP10 ADD SWAP1 PUSH2 0x1935 JUMP JUMPDEST SWAP1 DUP8 DUP3 SUB PUSH1 0x20 DUP10 ADD MSTORE PUSH2 0x1935 JUMP JUMPDEST SWAP1 DUP6 DUP3 SUB PUSH1 0x40 DUP8 ADD MSTORE PUSH2 0x1935 JUMP JUMPDEST SWAP3 PUSH4 0x1E13380 TIMESTAMP ADD PUSH1 0x60 DUP3 ADD MSTORE DUP1 CALLER SWAP5 SUB SWAP1 LOG3 DUP1 RETURN JUMPDEST PUSH4 0x4E487B71 PUSH1 0xE0 SHL DUP9 MSTORE PUSH1 0x41 PUSH1 0x4 MSTORE DUP8 REVERT JUMPDEST ADD MLOAD SWAP1 POP CODESIZE DUP1 PUSH2 0x654 JUMP JUMPDEST PUSH1 0x1 DUP5 ADD DUP12 MSTORE PUSH1 0x20 DUP12 KECCAK256 SWAP2 SWAP1 PUSH1 0x1F NOT DUP5 AND DUP13 JUMPDEST DUP2 DUP2 LT PUSH2 0x7EB JUMPI POP SWAP3 PUSH1 0x1 SWAP3 DUP6 SWAP3 PUSH1 0x4 SWAP7 PUSH1 0x80 SWAP9 SWAP7 LT PUSH2 0x7D2 JUMPI JUMPDEST POP POP POP DUP2 SHL ADD PUSH1 0x1 DUP3 ADD SSTORE PUSH2 0x66C JUMP JUMPDEST ADD MLOAD PUSH1 0x0 NOT PUSH1 0xF8 DUP5 PUSH1 0x3 SHL AND SHR NOT AND SWAP1 SSTORE CODESIZE DUP1 DUP1 PUSH2 0x7C2 JUMP JUMPDEST SWAP3 SWAP4 PUSH1 0x20 PUSH1 0x1 DUP2 SWAP3 DUP8 DUP7 ADD MLOAD DUP2 SSTORE ADD SWAP6 ADD SWAP4 ADD PUSH2 0x7A7 JUMP JUMPDEST PUSH1 0x1 DUP5 ADD DUP12 MSTORE PUSH1 0x20 DUP12 KECCAK256 PUSH1 0x1F DUP5 ADD PUSH1 0x5 SHR DUP2 ADD PUSH1 0x20 DUP6 LT PUSH2 0x841 JUMPI JUMPDEST PUSH1 0x1F DUP4 ADD PUSH1 0x5 SHR DUP3 ADD DUP2 LT PUSH2 0x835 JUMPI POP POP PUSH2 0x635 JUMP JUMPDEST PUSH1 0x0 DUP2 SSTORE PUSH1 0x1 ADD PUSH2 0x81F JUMP JUMPDEST POP DUP1 PUSH2 0x81F JUMP JUMPDEST PUSH4 0x4E487B71 PUSH1 0xE0 SHL DUP11 MSTORE PUSH1 0x41 PUSH1 0x4 MSTORE DUP5 DUP11 REVERT JUMPDEST PUSH4 0x4E487B71 PUSH1 0xE0 SHL DUP9 MSTORE PUSH1 0x11 PUSH1 0x4 MSTORE DUP3 DUP9 REVERT JUMPDEST PUSH1 0x40 MLOAD PUSH3 0x461BCD PUSH1 0xE5 SHL DUP2 MSTORE PUSH1 0x20 PUSH1 0x4 DUP3 ADD MSTORE PUSH1 0x1E DUP2 DUP5 ADD MSTORE PUSH32 0x546F6B656E207472616E7366657220746F206F776E6572206661696C65640000 PUSH1 0x44 DUP3 ADD MSTORE PUSH1 0x64 SWAP1 REVERT JUMPDEST SWAP1 POP PUSH1 0x20 DUP2 RETURNDATASIZE PUSH1 0x20 GT PUSH2 0x8E8 JUMPI JUMPDEST DUP2 PUSH2 0x8CD PUSH1 0x20 SWAP4 DUP4 PUSH2 0x1795 JUMP JUMPDEST DUP2 ADD SUB SLT PUSH2 0x8E4 JUMPI PUSH2 0x8DE SWAP1 PUSH2 0x1DC5 JUMP JUMPDEST CODESIZE PUSH2 0x56A JUMP JUMPDEST DUP8 DUP1 REVERT JUMPDEST RETURNDATASIZE SWAP2 POP PUSH2 0x8C0 JUMP JUMPDEST PUSH1 0x40 MLOAD RETURNDATASIZE DUP11 DUP3 RETURNDATACOPY RETURNDATASIZE SWAP1 REVERT JUMPDEST PUSH1 0x40 MLOAD PUSH3 0x461BCD PUSH1 0xE5 SHL DUP2 MSTORE PUSH1 0x20 PUSH1 0x4 DUP3 ADD MSTORE PUSH1 0x4D DUP2 DUP8 ADD MSTORE PUSH32 0x496E73756666696369656E7420746F6B656E20616C6C6F77616E63652E20506C PUSH1 0x44 DUP3 ADD MSTORE PUSH32 0x656173652063616C6C20636865636B416E64417070726F7665546F6B656E416C PUSH1 0x64 DUP3 ADD MSTORE PUSH13 0x1B1BDDD85B98D948199A5C9CDD PUSH1 0x9A SHL PUSH1 0x84 DUP3 ADD MSTORE PUSH1 0xA4 SWAP1 REVERT JUMPDEST SWAP2 POP POP PUSH1 0x20 DUP2 RETURNDATASIZE PUSH1 0x20 GT PUSH2 0x9A8 JUMPI JUMPDEST DUP2 PUSH2 0x997 PUSH1 0x20 SWAP4 DUP4 PUSH2 0x1795 JUMP JUMPDEST DUP2 ADD SUB SLT PUSH2 0x2E5 JUMPI DUP4 SWAP1 MLOAD CODESIZE PUSH2 0x52A JUMP JUMPDEST RETURNDATASIZE SWAP2 POP PUSH2 0x98A JUMP JUMPDEST PUSH1 0x40 MLOAD RETURNDATASIZE DUP14 DUP3 RETURNDATACOPY RETURNDATASIZE SWAP1 REVERT JUMPDEST PUSH4 0x4E487B71 PUSH1 0xE0 SHL DUP10 MSTORE PUSH1 0x11 PUSH1 0x4 MSTORE DUP4 DUP10 REVERT JUMPDEST PUSH1 0x40 MLOAD PUSH3 0x461BCD PUSH1 0xE5 SHL DUP2 MSTORE PUSH1 0x20 PUSH1 0x4 DUP3 ADD MSTORE PUSH1 0x16 DUP2 DUP7 ADD MSTORE PUSH22 0x4C6963656E736520616C726561647920616374697665 PUSH1 0x50 SHL PUSH1 0x44 DUP3 ADD MSTORE PUSH1 0x64 SWAP1 REVERT JUMPDEST DUP11 MSTORE POP PUSH1 0x3 PUSH1 0x20 MSTORE PUSH1 0x40 DUP10 KECCAK256 PUSH1 0x4 ADD SLOAD PUSH1 0xFF AND ISZERO CODESIZE PUSH2 0x4D9 JUMP JUMPDEST PUSH1 0x40 MLOAD PUSH3 0x461BCD PUSH1 0xE5 SHL DUP2 MSTORE PUSH1 0x20 PUSH1 0x4 DUP3 ADD MSTORE DUP1 DUP6 ADD DUP6 SWAP1 MSTORE PUSH32 0x44617461736574207072696365206D7573742062652067726561746572207468 PUSH1 0x44 DUP3 ADD MSTORE PUSH4 0x616E203 PUSH1 0xE4 SHL PUSH1 0x64 DUP3 ADD MSTORE PUSH1 0x84 SWAP1 REVERT JUMPDEST PUSH1 0x40 MLOAD PUSH3 0x461BCD PUSH1 0xE5 SHL DUP2 MSTORE PUSH1 0x20 PUSH1 0x4 DUP3 ADD MSTORE PUSH1 0x12 DUP2 DUP7 ADD MSTORE PUSH18 0x11185D185CD95D081A5CC81C995B5BDD9959 PUSH1 0x72 SHL PUSH1 0x44 DUP3 ADD MSTORE PUSH1 0x64 SWAP1 REVERT JUMPDEST PUSH1 0x40 MLOAD PUSH3 0x461BCD PUSH1 0xE5 SHL DUP2 MSTORE PUSH1 0x20 PUSH1 0x4 DUP3 ADD MSTORE DUP1 DUP7 ADD DUP7 SWAP1 MSTORE PUSH32 0x44617461736574206973207075626C69632C206E6F206C6963656E7365206E65 PUSH1 0x44 DUP3 ADD MSTORE PUSH4 0x19591959 PUSH1 0xE2 SHL PUSH1 0x64 DUP3 ADD MSTORE PUSH1 0x84 SWAP1 REVERT JUMPDEST SWAP8 POP POP POP POP POP SWAP2 POP RETURNDATASIZE DUP1 DUP8 DUP6 RETURNDATACOPY PUSH2 0xB17 DUP2 DUP6 PUSH2 0x1795 JUMP JUMPDEST DUP4 ADD SWAP2 PUSH2 0x100 DUP5 DUP5 SUB SLT PUSH2 0xBAD JUMPI DUP4 MLOAD SWAP4 DUP6 DUP6 AND DUP6 SUB PUSH2 0x8E4 JUMPI PUSH1 0x20 DUP2 ADD MLOAD DUP3 DUP2 GT PUSH2 0xBA9 JUMPI DUP5 PUSH2 0xB49 SWAP2 DUP4 ADD PUSH2 0x1DD2 JUMP JUMPDEST POP PUSH1 0x40 DUP2 ADD MLOAD DUP3 DUP2 GT PUSH2 0xBA9 JUMPI DUP5 PUSH2 0xB62 SWAP2 DUP4 ADD PUSH2 0x1DD2 JUMP JUMPDEST SWAP4 PUSH1 0x60 DUP3 ADD MLOAD SWAP1 DUP4 DUP3 GT PUSH2 0xBA5 JUMPI PUSH2 0xB7B SWAP2 DUP4 ADD PUSH2 0x1DD2 JUMP JUMPDEST SWAP4 PUSH1 0x80 DUP3 ADD MLOAD SWAP6 PUSH2 0xB9A PUSH1 0xC0 PUSH2 0xB93 PUSH1 0xA0 DUP7 ADD PUSH2 0x1DC5 JUMP JUMPDEST SWAP5 ADD PUSH2 0x1DC5 JUMP JUMPDEST SWAP1 SWAP2 SWAP6 SWAP7 SWAP3 CODESIZE PUSH2 0x492 JUMP JUMPDEST DUP10 DUP1 REVERT JUMPDEST DUP9 DUP1 REVERT JUMPDEST DUP7 DUP1 REVERT JUMPDEST PUSH1 0x40 MLOAD RETURNDATASIZE DUP9 DUP3 RETURNDATACOPY RETURNDATASIZE SWAP1 REVERT JUMPDEST DUP3 DUP1 REVERT JUMPDEST POP CALLVALUE PUSH2 0x160 JUMPI PUSH1 0x20 CALLDATASIZE PUSH1 0x3 NOT ADD SLT PUSH2 0x160 JUMPI PUSH1 0x4 CALLDATALOAD DUP1 DUP3 MSTORE PUSH1 0x3 PUSH1 0x20 SWAP1 DUP2 MSTORE PUSH1 0x40 DUP1 DUP5 KECCAK256 SLOAD SWAP2 SWAP4 PUSH1 0x80 SWAP4 PUSH1 0x1 PUSH1 0x1 PUSH1 0xA0 SHL SUB SWAP4 PUSH2 0xC00 SWAP1 DUP6 AND ISZERO ISZERO PUSH2 0x1E5B JUMP JUMPDEST DUP2 MSTORE PUSH1 0x3 DUP6 MSTORE KECCAK256 SWAP1 PUSH1 0x40 MLOAD SWAP1 PUSH2 0xC15 DUP3 PUSH2 0x1747 JUMP JUMPDEST DUP3 SLOAD AND DUP2 MSTORE PUSH2 0xC26 PUSH1 0x1 DUP4 ADD PUSH2 0x188F JUMP JUMPDEST DUP5 DUP3 ADD MSTORE PUSH1 0x2 DUP3 ADD SLOAD PUSH1 0x40 DUP3 ADD MSTORE PUSH1 0xFF PUSH1 0x4 PUSH1 0x3 DUP5 ADD SLOAD SWAP4 DUP5 PUSH1 0x60 DUP6 ADD MSTORE ADD SLOAD AND ISZERO ISZERO SWAP3 DUP4 SWAP2 ADD MSTORE DUP2 PUSH2 0xC5F JUMPI JUMPDEST POP PUSH1 0x40 MLOAD SWAP1 ISZERO ISZERO DUP2 MSTORE RETURN JUMPDEST SWAP1 POP TIMESTAMP LT CODESIZE PUSH2 0xC54 JUMP JUMPDEST POP CALLVALUE PUSH2 0x160 JUMPI DUP1 PUSH1 0x3 NOT CALLDATASIZE ADD SLT PUSH2 0x160 JUMPI PUSH1 0x20 SWAP1 PUSH1 0x40 MLOAD SWAP1 DUP2 MSTORE RETURN JUMPDEST POP CALLVALUE PUSH2 0x160 JUMPI PUSH1 0x40 CALLDATASIZE PUSH1 0x3 NOT ADD SLT PUSH2 0x160 JUMPI PUSH1 0x40 PUSH2 0xCA1 PUSH2 0x171B JUMP JUMPDEST SWAP2 PUSH1 0x4 CALLDATALOAD DUP2 MSTORE DUP1 PUSH1 0x20 MSTORE KECCAK256 SWAP1 PUSH1 0x1 DUP1 PUSH1 0xA0 SHL SUB AND PUSH1 0x0 MSTORE PUSH1 0x20 MSTORE PUSH1 0x20 PUSH1 0xFF PUSH1 0x40 PUSH1 0x0 KECCAK256 SLOAD AND PUSH1 0x40 MLOAD SWAP1 ISZERO ISZERO DUP2 MSTORE RETURN JUMPDEST POP CALLVALUE PUSH2 0x160 JUMPI DUP1 PUSH1 0x3 NOT CALLDATASIZE ADD SLT PUSH2 0x160 JUMPI PUSH2 0xCE9 PUSH2 0x195A JUMP JUMPDEST PUSH2 0xCF1 PUSH2 0x1E17 JUMP JUMPDEST PUSH1 0x1 PUSH1 0xFF NOT DUP2 SLOAD AND OR PUSH1 0x1 SSTORE PUSH32 0x62E78CEA01BEE320CD4E420270B5EA74000D11B0C9F74754EBDBFC544B05A258 PUSH1 0x20 PUSH1 0x40 MLOAD CALLER DUP2 MSTORE LOG1 DUP1 RETURN JUMPDEST POP CALLVALUE PUSH2 0x160 JUMPI DUP1 PUSH1 0x3 NOT CALLDATASIZE ADD SLT PUSH2 0x160 JUMPI PUSH1 0x2 SLOAD PUSH1 0x40 MLOAD PUSH1 0x1 PUSH1 0x1 PUSH1 0xA0 SHL SUB SWAP1 SWAP2 AND DUP2 MSTORE PUSH1 0x20 SWAP1 RETURN JUMPDEST POP CALLVALUE PUSH2 0x160 JUMPI DUP1 PUSH1 0x3 NOT CALLDATASIZE ADD SLT PUSH2 0x160 JUMPI PUSH1 0x20 PUSH1 0x40 MLOAD PUSH32 0xA49807205CE4D355092EF5A8A18F56E8913CF4A201FBE287825B095693C21775 DUP2 MSTORE RETURN JUMPDEST POP CALLVALUE PUSH2 0x160 JUMPI PUSH1 0x20 DUP1 PUSH1 0x3 NOT CALLDATASIZE ADD SLT PUSH2 0x340 JUMPI PUSH1 0x1 PUSH1 0x1 PUSH1 0xA0 SHL SUB PUSH2 0xDB1 PUSH2 0x1731 JUMP JUMPDEST AND DUP3 MSTORE PUSH1 0x4 DUP2 MSTORE PUSH1 0x40 DUP3 KECCAK256 PUSH1 0x40 MLOAD SWAP3 DUP4 DUP4 DUP4 SLOAD SWAP2 DUP3 DUP2 MSTORE ADD SWAP1 DUP2 SWAP4 DUP4 MSTORE DUP5 DUP4 KECCAK256 SWAP1 DUP4 JUMPDEST DUP2 DUP2 LT PUSH2 0xE28 JUMPI POP POP POP DUP5 PUSH2 0xDEA SWAP2 SUB DUP6 PUSH2 0x1795 JUMP JUMPDEST PUSH1 0x40 MLOAD SWAP4 DUP4 DUP6 SWAP5 DUP6 ADD SWAP2 DUP2 DUP7 MSTORE MLOAD DUP1 SWAP3 MSTORE PUSH1 0x40 DUP6 ADD SWAP4 SWAP3 JUMPDEST DUP3 DUP2 LT PUSH2 0xE11 JUMPI POP POP POP POP SUB SWAP1 RETURN JUMPDEST DUP4 MLOAD DUP6 MSTORE DUP7 SWAP6 POP SWAP4 DUP2 ADD SWAP4 SWAP3 DUP2 ADD SWAP3 PUSH1 0x1 ADD PUSH2 0xE02 JUMP JUMPDEST DUP3 SLOAD DUP5 MSTORE SWAP3 DUP7 ADD SWAP3 PUSH1 0x1 SWAP3 DUP4 ADD SWAP3 ADD PUSH2 0xDD4 JUMP JUMPDEST POP CALLVALUE PUSH2 0x160 JUMPI PUSH1 0x40 CALLDATASIZE PUSH1 0x3 NOT ADD SLT PUSH2 0x160 JUMPI PUSH1 0x4 CALLDATALOAD PUSH8 0xFFFFFFFFFFFFFFFF DUP2 GT PUSH2 0x340 JUMPI PUSH2 0xE6E SWAP1 CALLDATASIZE SWAP1 PUSH1 0x4 ADD PUSH2 0x17D3 JUMP JUMPDEST PUSH2 0xE76 PUSH2 0x171B JUMP JUMPDEST CALLER PUSH1 0x0 SWAP1 DUP2 MSTORE PUSH32 0x335573AA7CAFBA10A32E2694464D1E7E5294D917876D04D506249FBF84D791AF PUSH1 0x20 SWAP1 DUP2 MSTORE PUSH1 0x40 SWAP1 SWAP2 KECCAK256 SLOAD SWAP1 SWAP3 SWAP2 SWAP1 PUSH32 0x442A94F1A1FAC79AF32856AF2A64F63648CFA2EF3B98610A5BB7CBEC4CEE6985 SWAP1 PUSH1 0xFF AND ISZERO PUSH2 0xFB2 JUMPI POP PUSH2 0xF0C SWAP2 DUP4 SWAP2 PUSH2 0xEE5 PUSH2 0x1E17 JUMP JUMPDEST PUSH1 0x1 PUSH1 0x1 PUSH1 0xA0 SHL SUB AND DUP6 MSTORE PUSH1 0x5 DUP3 MSTORE PUSH1 0x40 DUP1 DUP7 KECCAK256 SWAP1 MLOAD DUP3 MLOAD SWAP1 SWAP5 DUP6 SWAP4 DUP3 SWAP1 DUP6 SWAP1 DUP8 ADD PUSH2 0x181A JUMP JUMPDEST DUP3 ADD SWAP1 DUP2 MSTORE SUB ADD SWAP1 KECCAK256 SLOAD SWAP1 PUSH2 0xF22 DUP3 ISZERO ISZERO PUSH2 0x1E5B JUMP JUMPDEST DUP2 DUP4 MSTORE PUSH1 0x3 DUP2 MSTORE PUSH1 0xFF PUSH1 0x4 PUSH1 0x40 DUP6 KECCAK256 ADD SLOAD AND ISZERO PUSH2 0xF76 JUMPI DUP2 DUP4 MSTORE PUSH1 0x3 SWAP1 MSTORE PUSH1 0x40 DUP3 KECCAK256 PUSH1 0x4 ADD DUP1 SLOAD PUSH1 0xFF NOT AND SWAP1 SSTORE PUSH32 0xCDDFF7D26FB450C5BD6FA66EF9BD79ABD5F2424333C0381532898B0EF59638C DUP3 DUP1 LOG2 DUP1 RETURN JUMPDEST PUSH1 0x64 SWAP1 PUSH1 0x40 MLOAD SWAP1 PUSH3 0x461BCD PUSH1 0xE5 SHL DUP3 MSTORE PUSH1 0x4 DUP3 ADD MSTORE PUSH1 0x15 PUSH1 0x24 DUP3 ADD MSTORE PUSH21 0x4C6963656E7365206973206E6F7420616374697665 PUSH1 0x58 SHL PUSH1 0x44 DUP3 ADD MSTORE REVERT JUMPDEST DUP4 PUSH2 0xFBC CALLER PUSH2 0x1CB6 JUMP JUMPDEST SWAP2 PUSH1 0x40 MLOAD PUSH2 0xFC9 DUP2 PUSH2 0x1779 JUMP JUMPDEST PUSH1 0x42 DUP2 MSTORE DUP3 DUP2 ADD SWAP2 PUSH1 0x60 CALLDATASIZE DUP5 CALLDATACOPY DUP2 MLOAD ISZERO PUSH2 0x1142 JUMPI PUSH1 0x30 DUP4 MSTORE8 DUP2 MLOAD PUSH1 0x1 SWAP1 DUP2 LT ISZERO PUSH2 0x1142 JUMPI PUSH1 0x78 PUSH1 0x21 DUP5 ADD MSTORE8 PUSH1 0x41 SWAP1 JUMPDEST DUP1 DUP3 GT PUSH2 0x10E8 JUMPI POP POP PUSH2 0x10A5 JUMPI PUSH2 0x1071 SWAP4 PUSH2 0x1080 SWAP3 PUSH1 0x48 SWAP3 PUSH1 0x40 MLOAD SWAP7 DUP8 SWAP4 PUSH23 0x20B1B1B2B9B9A1B7B73A3937B61D1030B1B1B7BAB73A1 PUSH1 0x4D SHL DUP9 DUP7 ADD MSTORE PUSH2 0x1048 DUP2 MLOAD DUP1 SWAP3 DUP11 PUSH1 0x37 DUP10 ADD SWAP2 ADD PUSH2 0x181A JUMP JUMPDEST DUP5 ADD SWAP2 PUSH17 0x1034B99036B4B9B9B4B733903937B6329 PUSH1 0x7D SHL PUSH1 0x37 DUP5 ADD MSTORE MLOAD DUP1 SWAP4 DUP7 DUP5 ADD SWAP1 PUSH2 0x181A JUMP JUMPDEST ADD SUB PUSH1 0x28 DUP2 ADD DUP6 MSTORE ADD DUP4 PUSH2 0x1795 JUMP JUMPDEST PUSH2 0x10A1 PUSH1 0x40 MLOAD SWAP3 DUP4 SWAP3 PUSH3 0x461BCD PUSH1 0xE5 SHL DUP5 MSTORE PUSH1 0x4 DUP5 ADD MSTORE PUSH1 0x24 DUP4 ADD SWAP1 PUSH2 0x1935 JUMP JUMPDEST SUB SWAP1 REVERT JUMPDEST PUSH1 0x64 DUP4 PUSH1 0x40 MLOAD SWAP1 PUSH3 0x461BCD PUSH1 0xE5 SHL DUP3 MSTORE DUP1 PUSH1 0x4 DUP4 ADD MSTORE PUSH1 0x24 DUP3 ADD MSTORE PUSH32 0x537472696E67733A20686578206C656E67746820696E73756666696369656E74 PUSH1 0x44 DUP3 ADD MSTORE REVERT JUMPDEST SWAP1 SWAP2 PUSH1 0xF DUP2 AND PUSH1 0x10 DUP2 LT ISZERO PUSH2 0x1142 JUMPI PUSH16 0x181899199A1A9B1B9C1CB0B131B232B3 PUSH1 0x81 SHL SWAP1 BYTE PUSH2 0x1117 DUP5 DUP7 PUSH2 0x1CA5 JUMP JUMPDEST MSTORE8 PUSH1 0x4 SHR SWAP2 DUP1 ISZERO PUSH2 0x112C JUMPI PUSH1 0x0 NOT ADD SWAP1 PUSH2 0xFF8 JUMP JUMPDEST PUSH4 0x4E487B71 PUSH1 0xE0 SHL PUSH1 0x0 MSTORE PUSH1 0x11 PUSH1 0x4 MSTORE PUSH1 0x24 PUSH1 0x0 REVERT JUMPDEST PUSH4 0x4E487B71 PUSH1 0xE0 SHL PUSH1 0x0 MSTORE PUSH1 0x32 PUSH1 0x4 MSTORE PUSH1 0x24 PUSH1 0x0 REVERT JUMPDEST POP CALLVALUE PUSH2 0x160 JUMPI DUP1 PUSH1 0x3 NOT CALLDATASIZE ADD SLT PUSH2 0x160 JUMPI PUSH1 0x20 PUSH1 0xFF PUSH1 0x1 SLOAD AND PUSH1 0x40 MLOAD SWAP1 ISZERO ISZERO DUP2 MSTORE RETURN JUMPDEST POP CALLVALUE PUSH2 0x160 JUMPI PUSH1 0x40 CALLDATASIZE PUSH1 0x3 NOT ADD SLT PUSH2 0x160 JUMPI PUSH2 0x1195 PUSH2 0x1731 JUMP JUMPDEST PUSH1 0x1 PUSH1 0x1 PUSH1 0xA0 SHL SUB AND DUP2 MSTORE PUSH1 0x4 PUSH1 0x20 MSTORE PUSH1 0x40 DUP2 KECCAK256 DUP1 SLOAD PUSH1 0x24 CALLDATALOAD SWAP3 SWAP1 DUP4 LT ISZERO PUSH2 0x160 JUMPI PUSH1 0x20 PUSH2 0x11C3 DUP5 DUP5 PUSH2 0x183D JUMP JUMPDEST SWAP1 SLOAD PUSH1 0x40 MLOAD SWAP2 PUSH1 0x3 SHL SHR DUP2 MSTORE RETURN JUMPDEST POP CALLVALUE PUSH2 0x160 JUMPI DUP1 PUSH1 0x3 NOT CALLDATASIZE ADD SLT PUSH2 0x160 JUMPI PUSH2 0x11EA PUSH2 0x195A JUMP JUMPDEST PUSH1 0x1 SLOAD PUSH1 0xFF DUP2 AND ISZERO PUSH2 0x122A JUMPI PUSH1 0xFF NOT AND PUSH1 0x1 SSTORE PUSH32 0x5DB9EE0A495BF2E6FF9C91A7834C1BA4FDD244A5E8AA4E537BD38AEAE4B073AA PUSH1 0x20 PUSH1 0x40 MLOAD CALLER DUP2 MSTORE LOG1 DUP1 RETURN JUMPDEST PUSH1 0x40 MLOAD PUSH3 0x461BCD PUSH1 0xE5 SHL DUP2 MSTORE PUSH1 0x20 PUSH1 0x4 DUP3 ADD MSTORE PUSH1 0x14 PUSH1 0x24 DUP3 ADD MSTORE PUSH20 0x14185D5CD8589B194E881B9BDD081C185D5CD959 PUSH1 0x62 SHL PUSH1 0x44 DUP3 ADD MSTORE PUSH1 0x64 SWAP1 REVERT JUMPDEST POP CALLVALUE PUSH2 0x160 JUMPI PUSH1 0x40 CALLDATASIZE PUSH1 0x3 NOT ADD SLT PUSH2 0x160 JUMPI PUSH2 0x1280 PUSH2 0x171B JUMP JUMPDEST CALLER PUSH1 0x1 PUSH1 0x1 PUSH1 0xA0 SHL SUB DUP3 AND SUB PUSH2 0x129C JUMPI PUSH2 0x381 SWAP1 PUSH1 0x4 CALLDATALOAD PUSH2 0x1C31 JUMP JUMPDEST PUSH1 0x40 MLOAD PUSH3 0x461BCD PUSH1 0xE5 SHL DUP2 MSTORE PUSH1 0x20 PUSH1 0x4 DUP3 ADD MSTORE PUSH1 0x2F PUSH1 0x24 DUP3 ADD MSTORE PUSH32 0x416363657373436F6E74726F6C3A2063616E206F6E6C792072656E6F756E6365 PUSH1 0x44 DUP3 ADD MSTORE PUSH15 0x103937B632B9903337B91039B2B633 PUSH1 0x89 SHL PUSH1 0x64 DUP3 ADD MSTORE PUSH1 0x84 SWAP1 REVERT JUMPDEST POP PUSH1 0x20 DUP1 PUSH1 0x3 NOT CALLDATASIZE ADD SLT PUSH2 0x340 JUMPI PUSH1 0x4 CALLDATALOAD PUSH2 0x1312 PUSH2 0x1E17 JUMP JUMPDEST DUP1 ISZERO PUSH2 0x14A9 JUMPI PUSH2 0x3E8 DUP2 DIV SWAP2 DUP3 CALLVALUE LT PUSH2 0x146C JUMPI PUSH1 0x1 SLOAD PUSH1 0x8 SHR PUSH1 0x1 PUSH1 0x1 PUSH1 0xA0 SHL SUB AND DUP1 EXTCODESIZE ISZERO PUSH2 0x1468 JUMPI PUSH1 0x40 MLOAD PUSH4 0x40C10F19 PUSH1 0xE0 SHL DUP2 MSTORE CALLER PUSH1 0x4 DUP3 ADD MSTORE PUSH1 0x24 DUP2 ADD DUP5 SWAP1 MSTORE SWAP1 DUP6 SWAP1 DUP3 SWAP1 PUSH1 0x44 SWAP1 DUP3 SWAP1 DUP5 SWAP1 GAS CALL DUP1 ISZERO PUSH2 0x2F1 JUMPI PUSH2 0x1438 JUMPI JUMPDEST POP DUP3 CALLVALUE GT PUSH2 0x13A9 JUMPI JUMPDEST PUSH1 0x40 MLOAD SWAP3 DUP4 MSTORE DUP3 ADD MSTORE PUSH32 0x8FAFEBCAF9D154343DAD25669BFA277F4FBACD7AC6B0C4FED522580E040A0F33 PUSH1 0x40 CALLER SWAP3 LOG2 DUP1 RETURN JUMPDEST DUP3 CALLVALUE SUB CALLVALUE DUP2 GT PUSH2 0x1424 JUMPI DUP5 DUP1 DUP1 DUP1 SWAP4 CALLER GAS CALL RETURNDATASIZE ISZERO PUSH2 0x141F JUMPI RETURNDATASIZE PUSH2 0x13CB DUP2 PUSH2 0x17B7 JUMP JUMPDEST SWAP1 PUSH2 0x13D9 PUSH1 0x40 MLOAD SWAP3 DUP4 PUSH2 0x1795 JUMP JUMPDEST DUP2 MSTORE DUP6 DUP4 RETURNDATASIZE SWAP3 ADD RETURNDATACOPY JUMPDEST PUSH2 0x1377 JUMPI PUSH1 0x64 SWAP1 PUSH1 0x40 MLOAD SWAP1 PUSH3 0x461BCD PUSH1 0xE5 SHL DUP3 MSTORE PUSH1 0x4 DUP3 ADD MSTORE PUSH1 0x12 PUSH1 0x24 DUP3 ADD MSTORE PUSH18 0x12109054881C99599D5B990819985A5B1959 PUSH1 0x72 SHL PUSH1 0x44 DUP3 ADD MSTORE REVERT JUMPDEST PUSH2 0x13E2 JUMP JUMPDEST PUSH4 0x4E487B71 PUSH1 0xE0 SHL DUP6 MSTORE PUSH1 0x11 PUSH1 0x4 MSTORE PUSH1 0x24 DUP6 REVERT JUMPDEST PUSH8 0xFFFFFFFFFFFFFFFF DUP2 SWAP6 SWAP3 SWAP6 GT PUSH2 0x1454 JUMPI PUSH1 0x40 MSTORE SWAP3 CODESIZE PUSH2 0x136E JUMP JUMPDEST PUSH4 0x4E487B71 PUSH1 0xE0 SHL DUP3 MSTORE PUSH1 0x41 PUSH1 0x4 MSTORE PUSH1 0x24 DUP3 REVERT JUMPDEST DUP5 DUP1 REVERT JUMPDEST PUSH1 0x64 SWAP1 PUSH1 0x40 MLOAD SWAP1 PUSH3 0x461BCD PUSH1 0xE5 SHL DUP3 MSTORE PUSH1 0x4 DUP3 ADD MSTORE PUSH1 0x16 PUSH1 0x24 DUP3 ADD MSTORE PUSH22 0x125B9CDD59999A58DA595B9D0812109054881CD95B9D PUSH1 0x52 SHL PUSH1 0x44 DUP3 ADD MSTORE REVERT JUMPDEST PUSH1 0x40 MLOAD PUSH3 0x461BCD PUSH1 0xE5 SHL DUP2 MSTORE PUSH1 0x4 DUP2 ADD DUP4 SWAP1 MSTORE PUSH1 0x23 PUSH1 0x24 DUP3 ADD MSTORE PUSH32 0x546F6B656E20616D6F756E74206D757374206265206772656174657220746861 PUSH1 0x44 DUP3 ADD MSTORE PUSH3 0x6E203 PUSH1 0xEC SHL PUSH1 0x64 DUP3 ADD MSTORE PUSH1 0x84 SWAP1 REVERT JUMPDEST POP CALLVALUE PUSH2 0x160 JUMPI PUSH1 0x40 CALLDATASIZE PUSH1 0x3 NOT ADD SLT PUSH2 0x160 JUMPI PUSH2 0x1514 PUSH2 0x1731 JUMP JUMPDEST PUSH1 0x24 CALLDATALOAD PUSH8 0xFFFFFFFFFFFFFFFF DUP2 GT PUSH2 0xBBC JUMPI PUSH2 0x1564 SWAP2 PUSH1 0x40 PUSH1 0x20 SWAP5 PUSH2 0x153E DUP7 SWAP5 CALLDATASIZE SWAP1 PUSH1 0x4 ADD PUSH2 0x17D3 JUMP JUMPDEST PUSH1 0x1 PUSH1 0x1 PUSH1 0xA0 SHL SUB SWAP1 SWAP4 AND DUP2 MSTORE PUSH1 0x5 DUP5 MSTORE KECCAK256 PUSH1 0x40 MLOAD DUP3 MLOAD SWAP1 SWAP5 DUP6 SWAP4 DUP3 SWAP1 DUP6 SWAP1 DUP8 ADD PUSH2 0x181A JUMP JUMPDEST DUP3 ADD SWAP1 DUP2 MSTORE SUB ADD SWAP1 KECCAK256 SLOAD PUSH1 0x40 MLOAD SWAP1 DUP2 MSTORE RETURN JUMPDEST POP CALLVALUE PUSH2 0x160 JUMPI PUSH1 0x40 CALLDATASIZE PUSH1 0x3 NOT ADD SLT PUSH2 0x160 JUMPI PUSH1 0x4 CALLDATALOAD PUSH2 0x1593 PUSH2 0x171B JUMP JUMPDEST DUP2 DUP4 MSTORE DUP3 PUSH1 0x20 MSTORE PUSH2 0x15AA PUSH1 0x1 PUSH1 0x40 DUP6 KECCAK256 ADD SLOAD PUSH2 0x1B27 JUMP JUMPDEST DUP2 DUP4 MSTORE PUSH1 0x20 DUP4 DUP2 MSTORE PUSH1 0x40 DUP1 DUP6 KECCAK256 PUSH1 0x1 PUSH1 0x1 PUSH1 0xA0 SHL SUB SWAP1 SWAP4 AND DUP1 DUP7 MSTORE SWAP3 SWAP1 SWAP2 MSTORE DUP4 KECCAK256 SLOAD PUSH1 0xFF AND ISZERO PUSH2 0x15D8 JUMPI DUP3 DUP1 RETURN JUMPDEST DUP2 DUP4 MSTORE DUP3 PUSH1 0x20 MSTORE PUSH1 0x40 DUP4 KECCAK256 DUP2 DUP5 MSTORE PUSH1 0x20 MSTORE PUSH1 0x40 DUP4 KECCAK256 PUSH1 0x1 PUSH1 0xFF NOT DUP3 SLOAD AND OR SWAP1 SSTORE CALLER SWAP2 PUSH32 0x2F8788117E7EFF1D82E926EC794901D17C78024A50270940304540A733656F0D DUP5 DUP1 LOG4 CODESIZE DUP1 DUP3 DUP1 RETURN JUMPDEST POP CALLVALUE PUSH2 0x160 JUMPI PUSH1 0x20 CALLDATASIZE PUSH1 0x3 NOT ADD SLT PUSH2 0x160 JUMPI PUSH1 0x1 PUSH1 0x40 PUSH1 0x20 SWAP3 PUSH1 0x4 CALLDATALOAD DUP2 MSTORE DUP1 DUP5 MSTORE KECCAK256 ADD SLOAD PUSH1 0x40 MLOAD SWAP1 DUP2 MSTORE RETURN JUMPDEST POP CALLVALUE PUSH2 0x160 JUMPI DUP1 PUSH1 0x3 NOT CALLDATASIZE ADD SLT PUSH2 0x160 JUMPI PUSH1 0x20 PUSH1 0x40 MLOAD PUSH2 0x3E8 DUP2 MSTORE RETURN JUMPDEST POP CALLVALUE PUSH2 0x160 JUMPI DUP1 PUSH1 0x3 NOT CALLDATASIZE ADD SLT PUSH2 0x160 JUMPI PUSH1 0x20 PUSH1 0x40 MLOAD PUSH3 0x7A120 DUP2 MSTORE RETURN JUMPDEST POP CALLVALUE PUSH2 0x160 JUMPI DUP1 PUSH1 0x3 NOT CALLDATASIZE ADD SLT PUSH2 0x160 JUMPI PUSH1 0x20 PUSH1 0x40 MLOAD PUSH32 0x442A94F1A1FAC79AF32856AF2A64F63648CFA2EF3B98610A5BB7CBEC4CEE6985 DUP2 MSTORE RETURN JUMPDEST SWAP1 POP CALLVALUE PUSH2 0x340 JUMPI PUSH1 0x20 CALLDATASIZE PUSH1 0x3 NOT ADD SLT PUSH2 0x340 JUMPI PUSH1 0x4 CALLDATALOAD PUSH4 0xFFFFFFFF PUSH1 0xE0 SHL DUP2 AND DUP1 SWAP2 SUB PUSH2 0xBBC JUMPI PUSH1 0x20 SWAP3 POP PUSH4 0x7965DB0B PUSH1 0xE0 SHL DUP2 EQ SWAP1 DUP2 ISZERO PUSH2 0x170A JUMPI JUMPDEST POP ISZERO ISZERO DUP2 MSTORE RETURN JUMPDEST PUSH4 0x1FFC9A7 PUSH1 0xE0 SHL EQ SWAP1 POP CODESIZE PUSH2 0x1703 JUMP JUMPDEST PUSH1 0x24 CALLDATALOAD SWAP1 PUSH1 0x1 PUSH1 0x1 PUSH1 0xA0 SHL SUB DUP3 AND DUP3 SUB PUSH2 0x2E5 JUMPI JUMP JUMPDEST PUSH1 0x4 CALLDATALOAD SWAP1 PUSH1 0x1 PUSH1 0x1 PUSH1 0xA0 SHL SUB DUP3 AND DUP3 SUB PUSH2 0x2E5 JUMPI JUMP JUMPDEST PUSH1 0xA0 DUP2 ADD SWAP1 DUP2 LT PUSH8 0xFFFFFFFFFFFFFFFF DUP3 GT OR PUSH2 0x1763 JUMPI PUSH1 0x40 MSTORE JUMP JUMPDEST PUSH4 0x4E487B71 PUSH1 0xE0 SHL PUSH1 0x0 MSTORE PUSH1 0x41 PUSH1 0x4 MSTORE PUSH1 0x24 PUSH1 0x0 REVERT JUMPDEST PUSH1 0x80 DUP2 ADD SWAP1 DUP2 LT PUSH8 0xFFFFFFFFFFFFFFFF DUP3 GT OR PUSH2 0x1763 JUMPI PUSH1 0x40 MSTORE JUMP JUMPDEST SWAP1 PUSH1 0x1F DUP1 NOT SWAP2 ADD AND DUP2 ADD SWAP1 DUP2 LT PUSH8 0xFFFFFFFFFFFFFFFF DUP3 GT OR PUSH2 0x1763 JUMPI PUSH1 0x40 MSTORE JUMP JUMPDEST PUSH8 0xFFFFFFFFFFFFFFFF DUP2 GT PUSH2 0x1763 JUMPI PUSH1 0x1F ADD PUSH1 0x1F NOT AND PUSH1 0x20 ADD SWAP1 JUMP JUMPDEST DUP2 PUSH1 0x1F DUP3 ADD SLT ISZERO PUSH2 0x2E5 JUMPI DUP1 CALLDATALOAD SWAP1 PUSH2 0x17EA DUP3 PUSH2 0x17B7 JUMP JUMPDEST SWAP3 PUSH2 0x17F8 PUSH1 0x40 MLOAD SWAP5 DUP6 PUSH2 0x1795 JUMP JUMPDEST DUP3 DUP5 MSTORE PUSH1 0x20 DUP4 DUP4 ADD ADD GT PUSH2 0x2E5 JUMPI DUP2 PUSH1 0x0 SWAP3 PUSH1 0x20 DUP1 SWAP4 ADD DUP4 DUP7 ADD CALLDATACOPY DUP4 ADD ADD MSTORE SWAP1 JUMP JUMPDEST PUSH1 0x0 JUMPDEST DUP4 DUP2 LT PUSH2 0x182D JUMPI POP POP PUSH1 0x0 SWAP2 ADD MSTORE JUMP JUMPDEST DUP2 DUP2 ADD MLOAD DUP4 DUP3 ADD MSTORE PUSH1 0x20 ADD PUSH2 0x181D JUMP JUMPDEST DUP1 SLOAD DUP3 LT ISZERO PUSH2 0x1142 JUMPI PUSH1 0x0 MSTORE PUSH1 0x20 PUSH1 0x0 KECCAK256 ADD SWAP1 PUSH1 0x0 SWAP1 JUMP JUMPDEST SWAP1 PUSH1 0x1 DUP3 DUP2 SHR SWAP3 AND DUP1 ISZERO PUSH2 0x1885 JUMPI JUMPDEST PUSH1 0x20 DUP4 LT EQ PUSH2 0x186F JUMPI JUMP JUMPDEST PUSH4 0x4E487B71 PUSH1 0xE0 SHL PUSH1 0x0 MSTORE PUSH1 0x22 PUSH1 0x4 MSTORE PUSH1 0x24 PUSH1 0x0 REVERT JUMPDEST SWAP2 PUSH1 0x7F AND SWAP2 PUSH2 0x1864 JUMP JUMPDEST SWAP1 PUSH1 0x40 MLOAD SWAP2 DUP3 PUSH1 0x0 DUP3 SLOAD SWAP3 PUSH2 0x18A3 DUP5 PUSH2 0x1855 JUMP JUMPDEST SWAP1 DUP2 DUP5 MSTORE PUSH1 0x1 SWAP5 DUP6 DUP2 AND SWAP1 DUP2 PUSH1 0x0 EQ PUSH2 0x1912 JUMPI POP PUSH1 0x1 EQ PUSH2 0x18CF JUMPI JUMPDEST POP POP PUSH2 0x18CD SWAP3 POP SUB DUP4 PUSH2 0x1795 JUMP JUMPDEST JUMP JUMPDEST SWAP1 SWAP4 SWAP2 POP PUSH1 0x0 MSTORE PUSH1 0x20 SWAP1 DUP2 PUSH1 0x0 KECCAK256 SWAP4 PUSH1 0x0 SWAP2 JUMPDEST DUP2 DUP4 LT PUSH2 0x18FA JUMPI POP POP PUSH2 0x18CD SWAP4 POP DUP3 ADD ADD CODESIZE DUP1 PUSH2 0x18BF JUMP JUMPDEST DUP6 SLOAD DUP9 DUP5 ADD DUP6 ADD MSTORE SWAP5 DUP6 ADD SWAP5 DUP8 SWAP5 POP SWAP2 DUP4 ADD SWAP2 PUSH2 0x18E2 JUMP JUMPDEST SWAP2 POP POP PUSH2 0x18CD SWAP5 POP PUSH1 0x20 SWAP3 POP PUSH1 0xFF NOT AND DUP3 DUP5 ADD MSTORE ISZERO ISZERO PUSH1 0x5 SHL DUP3 ADD ADD CODESIZE DUP1 PUSH2 0x18BF JUMP JUMPDEST SWAP1 PUSH1 0x20 SWAP2 PUSH2 0x194E DUP2 MLOAD DUP1 SWAP3 DUP2 DUP6 MSTORE DUP6 DUP1 DUP7 ADD SWAP2 ADD PUSH2 0x181A JUMP JUMPDEST PUSH1 0x1F ADD PUSH1 0x1F NOT AND ADD ADD SWAP1 JUMP JUMPDEST CALLER PUSH1 0x0 SWAP1 DUP2 MSTORE PUSH32 0xAD3228B676F7D3CD4284A5443F17F1962B36E491B30A40B2405849E597BA5FB5 PUSH1 0x20 SWAP1 DUP2 MSTORE PUSH1 0x40 DUP1 DUP4 KECCAK256 SLOAD SWAP1 SWAP3 SWAP1 PUSH1 0xFF AND ISZERO PUSH2 0x199C JUMPI POP POP POP JUMP JUMPDEST PUSH2 0x19A5 CALLER PUSH2 0x1CB6 JUMP JUMPDEST SWAP1 DUP1 DUP5 MLOAD SWAP1 PUSH2 0x19B3 DUP3 PUSH2 0x1779 JUMP JUMPDEST PUSH1 0x42 DUP3 MSTORE DUP5 DUP3 ADD SWAP3 PUSH1 0x60 CALLDATASIZE DUP6 CALLDATACOPY DUP3 MLOAD ISZERO PUSH2 0x1B13 JUMPI PUSH1 0x30 DUP5 MSTORE8 DUP3 MLOAD SWAP1 PUSH1 0x1 SWAP2 DUP3 LT ISZERO PUSH2 0x1B13 JUMPI SWAP1 PUSH1 0x78 PUSH1 0x21 DUP6 ADD MSTORE8 PUSH1 0x41 SWAP2 JUMPDEST DUP2 DUP4 GT PUSH2 0x1AA5 JUMPI POP POP POP PUSH2 0x1A63 JUMPI PUSH1 0x48 PUSH2 0x10A1 SWAP4 DUP7 SWAP4 PUSH2 0x1A47 SWAP4 PUSH2 0x1A38 SWAP9 MLOAD SWAP9 DUP10 SWAP4 PUSH23 0x20B1B1B2B9B9A1B7B73A3937B61D1030B1B1B7BAB73A1 PUSH1 0x4D SHL DUP11 DUP7 ADD MSTORE PUSH2 0x1048 DUP2 MLOAD DUP1 SWAP3 DUP13 PUSH1 0x37 DUP10 ADD SWAP2 ADD PUSH2 0x181A JUMP JUMPDEST ADD SUB PUSH1 0x28 DUP2 ADD DUP8 MSTORE ADD DUP6 PUSH2 0x1795 JUMP JUMPDEST MLOAD SWAP3 DUP4 SWAP3 PUSH3 0x461BCD PUSH1 0xE5 SHL DUP5 MSTORE PUSH1 0x4 DUP5 ADD MSTORE PUSH1 0x24 DUP4 ADD SWAP1 PUSH2 0x1935 JUMP JUMPDEST PUSH1 0x64 DUP5 DUP7 MLOAD SWAP1 PUSH3 0x461BCD PUSH1 0xE5 SHL DUP3 MSTORE DUP1 PUSH1 0x4 DUP4 ADD MSTORE PUSH1 0x24 DUP3 ADD MSTORE PUSH32 0x537472696E67733A20686578206C656E67746820696E73756666696369656E74 PUSH1 0x44 DUP3 ADD MSTORE REVERT JUMPDEST SWAP1 SWAP2 SWAP3 PUSH1 0xF DUP2 AND PUSH1 0x10 DUP2 LT ISZERO PUSH2 0x1AFF JUMPI PUSH16 0x181899199A1A9B1B9C1CB0B131B232B3 PUSH1 0x81 SHL SWAP1 BYTE PUSH2 0x1AD5 DUP6 DUP8 PUSH2 0x1CA5 JUMP JUMPDEST MSTORE8 PUSH1 0x4 SHR SWAP3 DUP1 ISZERO PUSH2 0x1AEB JUMPI PUSH1 0x0 NOT ADD SWAP2 SWAP1 PUSH2 0x19E4 JUMP JUMPDEST PUSH4 0x4E487B71 PUSH1 0xE0 SHL DUP3 MSTORE PUSH1 0x11 PUSH1 0x4 MSTORE PUSH1 0x24 DUP3 REVERT JUMPDEST PUSH4 0x4E487B71 PUSH1 0xE0 SHL DUP4 MSTORE PUSH1 0x32 PUSH1 0x4 MSTORE PUSH1 0x24 DUP4 REVERT JUMPDEST PUSH4 0x4E487B71 PUSH1 0xE0 SHL DUP2 MSTORE PUSH1 0x32 PUSH1 0x4 MSTORE PUSH1 0x24 SWAP1 REVERT JUMPDEST PUSH1 0x0 SWAP1 DUP1 DUP3 MSTORE PUSH1 0x20 SWAP1 DUP3 DUP3 MSTORE PUSH1 0x40 SWAP3 DUP4 DUP2 KECCAK256 CALLER DUP3 MSTORE DUP4 MSTORE PUSH1 0xFF DUP5 DUP3 KECCAK256 SLOAD AND ISZERO PUSH2 0x1B50 JUMPI POP POP POP POP JUMP JUMPDEST PUSH2 0x1B59 CALLER PUSH2 0x1CB6 JUMP JUMPDEST SWAP2 DUP5 MLOAD SWAP1 PUSH2 0x1B66 DUP3 PUSH2 0x1779 JUMP JUMPDEST PUSH1 0x42 DUP3 MSTORE DUP5 DUP3 ADD SWAP3 PUSH1 0x60 CALLDATASIZE DUP6 CALLDATACOPY DUP3 MLOAD ISZERO PUSH2 0x1B13 JUMPI PUSH1 0x30 DUP5 MSTORE8 DUP3 MLOAD SWAP1 PUSH1 0x1 SWAP2 DUP3 LT ISZERO PUSH2 0x1B13 JUMPI SWAP1 PUSH1 0x78 PUSH1 0x21 DUP6 ADD MSTORE8 PUSH1 0x41 SWAP2 JUMPDEST DUP2 DUP4 GT PUSH2 0x1BEB JUMPI POP POP POP PUSH2 0x1A63 JUMPI PUSH1 0x48 PUSH2 0x10A1 SWAP4 DUP7 SWAP4 PUSH2 0x1A47 SWAP4 PUSH2 0x1A38 SWAP9 MLOAD SWAP9 DUP10 SWAP4 PUSH23 0x20B1B1B2B9B9A1B7B73A3937B61D1030B1B1B7BAB73A1 PUSH1 0x4D SHL DUP11 DUP7 ADD MSTORE PUSH2 0x1048 DUP2 MLOAD DUP1 SWAP3 DUP13 PUSH1 0x37 DUP10 ADD SWAP2 ADD PUSH2 0x181A JUMP JUMPDEST SWAP1 SWAP2 SWAP3 PUSH1 0xF DUP2 AND PUSH1 0x10 DUP2 LT ISZERO PUSH2 0x1AFF JUMPI PUSH16 0x181899199A1A9B1B9C1CB0B131B232B3 PUSH1 0x81 SHL SWAP1 BYTE PUSH2 0x1C1B DUP6 DUP8 PUSH2 0x1CA5 JUMP JUMPDEST MSTORE8 PUSH1 0x4 SHR SWAP3 DUP1 ISZERO PUSH2 0x1AEB JUMPI PUSH1 0x0 NOT ADD SWAP2 SWAP1 PUSH2 0x1B97 JUMP JUMPDEST SWAP1 PUSH1 0x0 SWAP2 DUP1 DUP4 MSTORE DUP3 PUSH1 0x20 MSTORE PUSH1 0x40 DUP4 KECCAK256 SWAP2 PUSH1 0x1 DUP1 PUSH1 0xA0 SHL SUB AND SWAP2 DUP3 DUP5 MSTORE PUSH1 0x20 MSTORE PUSH1 0xFF PUSH1 0x40 DUP5 KECCAK256 SLOAD AND PUSH2 0x1C61 JUMPI POP POP POP JUMP JUMPDEST DUP1 DUP4 MSTORE DUP3 PUSH1 0x20 MSTORE PUSH1 0x40 DUP4 KECCAK256 DUP3 DUP5 MSTORE PUSH1 0x20 MSTORE PUSH1 0x40 DUP4 KECCAK256 PUSH1 0xFF NOT DUP2 SLOAD AND SWAP1 SSTORE PUSH32 0xF6391F5C32D9C69D2A47EA670B442974B53935D1EDC7FD64EB21E047A839171B CALLER SWAP4 DUP1 LOG4 JUMP JUMPDEST SWAP1 DUP2 MLOAD DUP2 LT ISZERO PUSH2 0x1142 JUMPI ADD PUSH1 0x20 ADD SWAP1 JUMP JUMPDEST PUSH1 0x40 MLOAD SWAP1 PUSH1 0x60 DUP3 ADD DUP3 DUP2 LT PUSH8 0xFFFFFFFFFFFFFFFF DUP3 GT OR PUSH2 0x1763 JUMPI PUSH1 0x40 MSTORE PUSH1 0x2A DUP3 MSTORE PUSH1 0x20 DUP3 ADD PUSH1 0x40 CALLDATASIZE DUP3 CALLDATACOPY DUP3 MLOAD ISZERO PUSH2 0x1142 JUMPI PUSH1 0x30 SWAP1 MSTORE8 DUP2 MLOAD PUSH1 0x1 SWAP1 DUP2 LT ISZERO PUSH2 0x1142 JUMPI PUSH1 0x78 PUSH1 0x21 DUP5 ADD MSTORE8 PUSH1 0x29 SWAP1 JUMPDEST DUP1 DUP3 GT PUSH2 0x1D57 JUMPI POP POP PUSH2 0x1D13 JUMPI SWAP1 JUMP JUMPDEST PUSH1 0x64 PUSH1 0x40 MLOAD PUSH3 0x461BCD PUSH1 0xE5 SHL DUP2 MSTORE PUSH1 0x20 PUSH1 0x4 DUP3 ADD MSTORE PUSH1 0x20 PUSH1 0x24 DUP3 ADD MSTORE PUSH32 0x537472696E67733A20686578206C656E67746820696E73756666696369656E74 PUSH1 0x44 DUP3 ADD MSTORE REVERT JUMPDEST SWAP1 SWAP2 PUSH1 0xF DUP2 AND PUSH1 0x10 DUP2 LT ISZERO PUSH2 0x1DB0 JUMPI PUSH16 0x181899199A1A9B1B9C1CB0B131B232B3 PUSH1 0x81 SHL SWAP1 BYTE PUSH2 0x1D86 DUP5 DUP7 PUSH2 0x1CA5 JUMP JUMPDEST MSTORE8 PUSH1 0x4 SHR SWAP2 DUP1 ISZERO PUSH2 0x1D9B JUMPI PUSH1 0x0 NOT ADD SWAP1 PUSH2 0x1D03 JUMP JUMPDEST PUSH1 0x24 PUSH1 0x0 PUSH4 0x4E487B71 PUSH1 0xE0 SHL DUP2 MSTORE PUSH1 0x11 PUSH1 0x4 MSTORE REVERT JUMPDEST PUSH1 0x24 PUSH1 0x0 PUSH4 0x4E487B71 PUSH1 0xE0 SHL DUP2 MSTORE PUSH1 0x32 PUSH1 0x4 MSTORE REVERT JUMPDEST MLOAD SWAP1 DUP2 ISZERO ISZERO DUP3 SUB PUSH2 0x2E5 JUMPI JUMP JUMPDEST DUP2 PUSH1 0x1F DUP3 ADD SLT ISZERO PUSH2 0x2E5 JUMPI DUP1 MLOAD PUSH2 0x1DE8 DUP2 PUSH2 0x17B7 JUMP JUMPDEST SWAP3 PUSH2 0x1DF6 PUSH1 0x40 MLOAD SWAP5 DUP6 PUSH2 0x1795 JUMP JUMPDEST DUP2 DUP5 MSTORE PUSH1 0x20 DUP3 DUP5 ADD ADD GT PUSH2 0x2E5 JUMPI PUSH2 0x1E14 SWAP2 PUSH1 0x20 DUP1 DUP6 ADD SWAP2 ADD PUSH2 0x181A JUMP JUMPDEST SWAP1 JUMP JUMPDEST PUSH1 0xFF PUSH1 0x1 SLOAD AND PUSH2 0x1E23 JUMPI JUMP JUMPDEST PUSH1 0x40 MLOAD PUSH3 0x461BCD PUSH1 0xE5 SHL DUP2 MSTORE PUSH1 0x20 PUSH1 0x4 DUP3 ADD MSTORE PUSH1 0x10 PUSH1 0x24 DUP3 ADD MSTORE PUSH16 0x14185D5CD8589B194E881C185D5CD959 PUSH1 0x82 SHL PUSH1 0x44 DUP3 ADD MSTORE PUSH1 0x64 SWAP1 REVERT JUMPDEST ISZERO PUSH2 0x1E62 JUMPI JUMP JUMPDEST PUSH1 0x40 MLOAD PUSH3 0x461BCD PUSH1 0xE5 SHL DUP2 MSTORE PUSH1 0x20 PUSH1 0x4 DUP3 ADD MSTORE PUSH1 0x16 PUSH1 0x24 DUP3 ADD MSTORE PUSH22 0x131A58D95B9CD948191BD95CC81B9BDD08195E1A5CDD PUSH1 0x52 SHL PUSH1 0x44 DUP3 ADD MSTORE PUSH1 0x64 SWAP1 REVERT INVALID LOG2 PUSH5 0x6970667358 0x22 SLT KECCAK256 0xDB PUSH4 0x87ED2908 0xC9 PUSH5 0xD7DF2A4EA5 0x1E 0xDF 0x49 DUP15 PUSH32 0x2BFBB19A44DF79583C49F74EE3BE64736F6C634300081300332F8788117E7EFF SAR DUP3 0xE9 0x26 0xEC PUSH26 0x4901D17C78024A50270940304540A733656F0D00000000000000 "},"methodIdentifiers":{"ADMIN_ROLE()":"75b238fc","COMPLIANCE_ROLE()":"062d3bd7","DEFAULT_ADMIN_ROLE()":"a217fddf","EXCHANGE_RATE()":"14a8bd0d","GAS_LIMIT()":"091d2788","buyTokens(uint256)":"3610724e","checkAndApproveTokenAllowance(uint256)":"dd40222d","getRoleAdmin(bytes32)":"248a9ca3","getUserLicenses(address)":"75a106c3","grantRole(bytes32,address)":"2f2ff15d","hasRole(bytes32,address)":"91d14854","isValidLicense(bytes32)":"ba810a4a","licenses(bytes32)":"cde74e51","pause()":"8456cb59","paused()":"5c975abb","purchaseLicense(string)":"c5703e5e","registry()":"7b103999","renounceRole(bytes32,address)":"36568abe","revokeLicense(string,address)":"74e078dc","revokeRole(bytes32,address)":"d547741f","supportsInterface(bytes4)":"01ffc9a7","token()":"fc0c546a","unpause()":"3f4ba83a","userDatasetLicenses(address,string)":"31745c5d","userLicenses(address,uint256)":"454c1d31"}}}}}