{"contracts/DatasetToken.sol":{"DatasetToken":{"abi":[{"inputs":[{"internalType":"string","name":"name","type":"string"},{"internalType":"string","name":"symbol","type":"string"},{"internalType":"uint256","name":"initialSupply","type":"uint256"}],"stateMutability":"nonpayable","type":"constructor"},{"anonymous":false,"inputs":[{"indexed":true,"internalType":"address","name":"owner","type":"address"},{"indexed":true,"internalType":"address","name":"spender","type":"address"},{"indexed":false,"internalType":"uint256","name":"value","type":"uint256"}],"name":"Approval","type":"event"},{"anonymous":false,"inputs":[{"indexed":false,"internalType":"address","name":"account","type":"address"}],"name":"Paused","type":"event"},{"anonymous":false,"inputs":[{"indexed":true,"internalType":"bytes32","name":"role","type":"bytes32"},{"indexed":true,"internalType":"bytes32","name":"previousAdminRole","type":"bytes32"},{"indexed":true,"internalType":"bytes32","name":"newAdminRole","type":"bytes32"}],"name":"RoleAdminChanged","type":"event"},{"anonymous":false,"inputs":[{"indexed":true,"internalType":"bytes32","name":"role","type":"bytes32"},{"indexed":true,"internalType":"address","name":"account","type":"address"},{"indexed":true,"internalType":"address","name":"sender","type":"address"}],"name":"RoleGranted","type":"event"},{"anonymous":false,"inputs":[{"indexed":true,"internalType":"bytes32","name":"role","type":"bytes32"},{"indexed":true,"internalType":"address","name":"account","type":"address"},{"indexed":true,"internalType":"address","name":"sender","type":"address"}],"name":"RoleRevoked","type":"event"},{"anonymous":false,"inputs":[{"indexed":true,"internalType":"address","name":"from","type":"address"},{"indexed":true,"internalType":"address","name":"to","type":"address"},{"indexed":false,"internalType":"uint256","name":"value","type":"uint256"}],"name":"Transfer","type":"event"},{"anonymous":false,"inputs":[{"indexed":false,"internalType":"address","name":"account","type":"address"}],"name":"Unpaused","type":"event"},{"inputs":[],"name":"BURNER_ROLE","outputs":[{"internalType":"bytes32","name":"","type":"bytes32"}],"stateMutability":"view","type":"function"},{"inputs":[],"name":"DEFAULT_ADMIN_ROLE","outputs":[{"internalType":"bytes32","name":"","type":"bytes32"}],"stateMutability":"view","type":"function"},{"inputs":[],"name":"MINTER_ROLE","outputs":[{"internalType":"bytes32","name":"","type":"bytes32"}],"stateMutability":"view","type":"function"},{"inputs":[{"internalType":"address","name":"owner","type":"address"},{"internalType":"address","name":"spender","type":"address"}],"name":"allowance","outputs":[{"internalType":"uint256","name":"","type":"uint256"}],"stateMutability":"view","type":"function"},{"inputs":[{"internalType":"address","name":"spender","type":"address"},{"internalType":"uint256","name":"amount","type":"uint256"}],"name":"approve","outputs":[{"internalType":"bool","name":"","type":"bool"}],"stateMutability":"nonpayable","type":"function"},{"inputs":[{"internalType":"address","name":"account","type":"address"}],"name":"balanceOf","outputs":[{"internalType":"uint256","name":"","type":"uint256"}],"stateMutability":"view","type":"function"},{"inputs":[{"internalType":"address","name":"from","type":"address"},{"internalType":"uint256","name":"amount","type":"uint256"}],"name":"burn","outputs":[],"stateMutability":"nonpayable","type":"function"},{"inputs":[],"name":"decimals","outputs":[{"internalType":"uint8","name":"","type":"uint8"}],"stateMutability":"view","type":"function"},{"inputs":[{"internalType":"address","name":"spender","type":"address"},{"internalType":"uint256","name":"subtractedValue","type":"uint256"}],"name":"decreaseAllowance","outputs":[{"internalType":"bool","name":"","type":"bool"}],"stateMutability":"nonpayable","type":"function"},{"inputs":[{"internalType":"bytes32","name":"role","type":"bytes32"}],"name":"getRoleAdmin","outputs":[{"internalType":"bytes32","name":"","type":"bytes32"}],"stateMutability":"view","type":"function"},{"inputs":[{"internalType":"bytes32","name":"role","type":"bytes32"},{"internalType":"address","name":"account","type":"address"}],"name":"grantRole","outputs":[],"stateMutability":"nonpayable","type":"function"},{"inputs":[{"internalType":"bytes32","name":"role","type":"bytes32"},{"internalType":"address","name":"account","type":"address"}],"name":"hasRole","outputs":[{"internalType":"bool","name":"","type":"bool"}],"stateMutability":"view","type":"function"},{"inputs":[{"internalType":"address","name":"spender","type":"address"},{"internalType":"uint256","name":"addedValue","type":"uint256"}],"name":"increaseAllowance","outputs":[{"internalType":"bool","name":"","type":"bool"}],"stateMutability":"nonpayable","type":"function"},{"inputs":[{"internalType":"address","name":"to","type":"address"},{"internalType":"uint256","name":"amount","type":"uint256"}],"name":"mint","outputs":[],"stateMutability":"nonpayable","type":"function"},{"inputs":[],"name":"name","outputs":[{"internalType":"string","name":"","type":"string"}],"stateMutability":"view","type":"function"},{"inputs":[],"name":"pause","outputs":[],"stateMutability":"nonpayable","type":"function"},{"inputs":[],"name":"paused","outputs":[{"internalType":"bool","name":"","type":"bool"}],"stateMutability":"view","type":"function"},{"inputs":[{"internalType":"bytes32","name":"role","type":"bytes32"},{"internalType":"address","name":"account","type":"address"}],"name":"renounceRole","outputs":[],"stateMutability":"nonpayable","type":"function"},{"inputs":[{"internalType":"bytes32","name":"role","type":"bytes32"},{"internalType":"address","name":"account","type":"address"}],"name":"revokeRole","outputs":[],"stateMutability":"nonpayable","type":"function"},{"inputs":[{"internalType":"bytes4","name":"interfaceId","type":"bytes4"}],"name":"supportsInterface","outputs":[{"internalType":"bool","name":"","type":"bool"}],"stateMutability":"view","type":"function"},{"inputs":[],"name":"symbol","outputs":[{"internalType":"string","name":"","type":"string"}],"stateMutability":"view","type":"function"},{"inputs":[],"name":"totalSupply","outputs":[{"internalType":"uint256","name":"","type":"uint256"}],"stateMutability":"view","type":"function"},{"inputs":[{"internalType":"address","name":"to","type":"address"},{"internalType":"uint256","name":"amount","type":"uint256"}],"name":"transfer","outputs":[{"internalType":"bool","name":"","type":"bool"}],"stateMutability":"nonpayable","type":"function"},{"inputs":[{"internalType":"address","name":"from","type":"address"},{"internalType":"address","name":"to","type":"address"},{"internalType":"uint256","name":"amount","type":"uint256"}],"name":"transferFrom","outputs":[{"internalType":"bool","name":"","type":"bool"}],"stateMutability":"nonpayable","type":"function"},{"inputs":[],"name":"unpause","outputs":[],"stateMutability":"nonpayable","type":"function"}],"evm":{"bytecode":{"linkReferences":{},"object":"60406080815234620005535762001d08803803806200001e8162000558565b9283398101606082820312620005535781516001600160401b039290838111620005535782620000509183016200057e565b9260209283830151828111620005535786916200006f9185016200057e565b92015193805191808311620004535760038054936001938486811c9616801562000548575b8887101462000532578190601f96878111620004dc575b508890878311600114620004755760009262000469575b505060001982841b1c191690841b1781555b8451918211620004535760049485548481811c9116801562000448575b88821014620004335790818685949311620003db575b508790868411600114620003705760009362000364575b505082841b92600019911b1c19161783555b60ff198060065416600655600080526005918286528760002033600052865260ff886000205416156200032a575b7f9f2df0fed2c77648de5860a4cc508cd0818c85b8b8a1ab4ceeef8d981c8956a6806000528387528860002033600052875260ff89600020541615620002ee575b507f3c11d16cbaffd01df69ce1c404f6340ee057498f5f00246190ea54220576a84892836000528087528860002033600052875260ff89600020541615620002b1575b5050505083620001fc575b84516116f79081620005f18239f35b3315620002725750600254908382018092116200025d57506000917fddf252ad1be2c89b69c2b068fc378daa952ba7f163c4a11628f55a4df523b3ef9160025533835282815284832084815401905584519384523393a338808080620001ed565b601190634e487b7160e01b6000525260246000fd5b60649285519262461bcd60e51b845283015260248201527f45524332303a206d696e7420746f20746865207a65726f2061646472657373006044820152fd5b8360005286528760002033600052865287600020918254161790553390339060008051602062001ce8833981519152600080a438808080620001e2565b80600052838752886000203360005287528860002082848254161790553390339060008051602062001ce8833981519152600080a4386200019f565b60008052828652876000203360005286528760002081838254161790553333600060008051602062001ce88339815191528180a46200015e565b0151915038806200011e565b9190859450601f1984169288600052896000209360005b8b828210620003c45750508511620003a9575b50505050811b01835562000130565b01519060f884600019921b161c19169055388080806200039a565b838501518755899890960195938401930162000387565b9091925086600052876000208680860160051c8201928a871062000429575b91879187969594930160051c01915b8281106200041957505062000107565b6000815586955087910162000409565b92508192620003fa565b602287634e487b7160e01b6000525260246000fd5b90607f1690620000f1565b634e487b7160e01b600052604160045260246000fd5b015190503880620000c2565b90869350601f19831691856000528a6000209260005b8c828210620004c55750508411620004ac575b505050811b018155620000d4565b015160001983861b60f8161c191690553880806200049e565b8385015186558a979095019493840193016200048b565b90915083600052886000208780850160051c8201928b861062000528575b918891869594930160051c01915b82811062000518575050620000ab565b6000815585945088910162000508565b92508192620004fa565b634e487b7160e01b600052602260045260246000fd5b95607f169562000094565b600080fd5b6040519190601f01601f191682016001600160401b038111838210176200045357604052565b919080601f84011215620005535782516001600160401b0381116200045357602090620005b4601f8201601f1916830162000558565b92818452828287010111620005535760005b818110620005dc57508260009394955001015290565b8581018301518482018401528201620005c656fe608060408181526004918236101561001657600080fd5b600092833560e01c91826301ffc9a714610dfa5750816306fdde0314610d05578163095ea7b314610cdb57816318160ddd14610cbc57816323b872dd14610be8578163248a9ca314610bbd578163282c51f314610b825781632f2ff15d14610ad5578163313ce56714610ab957816336568abe14610a2757816339509351146109d75781633f4ba83a1461094157816340c10f191461086f5781635c975abb1461084b57816370a08231146108145781638456cb59146107b957816391d148541461077257816395d89b411461066f5781639dc29fac146102fd578163a217fddf146102e2578163a457c2d71461023a578163a9059cbb14610201578163d5391393146101c6578163d547741f14610183575063dd62ed3e1461013857600080fd5b3461017f578060031936011261017f5780602092610154610e9c565b61015c610eb7565b6001600160a01b0391821683526001865283832091168252845220549051908152f35b5080fd5b919050346101c257806003193601126101c2576101bf91356101ba60016101a8610eb7565b93838752600560205286200154611094565b6111f2565b80f35b8280fd5b50503461017f578160031936011261017f57602090517f9f2df0fed2c77648de5860a4cc508cd0818c85b8b8a1ab4ceeef8d981c8956a68152f35b50503461017f578060031936011261017f57602090610233610221610e9c565b61022961150f565b6024359033611553565b5160018152f35b905082346102df57826003193601126102df57610255610e9c565b918360243592338152600160205281812060018060a01b038616825260205220549082821061028e57602085610233858503873361128b565b608490602086519162461bcd60e51b8352820152602560248201527f45524332303a2064656372656173656420616c6c6f77616e63652062656c6f77604482015264207a65726f60d81b6064820152fd5b80fd5b50503461017f578160031936011261017f5751908152602090f35b8391503461017f578260031936011261017f57610318610e9c565b926024908135917f3c11d16cbaffd01df69ce1c404f6340ee057498f5f00246190ea54220576a8489586865260209660058852838720338852885260ff8488205416156104ad575061036861150f565b6001600160a01b031693841561046d576103838415156114c3565b8486528587528383872054106104365784865285875282862054918483106103e957505091849591817fddf252ad1be2c89b69c2b068fc378daa952ba7f163c4a11628f55a4df523b3ef948688528785520381872055816002540360025551908152a380f35b835162461bcd60e51b81529182018890526022908201527f45524332303a206275726e20616d6f756e7420657863656564732062616c616e604482015261636560f01b6064820152608490fd5b60146064928885519362461bcd60e51b855284015282015273496e73756666696369656e742062616c616e636560601b6044820152fd5b601d6064928885519362461bcd60e51b85528401528201527f43616e6e6f74206275726e2066726f6d207a65726f20616464726573730000006044820152fd5b8588888587946104bc336113b4565b90918651926104ca8461119e565b6042845285840194606036873784511561065d576030865384519060019182101561064b5790607860218701536041915b8183116105e2575050506105a1575061059d9386936105899361057a6048946105519a519a8576020b1b1b2b9b9a1b7b73a3937b61d1030b1b1b7bab73a1604d1b8d978801528251928391603789019101610e4d565b8401917001034b99036b4b9b9b4b733903937b6329607d1b603784015251809386840190610e4d565b010360288101875201856111d0565b5162461bcd60e51b81529283928301610e70565b0390fd5b9250505081606494519362461bcd60e51b85528401528201527f537472696e67733a20686578206c656e67746820696e73756666696369656e746044820152fd5b909192600f81166010811015610639576f181899199a1a9b1b9c1cb0b131b232b360811b901a610612858961138d565b53891c928015610627576000190191906104fb565b634e487b7160e01b825260118a528482fd5b634e487b7160e01b835260328b528583fd5b634e487b7160e01b8152603289528390fd5b634e487b7160e01b8152603288529050fd5b83833461017f578160031936011261017f57805191809380549160019083821c92828516948515610768575b60209586861081146107555785895290811561073157506001146106d9575b6106d587876106cb828c03836111d0565b5191829182610e70565b0390f35b81529295507f8a35acfbc15ff81a39ae7d344fd709f28e8600b4aa8c65c6b64bfe7fe36bd19b5b82841061071e57505050826106d5946106cb928201019486806106ba565b8054868501880152928601928101610700565b60ff19168887015250505050151560051b83010192506106cb826106d586806106ba565b634e487b7160e01b845260228352602484fd5b93607f169361069b565b9050346101c257816003193601126101c2578160209360ff92610793610eb7565b90358252600586528282206001600160a01b039091168252855220549151911615158152f35b50503461017f578160031936011261017f5760207f62e78cea01bee320cd4e420270b5ea74000d11b0c9f74754ebdbfc544b05a258916107f7610ecd565b6107ff61150f565b600160ff19600654161760065551338152a180f35b50503461017f57602036600319011261017f5760209181906001600160a01b0361083c610e9c565b16815280845220549051908152f35b50503461017f578160031936011261017f5760209060ff6006541690519015158152f35b919050346101c257806003193601126101c25761088a610e9c565b906024359161089761150f565b6001600160a01b03169283156108ff57506020827fddf252ad1be2c89b69c2b068fc378daa952ba7f163c4a11628f55a4df523b3ef926108d9879515156114c3565b6108e582600254611268565b60025585855284835280852082815401905551908152a380f35b6020606492519162461bcd60e51b8352820152601b60248201527f43616e6e6f74206d696e7420746f207a65726f206164647265737300000000006044820152fd5b9050346101c257826003193601126101c25761095b610ecd565b6006549060ff82161561099d575060ff1916600655513381527f5db9ee0a495bf2e6ff9c91a7834c1ba4fdd244a5e8aa4e537bd38aeae4b073aa90602090a180f35b606490602084519162461bcd60e51b8352820152601460248201527314185d5cd8589b194e881b9bdd081c185d5cd95960621b6044820152fd5b50503461017f578060031936011261017f57610233602092610a206109fa610e9c565b338352600186528483206001600160a01b03821684528652918490205460243590611268565b903361128b565b8391503461017f578260031936011261017f57610a42610eb7565b90336001600160a01b03831603610a5e57906101bf91356111f2565b608490602085519162461bcd60e51b8352820152602f60248201527f416363657373436f6e74726f6c3a2063616e206f6e6c792072656e6f756e636560448201526e103937b632b9903337b91039b2b63360891b6064820152fd5b50503461017f578160031936011261017f576020905160128152f35b9050346101c257816003193601126101c2573590610af1610eb7565b908284526005602052610b0960018286200154611094565b828452600560209081528185206001600160a01b039093168086529290528084205460ff1615610b37578380f35b82845260056020528084208285526020528320600160ff1982541617905533917f2f8788117e7eff1d82e926ec794901d17c78024a50270940304540a733656f0d8480a43880808380f35b50503461017f578160031936011261017f57602090517f3c11d16cbaffd01df69ce1c404f6340ee057498f5f00246190ea54220576a8488152f35b9050346101c25760203660031901126101c25781602093600192358152600585522001549051908152f35b8391503461017f57606036600319011261017f57610c04610e9c565b610c0c610eb7565b918460443594610c1a61150f565b6001600160a01b03841681526001602081815283832033845290529190205491908201610c50575b602086610233878787611553565b848210610c795750918391610c6e602096956102339503338361128b565b919394819350610c42565b606490602087519162461bcd60e51b8352820152601d60248201527f45524332303a20696e73756666696369656e7420616c6c6f77616e63650000006044820152fd5b50503461017f578160031936011261017f576020906002549051908152f35b50503461017f578060031936011261017f57602090610233610cfb610e9c565b602435903361128b565b919050346101c257826003193601126101c257805191836003549060019082821c928281168015610df0575b6020958686108214610ddd5750848852908115610dbb5750600114610d62575b6106d586866106cb828b03836111d0565b929550600383527fc2575a0e9e593c00f959f8c92f12db2869c3395a3b0502d05e2516446f71f85b5b828410610da857505050826106d5946106cb928201019438610d51565b8054868501880152928601928101610d8b565b60ff191687860152505050151560051b83010192506106cb826106d538610d51565b634e487b7160e01b845260229052602483fd5b93607f1693610d31565b8491346101c25760203660031901126101c2573563ffffffff60e01b81168091036101c25760209250637965db0b60e01b8114908115610e3c575b5015158152f35b6301ffc9a760e01b14905083610e35565b60005b838110610e605750506000910152565b8181015183820152602001610e50565b60409160208252610e908151809281602086015260208686019101610e4d565b601f01601f1916010190565b600435906001600160a01b0382168203610eb257565b600080fd5b602435906001600160a01b0382168203610eb257565b3360009081527f05b8ccbb9d4d8fb16ea74ce3c29a41f1b461fbdaff4714a0d9a8eb05499746bc602090815260408083205490929060ff1615610f0f57505050565b610f18336113b4565b83519082610f258361119e565b6042835284830193606036863783511561108057603085538351906001918210156110805790607860218601536041915b81831161101257505050610fd057610551938593610fba93610fab60489461059d9951988576020b1b1b2b9b9a1b7b73a3937b61d1030b1b1b7bab73a1604d1b8b978801528251928391603789019101610e4d565b010360288101855201836111d0565b5162461bcd60e51b815291829160048301610e70565b60648486519062461bcd60e51b825280600483015260248201527f537472696e67733a20686578206c656e67746820696e73756666696369656e746044820152fd5b909192600f8116601081101561106c576f181899199a1a9b1b9c1cb0b131b232b360811b901a611042858861138d565b5360041c92801561105857600019019190610f56565b634e487b7160e01b82526011600452602482fd5b634e487b7160e01b83526032600452602483fd5b634e487b7160e01b81526032600452602490fd5b600081815260209060058252604092838220338352835260ff8483205416156110bd5750505050565b6110c6336113b4565b8451916110d28361119e565b6042835284830193606036863783511561108057603085538351906001918210156110805790607860218601536041915b81831161115857505050610fd057610551938593610fba93610fab60489461059d9951988576020b1b1b2b9b9a1b7b73a3937b61d1030b1b1b7bab73a1604d1b8b978801528251928391603789019101610e4d565b909192600f8116601081101561106c576f181899199a1a9b1b9c1cb0b131b232b360811b901a611188858861138d565b5360041c92801561105857600019019190611103565b6080810190811067ffffffffffffffff8211176111ba57604052565b634e487b7160e01b600052604160045260246000fd5b90601f8019910116810190811067ffffffffffffffff8211176111ba57604052565b906000918083526005602052604083209160018060a01b03169182845260205260ff60408420541661122357505050565b8083526005602052604083208284526020526040832060ff1981541690557ff6391f5c32d9c69d2a47ea670b442974b53935d1edc7fd64eb21e047a839171b339380a4565b9190820180921161127557565b634e487b7160e01b600052601160045260246000fd5b6001600160a01b0390811691821561133c57169182156112ec5760207f8c5be1e5ebec7d5bd14f71427d1e84f3dd0314c0f7b2291e5b200ac8c7c3b925918360005260018252604060002085600052825280604060002055604051908152a3565b60405162461bcd60e51b815260206004820152602260248201527f45524332303a20617070726f766520746f20746865207a65726f206164647265604482015261737360f01b6064820152608490fd5b60405162461bcd60e51b8152602060048201526024808201527f45524332303a20617070726f76652066726f6d20746865207a65726f206164646044820152637265737360e01b6064820152608490fd5b90815181101561139e570160200190565b634e487b7160e01b600052603260045260246000fd5b604051906060820182811067ffffffffffffffff8211176111ba57604052602a825260208201604036823782511561139e5760309053815160019081101561139e57607860218401536029905b8082116114555750506114115790565b606460405162461bcd60e51b815260206004820152602060248201527f537472696e67733a20686578206c656e67746820696e73756666696369656e746044820152fd5b9091600f811660108110156114ae576f181899199a1a9b1b9c1cb0b131b232b360811b901a611484848661138d565b5360041c918015611499576000190190611401565b60246000634e487b7160e01b81526011600452fd5b60246000634e487b7160e01b81526032600452fd5b156114ca57565b60405162461bcd60e51b815260206004820152601d60248201527f416d6f756e74206d7573742062652067726561746572207468616e20300000006044820152606490fd5b60ff6006541661151b57565b60405162461bcd60e51b815260206004820152601060248201526f14185d5cd8589b194e881c185d5cd95960821b6044820152606490fd5b6001600160a01b0390811691821561166e571691821561161d576000828152806020526040812054918083106115c957604082827fddf252ad1be2c89b69c2b068fc378daa952ba7f163c4a11628f55a4df523b3ef958760209652828652038282205586815220818154019055604051908152a3565b60405162461bcd60e51b815260206004820152602660248201527f45524332303a207472616e7366657220616d6f756e7420657863656564732062604482015265616c616e636560d01b6064820152608490fd5b60405162461bcd60e51b815260206004820152602360248201527f45524332303a207472616e7366657220746f20746865207a65726f206164647260448201526265737360e81b6064820152608490fd5b60405162461bcd60e51b815260206004820152602560248201527f45524332303a207472616e736665722066726f6d20746865207a65726f206164604482015264647265737360d81b6064820152608490fdfea2646970667358221220a66ea2cd5341fb384ddddf75d254291c0a39b5e7c291a98c6dde3c5d9c2a665264736f6c634300081300332f8788117e7eff1d82e926ec794901d17c78024a50270940304540a733656f0d","opcodes":"PUSH1 0x40 PUSH1 0x80 DUP2 MSTORE CALLVALUE PUSH3 0x553 JUMPI PUSH3 0x1D08 DUP1 CODESIZE SUB DUP1 PUSH3 0x1E DUP2 PUSH3 0x558 JUMP JUMPDEST SWAP3 DUP4 CODECOPY DUP2 ADD PUSH1 0x60 DUP3 DUP3 SUB SLT PUSH3 0x553 JUMPI DUP2 MLOAD PUSH1 0x1 PUSH1 0x1 PUSH1 0x40 SHL SUB SWAP3 SWAP1 DUP4 DUP2 GT PUSH3 0x553 JUMPI DUP3 PUSH3 0x50 SWAP2 DUP4 ADD PUSH3 0x57E JUMP JUMPDEST SWAP3 PUSH1 0x20 SWAP3 DUP4 DUP4 ADD MLOAD DUP3 DUP2 GT PUSH3 0x553 JUMPI DUP7 SWAP2 PUSH3 0x6F SWAP2 DUP6 ADD PUSH3 0x57E JUMP JUMPDEST SWAP3 ADD MLOAD SWAP4 DUP1 MLOAD SWAP2 DUP1 DUP4 GT PUSH3 0x453 JUMPI PUSH1 0x3 DUP1 SLOAD SWAP4 PUSH1 0x1 SWAP4 DUP5 DUP7 DUP2 SHR SWAP7 AND DUP1 ISZERO PUSH3 0x548 JUMPI JUMPDEST DUP9 DUP8 LT EQ PUSH3 0x532 JUMPI DUP2 SWAP1 PUSH1 0x1F SWAP7 DUP8 DUP2 GT PUSH3 0x4DC JUMPI JUMPDEST POP DUP9 SWAP1 DUP8 DUP4 GT PUSH1 0x1 EQ PUSH3 0x475 JUMPI PUSH1 0x0 SWAP3 PUSH3 0x469 JUMPI JUMPDEST POP POP PUSH1 0x0 NOT DUP3 DUP5 SHL SHR NOT AND SWAP1 DUP5 SHL OR DUP2 SSTORE JUMPDEST DUP5 MLOAD SWAP2 DUP3 GT PUSH3 0x453 JUMPI PUSH1 0x4 SWAP5 DUP6 SLOAD DUP5 DUP2 DUP2 SHR SWAP2 AND DUP1 ISZERO PUSH3 0x448 JUMPI JUMPDEST DUP9 DUP3 LT EQ PUSH3 0x433 JUMPI SWAP1 DUP2 DUP7 DUP6 SWAP5 SWAP4 GT PUSH3 0x3DB JUMPI JUMPDEST POP DUP8 SWAP1 DUP7 DUP5 GT PUSH1 0x1 EQ PUSH3 0x370 JUMPI PUSH1 0x0 SWAP4 PUSH3 0x364 JUMPI JUMPDEST POP POP DUP3 DUP5 SHL SWAP3 PUSH1 0x0 NOT SWAP2 SHL SHR NOT AND OR DUP4 SSTORE JUMPDEST PUSH1 0xFF NOT DUP1 PUSH1 0x6 SLOAD AND PUSH1 0x6 SSTORE PUSH1 0x0 DUP1 MSTORE PUSH1 0x5 SWAP2 DUP3 DUP7 MSTORE DUP8 PUSH1 0x0 KECCAK256 CALLER PUSH1 0x0 MSTORE DUP7 MSTORE PUSH1 0xFF DUP9 PUSH1 0x0 KECCAK256 SLOAD AND ISZERO PUSH3 0x32A JUMPI JUMPDEST PUSH32 0x9F2DF0FED2C77648DE5860A4CC508CD0818C85B8B8A1AB4CEEEF8D981C8956A6 DUP1 PUSH1 0x0 MSTORE DUP4 DUP8 MSTORE DUP9 PUSH1 0x0 KECCAK256 CALLER PUSH1 0x0 MSTORE DUP8 MSTORE PUSH1 0xFF DUP10 PUSH1 0x0 KECCAK256 SLOAD AND ISZERO PUSH3 0x2EE JUMPI JUMPDEST POP PUSH32 0x3C11D16CBAFFD01DF69CE1C404F6340EE057498F5F00246190EA54220576A848 SWAP3 DUP4 PUSH1 0x0 MSTORE DUP1 DUP8 MSTORE DUP9 PUSH1 0x0 KECCAK256 CALLER PUSH1 0x0 MSTORE DUP8 MSTORE PUSH1 0xFF DUP10 PUSH1 0x0 KECCAK256 SLOAD AND ISZERO PUSH3 0x2B1 JUMPI JUMPDEST POP POP POP POP DUP4 PUSH3 0x1FC JUMPI JUMPDEST DUP5 MLOAD PUSH2 0x16F7 SWAP1 DUP2 PUSH3 0x5F1 DUP3 CODECOPY RETURN JUMPDEST CALLER ISZERO PUSH3 0x272 JUMPI POP PUSH1 0x2 SLOAD SWAP1 DUP4 DUP3 ADD DUP1 SWAP3 GT PUSH3 0x25D JUMPI POP PUSH1 0x0 SWAP2 PUSH32 0xDDF252AD1BE2C89B69C2B068FC378DAA952BA7F163C4A11628F55A4DF523B3EF SWAP2 PUSH1 0x2 SSTORE CALLER DUP4 MSTORE DUP3 DUP2 MSTORE DUP5 DUP4 KECCAK256 DUP5 DUP2 SLOAD ADD SWAP1 SSTORE DUP5 MLOAD SWAP4 DUP5 MSTORE CALLER SWAP4 LOG3 CODESIZE DUP1 DUP1 DUP1 PUSH3 0x1ED JUMP JUMPDEST PUSH1 0x11 SWAP1 PUSH4 0x4E487B71 PUSH1 0xE0 SHL PUSH1 0x0 MSTORE MSTORE PUSH1 0x24 PUSH1 0x0 REVERT JUMPDEST PUSH1 0x64 SWAP3 DUP6 MLOAD SWAP3 PUSH3 0x461BCD PUSH1 0xE5 SHL DUP5 MSTORE DUP4 ADD MSTORE PUSH1 0x24 DUP3 ADD MSTORE PUSH32 0x45524332303A206D696E7420746F20746865207A65726F206164647265737300 PUSH1 0x44 DUP3 ADD MSTORE REVERT JUMPDEST DUP4 PUSH1 0x0 MSTORE DUP7 MSTORE DUP8 PUSH1 0x0 KECCAK256 CALLER PUSH1 0x0 MSTORE DUP7 MSTORE DUP8 PUSH1 0x0 KECCAK256 SWAP2 DUP3 SLOAD AND OR SWAP1 SSTORE CALLER SWAP1 CALLER SWAP1 PUSH1 0x0 DUP1 MLOAD PUSH1 0x20 PUSH3 0x1CE8 DUP4 CODECOPY DUP2 MLOAD SWAP2 MSTORE PUSH1 0x0 DUP1 LOG4 CODESIZE DUP1 DUP1 DUP1 PUSH3 0x1E2 JUMP JUMPDEST DUP1 PUSH1 0x0 MSTORE DUP4 DUP8 MSTORE DUP9 PUSH1 0x0 KECCAK256 CALLER PUSH1 0x0 MSTORE DUP8 MSTORE DUP9 PUSH1 0x0 KECCAK256 DUP3 DUP5 DUP3 SLOAD AND OR SWAP1 SSTORE CALLER SWAP1 CALLER SWAP1 PUSH1 0x0 DUP1 MLOAD PUSH1 0x20 PUSH3 0x1CE8 DUP4 CODECOPY DUP2 MLOAD SWAP2 MSTORE PUSH1 0x0 DUP1 LOG4 CODESIZE PUSH3 0x19F JUMP JUMPDEST PUSH1 0x0 DUP1 MSTORE DUP3 DUP7 MSTORE DUP8 PUSH1 0x0 KECCAK256 CALLER PUSH1 0x0 MSTORE DUP7 MSTORE DUP8 PUSH1 0x0 KECCAK256 DUP2 DUP4 DUP3 SLOAD AND OR SWAP1 SSTORE CALLER CALLER PUSH1 0x0 PUSH1 0x0 DUP1 MLOAD PUSH1 0x20 PUSH3 0x1CE8 DUP4 CODECOPY DUP2 MLOAD SWAP2 MSTORE DUP2 DUP1 LOG4 PUSH3 0x15E JUMP JUMPDEST ADD MLOAD SWAP2 POP CODESIZE DUP1 PUSH3 0x11E JUMP JUMPDEST SWAP2 SWAP1 DUP6 SWAP5 POP PUSH1 0x1F NOT DUP5 AND SWAP3 DUP9 PUSH1 0x0 MSTORE DUP10 PUSH1 0x0 KECCAK256 SWAP4 PUSH1 0x0 JUMPDEST DUP12 DUP3 DUP3 LT PUSH3 0x3C4 JUMPI POP POP DUP6 GT PUSH3 0x3A9 JUMPI JUMPDEST POP POP POP POP DUP2 SHL ADD DUP4 SSTORE PUSH3 0x130 JUMP JUMPDEST ADD MLOAD SWAP1 PUSH1 0xF8 DUP5 PUSH1 0x0 NOT SWAP3 SHL AND SHR NOT AND SWAP1 SSTORE CODESIZE DUP1 DUP1 DUP1 PUSH3 0x39A JUMP JUMPDEST DUP4 DUP6 ADD MLOAD DUP8 SSTORE DUP10 SWAP9 SWAP1 SWAP7 ADD SWAP6 SWAP4 DUP5 ADD SWAP4 ADD PUSH3 0x387 JUMP JUMPDEST SWAP1 SWAP2 SWAP3 POP DUP7 PUSH1 0x0 MSTORE DUP8 PUSH1 0x0 KECCAK256 DUP7 DUP1 DUP7 ADD PUSH1 0x5 SHR DUP3 ADD SWAP3 DUP11 DUP8 LT PUSH3 0x429 JUMPI JUMPDEST SWAP2 DUP8 SWAP2 DUP8 SWAP7 SWAP6 SWAP5 SWAP4 ADD PUSH1 0x5 SHR ADD SWAP2 JUMPDEST DUP3 DUP2 LT PUSH3 0x419 JUMPI POP POP PUSH3 0x107 JUMP JUMPDEST PUSH1 0x0 DUP2 SSTORE DUP7 SWAP6 POP DUP8 SWAP2 ADD PUSH3 0x409 JUMP JUMPDEST SWAP3 POP DUP2 SWAP3 PUSH3 0x3FA JUMP JUMPDEST PUSH1 0x22 DUP8 PUSH4 0x4E487B71 PUSH1 0xE0 SHL PUSH1 0x0 MSTORE MSTORE PUSH1 0x24 PUSH1 0x0 REVERT JUMPDEST SWAP1 PUSH1 0x7F AND SWAP1 PUSH3 0xF1 JUMP JUMPDEST PUSH4 0x4E487B71 PUSH1 0xE0 SHL PUSH1 0x0 MSTORE PUSH1 0x41 PUSH1 0x4 MSTORE PUSH1 0x24 PUSH1 0x0 REVERT JUMPDEST ADD MLOAD SWAP1 POP CODESIZE DUP1 PUSH3 0xC2 JUMP JUMPDEST SWAP1 DUP7 SWAP4 POP PUSH1 0x1F NOT DUP4 AND SWAP2 DUP6 PUSH1 0x0 MSTORE DUP11 PUSH1 0x0 KECCAK256 SWAP3 PUSH1 0x0 JUMPDEST DUP13 DUP3 DUP3 LT PUSH3 0x4C5 JUMPI POP POP DUP5 GT PUSH3 0x4AC JUMPI JUMPDEST POP POP POP DUP2 SHL ADD DUP2 SSTORE PUSH3 0xD4 JUMP JUMPDEST ADD MLOAD PUSH1 0x0 NOT DUP4 DUP7 SHL PUSH1 0xF8 AND SHR NOT AND SWAP1 SSTORE CODESIZE DUP1 DUP1 PUSH3 0x49E JUMP JUMPDEST DUP4 DUP6 ADD MLOAD DUP7 SSTORE DUP11 SWAP8 SWAP1 SWAP6 ADD SWAP5 SWAP4 DUP5 ADD SWAP4 ADD PUSH3 0x48B JUMP JUMPDEST SWAP1 SWAP2 POP DUP4 PUSH1 0x0 MSTORE DUP9 PUSH1 0x0 KECCAK256 DUP8 DUP1 DUP6 ADD PUSH1 0x5 SHR DUP3 ADD SWAP3 DUP12 DUP7 LT PUSH3 0x528 JUMPI JUMPDEST SWAP2 DUP9 SWAP2 DUP7 SWAP6 SWAP5 SWAP4 ADD PUSH1 0x5 SHR ADD SWAP2 JUMPDEST DUP3 DUP2 LT PUSH3 0x518 JUMPI POP POP PUSH3 0xAB JUMP JUMPDEST PUSH1 0x0 DUP2 SSTORE DUP6 SWAP5 POP DUP9 SWAP2 ADD PUSH3 0x508 JUMP JUMPDEST SWAP3 POP DUP2 SWAP3 PUSH3 0x4FA JUMP JUMPDEST PUSH4 0x4E487B71 PUSH1 0xE0 SHL PUSH1 0x0 MSTORE PUSH1 0x22 PUSH1 0x4 MSTORE PUSH1 0x24 PUSH1 0x0 REVERT JUMPDEST SWAP6 PUSH1 0x7F AND SWAP6 PUSH3 0x94 JUMP JUMPDEST PUSH1 0x0 DUP1 REVERT JUMPDEST PUSH1 0x40 MLOAD SWAP2 SWAP1 PUSH1 0x1F ADD PUSH1 0x1F NOT AND DUP3 ADD PUSH1 0x1 PUSH1 0x1 PUSH1 0x40 SHL SUB DUP2 GT DUP4 DUP3 LT OR PUSH3 0x453 JUMPI PUSH1 0x40 MSTORE JUMP JUMPDEST SWAP2 SWAP1 DUP1 PUSH1 0x1F DUP5 ADD SLT ISZERO PUSH3 0x553 JUMPI DUP3 MLOAD PUSH1 0x1 PUSH1 0x1 PUSH1 0x40 SHL SUB DUP2 GT PUSH3 0x453 JUMPI PUSH1 0x20 SWAP1 PUSH3 0x5B4 PUSH1 0x1F DUP3 ADD PUSH1 0x1F NOT AND DUP4 ADD PUSH3 0x558 JUMP JUMPDEST SWAP3 DUP2 DUP5 MSTORE DUP3 DUP3 DUP8 ADD ADD GT PUSH3 0x553 JUMPI PUSH1 0x0 JUMPDEST DUP2 DUP2 LT PUSH3 0x5DC JUMPI POP DUP3 PUSH1 0x0 SWAP4 SWAP5 SWAP6 POP ADD ADD MSTORE SWAP1 JUMP JUMPDEST DUP6 DUP2 ADD DUP4 ADD MLOAD DUP5 DUP3 ADD DUP5 ADD MSTORE DUP3 ADD PUSH3 0x5C6 JUMP INVALID PUSH1 0x80 PUSH1 0x40 DUP2 DUP2 MSTORE PUSH1 0x4 SWAP2 DUP3 CALLDATASIZE LT ISZERO PUSH2 0x16 JUMPI PUSH1 0x0 DUP1 REVERT JUMPDEST PUSH1 0x0 SWAP3 DUP4 CALLDATALOAD PUSH1 0xE0 SHR SWAP2 DUP3 PUSH4 0x1FFC9A7 EQ PUSH2 0xDFA JUMPI POP DUP2 PUSH4 0x6FDDE03 EQ PUSH2 0xD05 JUMPI DUP2 PUSH4 0x95EA7B3 EQ PUSH2 0xCDB JUMPI DUP2 PUSH4 0x18160DDD EQ PUSH2 0xCBC JUMPI DUP2 PUSH4 0x23B872DD EQ PUSH2 0xBE8 JUMPI DUP2 PUSH4 0x248A9CA3 EQ PUSH2 0xBBD JUMPI DUP2 PUSH4 0x282C51F3 EQ PUSH2 0xB82 JUMPI DUP2 PUSH4 0x2F2FF15D EQ PUSH2 0xAD5 JUMPI DUP2 PUSH4 0x313CE567 EQ PUSH2 0xAB9 JUMPI DUP2 PUSH4 0x36568ABE EQ PUSH2 0xA27 JUMPI DUP2 PUSH4 0x39509351 EQ PUSH2 0x9D7 JUMPI DUP2 PUSH4 0x3F4BA83A EQ PUSH2 0x941 JUMPI DUP2 PUSH4 0x40C10F19 EQ PUSH2 0x86F JUMPI DUP2 PUSH4 0x5C975ABB EQ PUSH2 0x84B JUMPI DUP2 PUSH4 0x70A08231 EQ PUSH2 0x814 JUMPI DUP2 PUSH4 0x8456CB59 EQ PUSH2 0x7B9 JUMPI DUP2 PUSH4 0x91D14854 EQ PUSH2 0x772 JUMPI DUP2 PUSH4 0x95D89B41 EQ PUSH2 0x66F JUMPI DUP2 PUSH4 0x9DC29FAC EQ PUSH2 0x2FD JUMPI DUP2 PUSH4 0xA217FDDF EQ PUSH2 0x2E2 JUMPI DUP2 PUSH4 0xA457C2D7 EQ PUSH2 0x23A JUMPI DUP2 PUSH4 0xA9059CBB EQ PUSH2 0x201 JUMPI DUP2 PUSH4 0xD5391393 EQ PUSH2 0x1C6 JUMPI DUP2 PUSH4 0xD547741F EQ PUSH2 0x183 JUMPI POP PUSH4 0xDD62ED3E EQ PUSH2 0x138 JUMPI PUSH1 0x0 DUP1 REVERT JUMPDEST CALLVALUE PUSH2 0x17F JUMPI DUP1 PUSH1 0x3 NOT CALLDATASIZE ADD SLT PUSH2 0x17F JUMPI DUP1 PUSH1 0x20 SWAP3 PUSH2 0x154 PUSH2 0xE9C JUMP JUMPDEST PUSH2 0x15C PUSH2 0xEB7 JUMP JUMPDEST PUSH1 0x1 PUSH1 0x1 PUSH1 0xA0 SHL SUB SWAP2 DUP3 AND DUP4 MSTORE PUSH1 0x1 DUP7 MSTORE DUP4 DUP4 KECCAK256 SWAP2 AND DUP3 MSTORE DUP5 MSTORE KECCAK256 SLOAD SWAP1 MLOAD SWAP1 DUP2 MSTORE RETURN JUMPDEST POP DUP1 REVERT JUMPDEST SWAP2 SWAP1 POP CALLVALUE PUSH2 0x1C2 JUMPI DUP1 PUSH1 0x3 NOT CALLDATASIZE ADD SLT PUSH2 0x1C2 JUMPI PUSH2 0x1BF SWAP2 CALLDATALOAD PUSH2 0x1BA PUSH1 0x1 PUSH2 0x1A8 PUSH2 0xEB7 JUMP JUMPDEST SWAP4 DUP4 DUP8 MSTORE PUSH1 0x5 PUSH1 0x20 MSTORE DUP7 KECCAK256 ADD SLOAD PUSH2 0x1094 JUMP JUMPDEST PUSH2 0x11F2 JUMP JUMPDEST DUP1 RETURN JUMPDEST DUP3 DUP1 REVERT JUMPDEST POP POP CALLVALUE PUSH2 0x17F JUMPI DUP2 PUSH1 0x3 NOT CALLDATASIZE ADD SLT PUSH2 0x17F JUMPI PUSH1 0x20 SWAP1 MLOAD PUSH32 0x9F2DF0FED2C77648DE5860A4CC508CD0818C85B8B8A1AB4CEEEF8D981C8956A6 DUP2 MSTORE RETURN JUMPDEST POP POP CALLVALUE PUSH2 0x17F JUMPI DUP1 PUSH1 0x3 NOT CALLDATASIZE ADD SLT PUSH2 0x17F JUMPI PUSH1 0x20 SWAP1 PUSH2 0x233 PUSH2 0x221 PUSH2 0xE9C JUMP JUMPDEST PUSH2 0x229 PUSH2 0x150F JUMP JUMPDEST PUSH1 0x24 CALLDATALOAD SWAP1 CALLER PUSH2 0x1553 JUMP JUMPDEST MLOAD PUSH1 0x1 DUP2 MSTORE RETURN JUMPDEST SWAP1 POP DUP3 CALLVALUE PUSH2 0x2DF JUMPI DUP3 PUSH1 0x3 NOT CALLDATASIZE ADD SLT PUSH2 0x2DF JUMPI PUSH2 0x255 PUSH2 0xE9C JUMP JUMPDEST SWAP2 DUP4 PUSH1 0x24 CALLDATALOAD SWAP3 CALLER DUP2 MSTORE PUSH1 0x1 PUSH1 0x20 MSTORE DUP2 DUP2 KECCAK256 PUSH1 0x1 DUP1 PUSH1 0xA0 SHL SUB DUP7 AND DUP3 MSTORE PUSH1 0x20 MSTORE KECCAK256 SLOAD SWAP1 DUP3 DUP3 LT PUSH2 0x28E JUMPI PUSH1 0x20 DUP6 PUSH2 0x233 DUP6 DUP6 SUB DUP8 CALLER PUSH2 0x128B JUMP JUMPDEST PUSH1 0x84 SWAP1 PUSH1 0x20 DUP7 MLOAD SWAP2 PUSH3 0x461BCD PUSH1 0xE5 SHL DUP4 MSTORE DUP3 ADD MSTORE PUSH1 0x25 PUSH1 0x24 DUP3 ADD MSTORE PUSH32 0x45524332303A2064656372656173656420616C6C6F77616E63652062656C6F77 PUSH1 0x44 DUP3 ADD MSTORE PUSH5 0x207A65726F PUSH1 0xD8 SHL PUSH1 0x64 DUP3 ADD MSTORE REVERT JUMPDEST DUP1 REVERT JUMPDEST POP POP CALLVALUE PUSH2 0x17F JUMPI DUP2 PUSH1 0x3 NOT CALLDATASIZE ADD SLT PUSH2 0x17F JUMPI MLOAD SWAP1 DUP2 MSTORE PUSH1 0x20 SWAP1 RETURN JUMPDEST DUP4 SWAP2 POP CALLVALUE PUSH2 0x17F JUMPI DUP3 PUSH1 0x3 NOT CALLDATASIZE ADD SLT PUSH2 0x17F JUMPI PUSH2 0x318 PUSH2 0xE9C JUMP JUMPDEST SWAP3 PUSH1 0x24 SWAP1 DUP2 CALLDATALOAD SWAP2 PUSH32 0x3C11D16CBAFFD01DF69CE1C404F6340EE057498F5F00246190EA54220576A848 SWAP6 DUP7 DUP7 MSTORE PUSH1 0x20 SWAP7 PUSH1 0x5 DUP9 MSTORE DUP4 DUP8 KECCAK256 CALLER DUP9 MSTORE DUP9 MSTORE PUSH1 0xFF DUP5 DUP9 KECCAK256 SLOAD AND ISZERO PUSH2 0x4AD JUMPI POP PUSH2 0x368 PUSH2 0x150F JUMP JUMPDEST PUSH1 0x1 PUSH1 0x1 PUSH1 0xA0 SHL SUB AND SWAP4 DUP5 ISZERO PUSH2 0x46D JUMPI PUSH2 0x383 DUP5 ISZERO ISZERO PUSH2 0x14C3 JUMP JUMPDEST DUP5 DUP7 MSTORE DUP6 DUP8 MSTORE DUP4 DUP4 DUP8 KECCAK256 SLOAD LT PUSH2 0x436 JUMPI DUP5 DUP7 MSTORE DUP6 DUP8 MSTORE DUP3 DUP7 KECCAK256 SLOAD SWAP2 DUP5 DUP4 LT PUSH2 0x3E9 JUMPI POP POP SWAP2 DUP5 SWAP6 SWAP2 DUP2 PUSH32 0xDDF252AD1BE2C89B69C2B068FC378DAA952BA7F163C4A11628F55A4DF523B3EF SWAP5 DUP7 DUP9 MSTORE DUP8 DUP6 MSTORE SUB DUP2 DUP8 KECCAK256 SSTORE DUP2 PUSH1 0x2 SLOAD SUB PUSH1 0x2 SSTORE MLOAD SWAP1 DUP2 MSTORE LOG3 DUP1 RETURN JUMPDEST DUP4 MLOAD PUSH3 0x461BCD PUSH1 0xE5 SHL DUP2 MSTORE SWAP2 DUP3 ADD DUP9 SWAP1 MSTORE PUSH1 0x22 SWAP1 DUP3 ADD MSTORE PUSH32 0x45524332303A206275726E20616D6F756E7420657863656564732062616C616E PUSH1 0x44 DUP3 ADD MSTORE PUSH2 0x6365 PUSH1 0xF0 SHL PUSH1 0x64 DUP3 ADD MSTORE PUSH1 0x84 SWAP1 REVERT JUMPDEST PUSH1 0x14 PUSH1 0x64 SWAP3 DUP9 DUP6 MLOAD SWAP4 PUSH3 0x461BCD PUSH1 0xE5 SHL DUP6 MSTORE DUP5 ADD MSTORE DUP3 ADD MSTORE PUSH20 0x496E73756666696369656E742062616C616E6365 PUSH1 0x60 SHL PUSH1 0x44 DUP3 ADD MSTORE REVERT JUMPDEST PUSH1 0x1D PUSH1 0x64 SWAP3 DUP9 DUP6 MLOAD SWAP4 PUSH3 0x461BCD PUSH1 0xE5 SHL DUP6 MSTORE DUP5 ADD MSTORE DUP3 ADD MSTORE PUSH32 0x43616E6E6F74206275726E2066726F6D207A65726F2061646472657373000000 PUSH1 0x44 DUP3 ADD MSTORE REVERT JUMPDEST DUP6 DUP9 DUP9 DUP6 DUP8 SWAP5 PUSH2 0x4BC CALLER PUSH2 0x13B4 JUMP JUMPDEST SWAP1 SWAP2 DUP7 MLOAD SWAP3 PUSH2 0x4CA DUP5 PUSH2 0x119E JUMP JUMPDEST PUSH1 0x42 DUP5 MSTORE DUP6 DUP5 ADD SWAP5 PUSH1 0x60 CALLDATASIZE DUP8 CALLDATACOPY DUP5 MLOAD ISZERO PUSH2 0x65D JUMPI PUSH1 0x30 DUP7 MSTORE8 DUP5 MLOAD SWAP1 PUSH1 0x1 SWAP2 DUP3 LT ISZERO PUSH2 0x64B JUMPI SWAP1 PUSH1 0x78 PUSH1 0x21 DUP8 ADD MSTORE8 PUSH1 0x41 SWAP2 JUMPDEST DUP2 DUP4 GT PUSH2 0x5E2 JUMPI POP POP POP PUSH2 0x5A1 JUMPI POP PUSH2 0x59D SWAP4 DUP7 SWAP4 PUSH2 0x589 SWAP4 PUSH2 0x57A PUSH1 0x48 SWAP5 PUSH2 0x551 SWAP11 MLOAD SWAP11 DUP6 PUSH23 0x20B1B1B2B9B9A1B7B73A3937B61D1030B1B1B7BAB73A1 PUSH1 0x4D SHL DUP14 SWAP8 DUP9 ADD MSTORE DUP3 MLOAD SWAP3 DUP4 SWAP2 PUSH1 0x37 DUP10 ADD SWAP2 ADD PUSH2 0xE4D JUMP JUMPDEST DUP5 ADD SWAP2 PUSH17 0x1034B99036B4B9B9B4B733903937B6329 PUSH1 0x7D SHL PUSH1 0x37 DUP5 ADD MSTORE MLOAD DUP1 SWAP4 DUP7 DUP5 ADD SWAP1 PUSH2 0xE4D JUMP JUMPDEST ADD SUB PUSH1 0x28 DUP2 ADD DUP8 MSTORE ADD DUP6 PUSH2 0x11D0 JUMP JUMPDEST MLOAD PUSH3 0x461BCD PUSH1 0xE5 SHL DUP2 MSTORE SWAP3 DUP4 SWAP3 DUP4 ADD PUSH2 0xE70 JUMP JUMPDEST SUB SWAP1 REVERT JUMPDEST SWAP3 POP POP POP DUP2 PUSH1 0x64 SWAP5 MLOAD SWAP4 PUSH3 0x461BCD PUSH1 0xE5 SHL DUP6 MSTORE DUP5 ADD MSTORE DUP3 ADD MSTORE PUSH32 0x537472696E67733A20686578206C656E67746820696E73756666696369656E74 PUSH1 0x44 DUP3 ADD MSTORE REVERT JUMPDEST SWAP1 SWAP2 SWAP3 PUSH1 0xF DUP2 AND PUSH1 0x10 DUP2 LT ISZERO PUSH2 0x639 JUMPI PUSH16 0x181899199A1A9B1B9C1CB0B131B232B3 PUSH1 0x81 SHL SWAP1 BYTE PUSH2 0x612 DUP6 DUP10 PUSH2 0x138D JUMP JUMPDEST MSTORE8 DUP10 SHR SWAP3 DUP1 ISZERO PUSH2 0x627 JUMPI PUSH1 0x0 NOT ADD SWAP2 SWAP1 PUSH2 0x4FB JUMP JUMPDEST PUSH4 0x4E487B71 PUSH1 0xE0 SHL DUP3 MSTORE PUSH1 0x11 DUP11 MSTORE DUP5 DUP3 REVERT JUMPDEST PUSH4 0x4E487B71 PUSH1 0xE0 SHL DUP4 MSTORE PUSH1 0x32 DUP12 MSTORE DUP6 DUP4 REVERT JUMPDEST PUSH4 0x4E487B71 PUSH1 0xE0 SHL DUP2 MSTORE PUSH1 0x32 DUP10 MSTORE DUP4 SWAP1 REVERT JUMPDEST PUSH4 0x4E487B71 PUSH1 0xE0 SHL DUP2 MSTORE PUSH1 0x32 DUP9 MSTORE SWAP1 POP REVERT JUMPDEST DUP4 DUP4 CALLVALUE PUSH2 0x17F JUMPI DUP2 PUSH1 0x3 NOT CALLDATASIZE ADD SLT PUSH2 0x17F JUMPI DUP1 MLOAD SWAP2 DUP1 SWAP4 DUP1 SLOAD SWAP2 PUSH1 0x1 SWAP1 DUP4 DUP3 SHR SWAP3 DUP3 DUP6 AND SWAP5 DUP6 ISZERO PUSH2 0x768 JUMPI JUMPDEST PUSH1 0x20 SWAP6 DUP7 DUP7 LT DUP2 EQ PUSH2 0x755 JUMPI DUP6 DUP10 MSTORE SWAP1 DUP2 ISZERO PUSH2 0x731 JUMPI POP PUSH1 0x1 EQ PUSH2 0x6D9 JUMPI JUMPDEST PUSH2 0x6D5 DUP8 DUP8 PUSH2 0x6CB DUP3 DUP13 SUB DUP4 PUSH2 0x11D0 JUMP JUMPDEST MLOAD SWAP2 DUP3 SWAP2 DUP3 PUSH2 0xE70 JUMP JUMPDEST SUB SWAP1 RETURN JUMPDEST DUP2 MSTORE SWAP3 SWAP6 POP PUSH32 0x8A35ACFBC15FF81A39AE7D344FD709F28E8600B4AA8C65C6B64BFE7FE36BD19B JUMPDEST DUP3 DUP5 LT PUSH2 0x71E JUMPI POP POP POP DUP3 PUSH2 0x6D5 SWAP5 PUSH2 0x6CB SWAP3 DUP3 ADD ADD SWAP5 DUP7 DUP1 PUSH2 0x6BA JUMP JUMPDEST DUP1 SLOAD DUP7 DUP6 ADD DUP9 ADD MSTORE SWAP3 DUP7 ADD SWAP3 DUP2 ADD PUSH2 0x700 JUMP JUMPDEST PUSH1 0xFF NOT AND DUP9 DUP8 ADD MSTORE POP POP POP POP ISZERO ISZERO PUSH1 0x5 SHL DUP4 ADD ADD SWAP3 POP PUSH2 0x6CB DUP3 PUSH2 0x6D5 DUP7 DUP1 PUSH2 0x6BA JUMP JUMPDEST PUSH4 0x4E487B71 PUSH1 0xE0 SHL DUP5 MSTORE PUSH1 0x22 DUP4 MSTORE PUSH1 0x24 DUP5 REVERT JUMPDEST SWAP4 PUSH1 0x7F AND SWAP4 PUSH2 0x69B JUMP JUMPDEST SWAP1 POP CALLVALUE PUSH2 0x1C2 JUMPI DUP2 PUSH1 0x3 NOT CALLDATASIZE ADD SLT PUSH2 0x1C2 JUMPI DUP2 PUSH1 0x20 SWAP4 PUSH1 0xFF SWAP3 PUSH2 0x793 PUSH2 0xEB7 JUMP JUMPDEST SWAP1 CALLDATALOAD DUP3 MSTORE PUSH1 0x5 DUP7 MSTORE DUP3 DUP3 KECCAK256 PUSH1 0x1 PUSH1 0x1 PUSH1 0xA0 SHL SUB SWAP1 SWAP2 AND DUP3 MSTORE DUP6 MSTORE KECCAK256 SLOAD SWAP2 MLOAD SWAP2 AND ISZERO ISZERO DUP2 MSTORE RETURN JUMPDEST POP POP CALLVALUE PUSH2 0x17F JUMPI DUP2 PUSH1 0x3 NOT CALLDATASIZE ADD SLT PUSH2 0x17F JUMPI PUSH1 0x20 PUSH32 0x62E78CEA01BEE320CD4E420270B5EA74000D11B0C9F74754EBDBFC544B05A258 SWAP2 PUSH2 0x7F7 PUSH2 0xECD JUMP JUMPDEST PUSH2 0x7FF PUSH2 0x150F JUMP JUMPDEST PUSH1 0x1 PUSH1 0xFF NOT PUSH1 0x6 SLOAD AND OR PUSH1 0x6 SSTORE MLOAD CALLER DUP2 MSTORE LOG1 DUP1 RETURN JUMPDEST POP POP CALLVALUE PUSH2 0x17F JUMPI PUSH1 0x20 CALLDATASIZE PUSH1 0x3 NOT ADD SLT PUSH2 0x17F JUMPI PUSH1 0x20 SWAP2 DUP2 SWAP1 PUSH1 0x1 PUSH1 0x1 PUSH1 0xA0 SHL SUB PUSH2 0x83C PUSH2 0xE9C JUMP JUMPDEST AND DUP2 MSTORE DUP1 DUP5 MSTORE KECCAK256 SLOAD SWAP1 MLOAD SWAP1 DUP2 MSTORE RETURN JUMPDEST POP POP CALLVALUE PUSH2 0x17F JUMPI DUP2 PUSH1 0x3 NOT CALLDATASIZE ADD SLT PUSH2 0x17F JUMPI PUSH1 0x20 SWAP1 PUSH1 0xFF PUSH1 0x6 SLOAD AND SWAP1 MLOAD SWAP1 ISZERO ISZERO DUP2 MSTORE RETURN JUMPDEST SWAP2 SWAP1 POP CALLVALUE PUSH2 0x1C2 JUMPI DUP1 PUSH1 0x3 NOT CALLDATASIZE ADD SLT PUSH2 0x1C2 JUMPI PUSH2 0x88A PUSH2 0xE9C JUMP JUMPDEST SWAP1 PUSH1 0x24 CALLDATALOAD SWAP2 PUSH2 0x897 PUSH2 0x150F JUMP JUMPDEST PUSH1 0x1 PUSH1 0x1 PUSH1 0xA0 SHL SUB AND SWAP3 DUP4 ISZERO PUSH2 0x8FF JUMPI POP PUSH1 0x20 DUP3 PUSH32 0xDDF252AD1BE2C89B69C2B068FC378DAA952BA7F163C4A11628F55A4DF523B3EF SWAP3 PUSH2 0x8D9 DUP8 SWAP6 ISZERO ISZERO PUSH2 0x14C3 JUMP JUMPDEST PUSH2 0x8E5 DUP3 PUSH1 0x2 SLOAD PUSH2 0x1268 JUMP JUMPDEST PUSH1 0x2 SSTORE DUP6 DUP6 MSTORE DUP5 DUP4 MSTORE DUP1 DUP6 KECCAK256 DUP3 DUP2 SLOAD ADD SWAP1 SSTORE MLOAD SWAP1 DUP2 MSTORE LOG3 DUP1 RETURN JUMPDEST PUSH1 0x20 PUSH1 0x64 SWAP3 MLOAD SWAP2 PUSH3 0x461BCD PUSH1 0xE5 SHL DUP4 MSTORE DUP3 ADD MSTORE PUSH1 0x1B PUSH1 0x24 DUP3 ADD MSTORE PUSH32 0x43616E6E6F74206D696E7420746F207A65726F20616464726573730000000000 PUSH1 0x44 DUP3 ADD MSTORE REVERT JUMPDEST SWAP1 POP CALLVALUE PUSH2 0x1C2 JUMPI DUP3 PUSH1 0x3 NOT CALLDATASIZE ADD SLT PUSH2 0x1C2 JUMPI PUSH2 0x95B PUSH2 0xECD JUMP JUMPDEST PUSH1 0x6 SLOAD SWAP1 PUSH1 0xFF DUP3 AND ISZERO PUSH2 0x99D JUMPI POP PUSH1 0xFF NOT AND PUSH1 0x6 SSTORE MLOAD CALLER DUP2 MSTORE PUSH32 0x5DB9EE0A495BF2E6FF9C91A7834C1BA4FDD244A5E8AA4E537BD38AEAE4B073AA SWAP1 PUSH1 0x20 SWAP1 LOG1 DUP1 RETURN JUMPDEST PUSH1 0x64 SWAP1 PUSH1 0x20 DUP5 MLOAD SWAP2 PUSH3 0x461BCD PUSH1 0xE5 SHL DUP4 MSTORE DUP3 ADD MSTORE PUSH1 0x14 PUSH1 0x24 DUP3 ADD MSTORE PUSH20 0x14185D5CD8589B194E881B9BDD081C185D5CD959 PUSH1 0x62 SHL PUSH1 0x44 DUP3 ADD MSTORE REVERT JUMPDEST POP POP CALLVALUE PUSH2 0x17F JUMPI DUP1 PUSH1 0x3 NOT CALLDATASIZE ADD SLT PUSH2 0x17F JUMPI PUSH2 0x233 PUSH1 0x20 SWAP3 PUSH2 0xA20 PUSH2 0x9FA PUSH2 0xE9C JUMP JUMPDEST CALLER DUP4 MSTORE PUSH1 0x1 DUP7 MSTORE DUP5 DUP4 KECCAK256 PUSH1 0x1 PUSH1 0x1 PUSH1 0xA0 SHL SUB DUP3 AND DUP5 MSTORE DUP7 MSTORE SWAP2 DUP5 SWAP1 KECCAK256 SLOAD PUSH1 0x24 CALLDATALOAD SWAP1 PUSH2 0x1268 JUMP JUMPDEST SWAP1 CALLER PUSH2 0x128B JUMP JUMPDEST DUP4 SWAP2 POP CALLVALUE PUSH2 0x17F JUMPI DUP3 PUSH1 0x3 NOT CALLDATASIZE ADD SLT PUSH2 0x17F JUMPI PUSH2 0xA42 PUSH2 0xEB7 JUMP JUMPDEST SWAP1 CALLER PUSH1 0x1 PUSH1 0x1 PUSH1 0xA0 SHL SUB DUP4 AND SUB PUSH2 0xA5E JUMPI SWAP1 PUSH2 0x1BF SWAP2 CALLDATALOAD PUSH2 0x11F2 JUMP JUMPDEST PUSH1 0x84 SWAP1 PUSH1 0x20 DUP6 MLOAD SWAP2 PUSH3 0x461BCD PUSH1 0xE5 SHL DUP4 MSTORE DUP3 ADD MSTORE PUSH1 0x2F PUSH1 0x24 DUP3 ADD MSTORE PUSH32 0x416363657373436F6E74726F6C3A2063616E206F6E6C792072656E6F756E6365 PUSH1 0x44 DUP3 ADD MSTORE PUSH15 0x103937B632B9903337B91039B2B633 PUSH1 0x89 SHL PUSH1 0x64 DUP3 ADD MSTORE REVERT JUMPDEST POP POP CALLVALUE PUSH2 0x17F JUMPI DUP2 PUSH1 0x3 NOT CALLDATASIZE ADD SLT PUSH2 0x17F JUMPI PUSH1 0x20 SWAP1 MLOAD PUSH1 0x12 DUP2 MSTORE RETURN JUMPDEST SWAP1 POP CALLVALUE PUSH2 0x1C2 JUMPI DUP2 PUSH1 0x3 NOT CALLDATASIZE ADD SLT PUSH2 0x1C2 JUMPI CALLDATALOAD SWAP1 PUSH2 0xAF1 PUSH2 0xEB7 JUMP JUMPDEST SWAP1 DUP3 DUP5 MSTORE PUSH1 0x5 PUSH1 0x20 MSTORE PUSH2 0xB09 PUSH1 0x1 DUP3 DUP7 KECCAK256 ADD SLOAD PUSH2 0x1094 JUMP JUMPDEST DUP3 DUP5 MSTORE PUSH1 0x5 PUSH1 0x20 SWAP1 DUP2 MSTORE DUP2 DUP6 KECCAK256 PUSH1 0x1 PUSH1 0x1 PUSH1 0xA0 SHL SUB SWAP1 SWAP4 AND DUP1 DUP7 MSTORE SWAP3 SWAP1 MSTORE DUP1 DUP5 KECCAK256 SLOAD PUSH1 0xFF AND ISZERO PUSH2 0xB37 JUMPI DUP4 DUP1 RETURN JUMPDEST DUP3 DUP5 MSTORE PUSH1 0x5 PUSH1 0x20 MSTORE DUP1 DUP5 KECCAK256 DUP3 DUP6 MSTORE PUSH1 0x20 MSTORE DUP4 KECCAK256 PUSH1 0x1 PUSH1 0xFF NOT DUP3 SLOAD AND OR SWAP1 SSTORE CALLER SWAP2 PUSH32 0x2F8788117E7EFF1D82E926EC794901D17C78024A50270940304540A733656F0D DUP5 DUP1 LOG4 CODESIZE DUP1 DUP1 DUP4 DUP1 RETURN JUMPDEST POP POP CALLVALUE PUSH2 0x17F JUMPI DUP2 PUSH1 0x3 NOT CALLDATASIZE ADD SLT PUSH2 0x17F JUMPI PUSH1 0x20 SWAP1 MLOAD PUSH32 0x3C11D16CBAFFD01DF69CE1C404F6340EE057498F5F00246190EA54220576A848 DUP2 MSTORE RETURN JUMPDEST SWAP1 POP CALLVALUE PUSH2 0x1C2 JUMPI PUSH1 0x20 CALLDATASIZE PUSH1 0x3 NOT ADD SLT PUSH2 0x1C2 JUMPI DUP2 PUSH1 0x20 SWAP4 PUSH1 0x1 SWAP3 CALLDATALOAD DUP2 MSTORE PUSH1 0x5 DUP6 MSTORE KECCAK256 ADD SLOAD SWAP1 MLOAD SWAP1 DUP2 MSTORE RETURN JUMPDEST DUP4 SWAP2 POP CALLVALUE PUSH2 0x17F JUMPI PUSH1 0x60 CALLDATASIZE PUSH1 0x3 NOT ADD SLT PUSH2 0x17F JUMPI PUSH2 0xC04 PUSH2 0xE9C JUMP JUMPDEST PUSH2 0xC0C PUSH2 0xEB7 JUMP JUMPDEST SWAP2 DUP5 PUSH1 0x44 CALLDATALOAD SWAP5 PUSH2 0xC1A PUSH2 0x150F JUMP JUMPDEST PUSH1 0x1 PUSH1 0x1 PUSH1 0xA0 SHL SUB DUP5 AND DUP2 MSTORE PUSH1 0x1 PUSH1 0x20 DUP2 DUP2 MSTORE DUP4 DUP4 KECCAK256 CALLER DUP5 MSTORE SWAP1 MSTORE SWAP2 SWAP1 KECCAK256 SLOAD SWAP2 SWAP1 DUP3 ADD PUSH2 0xC50 JUMPI JUMPDEST PUSH1 0x20 DUP7 PUSH2 0x233 DUP8 DUP8 DUP8 PUSH2 0x1553 JUMP JUMPDEST DUP5 DUP3 LT PUSH2 0xC79 JUMPI POP SWAP2 DUP4 SWAP2 PUSH2 0xC6E PUSH1 0x20 SWAP7 SWAP6 PUSH2 0x233 SWAP6 SUB CALLER DUP4 PUSH2 0x128B JUMP JUMPDEST SWAP2 SWAP4 SWAP5 DUP2 SWAP4 POP PUSH2 0xC42 JUMP JUMPDEST PUSH1 0x64 SWAP1 PUSH1 0x20 DUP8 MLOAD SWAP2 PUSH3 0x461BCD PUSH1 0xE5 SHL DUP4 MSTORE DUP3 ADD MSTORE PUSH1 0x1D PUSH1 0x24 DUP3 ADD MSTORE PUSH32 0x45524332303A20696E73756666696369656E7420616C6C6F77616E6365000000 PUSH1 0x44 DUP3 ADD MSTORE REVERT JUMPDEST POP POP CALLVALUE PUSH2 0x17F JUMPI DUP2 PUSH1 0x3 NOT CALLDATASIZE ADD SLT PUSH2 0x17F JUMPI PUSH1 0x20 SWAP1 PUSH1 0x2 SLOAD SWAP1 MLOAD SWAP1 DUP2 MSTORE RETURN JUMPDEST POP POP CALLVALUE PUSH2 0x17F JUMPI DUP1 PUSH1 0x3 NOT CALLDATASIZE ADD SLT PUSH2 0x17F JUMPI PUSH1 0x20 SWAP1 PUSH2 0x233 PUSH2 0xCFB PUSH2 0xE9C JUMP JUMPDEST PUSH1 0x24 CALLDATALOAD SWAP1 CALLER PUSH2 0x128B JUMP JUMPDEST SWAP2 SWAP1 POP CALLVALUE PUSH2 0x1C2 JUMPI DUP3 PUSH1 0x3 NOT CALLDATASIZE ADD SLT PUSH2 0x1C2 JUMPI DUP1 MLOAD SWAP2 DUP4 PUSH1 0x3 SLOAD SWAP1 PUSH1 0x1 SWAP1 DUP3 DUP3 SHR SWAP3 DUP3 DUP2 AND DUP1 ISZERO PUSH2 0xDF0 JUMPI JUMPDEST PUSH1 0x20 SWAP6 DUP7 DUP7 LT DUP3 EQ PUSH2 0xDDD JUMPI POP DUP5 DUP9 MSTORE SWAP1 DUP2 ISZERO PUSH2 0xDBB JUMPI POP PUSH1 0x1 EQ PUSH2 0xD62 JUMPI JUMPDEST PUSH2 0x6D5 DUP7 DUP7 PUSH2 0x6CB DUP3 DUP12 SUB DUP4 PUSH2 0x11D0 JUMP JUMPDEST SWAP3 SWAP6 POP PUSH1 0x3 DUP4 MSTORE PUSH32 0xC2575A0E9E593C00F959F8C92F12DB2869C3395A3B0502D05E2516446F71F85B JUMPDEST DUP3 DUP5 LT PUSH2 0xDA8 JUMPI POP POP POP DUP3 PUSH2 0x6D5 SWAP5 PUSH2 0x6CB SWAP3 DUP3 ADD ADD SWAP5 CODESIZE PUSH2 0xD51 JUMP JUMPDEST DUP1 SLOAD DUP7 DUP6 ADD DUP9 ADD MSTORE SWAP3 DUP7 ADD SWAP3 DUP2 ADD PUSH2 0xD8B JUMP JUMPDEST PUSH1 0xFF NOT AND DUP8 DUP7 ADD MSTORE POP POP POP ISZERO ISZERO PUSH1 0x5 SHL DUP4 ADD ADD SWAP3 POP PUSH2 0x6CB DUP3 PUSH2 0x6D5 CODESIZE PUSH2 0xD51 JUMP JUMPDEST PUSH4 0x4E487B71 PUSH1 0xE0 SHL DUP5 MSTORE PUSH1 0x22 SWAP1 MSTORE PUSH1 0x24 DUP4 REVERT JUMPDEST SWAP4 PUSH1 0x7F AND SWAP4 PUSH2 0xD31 JUMP JUMPDEST DUP5 SWAP2 CALLVALUE PUSH2 0x1C2 JUMPI PUSH1 0x20 CALLDATASIZE PUSH1 0x3 NOT ADD SLT PUSH2 0x1C2 JUMPI CALLDATALOAD PUSH4 0xFFFFFFFF PUSH1 0xE0 SHL DUP2 AND DUP1 SWAP2 SUB PUSH2 0x1C2 JUMPI PUSH1 0x20 SWAP3 POP PUSH4 0x7965DB0B PUSH1 0xE0 SHL DUP2 EQ SWAP1 DUP2 ISZERO PUSH2 0xE3C JUMPI JUMPDEST POP ISZERO ISZERO DUP2 MSTORE RETURN JUMPDEST PUSH4 0x1FFC9A7 PUSH1 0xE0 SHL EQ SWAP1 POP DUP4 PUSH2 0xE35 JUMP JUMPDEST PUSH1 0x0 JUMPDEST DUP4 DUP2 LT PUSH2 0xE60 JUMPI POP POP PUSH1 0x0 SWAP2 ADD MSTORE JUMP JUMPDEST DUP2 DUP2 ADD MLOAD DUP4 DUP3 ADD MSTORE PUSH1 0x20 ADD PUSH2 0xE50 JUMP JUMPDEST PUSH1 0x40 SWAP2 PUSH1 0x20 DUP3 MSTORE PUSH2 0xE90 DUP2 MLOAD DUP1 SWAP3 DUP2 PUSH1 0x20 DUP7 ADD MSTORE PUSH1 0x20 DUP7 DUP7 ADD SWAP2 ADD PUSH2 0xE4D JUMP JUMPDEST PUSH1 0x1F ADD PUSH1 0x1F NOT AND ADD ADD SWAP1 JUMP JUMPDEST PUSH1 0x4 CALLDATALOAD SWAP1 PUSH1 0x1 PUSH1 0x1 PUSH1 0xA0 SHL SUB DUP3 AND DUP3 SUB PUSH2 0xEB2 JUMPI JUMP JUMPDEST PUSH1 0x0 DUP1 REVERT JUMPDEST PUSH1 0x24 CALLDATALOAD SWAP1 PUSH1 0x1 PUSH1 0x1 PUSH1 0xA0 SHL SUB DUP3 AND DUP3 SUB PUSH2 0xEB2 JUMPI JUMP JUMPDEST CALLER PUSH1 0x0 SWAP1 DUP2 MSTORE PUSH32 0x5B8CCBB9D4D8FB16EA74CE3C29A41F1B461FBDAFF4714A0D9A8EB05499746BC PUSH1 0x20 SWAP1 DUP2 MSTORE PUSH1 0x40 DUP1 DUP4 KECCAK256 SLOAD SWAP1 SWAP3 SWAP1 PUSH1 0xFF AND ISZERO PUSH2 0xF0F JUMPI POP POP POP JUMP JUMPDEST PUSH2 0xF18 CALLER PUSH2 0x13B4 JUMP JUMPDEST DUP4 MLOAD SWAP1 DUP3 PUSH2 0xF25 DUP4 PUSH2 0x119E JUMP JUMPDEST PUSH1 0x42 DUP4 MSTORE DUP5 DUP4 ADD SWAP4 PUSH1 0x60 CALLDATASIZE DUP7 CALLDATACOPY DUP4 MLOAD ISZERO PUSH2 0x1080 JUMPI PUSH1 0x30 DUP6 MSTORE8 DUP4 MLOAD SWAP1 PUSH1 0x1 SWAP2 DUP3 LT ISZERO PUSH2 0x1080 JUMPI SWAP1 PUSH1 0x78 PUSH1 0x21 DUP7 ADD MSTORE8 PUSH1 0x41 SWAP2 JUMPDEST DUP2 DUP4 GT PUSH2 0x1012 JUMPI POP POP POP PUSH2 0xFD0 JUMPI PUSH2 0x551 SWAP4 DUP6 SWAP4 PUSH2 0xFBA SWAP4 PUSH2 0xFAB PUSH1 0x48 SWAP5 PUSH2 0x59D SWAP10 MLOAD SWAP9 DUP6 PUSH23 0x20B1B1B2B9B9A1B7B73A3937B61D1030B1B1B7BAB73A1 PUSH1 0x4D SHL DUP12 SWAP8 DUP9 ADD MSTORE DUP3 MLOAD SWAP3 DUP4 SWAP2 PUSH1 0x37 DUP10 ADD SWAP2 ADD PUSH2 0xE4D JUMP JUMPDEST ADD SUB PUSH1 0x28 DUP2 ADD DUP6 MSTORE ADD DUP4 PUSH2 0x11D0 JUMP JUMPDEST MLOAD PUSH3 0x461BCD PUSH1 0xE5 SHL DUP2 MSTORE SWAP2 DUP3 SWAP2 PUSH1 0x4 DUP4 ADD PUSH2 0xE70 JUMP JUMPDEST PUSH1 0x64 DUP5 DUP7 MLOAD SWAP1 PUSH3 0x461BCD PUSH1 0xE5 SHL DUP3 MSTORE DUP1 PUSH1 0x4 DUP4 ADD MSTORE PUSH1 0x24 DUP3 ADD MSTORE PUSH32 0x537472696E67733A20686578206C656E67746820696E73756666696369656E74 PUSH1 0x44 DUP3 ADD MSTORE REVERT JUMPDEST SWAP1 SWAP2 SWAP3 PUSH1 0xF DUP2 AND PUSH1 0x10 DUP2 LT ISZERO PUSH2 0x106C JUMPI PUSH16 0x181899199A1A9B1B9C1CB0B131B232B3 PUSH1 0x81 SHL SWAP1 BYTE PUSH2 0x1042 DUP6 DUP9 PUSH2 0x138D JUMP JUMPDEST MSTORE8 PUSH1 0x4 SHR SWAP3 DUP1 ISZERO PUSH2 0x1058 JUMPI PUSH1 0x0 NOT ADD SWAP2 SWAP1 PUSH2 0xF56 JUMP JUMPDEST PUSH4 0x4E487B71 PUSH1 0xE0 SHL DUP3 MSTORE PUSH1 0x11 PUSH1 0x4 MSTORE PUSH1 0x24 DUP3 REVERT JUMPDEST PUSH4 0x4E487B71 PUSH1 0xE0 SHL DUP4 MSTORE PUSH1 0x32 PUSH1 0x4 MSTORE PUSH1 0x24 DUP4 REVERT JUMPDEST PUSH4 0x4E487B71 PUSH1 0xE0 SHL DUP2 MSTORE PUSH1 0x32 PUSH1 0x4 MSTORE PUSH1 0x24 SWAP1 REVERT JUMPDEST PUSH1 0x0 DUP2 DUP2 MSTORE PUSH1 0x20 SWAP1 PUSH1 0x5 DUP3 MSTORE PUSH1 0x40 SWAP3 DUP4 DUP3 KECCAK256 CALLER DUP4 MSTORE DUP4 MSTORE PUSH1 0xFF DUP5 DUP4 KECCAK256 SLOAD AND ISZERO PUSH2 0x10BD JUMPI POP POP POP POP JUMP JUMPDEST PUSH2 0x10C6 CALLER PUSH2 0x13B4 JUMP JUMPDEST DUP5 MLOAD SWAP2 PUSH2 0x10D2 DUP4 PUSH2 0x119E JUMP JUMPDEST PUSH1 0x42 DUP4 MSTORE DUP5 DUP4 ADD SWAP4 PUSH1 0x60 CALLDATASIZE DUP7 CALLDATACOPY DUP4 MLOAD ISZERO PUSH2 0x1080 JUMPI PUSH1 0x30 DUP6 MSTORE8 DUP4 MLOAD SWAP1 PUSH1 0x1 SWAP2 DUP3 LT ISZERO PUSH2 0x1080 JUMPI SWAP1 PUSH1 0x78 PUSH1 0x21 DUP7 ADD MSTORE8 PUSH1 0x41 SWAP2 JUMPDEST DUP2 DUP4 GT PUSH2 0x1158 JUMPI POP POP POP PUSH2 0xFD0 JUMPI PUSH2 0x551 SWAP4 DUP6 SWAP4 PUSH2 0xFBA SWAP4 PUSH2 0xFAB PUSH1 0x48 SWAP5 PUSH2 0x59D SWAP10 MLOAD SWAP9 DUP6 PUSH23 0x20B1B1B2B9B9A1B7B73A3937B61D1030B1B1B7BAB73A1 PUSH1 0x4D SHL DUP12 SWAP8 DUP9 ADD MSTORE DUP3 MLOAD SWAP3 DUP4 SWAP2 PUSH1 0x37 DUP10 ADD SWAP2 ADD PUSH2 0xE4D JUMP JUMPDEST SWAP1 SWAP2 SWAP3 PUSH1 0xF DUP2 AND PUSH1 0x10 DUP2 LT ISZERO PUSH2 0x106C JUMPI PUSH16 0x181899199A1A9B1B9C1CB0B131B232B3 PUSH1 0x81 SHL SWAP1 BYTE PUSH2 0x1188 DUP6 DUP9 PUSH2 0x138D JUMP JUMPDEST MSTORE8 PUSH1 0x4 SHR SWAP3 DUP1 ISZERO PUSH2 0x1058 JUMPI PUSH1 0x0 NOT ADD SWAP2 SWAP1 PUSH2 0x1103 JUMP JUMPDEST PUSH1 0x80 DUP2 ADD SWAP1 DUP2 LT PUSH8 0xFFFFFFFFFFFFFFFF DUP3 GT OR PUSH2 0x11BA JUMPI PUSH1 0x40 MSTORE JUMP JUMPDEST PUSH4 0x4E487B71 PUSH1 0xE0 SHL PUSH1 0x0 MSTORE PUSH1 0x41 PUSH1 0x4 MSTORE PUSH1 0x24 PUSH1 0x0 REVERT JUMPDEST SWAP1 PUSH1 0x1F DUP1 NOT SWAP2 ADD AND DUP2 ADD SWAP1 DUP2 LT PUSH8 0xFFFFFFFFFFFFFFFF DUP3 GT OR PUSH2 0x11BA JUMPI PUSH1 0x40 MSTORE JUMP JUMPDEST SWAP1 PUSH1 0x0 SWAP2 DUP1 DUP4 MSTORE PUSH1 0x5 PUSH1 0x20 MSTORE PUSH1 0x40 DUP4 KECCAK256 SWAP2 PUSH1 0x1 DUP1 PUSH1 0xA0 SHL SUB AND SWAP2 DUP3 DUP5 MSTORE PUSH1 0x20 MSTORE PUSH1 0xFF PUSH1 0x40 DUP5 KECCAK256 SLOAD AND PUSH2 0x1223 JUMPI POP POP POP JUMP JUMPDEST DUP1 DUP4 MSTORE PUSH1 0x5 PUSH1 0x20 MSTORE PUSH1 0x40 DUP4 KECCAK256 DUP3 DUP5 MSTORE PUSH1 0x20 MSTORE PUSH1 0x40 DUP4 KECCAK256 PUSH1 0xFF NOT DUP2 SLOAD AND SWAP1 SSTORE PUSH32 0xF6391F5C32D9C69D2A47EA670B442974B53935D1EDC7FD64EB21E047A839171B CALLER SWAP4 DUP1 LOG4 JUMP JUMPDEST SWAP2 SWAP1 DUP3 ADD DUP1 SWAP3 GT PUSH2 0x1275 JUMPI JUMP JUMPDEST PUSH4 0x4E487B71 PUSH1 0xE0 SHL PUSH1 0x0 MSTORE PUSH1 0x11 PUSH1 0x4 MSTORE PUSH1 0x24 PUSH1 0x0 REVERT JUMPDEST PUSH1 0x1 PUSH1 0x1 PUSH1 0xA0 SHL SUB SWAP1 DUP2 AND SWAP2 DUP3 ISZERO PUSH2 0x133C JUMPI AND SWAP2 DUP3 ISZERO PUSH2 0x12EC JUMPI PUSH1 0x20 PUSH32 0x8C5BE1E5EBEC7D5BD14F71427D1E84F3DD0314C0F7B2291E5B200AC8C7C3B925 SWAP2 DUP4 PUSH1 0x0 MSTORE PUSH1 0x1 DUP3 MSTORE PUSH1 0x40 PUSH1 0x0 KECCAK256 DUP6 PUSH1 0x0 MSTORE DUP3 MSTORE DUP1 PUSH1 0x40 PUSH1 0x0 KECCAK256 SSTORE PUSH1 0x40 MLOAD SWAP1 DUP2 MSTORE LOG3 JUMP JUMPDEST PUSH1 0x40 MLOAD PUSH3 0x461BCD PUSH1 0xE5 SHL DUP2 MSTORE PUSH1 0x20 PUSH1 0x4 DUP3 ADD MSTORE PUSH1 0x22 PUSH1 0x24 DUP3 ADD MSTORE PUSH32 0x45524332303A20617070726F766520746F20746865207A65726F206164647265 PUSH1 0x44 DUP3 ADD MSTORE PUSH2 0x7373 PUSH1 0xF0 SHL PUSH1 0x64 DUP3 ADD MSTORE PUSH1 0x84 SWAP1 REVERT JUMPDEST PUSH1 0x40 MLOAD PUSH3 0x461BCD PUSH1 0xE5 SHL DUP2 MSTORE PUSH1 0x20 PUSH1 0x4 DUP3 ADD MSTORE PUSH1 0x24 DUP1 DUP3 ADD MSTORE PUSH32 0x45524332303A20617070726F76652066726F6D20746865207A65726F20616464 PUSH1 0x44 DUP3 ADD MSTORE PUSH4 0x72657373 PUSH1 0xE0 SHL PUSH1 0x64 DUP3 ADD MSTORE PUSH1 0x84 SWAP1 REVERT JUMPDEST SWAP1 DUP2 MLOAD DUP2 LT ISZERO PUSH2 0x139E JUMPI ADD PUSH1 0x20 ADD SWAP1 JUMP JUMPDEST PUSH4 0x4E487B71 PUSH1 0xE0 SHL PUSH1 0x0 MSTORE PUSH1 0x32 PUSH1 0x4 MSTORE PUSH1 0x24 PUSH1 0x0 REVERT JUMPDEST PUSH1 0x40 MLOAD SWAP1 PUSH1 0x60 DUP3 ADD DUP3 DUP2 LT PUSH8 0xFFFFFFFFFFFFFFFF DUP3 GT OR PUSH2 0x11BA JUMPI PUSH1 0x40 MSTORE PUSH1 0x2A DUP3 MSTORE PUSH1 0x20 DUP3 ADD PUSH1 0x40 CALLDATASIZE DUP3 CALLDATACOPY DUP3 MLOAD ISZERO PUSH2 0x139E JUMPI PUSH1 0x30 SWAP1 MSTORE8 DUP2 MLOAD PUSH1 0x1 SWAP1 DUP2 LT ISZERO PUSH2 0x139E JUMPI PUSH1 0x78 PUSH1 0x21 DUP5 ADD MSTORE8 PUSH1 0x29 SWAP1 JUMPDEST DUP1 DUP3 GT PUSH2 0x1455 JUMPI POP POP PUSH2 0x1411 JUMPI SWAP1 JUMP JUMPDEST PUSH1 0x64 PUSH1 0x40 MLOAD PUSH3 0x461BCD PUSH1 0xE5 SHL DUP2 MSTORE PUSH1 0x20 PUSH1 0x4 DUP3 ADD MSTORE PUSH1 0x20 PUSH1 0x24 DUP3 ADD MSTORE PUSH32 0x537472696E67733A20686578206C656E67746820696E73756666696369656E74 PUSH1 0x44 DUP3 ADD MSTORE REVERT JUMPDEST SWAP1 SWAP2 PUSH1 0xF DUP2 AND PUSH1 0x10 DUP2 LT ISZERO PUSH2 0x14AE JUMPI PUSH16 0x181899199A1A9B1B9C1CB0B131B232B3 PUSH1 0x81 SHL SWAP1 BYTE PUSH2 0x1484 DUP5 DUP7 PUSH2 0x138D JUMP JUMPDEST MSTORE8 PUSH1 0x4 SHR SWAP2 DUP1 ISZERO PUSH2 0x1499 JUMPI PUSH1 0x0 NOT ADD SWAP1 PUSH2 0x1401 JUMP JUMPDEST PUSH1 0x24 PUSH1 0x0 PUSH4 0x4E487B71 PUSH1 0xE0 SHL DUP2 MSTORE PUSH1 0x11 PUSH1 0x4 MSTORE REVERT JUMPDEST PUSH1 0x24 PUSH1 0x0 PUSH4 0x4E487B71 PUSH1 0xE0 SHL DUP2 MSTORE PUSH1 0x32 PUSH1 0x4 MSTORE REVERT JUMPDEST ISZERO PUSH2 0x14CA JUMPI JUMP JUMPDEST PUSH1 0x40 MLOAD PUSH3 0x461BCD PUSH1 0xE5 SHL DUP2 MSTORE PUSH1 0x20 PUSH1 0x4 DUP3 ADD MSTORE PUSH1 0x1D PUSH1 0x24 DUP3 ADD MSTORE PUSH32 0x416D6F756E74206D7573742062652067726561746572207468616E2030000000 PUSH1 0x44 DUP3 ADD MSTORE PUSH1 0x64 SWAP1 REVERT JUMPDEST PUSH1 0xFF PUSH1 0x6 SLOAD AND PUSH2 0x151B JUMPI JUMP JUMPDEST PUSH1 0x40 MLOAD PUSH3 0x461BCD PUSH1 0xE5 SHL DUP2 MSTORE PUSH1 0x20 PUSH1 0x4 DUP3 ADD MSTORE PUSH1 0x10 PUSH1 0x24 DUP3 ADD MSTORE PUSH16 0x14185D5CD8589B194E881C185D5CD959 PUSH1 0x82 SHL PUSH1 0x44 DUP3 ADD MSTORE PUSH1 0x64 SWAP1 REVERT JUMPDEST PUSH1 0x1 PUSH1 0x1 PUSH1 0xA0 SHL SUB SWAP1 DUP2 AND SWAP2 DUP3 ISZERO PUSH2 0x166E JUMPI AND SWAP2 DUP3 ISZERO PUSH2 0x161D JUMPI PUSH1 0x0 DUP3 DUP2 MSTORE DUP1 PUSH1 0x20 MSTORE PUSH1 0x40 DUP2 KECCAK256 SLOAD SWAP2 DUP1 DUP4 LT PUSH2 0x15C9 JUMPI PUSH1 0x40 DUP3 DUP3 PUSH32 0xDDF252AD1BE2C89B69C2B068FC378DAA952BA7F163C4A11628F55A4DF523B3EF SWAP6 DUP8 PUSH1 0x20 SWAP7 MSTORE DUP3 DUP7 MSTORE SUB DUP3 DUP3 KECCAK256 SSTORE DUP7 DUP2 MSTORE KECCAK256 DUP2 DUP2 SLOAD ADD SWAP1 SSTORE PUSH1 0x40 MLOAD SWAP1 DUP2 MSTORE LOG3 JUMP JUMPDEST PUSH1 0x40 MLOAD PUSH3 0x461BCD PUSH1 0xE5 SHL DUP2 MSTORE PUSH1 0x20 PUSH1 0x4 DUP3 ADD MSTORE PUSH1 0x26 PUSH1 0x24 DUP3 ADD MSTORE PUSH32 0x45524332303A207472616E7366657220616D6F756E7420657863656564732062 PUSH1 0x44 DUP3 ADD MSTORE PUSH6 0x616C616E6365 PUSH1 0xD0 SHL PUSH1 0x64 DUP3 ADD MSTORE PUSH1 0x84 SWAP1 REVERT JUMPDEST PUSH1 0x40 MLOAD PUSH3 0x461BCD PUSH1 0xE5 SHL DUP2 MSTORE PUSH1 0x20 PUSH1 0x4 DUP3 ADD MSTORE PUSH1 0x23 PUSH1 0x24 DUP3 ADD MSTORE PUSH32 0x45524332303A207472616E7366657220746F20746865207A65726F2061646472 PUSH1 0x44 DUP3 ADD MSTORE PUSH3 0x657373 PUSH1 0xE8 SHL PUSH1 0x64 DUP3 ADD MSTORE PUSH1 0x84 SWAP1 REVERT JUMPDEST PUSH1 0x40 MLOAD PUSH3 0x461BCD PUSH1 0xE5 SHL DUP2 MSTORE PUSH1 0x20 PUSH1 0x4 DUP3 ADD MSTORE PUSH1 0x25 PUSH1 0x24 DUP3 ADD MSTORE PUSH32 0x45524332303A207472616E736665722066726F6D20746865207A65726F206164 PUSH1 0x44 DUP3 ADD MSTORE PUSH5 0x6472657373 PUSH1 0xD8 SHL PUSH1 0x64 DUP3 ADD MSTORE PUSH1 0x84 SWAP1 REVERT INVALID LOG2 PUSH5 0x6970667358 0x22 SLT KECCAK256 0xA6 PUSH15 0xA2CD5341FB384DDDDF75D254291C0A CODECOPY 0xB5 0xE7 0xC2 SWAP2 0xA9 DUP13 PUSH14 0xDE3C5D9C2A665264736F6C634300 ADDMOD SGT STOP CALLER 0x2F DUP8 DUP9 GT PUSH31 0x7EFF1D82E926EC794901D17C78024A50270940304540A733656F0D00000000 "},"methodIdentifiers":{"BURNER_ROLE()":"282c51f3","DEFAULT_ADMIN_ROLE()":"a217fddf","MINTER_ROLE()":"d5391393","allowance(address,address)":"dd62ed3e","approve(address,uint256)":"095ea7b3","balanceOf(address)":"70a08231","burn(address,uint256)":"9dc29fac","decimals()":"313ce567","decreaseAllowance(address,uint256)":"a457c2d7","getRoleAdmin(bytes32)":"248a9ca3","grantRole(bytes32,address)":"2f2ff15d","hasRole(bytes32,address)":"91d14854","increaseAllowance(address,uint256)":"39509351","mint(address,uint256)":"40c10f19","name()":"06fdde03","pause()":"8456cb59","paused()":"5c975abb","renounceRole(bytes32,address)":"36568abe","revokeRole(bytes32,address)":"d547741f","supportsInterface(bytes4)":"01ffc9a7","symbol()":"95d89b41","totalSupply()":"18160ddd","transfer(address,uint256)":"a9059cbb","transferFrom(address,address,uint256)":"23b872dd","unpause()":"3f4ba83a"}}}}}