{"contracts/LicenseManager.sol":{"LicenseManager":{"abi":[{"inputs":[],"stateMutability":"nonpayable","type":"constructor"},{"anonymous":false,"inputs":[{"indexed":true,"internalType":"bytes32","name":"licenseId","type":"bytes32"},{"indexed":true,"internalType":"address","name":"licensee","type":"address"},{"indexed":false,"internalType":"string","name":"datasetCid","type":"string"},{"indexed":false,"internalType":"uint256","name":"expirationTimestamp","type":"uint256"}],"name":"LicenseGranted","type":"event"},{"anonymous":false,"inputs":[{"indexed":true,"internalType":"bytes32","name":"licenseId","type":"bytes32"},{"indexed":false,"internalType":"uint256","name":"newExpirationTimestamp","type":"uint256"}],"name":"LicenseRenewed","type":"event"},{"anonymous":false,"inputs":[{"indexed":true,"internalType":"bytes32","name":"licenseId","type":"bytes32"}],"name":"LicenseRevoked","type":"event"},{"anonymous":false,"inputs":[{"indexed":false,"internalType":"address","name":"account","type":"address"}],"name":"Paused","type":"event"},{"anonymous":false,"inputs":[{"indexed":true,"internalType":"bytes32","name":"role","type":"bytes32"},{"indexed":true,"internalType":"bytes32","name":"previousAdminRole","type":"bytes32"},{"indexed":true,"internalType":"bytes32","name":"newAdminRole","type":"bytes32"}],"name":"RoleAdminChanged","type":"event"},{"anonymous":false,"inputs":[{"indexed":true,"internalType":"bytes32","name":"role","type":"bytes32"},{"indexed":true,"internalType":"address","name":"account","type":"address"},{"indexed":true,"internalType":"address","name":"sender","type":"address"}],"name":"RoleGranted","type":"event"},{"anonymous":false,"inputs":[{"indexed":true,"internalType":"bytes32","name":"role","type":"bytes32"},{"indexed":true,"internalType":"address","name":"account","type":"address"},{"indexed":true,"internalType":"address","name":"sender","type":"address"}],"name":"RoleRevoked","type":"event"},{"anonymous":false,"inputs":[{"indexed":false,"internalType":"address","name":"account","type":"address"}],"name":"Unpaused","type":"event"},{"inputs":[],"name":"ADMIN_ROLE","outputs":[{"internalType":"bytes32","name":"","type":"bytes32"}],"stateMutability":"view","type":"function"},{"inputs":[],"name":"COMPLIANCE_ROLE","outputs":[{"internalType":"bytes32","name":"","type":"bytes32"}],"stateMutability":"view","type":"function"},{"inputs":[],"name":"DEFAULT_ADMIN_ROLE","outputs":[{"internalType":"bytes32","name":"","type":"bytes32"}],"stateMutability":"view","type":"function"},{"inputs":[{"internalType":"bytes32","name":"role","type":"bytes32"}],"name":"getRoleAdmin","outputs":[{"internalType":"bytes32","name":"","type":"bytes32"}],"stateMutability":"view","type":"function"},{"inputs":[{"internalType":"address","name":"user","type":"address"}],"name":"getUserLicenses","outputs":[{"internalType":"bytes32[]","name":"","type":"bytes32[]"}],"stateMutability":"view","type":"function"},{"inputs":[{"internalType":"address","name":"licensee","type":"address"},{"internalType":"string","name":"datasetCid","type":"string"},{"internalType":"uint256","name":"duration","type":"uint256"}],"name":"grantLicense","outputs":[{"internalType":"bytes32","name":"","type":"bytes32"}],"stateMutability":"nonpayable","type":"function"},{"inputs":[{"internalType":"bytes32","name":"role","type":"bytes32"},{"internalType":"address","name":"account","type":"address"}],"name":"grantRole","outputs":[],"stateMutability":"nonpayable","type":"function"},{"inputs":[{"internalType":"bytes32","name":"role","type":"bytes32"},{"internalType":"address","name":"account","type":"address"}],"name":"hasRole","outputs":[{"internalType":"bool","name":"","type":"bool"}],"stateMutability":"view","type":"function"},{"inputs":[{"internalType":"bytes32","name":"licenseId","type":"bytes32"}],"name":"isValidLicense","outputs":[{"internalType":"bool","name":"","type":"bool"}],"stateMutability":"view","type":"function"},{"inputs":[{"internalType":"bytes32","name":"","type":"bytes32"}],"name":"licenses","outputs":[{"internalType":"address","name":"licensee","type":"address"},{"internalType":"string","name":"datasetCid","type":"string"},{"internalType":"uint256","name":"expirationTimestamp","type":"uint256"},{"internalType":"bool","name":"isActive","type":"bool"}],"stateMutability":"view","type":"function"},{"inputs":[],"name":"pause","outputs":[],"stateMutability":"nonpayable","type":"function"},{"inputs":[],"name":"paused","outputs":[{"internalType":"bool","name":"","type":"bool"}],"stateMutability":"view","type":"function"},{"inputs":[{"internalType":"bytes32","name":"licenseId","type":"bytes32"},{"internalType":"uint256","name":"duration","type":"uint256"}],"name":"renewLicense","outputs":[],"stateMutability":"nonpayable","type":"function"},{"inputs":[{"internalType":"bytes32","name":"role","type":"bytes32"},{"internalType":"address","name":"account","type":"address"}],"name":"renounceRole","outputs":[],"stateMutability":"nonpayable","type":"function"},{"inputs":[{"internalType":"bytes32","name":"licenseId","type":"bytes32"}],"name":"revokeLicense","outputs":[],"stateMutability":"nonpayable","type":"function"},{"inputs":[{"internalType":"bytes32","name":"role","type":"bytes32"},{"internalType":"address","name":"account","type":"address"}],"name":"revokeRole","outputs":[],"stateMutability":"nonpayable","type":"function"},{"inputs":[{"internalType":"bytes4","name":"interfaceId","type":"bytes4"}],"name":"supportsInterface","outputs":[{"internalType":"bool","name":"","type":"bool"}],"stateMutability":"view","type":"function"},{"inputs":[],"name":"unpause","outputs":[],"stateMutability":"nonpayable","type":"function"},{"inputs":[{"internalType":"address","name":"","type":"address"},{"internalType":"uint256","name":"","type":"uint256"}],"name":"userLicenses","outputs":[{"internalType":"bytes32","name":"","type":"bytes32"}],"stateMutability":"view","type":"function"}],"evm":{"bytecode":{"linkReferences":{},"object":"60806040523480156200001157600080fd5b506001805460ff191690556200002960003362000087565b620000557fa49807205ce4d355092ef5a8a18f56e8913cf4a201fbe287825b095693c217753362000087565b620000817f442a94f1a1fac79af32856af2a64f63648cfa2ef3b98610a5bb7cbec4cee69853362000087565b62000137565b62000093828262000097565b5050565b6000828152602081815260408083206001600160a01b038516845290915290205460ff1662000093576000828152602081815260408083206001600160a01b03851684529091529020805460ff19166001179055620000f33390565b6001600160a01b0316816001600160a01b0316837f2f8788117e7eff1d82e926ec794901d17c78024a50270940304540a733656f0d60405160405180910390a45050565b61140580620001476000396000f3fe608060405234801561001057600080fd5b50600436106101215760003560e01c806363c7ea91116100ad57806391d148541161007157806391d148541461027c578063a217fddf1461028f578063ba810a4a14610297578063cde74e51146102aa578063d547741f146102cd57600080fd5b806363c7ea911461020757806375a106c31461021a57806375b238fc1461023a5780638456cb5914610261578063850d35231461026957600080fd5b806336568abe116100f457806336568abe146101bb5780633f4ba83a146101ce578063454c1d31146101d657806353be39d0146101e95780635c975abb146101fc57600080fd5b806301ffc9a714610126578063062d3bd71461014e578063248a9ca3146101835780632f2ff15d146101a6575b600080fd5b610139610134366004610e8e565b6102e0565b60405190151581526020015b60405180910390f35b6101757f442a94f1a1fac79af32856af2a64f63648cfa2ef3b98610a5bb7cbec4cee698581565b604051908152602001610145565b610175610191366004610eb8565b60009081526020819052604090206001015490565b6101b96101b4366004610eed565b610317565b005b6101b96101c9366004610eed565b610341565b6101b96103c4565b6101756101e4366004610f19565b6103da565b6101b96101f7366004610f43565b61040b565b60015460ff16610139565b6101b9610215366004610eb8565b610558565b61022d610228366004610f65565b610627565b6040516101459190610f80565b6101757fa49807205ce4d355092ef5a8a18f56e8913cf4a201fbe287825b095693c2177581565b6101b9610693565b610175610277366004610fda565b6106a6565b61013961028a366004610eed565b610814565b610175600081565b6101396102a5366004610eb8565b61083d565b6102bd6102b8366004610eb8565b610992565b60405161014594939291906110f5565b6101b96102db366004610eed565b610a51565b60006001600160e01b03198216637965db0b60e01b148061031157506301ffc9a760e01b6001600160e01b03198316145b92915050565b60008281526020819052604090206001015461033281610a76565b61033c8383610a80565b505050565b6001600160a01b03811633146103b65760405162461bcd60e51b815260206004820152602f60248201527f416363657373436f6e74726f6c3a2063616e206f6e6c792072656e6f756e636560448201526e103937b632b9903337b91039b2b63360891b60648201526084015b60405180910390fd5b6103c08282610b04565b5050565b60006103cf81610a76565b6103d7610b69565b50565b600360205281600052604060002081815481106103f657600080fd5b90600052602060002001600091509150505481565b7fa49807205ce4d355092ef5a8a18f56e8913cf4a201fbe287825b095693c2177561043581610a76565b61043d610bbb565b6000838152600260205260409020546001600160a01b031661049a5760405162461bcd60e51b8152602060048201526016602482015275131a58d95b9cd948191bd95cc81b9bdd08195e1a5cdd60521b60448201526064016103ad565b60008381526002602052604090206003015460ff166104f35760405162461bcd60e51b81526020600482015260156024820152744c6963656e7365206973206e6f742061637469766560581b60448201526064016103ad565b60006104ff8342611147565b600085815260026020819052604091829020018290555190915084907f50b2c4cabe8c791ba22287dedabce50012f2cdec3464af32e66f2e6a60ac46209061054a9084815260200190565b60405180910390a250505050565b7f442a94f1a1fac79af32856af2a64f63648cfa2ef3b98610a5bb7cbec4cee698561058281610a76565b61058a610bbb565b60008281526002602052604090206003015460ff166105e35760405162461bcd60e51b81526020600482015260156024820152744c6963656e7365206973206e6f742061637469766560581b60448201526064016103ad565b600082815260026020526040808220600301805460ff191690555183917f0cddff7d26fb450c5bd6fa66ef9bd79abd5f2424333c0381532898b0ef59638c91a25050565b6001600160a01b03811660009081526003602090815260409182902080548351818402810184019094528084526060939283018282801561068757602002820191906000526020600020905b815481526020019060010190808311610673575b50505050509050919050565b600061069e81610a76565b6103d7610c03565b60007fa49807205ce4d355092ef5a8a18f56e8913cf4a201fbe287825b095693c217756106d281610a76565b6106da610bbb565b60008585426040516020016106f19392919061115a565b604051602081830303815290604052805190602001209050600084426107179190611147565b604080516080810182526001600160a01b038a8116825260208083018b81528385018690526001606085018190526000898152600290935294909120835181546001600160a01b0319169316929092178255519394509092909182019061077e9082611221565b5060408281015160028301556060909201516003918201805460ff19169115159190911790556001600160a01b038916600081815260209283528381208054600181018255908252929020909101849055905183907f7c2b58e1436c444b1aa108fdc88ecd7742033a4073d4d6e4946edbb106a8e41690610802908a9086906112e1565b60405180910390a35095945050505050565b6000918252602082815260408084206001600160a01b0393909316845291905290205460ff1690565b6000818152600260205260408120546001600160a01b031661089a5760405162461bcd60e51b8152602060048201526016602482015275131a58d95b9cd948191bd95cc81b9bdd08195e1a5cdd60521b60448201526064016103ad565b600082815260026020908152604080832081516080810190925280546001600160a01b0316825260018101805492939192918401916108d890611199565b80601f016020809104026020016040519081016040528092919081815260200182805461090490611199565b80156109515780601f1061092657610100808354040283529160200191610951565b820191906000526020600020905b81548152906001019060200180831161093457829003601f168201915b50505091835250506002820154602082015260039091015460ff1615156040909101526060810151909150801561098b5750806040015142105b9392505050565b600260205260009081526040902080546001820180546001600160a01b0390921692916109be90611199565b80601f01602080910402602001604051908101604052809291908181526020018280546109ea90611199565b8015610a375780601f10610a0c57610100808354040283529160200191610a37565b820191906000526020600020905b815481529060010190602001808311610a1a57829003601f168201915b50505050600283015460039093015491929160ff16905084565b600082815260208190526040902060010154610a6c81610a76565b61033c8383610b04565b6103d78133610c3e565b610a8a8282610814565b6103c0576000828152602081815260408083206001600160a01b03851684529091529020805460ff19166001179055610ac03390565b6001600160a01b0316816001600160a01b0316837f2f8788117e7eff1d82e926ec794901d17c78024a50270940304540a733656f0d60405160405180910390a45050565b610b0e8282610814565b156103c0576000828152602081815260408083206001600160a01b0385168085529252808320805460ff1916905551339285917ff6391f5c32d9c69d2a47ea670b442974b53935d1edc7fd64eb21e047a839171b9190a45050565b610b71610c97565b6001805460ff191690557f5db9ee0a495bf2e6ff9c91a7834c1ba4fdd244a5e8aa4e537bd38aeae4b073aa335b6040516001600160a01b03909116815260200160405180910390a1565b60015460ff1615610c015760405162461bcd60e51b815260206004820152601060248201526f14185d5cd8589b194e881c185d5cd95960821b60448201526064016103ad565b565b610c0b610bbb565b6001805460ff1916811790557f62e78cea01bee320cd4e420270b5ea74000d11b0c9f74754ebdbfc544b05a25833610b9e565b610c488282610814565b6103c057610c5581610ce0565b610c60836020610cf2565b604051602001610c71929190611303565b60408051601f198184030181529082905262461bcd60e51b82526103ad91600401611378565b60015460ff16610c015760405162461bcd60e51b815260206004820152601460248201527314185d5cd8589b194e881b9bdd081c185d5cd95960621b60448201526064016103ad565b60606103116001600160a01b03831660145b60606000610d0183600261138b565b610d0c906002611147565b67ffffffffffffffff811115610d2457610d24610fc4565b6040519080825280601f01601f191660200182016040528015610d4e576020820181803683370190505b509050600360fc1b81600081518110610d6957610d696113a2565b60200101906001600160f81b031916908160001a905350600f60fb1b81600181518110610d9857610d986113a2565b60200101906001600160f81b031916908160001a9053506000610dbc84600261138b565b610dc7906001611147565b90505b6001811115610e3f576f181899199a1a9b1b9c1cb0b131b232b360811b85600f1660108110610dfb57610dfb6113a2565b1a60f81b828281518110610e1157610e116113a2565b60200101906001600160f81b031916908160001a90535060049490941c93610e38816113b8565b9050610dca565b50831561098b5760405162461bcd60e51b815260206004820181905260248201527f537472696e67733a20686578206c656e67746820696e73756666696369656e7460448201526064016103ad565b600060208284031215610ea057600080fd5b81356001600160e01b03198116811461098b57600080fd5b600060208284031215610eca57600080fd5b5035919050565b80356001600160a01b0381168114610ee857600080fd5b919050565b60008060408385031215610f0057600080fd5b82359150610f1060208401610ed1565b90509250929050565b60008060408385031215610f2c57600080fd5b610f3583610ed1565b946020939093013593505050565b60008060408385031215610f5657600080fd5b50508035926020909101359150565b600060208284031215610f7757600080fd5b61098b82610ed1565b6020808252825182820181905260009190848201906040850190845b81811015610fb857835183529284019291840191600101610f9c565b50909695505050505050565b634e487b7160e01b600052604160045260246000fd5b600080600060608486031215610fef57600080fd5b610ff884610ed1565b9250602084013567ffffffffffffffff8082111561101557600080fd5b818601915086601f83011261102957600080fd5b81358181111561103b5761103b610fc4565b604051601f8201601f19908116603f0116810190838211818310171561106357611063610fc4565b8160405282815289602084870101111561107c57600080fd5b826020860160208301376000602084830101528096505050505050604084013590509250925092565b60005b838110156110c05781810151838201526020016110a8565b50506000910152565b600081518084526110e18160208601602086016110a5565b601f01601f19169290920160200192915050565b6001600160a01b0385168152608060208201819052600090611119908301866110c9565b60408301949094525090151560609091015292915050565b634e487b7160e01b600052601160045260246000fd5b8082018082111561031157610311611131565b6bffffffffffffffffffffffff198460601b168152600083516111848160148501602088016110a5565b60149201918201929092526034019392505050565b600181811c908216806111ad57607f821691505b6020821081036111cd57634e487b7160e01b600052602260045260246000fd5b50919050565b601f82111561033c57600081815260208120601f850160051c810160208610156111fa5750805b601f850160051c820191505b8181101561121957828155600101611206565b505050505050565b815167ffffffffffffffff81111561123b5761123b610fc4565b61124f816112498454611199565b846111d3565b602080601f831160018114611284576000841561126c5750858301515b600019600386901b1c1916600185901b178555611219565b600085815260208120601f198616915b828110156112b357888601518255948401946001909101908401611294565b50858210156112d15787850151600019600388901b60f8161c191681555b5050505050600190811b01905550565b6040815260006112f460408301856110c9565b90508260208301529392505050565b7f416363657373436f6e74726f6c3a206163636f756e742000000000000000000081526000835161133b8160178501602088016110a5565b7001034b99036b4b9b9b4b733903937b6329607d1b601791840191820152835161136c8160288401602088016110a5565b01602801949350505050565b60208152600061098b60208301846110c9565b808202811582820484141761031157610311611131565b634e487b7160e01b600052603260045260246000fd5b6000816113c7576113c7611131565b50600019019056fea2646970667358221220f91286ba37473f351503b7ea29f33aab43700e35e95a6ecb2dc6f55f489cc4b764736f6c63430008130033","opcodes":"PUSH1 0x80 PUSH1 0x40 MSTORE CALLVALUE DUP1 ISZERO PUSH3 0x11 JUMPI PUSH1 0x0 DUP1 REVERT JUMPDEST POP PUSH1 0x1 DUP1 SLOAD PUSH1 0xFF NOT AND SWAP1 SSTORE PUSH3 0x29 PUSH1 0x0 CALLER PUSH3 0x87 JUMP JUMPDEST PUSH3 0x55 PUSH32 0xA49807205CE4D355092EF5A8A18F56E8913CF4A201FBE287825B095693C21775 CALLER PUSH3 0x87 JUMP JUMPDEST PUSH3 0x81 PUSH32 0x442A94F1A1FAC79AF32856AF2A64F63648CFA2EF3B98610A5BB7CBEC4CEE6985 CALLER PUSH3 0x87 JUMP JUMPDEST PUSH3 0x137 JUMP JUMPDEST PUSH3 0x93 DUP3 DUP3 PUSH3 0x97 JUMP JUMPDEST POP POP JUMP JUMPDEST PUSH1 0x0 DUP3 DUP2 MSTORE PUSH1 0x20 DUP2 DUP2 MSTORE PUSH1 0x40 DUP1 DUP4 KECCAK256 PUSH1 0x1 PUSH1 0x1 PUSH1 0xA0 SHL SUB DUP6 AND DUP5 MSTORE SWAP1 SWAP2 MSTORE SWAP1 KECCAK256 SLOAD PUSH1 0xFF AND PUSH3 0x93 JUMPI PUSH1 0x0 DUP3 DUP2 MSTORE PUSH1 0x20 DUP2 DUP2 MSTORE PUSH1 0x40 DUP1 DUP4 KECCAK256 PUSH1 0x1 PUSH1 0x1 PUSH1 0xA0 SHL SUB DUP6 AND DUP5 MSTORE SWAP1 SWAP2 MSTORE SWAP1 KECCAK256 DUP1 SLOAD PUSH1 0xFF NOT AND PUSH1 0x1 OR SWAP1 SSTORE PUSH3 0xF3 CALLER SWAP1 JUMP JUMPDEST PUSH1 0x1 PUSH1 0x1 PUSH1 0xA0 SHL SUB AND DUP2 PUSH1 0x1 PUSH1 0x1 PUSH1 0xA0 SHL SUB AND DUP4 PUSH32 0x2F8788117E7EFF1D82E926EC794901D17C78024A50270940304540A733656F0D PUSH1 0x40 MLOAD PUSH1 0x40 MLOAD DUP1 SWAP2 SUB SWAP1 LOG4 POP POP JUMP JUMPDEST PUSH2 0x1405 DUP1 PUSH3 0x147 PUSH1 0x0 CODECOPY PUSH1 0x0 RETURN INVALID PUSH1 0x80 PUSH1 0x40 MSTORE CALLVALUE DUP1 ISZERO PUSH2 0x10 JUMPI PUSH1 0x0 DUP1 REVERT JUMPDEST POP PUSH1 0x4 CALLDATASIZE LT PUSH2 0x121 JUMPI PUSH1 0x0 CALLDATALOAD PUSH1 0xE0 SHR DUP1 PUSH4 0x63C7EA91 GT PUSH2 0xAD JUMPI DUP1 PUSH4 0x91D14854 GT PUSH2 0x71 JUMPI DUP1 PUSH4 0x91D14854 EQ PUSH2 0x27C JUMPI DUP1 PUSH4 0xA217FDDF EQ PUSH2 0x28F JUMPI DUP1 PUSH4 0xBA810A4A EQ PUSH2 0x297 JUMPI DUP1 PUSH4 0xCDE74E51 EQ PUSH2 0x2AA JUMPI DUP1 PUSH4 0xD547741F EQ PUSH2 0x2CD JUMPI PUSH1 0x0 DUP1 REVERT JUMPDEST DUP1 PUSH4 0x63C7EA91 EQ PUSH2 0x207 JUMPI DUP1 PUSH4 0x75A106C3 EQ PUSH2 0x21A JUMPI DUP1 PUSH4 0x75B238FC EQ PUSH2 0x23A JUMPI DUP1 PUSH4 0x8456CB59 EQ PUSH2 0x261 JUMPI DUP1 PUSH4 0x850D3523 EQ PUSH2 0x269 JUMPI PUSH1 0x0 DUP1 REVERT JUMPDEST DUP1 PUSH4 0x36568ABE GT PUSH2 0xF4 JUMPI DUP1 PUSH4 0x36568ABE EQ PUSH2 0x1BB JUMPI DUP1 PUSH4 0x3F4BA83A EQ PUSH2 0x1CE JUMPI DUP1 PUSH4 0x454C1D31 EQ PUSH2 0x1D6 JUMPI DUP1 PUSH4 0x53BE39D0 EQ PUSH2 0x1E9 JUMPI DUP1 PUSH4 0x5C975ABB EQ PUSH2 0x1FC JUMPI PUSH1 0x0 DUP1 REVERT JUMPDEST DUP1 PUSH4 0x1FFC9A7 EQ PUSH2 0x126 JUMPI DUP1 PUSH4 0x62D3BD7 EQ PUSH2 0x14E JUMPI DUP1 PUSH4 0x248A9CA3 EQ PUSH2 0x183 JUMPI DUP1 PUSH4 0x2F2FF15D EQ PUSH2 0x1A6 JUMPI JUMPDEST PUSH1 0x0 DUP1 REVERT JUMPDEST PUSH2 0x139 PUSH2 0x134 CALLDATASIZE PUSH1 0x4 PUSH2 0xE8E JUMP JUMPDEST PUSH2 0x2E0 JUMP JUMPDEST PUSH1 0x40 MLOAD SWAP1 ISZERO ISZERO DUP2 MSTORE PUSH1 0x20 ADD JUMPDEST PUSH1 0x40 MLOAD DUP1 SWAP2 SUB SWAP1 RETURN JUMPDEST PUSH2 0x175 PUSH32 0x442A94F1A1FAC79AF32856AF2A64F63648CFA2EF3B98610A5BB7CBEC4CEE6985 DUP2 JUMP JUMPDEST PUSH1 0x40 MLOAD SWAP1 DUP2 MSTORE PUSH1 0x20 ADD PUSH2 0x145 JUMP JUMPDEST PUSH2 0x175 PUSH2 0x191 CALLDATASIZE PUSH1 0x4 PUSH2 0xEB8 JUMP JUMPDEST PUSH1 0x0 SWAP1 DUP2 MSTORE PUSH1 0x20 DUP2 SWAP1 MSTORE PUSH1 0x40 SWAP1 KECCAK256 PUSH1 0x1 ADD SLOAD SWAP1 JUMP JUMPDEST PUSH2 0x1B9 PUSH2 0x1B4 CALLDATASIZE PUSH1 0x4 PUSH2 0xEED JUMP JUMPDEST PUSH2 0x317 JUMP JUMPDEST STOP JUMPDEST PUSH2 0x1B9 PUSH2 0x1C9 CALLDATASIZE PUSH1 0x4 PUSH2 0xEED JUMP JUMPDEST PUSH2 0x341 JUMP JUMPDEST PUSH2 0x1B9 PUSH2 0x3C4 JUMP JUMPDEST PUSH2 0x175 PUSH2 0x1E4 CALLDATASIZE PUSH1 0x4 PUSH2 0xF19 JUMP JUMPDEST PUSH2 0x3DA JUMP JUMPDEST PUSH2 0x1B9 PUSH2 0x1F7 CALLDATASIZE PUSH1 0x4 PUSH2 0xF43 JUMP JUMPDEST PUSH2 0x40B JUMP JUMPDEST PUSH1 0x1 SLOAD PUSH1 0xFF AND PUSH2 0x139 JUMP JUMPDEST PUSH2 0x1B9 PUSH2 0x215 CALLDATASIZE PUSH1 0x4 PUSH2 0xEB8 JUMP JUMPDEST PUSH2 0x558 JUMP JUMPDEST PUSH2 0x22D PUSH2 0x228 CALLDATASIZE PUSH1 0x4 PUSH2 0xF65 JUMP JUMPDEST PUSH2 0x627 JUMP JUMPDEST PUSH1 0x40 MLOAD PUSH2 0x145 SWAP2 SWAP1 PUSH2 0xF80 JUMP JUMPDEST PUSH2 0x175 PUSH32 0xA49807205CE4D355092EF5A8A18F56E8913CF4A201FBE287825B095693C21775 DUP2 JUMP JUMPDEST PUSH2 0x1B9 PUSH2 0x693 JUMP JUMPDEST PUSH2 0x175 PUSH2 0x277 CALLDATASIZE PUSH1 0x4 PUSH2 0xFDA JUMP JUMPDEST PUSH2 0x6A6 JUMP JUMPDEST PUSH2 0x139 PUSH2 0x28A CALLDATASIZE PUSH1 0x4 PUSH2 0xEED JUMP JUMPDEST PUSH2 0x814 JUMP JUMPDEST PUSH2 0x175 PUSH1 0x0 DUP2 JUMP JUMPDEST PUSH2 0x139 PUSH2 0x2A5 CALLDATASIZE PUSH1 0x4 PUSH2 0xEB8 JUMP JUMPDEST PUSH2 0x83D JUMP JUMPDEST PUSH2 0x2BD PUSH2 0x2B8 CALLDATASIZE PUSH1 0x4 PUSH2 0xEB8 JUMP JUMPDEST PUSH2 0x992 JUMP JUMPDEST PUSH1 0x40 MLOAD PUSH2 0x145 SWAP5 SWAP4 SWAP3 SWAP2 SWAP1 PUSH2 0x10F5 JUMP JUMPDEST PUSH2 0x1B9 PUSH2 0x2DB CALLDATASIZE PUSH1 0x4 PUSH2 0xEED JUMP JUMPDEST PUSH2 0xA51 JUMP JUMPDEST PUSH1 0x0 PUSH1 0x1 PUSH1 0x1 PUSH1 0xE0 SHL SUB NOT DUP3 AND PUSH4 0x7965DB0B PUSH1 0xE0 SHL EQ DUP1 PUSH2 0x311 JUMPI POP PUSH4 0x1FFC9A7 PUSH1 0xE0 SHL PUSH1 0x1 PUSH1 0x1 PUSH1 0xE0 SHL SUB NOT DUP4 AND EQ JUMPDEST SWAP3 SWAP2 POP POP JUMP JUMPDEST PUSH1 0x0 DUP3 DUP2 MSTORE PUSH1 0x20 DUP2 SWAP1 MSTORE PUSH1 0x40 SWAP1 KECCAK256 PUSH1 0x1 ADD SLOAD PUSH2 0x332 DUP2 PUSH2 0xA76 JUMP JUMPDEST PUSH2 0x33C DUP4 DUP4 PUSH2 0xA80 JUMP JUMPDEST POP POP POP JUMP JUMPDEST PUSH1 0x1 PUSH1 0x1 PUSH1 0xA0 SHL SUB DUP2 AND CALLER EQ PUSH2 0x3B6 JUMPI PUSH1 0x40 MLOAD PUSH3 0x461BCD PUSH1 0xE5 SHL DUP2 MSTORE PUSH1 0x20 PUSH1 0x4 DUP3 ADD MSTORE PUSH1 0x2F PUSH1 0x24 DUP3 ADD MSTORE PUSH32 0x416363657373436F6E74726F6C3A2063616E206F6E6C792072656E6F756E6365 PUSH1 0x44 DUP3 ADD MSTORE PUSH15 0x103937B632B9903337B91039B2B633 PUSH1 0x89 SHL PUSH1 0x64 DUP3 ADD MSTORE PUSH1 0x84 ADD JUMPDEST PUSH1 0x40 MLOAD DUP1 SWAP2 SUB SWAP1 REVERT JUMPDEST PUSH2 0x3C0 DUP3 DUP3 PUSH2 0xB04 JUMP JUMPDEST POP POP JUMP JUMPDEST PUSH1 0x0 PUSH2 0x3CF DUP2 PUSH2 0xA76 JUMP JUMPDEST PUSH2 0x3D7 PUSH2 0xB69 JUMP JUMPDEST POP JUMP JUMPDEST PUSH1 0x3 PUSH1 0x20 MSTORE DUP2 PUSH1 0x0 MSTORE PUSH1 0x40 PUSH1 0x0 KECCAK256 DUP2 DUP2 SLOAD DUP2 LT PUSH2 0x3F6 JUMPI PUSH1 0x0 DUP1 REVERT JUMPDEST SWAP1 PUSH1 0x0 MSTORE PUSH1 0x20 PUSH1 0x0 KECCAK256 ADD PUSH1 0x0 SWAP2 POP SWAP2 POP POP SLOAD DUP2 JUMP JUMPDEST PUSH32 0xA49807205CE4D355092EF5A8A18F56E8913CF4A201FBE287825B095693C21775 PUSH2 0x435 DUP2 PUSH2 0xA76 JUMP JUMPDEST PUSH2 0x43D PUSH2 0xBBB JUMP JUMPDEST PUSH1 0x0 DUP4 DUP2 MSTORE PUSH1 0x2 PUSH1 0x20 MSTORE PUSH1 0x40 SWAP1 KECCAK256 SLOAD PUSH1 0x1 PUSH1 0x1 PUSH1 0xA0 SHL SUB AND PUSH2 0x49A JUMPI PUSH1 0x40 MLOAD PUSH3 0x461BCD PUSH1 0xE5 SHL DUP2 MSTORE PUSH1 0x20 PUSH1 0x4 DUP3 ADD MSTORE PUSH1 0x16 PUSH1 0x24 DUP3 ADD MSTORE PUSH22 0x131A58D95B9CD948191BD95CC81B9BDD08195E1A5CDD PUSH1 0x52 SHL PUSH1 0x44 DUP3 ADD MSTORE PUSH1 0x64 ADD PUSH2 0x3AD JUMP JUMPDEST PUSH1 0x0 DUP4 DUP2 MSTORE PUSH1 0x2 PUSH1 0x20 MSTORE PUSH1 0x40 SWAP1 KECCAK256 PUSH1 0x3 ADD SLOAD PUSH1 0xFF AND PUSH2 0x4F3 JUMPI PUSH1 0x40 MLOAD PUSH3 0x461BCD PUSH1 0xE5 SHL DUP2 MSTORE PUSH1 0x20 PUSH1 0x4 DUP3 ADD MSTORE PUSH1 0x15 PUSH1 0x24 DUP3 ADD MSTORE PUSH21 0x4C6963656E7365206973206E6F7420616374697665 PUSH1 0x58 SHL PUSH1 0x44 DUP3 ADD MSTORE PUSH1 0x64 ADD PUSH2 0x3AD JUMP JUMPDEST PUSH1 0x0 PUSH2 0x4FF DUP4 TIMESTAMP PUSH2 0x1147 JUMP JUMPDEST PUSH1 0x0 DUP6 DUP2 MSTORE PUSH1 0x2 PUSH1 0x20 DUP2 SWAP1 MSTORE PUSH1 0x40 SWAP2 DUP3 SWAP1 KECCAK256 ADD DUP3 SWAP1 SSTORE MLOAD SWAP1 SWAP2 POP DUP5 SWAP1 PUSH32 0x50B2C4CABE8C791BA22287DEDABCE50012F2CDEC3464AF32E66F2E6A60AC4620 SWAP1 PUSH2 0x54A SWAP1 DUP5 DUP2 MSTORE PUSH1 0x20 ADD SWAP1 JUMP JUMPDEST PUSH1 0x40 MLOAD DUP1 SWAP2 SUB SWAP1 LOG2 POP POP POP POP JUMP JUMPDEST PUSH32 0x442A94F1A1FAC79AF32856AF2A64F63648CFA2EF3B98610A5BB7CBEC4CEE6985 PUSH2 0x582 DUP2 PUSH2 0xA76 JUMP JUMPDEST PUSH2 0x58A PUSH2 0xBBB JUMP JUMPDEST PUSH1 0x0 DUP3 DUP2 MSTORE PUSH1 0x2 PUSH1 0x20 MSTORE PUSH1 0x40 SWAP1 KECCAK256 PUSH1 0x3 ADD SLOAD PUSH1 0xFF AND PUSH2 0x5E3 JUMPI PUSH1 0x40 MLOAD PUSH3 0x461BCD PUSH1 0xE5 SHL DUP2 MSTORE PUSH1 0x20 PUSH1 0x4 DUP3 ADD MSTORE PUSH1 0x15 PUSH1 0x24 DUP3 ADD MSTORE PUSH21 0x4C6963656E7365206973206E6F7420616374697665 PUSH1 0x58 SHL PUSH1 0x44 DUP3 ADD MSTORE PUSH1 0x64 ADD PUSH2 0x3AD JUMP JUMPDEST PUSH1 0x0 DUP3 DUP2 MSTORE PUSH1 0x2 PUSH1 0x20 MSTORE PUSH1 0x40 DUP1 DUP3 KECCAK256 PUSH1 0x3 ADD DUP1 SLOAD PUSH1 0xFF NOT AND SWAP1 SSTORE MLOAD DUP4 SWAP2 PUSH32 0xCDDFF7D26FB450C5BD6FA66EF9BD79ABD5F2424333C0381532898B0EF59638C SWAP2 LOG2 POP POP JUMP JUMPDEST PUSH1 0x1 PUSH1 0x1 PUSH1 0xA0 SHL SUB DUP2 AND PUSH1 0x0 SWAP1 DUP2 MSTORE PUSH1 0x3 PUSH1 0x20 SWAP1 DUP2 MSTORE PUSH1 0x40 SWAP2 DUP3 SWAP1 KECCAK256 DUP1 SLOAD DUP4 MLOAD DUP2 DUP5 MUL DUP2 ADD DUP5 ADD SWAP1 SWAP5 MSTORE DUP1 DUP5 MSTORE PUSH1 0x60 SWAP4 SWAP3 DUP4 ADD DUP3 DUP3 DUP1 ISZERO PUSH2 0x687 JUMPI PUSH1 0x20 MUL DUP3 ADD SWAP2 SWAP1 PUSH1 0x0 MSTORE PUSH1 0x20 PUSH1 0x0 KECCAK256 SWAP1 JUMPDEST DUP2 SLOAD DUP2 MSTORE PUSH1 0x20 ADD SWAP1 PUSH1 0x1 ADD SWAP1 DUP1 DUP4 GT PUSH2 0x673 JUMPI JUMPDEST POP POP POP POP POP SWAP1 POP SWAP2 SWAP1 POP JUMP JUMPDEST PUSH1 0x0 PUSH2 0x69E DUP2 PUSH2 0xA76 JUMP JUMPDEST PUSH2 0x3D7 PUSH2 0xC03 JUMP JUMPDEST PUSH1 0x0 PUSH32 0xA49807205CE4D355092EF5A8A18F56E8913CF4A201FBE287825B095693C21775 PUSH2 0x6D2 DUP2 PUSH2 0xA76 JUMP JUMPDEST PUSH2 0x6DA PUSH2 0xBBB JUMP JUMPDEST PUSH1 0x0 DUP6 DUP6 TIMESTAMP PUSH1 0x40 MLOAD PUSH1 0x20 ADD PUSH2 0x6F1 SWAP4 SWAP3 SWAP2 SWAP1 PUSH2 0x115A JUMP JUMPDEST PUSH1 0x40 MLOAD PUSH1 0x20 DUP2 DUP4 SUB SUB DUP2 MSTORE SWAP1 PUSH1 0x40 MSTORE DUP1 MLOAD SWAP1 PUSH1 0x20 ADD KECCAK256 SWAP1 POP PUSH1 0x0 DUP5 TIMESTAMP PUSH2 0x717 SWAP2 SWAP1 PUSH2 0x1147 JUMP JUMPDEST PUSH1 0x40 DUP1 MLOAD PUSH1 0x80 DUP2 ADD DUP3 MSTORE PUSH1 0x1 PUSH1 0x1 PUSH1 0xA0 SHL SUB DUP11 DUP2 AND DUP3 MSTORE PUSH1 0x20 DUP1 DUP4 ADD DUP12 DUP2 MSTORE DUP4 DUP6 ADD DUP7 SWAP1 MSTORE PUSH1 0x1 PUSH1 0x60 DUP6 ADD DUP2 SWAP1 MSTORE PUSH1 0x0 DUP10 DUP2 MSTORE PUSH1 0x2 SWAP1 SWAP4 MSTORE SWAP5 SWAP1 SWAP2 KECCAK256 DUP4 MLOAD DUP2 SLOAD PUSH1 0x1 PUSH1 0x1 PUSH1 0xA0 SHL SUB NOT AND SWAP4 AND SWAP3 SWAP1 SWAP3 OR DUP3 SSTORE MLOAD SWAP4 SWAP5 POP SWAP1 SWAP3 SWAP1 SWAP2 DUP3 ADD SWAP1 PUSH2 0x77E SWAP1 DUP3 PUSH2 0x1221 JUMP JUMPDEST POP PUSH1 0x40 DUP3 DUP2 ADD MLOAD PUSH1 0x2 DUP4 ADD SSTORE PUSH1 0x60 SWAP1 SWAP3 ADD MLOAD PUSH1 0x3 SWAP2 DUP3 ADD DUP1 SLOAD PUSH1 0xFF NOT AND SWAP2 ISZERO ISZERO SWAP2 SWAP1 SWAP2 OR SWAP1 SSTORE PUSH1 0x1 PUSH1 0x1 PUSH1 0xA0 SHL SUB DUP10 AND PUSH1 0x0 DUP2 DUP2 MSTORE PUSH1 0x20 SWAP3 DUP4 MSTORE DUP4 DUP2 KECCAK256 DUP1 SLOAD PUSH1 0x1 DUP2 ADD DUP3 SSTORE SWAP1 DUP3 MSTORE SWAP3 SWAP1 KECCAK256 SWAP1 SWAP2 ADD DUP5 SWAP1 SSTORE SWAP1 MLOAD DUP4 SWAP1 PUSH32 0x7C2B58E1436C444B1AA108FDC88ECD7742033A4073D4D6E4946EDBB106A8E416 SWAP1 PUSH2 0x802 SWAP1 DUP11 SWAP1 DUP7 SWAP1 PUSH2 0x12E1 JUMP JUMPDEST PUSH1 0x40 MLOAD DUP1 SWAP2 SUB SWAP1 LOG3 POP SWAP6 SWAP5 POP POP POP POP POP JUMP JUMPDEST PUSH1 0x0 SWAP2 DUP3 MSTORE PUSH1 0x20 DUP3 DUP2 MSTORE PUSH1 0x40 DUP1 DUP5 KECCAK256 PUSH1 0x1 PUSH1 0x1 PUSH1 0xA0 SHL SUB SWAP4 SWAP1 SWAP4 AND DUP5 MSTORE SWAP2 SWAP1 MSTORE SWAP1 KECCAK256 SLOAD PUSH1 0xFF AND SWAP1 JUMP JUMPDEST PUSH1 0x0 DUP2 DUP2 MSTORE PUSH1 0x2 PUSH1 0x20 MSTORE PUSH1 0x40 DUP2 KECCAK256 SLOAD PUSH1 0x1 PUSH1 0x1 PUSH1 0xA0 SHL SUB AND PUSH2 0x89A JUMPI PUSH1 0x40 MLOAD PUSH3 0x461BCD PUSH1 0xE5 SHL DUP2 MSTORE PUSH1 0x20 PUSH1 0x4 DUP3 ADD MSTORE PUSH1 0x16 PUSH1 0x24 DUP3 ADD MSTORE PUSH22 0x131A58D95B9CD948191BD95CC81B9BDD08195E1A5CDD PUSH1 0x52 SHL PUSH1 0x44 DUP3 ADD MSTORE PUSH1 0x64 ADD PUSH2 0x3AD JUMP JUMPDEST PUSH1 0x0 DUP3 DUP2 MSTORE PUSH1 0x2 PUSH1 0x20 SWAP1 DUP2 MSTORE PUSH1 0x40 DUP1 DUP4 KECCAK256 DUP2 MLOAD PUSH1 0x80 DUP2 ADD SWAP1 SWAP3 MSTORE DUP1 SLOAD PUSH1 0x1 PUSH1 0x1 PUSH1 0xA0 SHL SUB AND DUP3 MSTORE PUSH1 0x1 DUP2 ADD DUP1 SLOAD SWAP3 SWAP4 SWAP2 SWAP3 SWAP2 DUP5 ADD SWAP2 PUSH2 0x8D8 SWAP1 PUSH2 0x1199 JUMP JUMPDEST DUP1 PUSH1 0x1F ADD PUSH1 0x20 DUP1 SWAP2 DIV MUL PUSH1 0x20 ADD PUSH1 0x40 MLOAD SWAP1 DUP2 ADD PUSH1 0x40 MSTORE DUP1 SWAP3 SWAP2 SWAP1 DUP2 DUP2 MSTORE PUSH1 0x20 ADD DUP3 DUP1 SLOAD PUSH2 0x904 SWAP1 PUSH2 0x1199 JUMP JUMPDEST DUP1 ISZERO PUSH2 0x951 JUMPI DUP1 PUSH1 0x1F LT PUSH2 0x926 JUMPI PUSH2 0x100 DUP1 DUP4 SLOAD DIV MUL DUP4 MSTORE SWAP2 PUSH1 0x20 ADD SWAP2 PUSH2 0x951 JUMP JUMPDEST DUP3 ADD SWAP2 SWAP1 PUSH1 0x0 MSTORE PUSH1 0x20 PUSH1 0x0 KECCAK256 SWAP1 JUMPDEST DUP2 SLOAD DUP2 MSTORE SWAP1 PUSH1 0x1 ADD SWAP1 PUSH1 0x20 ADD DUP1 DUP4 GT PUSH2 0x934 JUMPI DUP3 SWAP1 SUB PUSH1 0x1F AND DUP3 ADD SWAP2 JUMPDEST POP POP POP SWAP2 DUP4 MSTORE POP POP PUSH1 0x2 DUP3 ADD SLOAD PUSH1 0x20 DUP3 ADD MSTORE PUSH1 0x3 SWAP1 SWAP2 ADD SLOAD PUSH1 0xFF AND ISZERO ISZERO PUSH1 0x40 SWAP1 SWAP2 ADD MSTORE PUSH1 0x60 DUP2 ADD MLOAD SWAP1 SWAP2 POP DUP1 ISZERO PUSH2 0x98B JUMPI POP DUP1 PUSH1 0x40 ADD MLOAD TIMESTAMP LT JUMPDEST SWAP4 SWAP3 POP POP POP JUMP JUMPDEST PUSH1 0x2 PUSH1 0x20 MSTORE PUSH1 0x0 SWAP1 DUP2 MSTORE PUSH1 0x40 SWAP1 KECCAK256 DUP1 SLOAD PUSH1 0x1 DUP3 ADD DUP1 SLOAD PUSH1 0x1 PUSH1 0x1 PUSH1 0xA0 SHL SUB SWAP1 SWAP3 AND SWAP3 SWAP2 PUSH2 0x9BE SWAP1 PUSH2 0x1199 JUMP JUMPDEST DUP1 PUSH1 0x1F ADD PUSH1 0x20 DUP1 SWAP2 DIV MUL PUSH1 0x20 ADD PUSH1 0x40 MLOAD SWAP1 DUP2 ADD PUSH1 0x40 MSTORE DUP1 SWAP3 SWAP2 SWAP1 DUP2 DUP2 MSTORE PUSH1 0x20 ADD DUP3 DUP1 SLOAD PUSH2 0x9EA SWAP1 PUSH2 0x1199 JUMP JUMPDEST DUP1 ISZERO PUSH2 0xA37 JUMPI DUP1 PUSH1 0x1F LT PUSH2 0xA0C JUMPI PUSH2 0x100 DUP1 DUP4 SLOAD DIV MUL DUP4 MSTORE SWAP2 PUSH1 0x20 ADD SWAP2 PUSH2 0xA37 JUMP JUMPDEST DUP3 ADD SWAP2 SWAP1 PUSH1 0x0 MSTORE PUSH1 0x20 PUSH1 0x0 KECCAK256 SWAP1 JUMPDEST DUP2 SLOAD DUP2 MSTORE SWAP1 PUSH1 0x1 ADD SWAP1 PUSH1 0x20 ADD DUP1 DUP4 GT PUSH2 0xA1A JUMPI DUP3 SWAP1 SUB PUSH1 0x1F AND DUP3 ADD SWAP2 JUMPDEST POP POP POP POP PUSH1 0x2 DUP4 ADD SLOAD PUSH1 0x3 SWAP1 SWAP4 ADD SLOAD SWAP2 SWAP3 SWAP2 PUSH1 0xFF AND SWAP1 POP DUP5 JUMP JUMPDEST PUSH1 0x0 DUP3 DUP2 MSTORE PUSH1 0x20 DUP2 SWAP1 MSTORE PUSH1 0x40 SWAP1 KECCAK256 PUSH1 0x1 ADD SLOAD PUSH2 0xA6C DUP2 PUSH2 0xA76 JUMP JUMPDEST PUSH2 0x33C DUP4 DUP4 PUSH2 0xB04 JUMP JUMPDEST PUSH2 0x3D7 DUP2 CALLER PUSH2 0xC3E JUMP JUMPDEST PUSH2 0xA8A DUP3 DUP3 PUSH2 0x814 JUMP JUMPDEST PUSH2 0x3C0 JUMPI PUSH1 0x0 DUP3 DUP2 MSTORE PUSH1 0x20 DUP2 DUP2 MSTORE PUSH1 0x40 DUP1 DUP4 KECCAK256 PUSH1 0x1 PUSH1 0x1 PUSH1 0xA0 SHL SUB DUP6 AND DUP5 MSTORE SWAP1 SWAP2 MSTORE SWAP1 KECCAK256 DUP1 SLOAD PUSH1 0xFF NOT AND PUSH1 0x1 OR SWAP1 SSTORE PUSH2 0xAC0 CALLER SWAP1 JUMP JUMPDEST PUSH1 0x1 PUSH1 0x1 PUSH1 0xA0 SHL SUB AND DUP2 PUSH1 0x1 PUSH1 0x1 PUSH1 0xA0 SHL SUB AND DUP4 PUSH32 0x2F8788117E7EFF1D82E926EC794901D17C78024A50270940304540A733656F0D PUSH1 0x40 MLOAD PUSH1 0x40 MLOAD DUP1 SWAP2 SUB SWAP1 LOG4 POP POP JUMP JUMPDEST PUSH2 0xB0E DUP3 DUP3 PUSH2 0x814 JUMP JUMPDEST ISZERO PUSH2 0x3C0 JUMPI PUSH1 0x0 DUP3 DUP2 MSTORE PUSH1 0x20 DUP2 DUP2 MSTORE PUSH1 0x40 DUP1 DUP4 KECCAK256 PUSH1 0x1 PUSH1 0x1 PUSH1 0xA0 SHL SUB DUP6 AND DUP1 DUP6 MSTORE SWAP3 MSTORE DUP1 DUP4 KECCAK256 DUP1 SLOAD PUSH1 0xFF NOT AND SWAP1 SSTORE MLOAD CALLER SWAP3 DUP6 SWAP2 PUSH32 0xF6391F5C32D9C69D2A47EA670B442974B53935D1EDC7FD64EB21E047A839171B SWAP2 SWAP1 LOG4 POP POP JUMP JUMPDEST PUSH2 0xB71 PUSH2 0xC97 JUMP JUMPDEST PUSH1 0x1 DUP1 SLOAD PUSH1 0xFF NOT AND SWAP1 SSTORE PUSH32 0x5DB9EE0A495BF2E6FF9C91A7834C1BA4FDD244A5E8AA4E537BD38AEAE4B073AA CALLER JUMPDEST PUSH1 0x40 MLOAD PUSH1 0x1 PUSH1 0x1 PUSH1 0xA0 SHL SUB SWAP1 SWAP2 AND DUP2 MSTORE PUSH1 0x20 ADD PUSH1 0x40 MLOAD DUP1 SWAP2 SUB SWAP1 LOG1 JUMP JUMPDEST PUSH1 0x1 SLOAD PUSH1 0xFF AND ISZERO PUSH2 0xC01 JUMPI PUSH1 0x40 MLOAD PUSH3 0x461BCD PUSH1 0xE5 SHL DUP2 MSTORE PUSH1 0x20 PUSH1 0x4 DUP3 ADD MSTORE PUSH1 0x10 PUSH1 0x24 DUP3 ADD MSTORE PUSH16 0x14185D5CD8589B194E881C185D5CD959 PUSH1 0x82 SHL PUSH1 0x44 DUP3 ADD MSTORE PUSH1 0x64 ADD PUSH2 0x3AD JUMP JUMPDEST JUMP JUMPDEST PUSH2 0xC0B PUSH2 0xBBB JUMP JUMPDEST PUSH1 0x1 DUP1 SLOAD PUSH1 0xFF NOT AND DUP2 OR SWAP1 SSTORE PUSH32 0x62E78CEA01BEE320CD4E420270B5EA74000D11B0C9F74754EBDBFC544B05A258 CALLER PUSH2 0xB9E JUMP JUMPDEST PUSH2 0xC48 DUP3 DUP3 PUSH2 0x814 JUMP JUMPDEST PUSH2 0x3C0 JUMPI PUSH2 0xC55 DUP2 PUSH2 0xCE0 JUMP JUMPDEST PUSH2 0xC60 DUP4 PUSH1 0x20 PUSH2 0xCF2 JUMP JUMPDEST PUSH1 0x40 MLOAD PUSH1 0x20 ADD PUSH2 0xC71 SWAP3 SWAP2 SWAP1 PUSH2 0x1303 JUMP JUMPDEST PUSH1 0x40 DUP1 MLOAD PUSH1 0x1F NOT DUP2 DUP5 SUB ADD DUP2 MSTORE SWAP1 DUP3 SWAP1 MSTORE PUSH3 0x461BCD PUSH1 0xE5 SHL DUP3 MSTORE PUSH2 0x3AD SWAP2 PUSH1 0x4 ADD PUSH2 0x1378 JUMP JUMPDEST PUSH1 0x1 SLOAD PUSH1 0xFF AND PUSH2 0xC01 JUMPI PUSH1 0x40 MLOAD PUSH3 0x461BCD PUSH1 0xE5 SHL DUP2 MSTORE PUSH1 0x20 PUSH1 0x4 DUP3 ADD MSTORE PUSH1 0x14 PUSH1 0x24 DUP3 ADD MSTORE PUSH20 0x14185D5CD8589B194E881B9BDD081C185D5CD959 PUSH1 0x62 SHL PUSH1 0x44 DUP3 ADD MSTORE PUSH1 0x64 ADD PUSH2 0x3AD JUMP JUMPDEST PUSH1 0x60 PUSH2 0x311 PUSH1 0x1 PUSH1 0x1 PUSH1 0xA0 SHL SUB DUP4 AND PUSH1 0x14 JUMPDEST PUSH1 0x60 PUSH1 0x0 PUSH2 0xD01 DUP4 PUSH1 0x2 PUSH2 0x138B JUMP JUMPDEST PUSH2 0xD0C SWAP1 PUSH1 0x2 PUSH2 0x1147 JUMP JUMPDEST PUSH8 0xFFFFFFFFFFFFFFFF DUP2 GT ISZERO PUSH2 0xD24 JUMPI PUSH2 0xD24 PUSH2 0xFC4 JUMP JUMPDEST PUSH1 0x40 MLOAD SWAP1 DUP1 DUP3 MSTORE DUP1 PUSH1 0x1F ADD PUSH1 0x1F NOT AND PUSH1 0x20 ADD DUP3 ADD PUSH1 0x40 MSTORE DUP1 ISZERO PUSH2 0xD4E JUMPI PUSH1 0x20 DUP3 ADD DUP2 DUP1 CALLDATASIZE DUP4 CALLDATACOPY ADD SWAP1 POP JUMPDEST POP SWAP1 POP PUSH1 0x3 PUSH1 0xFC SHL DUP2 PUSH1 0x0 DUP2 MLOAD DUP2 LT PUSH2 0xD69 JUMPI PUSH2 0xD69 PUSH2 0x13A2 JUMP JUMPDEST PUSH1 0x20 ADD ADD SWAP1 PUSH1 0x1 PUSH1 0x1 PUSH1 0xF8 SHL SUB NOT AND SWAP1 DUP2 PUSH1 0x0 BYTE SWAP1 MSTORE8 POP PUSH1 0xF PUSH1 0xFB SHL DUP2 PUSH1 0x1 DUP2 MLOAD DUP2 LT PUSH2 0xD98 JUMPI PUSH2 0xD98 PUSH2 0x13A2 JUMP JUMPDEST PUSH1 0x20 ADD ADD SWAP1 PUSH1 0x1 PUSH1 0x1 PUSH1 0xF8 SHL SUB NOT AND SWAP1 DUP2 PUSH1 0x0 BYTE SWAP1 MSTORE8 POP PUSH1 0x0 PUSH2 0xDBC DUP5 PUSH1 0x2 PUSH2 0x138B JUMP JUMPDEST PUSH2 0xDC7 SWAP1 PUSH1 0x1 PUSH2 0x1147 JUMP JUMPDEST SWAP1 POP JUMPDEST PUSH1 0x1 DUP2 GT ISZERO PUSH2 0xE3F JUMPI PUSH16 0x181899199A1A9B1B9C1CB0B131B232B3 PUSH1 0x81 SHL DUP6 PUSH1 0xF AND PUSH1 0x10 DUP2 LT PUSH2 0xDFB JUMPI PUSH2 0xDFB PUSH2 0x13A2 JUMP JUMPDEST BYTE PUSH1 0xF8 SHL DUP3 DUP3 DUP2 MLOAD DUP2 LT PUSH2 0xE11 JUMPI PUSH2 0xE11 PUSH2 0x13A2 JUMP JUMPDEST PUSH1 0x20 ADD ADD SWAP1 PUSH1 0x1 PUSH1 0x1 PUSH1 0xF8 SHL SUB NOT AND SWAP1 DUP2 PUSH1 0x0 BYTE SWAP1 MSTORE8 POP PUSH1 0x4 SWAP5 SWAP1 SWAP5 SHR SWAP4 PUSH2 0xE38 DUP2 PUSH2 0x13B8 JUMP JUMPDEST SWAP1 POP PUSH2 0xDCA JUMP JUMPDEST POP DUP4 ISZERO PUSH2 0x98B JUMPI PUSH1 0x40 MLOAD PUSH3 0x461BCD PUSH1 0xE5 SHL DUP2 MSTORE PUSH1 0x20 PUSH1 0x4 DUP3 ADD DUP2 SWAP1 MSTORE PUSH1 0x24 DUP3 ADD MSTORE PUSH32 0x537472696E67733A20686578206C656E67746820696E73756666696369656E74 PUSH1 0x44 DUP3 ADD MSTORE PUSH1 0x64 ADD PUSH2 0x3AD JUMP JUMPDEST PUSH1 0x0 PUSH1 0x20 DUP3 DUP5 SUB SLT ISZERO PUSH2 0xEA0 JUMPI PUSH1 0x0 DUP1 REVERT JUMPDEST DUP2 CALLDATALOAD PUSH1 0x1 PUSH1 0x1 PUSH1 0xE0 SHL SUB NOT DUP2 AND DUP2 EQ PUSH2 0x98B JUMPI PUSH1 0x0 DUP1 REVERT JUMPDEST PUSH1 0x0 PUSH1 0x20 DUP3 DUP5 SUB SLT ISZERO PUSH2 0xECA JUMPI PUSH1 0x0 DUP1 REVERT JUMPDEST POP CALLDATALOAD SWAP2 SWAP1 POP JUMP JUMPDEST DUP1 CALLDATALOAD PUSH1 0x1 PUSH1 0x1 PUSH1 0xA0 SHL SUB DUP2 AND DUP2 EQ PUSH2 0xEE8 JUMPI PUSH1 0x0 DUP1 REVERT JUMPDEST SWAP2 SWAP1 POP JUMP JUMPDEST PUSH1 0x0 DUP1 PUSH1 0x40 DUP4 DUP6 SUB SLT ISZERO PUSH2 0xF00 JUMPI PUSH1 0x0 DUP1 REVERT JUMPDEST DUP3 CALLDATALOAD SWAP2 POP PUSH2 0xF10 PUSH1 0x20 DUP5 ADD PUSH2 0xED1 JUMP JUMPDEST SWAP1 POP SWAP3 POP SWAP3 SWAP1 POP JUMP JUMPDEST PUSH1 0x0 DUP1 PUSH1 0x40 DUP4 DUP6 SUB SLT ISZERO PUSH2 0xF2C JUMPI PUSH1 0x0 DUP1 REVERT JUMPDEST PUSH2 0xF35 DUP4 PUSH2 0xED1 JUMP JUMPDEST SWAP5 PUSH1 0x20 SWAP4 SWAP1 SWAP4 ADD CALLDATALOAD SWAP4 POP POP POP JUMP JUMPDEST PUSH1 0x0 DUP1 PUSH1 0x40 DUP4 DUP6 SUB SLT ISZERO PUSH2 0xF56 JUMPI PUSH1 0x0 DUP1 REVERT JUMPDEST POP POP DUP1 CALLDATALOAD SWAP3 PUSH1 0x20 SWAP1 SWAP2 ADD CALLDATALOAD SWAP2 POP JUMP JUMPDEST PUSH1 0x0 PUSH1 0x20 DUP3 DUP5 SUB SLT ISZERO PUSH2 0xF77 JUMPI PUSH1 0x0 DUP1 REVERT JUMPDEST PUSH2 0x98B DUP3 PUSH2 0xED1 JUMP JUMPDEST PUSH1 0x20 DUP1 DUP3 MSTORE DUP3 MLOAD DUP3 DUP3 ADD DUP2 SWAP1 MSTORE PUSH1 0x0 SWAP2 SWAP1 DUP5 DUP3 ADD SWAP1 PUSH1 0x40 DUP6 ADD SWAP1 DUP5 JUMPDEST DUP2 DUP2 LT ISZERO PUSH2 0xFB8 JUMPI DUP4 MLOAD DUP4 MSTORE SWAP3 DUP5 ADD SWAP3 SWAP2 DUP5 ADD SWAP2 PUSH1 0x1 ADD PUSH2 0xF9C JUMP JUMPDEST POP SWAP1 SWAP7 SWAP6 POP POP POP POP POP POP JUMP JUMPDEST PUSH4 0x4E487B71 PUSH1 0xE0 SHL PUSH1 0x0 MSTORE PUSH1 0x41 PUSH1 0x4 MSTORE PUSH1 0x24 PUSH1 0x0 REVERT JUMPDEST PUSH1 0x0 DUP1 PUSH1 0x0 PUSH1 0x60 DUP5 DUP7 SUB SLT ISZERO PUSH2 0xFEF JUMPI PUSH1 0x0 DUP1 REVERT JUMPDEST PUSH2 0xFF8 DUP5 PUSH2 0xED1 JUMP JUMPDEST SWAP3 POP PUSH1 0x20 DUP5 ADD CALLDATALOAD PUSH8 0xFFFFFFFFFFFFFFFF DUP1 DUP3 GT ISZERO PUSH2 0x1015 JUMPI PUSH1 0x0 DUP1 REVERT JUMPDEST DUP2 DUP7 ADD SWAP2 POP DUP7 PUSH1 0x1F DUP4 ADD SLT PUSH2 0x1029 JUMPI PUSH1 0x0 DUP1 REVERT JUMPDEST DUP2 CALLDATALOAD DUP2 DUP2 GT ISZERO PUSH2 0x103B JUMPI PUSH2 0x103B PUSH2 0xFC4 JUMP JUMPDEST PUSH1 0x40 MLOAD PUSH1 0x1F DUP3 ADD PUSH1 0x1F NOT SWAP1 DUP2 AND PUSH1 0x3F ADD AND DUP2 ADD SWAP1 DUP4 DUP3 GT DUP2 DUP4 LT OR ISZERO PUSH2 0x1063 JUMPI PUSH2 0x1063 PUSH2 0xFC4 JUMP JUMPDEST DUP2 PUSH1 0x40 MSTORE DUP3 DUP2 MSTORE DUP10 PUSH1 0x20 DUP5 DUP8 ADD ADD GT ISZERO PUSH2 0x107C JUMPI PUSH1 0x0 DUP1 REVERT JUMPDEST DUP3 PUSH1 0x20 DUP7 ADD PUSH1 0x20 DUP4 ADD CALLDATACOPY PUSH1 0x0 PUSH1 0x20 DUP5 DUP4 ADD ADD MSTORE DUP1 SWAP7 POP POP POP POP POP POP PUSH1 0x40 DUP5 ADD CALLDATALOAD SWAP1 POP SWAP3 POP SWAP3 POP SWAP3 JUMP JUMPDEST PUSH1 0x0 JUMPDEST DUP4 DUP2 LT ISZERO PUSH2 0x10C0 JUMPI DUP2 DUP2 ADD MLOAD DUP4 DUP3 ADD MSTORE PUSH1 0x20 ADD PUSH2 0x10A8 JUMP JUMPDEST POP POP PUSH1 0x0 SWAP2 ADD MSTORE JUMP JUMPDEST PUSH1 0x0 DUP2 MLOAD DUP1 DUP5 MSTORE PUSH2 0x10E1 DUP2 PUSH1 0x20 DUP7 ADD PUSH1 0x20 DUP7 ADD PUSH2 0x10A5 JUMP JUMPDEST PUSH1 0x1F ADD PUSH1 0x1F NOT AND SWAP3 SWAP1 SWAP3 ADD PUSH1 0x20 ADD SWAP3 SWAP2 POP POP JUMP JUMPDEST PUSH1 0x1 PUSH1 0x1 PUSH1 0xA0 SHL SUB DUP6 AND DUP2 MSTORE PUSH1 0x80 PUSH1 0x20 DUP3 ADD DUP2 SWAP1 MSTORE PUSH1 0x0 SWAP1 PUSH2 0x1119 SWAP1 DUP4 ADD DUP7 PUSH2 0x10C9 JUMP JUMPDEST PUSH1 0x40 DUP4 ADD SWAP5 SWAP1 SWAP5 MSTORE POP SWAP1 ISZERO ISZERO PUSH1 0x60 SWAP1 SWAP2 ADD MSTORE SWAP3 SWAP2 POP POP JUMP JUMPDEST PUSH4 0x4E487B71 PUSH1 0xE0 SHL PUSH1 0x0 MSTORE PUSH1 0x11 PUSH1 0x4 MSTORE PUSH1 0x24 PUSH1 0x0 REVERT JUMPDEST DUP1 DUP3 ADD DUP1 DUP3 GT ISZERO PUSH2 0x311 JUMPI PUSH2 0x311 PUSH2 0x1131 JUMP JUMPDEST PUSH12 0xFFFFFFFFFFFFFFFFFFFFFFFF NOT DUP5 PUSH1 0x60 SHL AND DUP2 MSTORE PUSH1 0x0 DUP4 MLOAD PUSH2 0x1184 DUP2 PUSH1 0x14 DUP6 ADD PUSH1 0x20 DUP9 ADD PUSH2 0x10A5 JUMP JUMPDEST PUSH1 0x14 SWAP3 ADD SWAP2 DUP3 ADD SWAP3 SWAP1 SWAP3 MSTORE PUSH1 0x34 ADD SWAP4 SWAP3 POP POP POP JUMP JUMPDEST PUSH1 0x1 DUP2 DUP2 SHR SWAP1 DUP3 AND DUP1 PUSH2 0x11AD JUMPI PUSH1 0x7F DUP3 AND SWAP2 POP JUMPDEST PUSH1 0x20 DUP3 LT DUP2 SUB PUSH2 0x11CD JUMPI PUSH4 0x4E487B71 PUSH1 0xE0 SHL PUSH1 0x0 MSTORE PUSH1 0x22 PUSH1 0x4 MSTORE PUSH1 0x24 PUSH1 0x0 REVERT JUMPDEST POP SWAP2 SWAP1 POP JUMP JUMPDEST PUSH1 0x1F DUP3 GT ISZERO PUSH2 0x33C JUMPI PUSH1 0x0 DUP2 DUP2 MSTORE PUSH1 0x20 DUP2 KECCAK256 PUSH1 0x1F DUP6 ADD PUSH1 0x5 SHR DUP2 ADD PUSH1 0x20 DUP7 LT ISZERO PUSH2 0x11FA JUMPI POP DUP1 JUMPDEST PUSH1 0x1F DUP6 ADD PUSH1 0x5 SHR DUP3 ADD SWAP2 POP JUMPDEST DUP2 DUP2 LT ISZERO PUSH2 0x1219 JUMPI DUP3 DUP2 SSTORE PUSH1 0x1 ADD PUSH2 0x1206 JUMP JUMPDEST POP POP POP POP POP POP JUMP JUMPDEST DUP2 MLOAD PUSH8 0xFFFFFFFFFFFFFFFF DUP2 GT ISZERO PUSH2 0x123B JUMPI PUSH2 0x123B PUSH2 0xFC4 JUMP JUMPDEST PUSH2 0x124F DUP2 PUSH2 0x1249 DUP5 SLOAD PUSH2 0x1199 JUMP JUMPDEST DUP5 PUSH2 0x11D3 JUMP JUMPDEST PUSH1 0x20 DUP1 PUSH1 0x1F DUP4 GT PUSH1 0x1 DUP2 EQ PUSH2 0x1284 JUMPI PUSH1 0x0 DUP5 ISZERO PUSH2 0x126C JUMPI POP DUP6 DUP4 ADD MLOAD JUMPDEST PUSH1 0x0 NOT PUSH1 0x3 DUP7 SWAP1 SHL SHR NOT AND PUSH1 0x1 DUP6 SWAP1 SHL OR DUP6 SSTORE PUSH2 0x1219 JUMP JUMPDEST PUSH1 0x0 DUP6 DUP2 MSTORE PUSH1 0x20 DUP2 KECCAK256 PUSH1 0x1F NOT DUP7 AND SWAP2 JUMPDEST DUP3 DUP2 LT ISZERO PUSH2 0x12B3 JUMPI DUP9 DUP7 ADD MLOAD DUP3 SSTORE SWAP5 DUP5 ADD SWAP5 PUSH1 0x1 SWAP1 SWAP2 ADD SWAP1 DUP5 ADD PUSH2 0x1294 JUMP JUMPDEST POP DUP6 DUP3 LT ISZERO PUSH2 0x12D1 JUMPI DUP8 DUP6 ADD MLOAD PUSH1 0x0 NOT PUSH1 0x3 DUP9 SWAP1 SHL PUSH1 0xF8 AND SHR NOT AND DUP2 SSTORE JUMPDEST POP POP POP POP POP PUSH1 0x1 SWAP1 DUP2 SHL ADD SWAP1 SSTORE POP JUMP JUMPDEST PUSH1 0x40 DUP2 MSTORE PUSH1 0x0 PUSH2 0x12F4 PUSH1 0x40 DUP4 ADD DUP6 PUSH2 0x10C9 JUMP JUMPDEST SWAP1 POP DUP3 PUSH1 0x20 DUP4 ADD MSTORE SWAP4 SWAP3 POP POP POP JUMP JUMPDEST PUSH32 0x416363657373436F6E74726F6C3A206163636F756E7420000000000000000000 DUP2 MSTORE PUSH1 0x0 DUP4 MLOAD PUSH2 0x133B DUP2 PUSH1 0x17 DUP6 ADD PUSH1 0x20 DUP9 ADD PUSH2 0x10A5 JUMP JUMPDEST PUSH17 0x1034B99036B4B9B9B4B733903937B6329 PUSH1 0x7D SHL PUSH1 0x17 SWAP2 DUP5 ADD SWAP2 DUP3 ADD MSTORE DUP4 MLOAD PUSH2 0x136C DUP2 PUSH1 0x28 DUP5 ADD PUSH1 0x20 DUP9 ADD PUSH2 0x10A5 JUMP JUMPDEST ADD PUSH1 0x28 ADD SWAP5 SWAP4 POP POP POP POP JUMP JUMPDEST PUSH1 0x20 DUP2 MSTORE PUSH1 0x0 PUSH2 0x98B PUSH1 0x20 DUP4 ADD DUP5 PUSH2 0x10C9 JUMP JUMPDEST DUP1 DUP3 MUL DUP2 ISZERO DUP3 DUP3 DIV DUP5 EQ OR PUSH2 0x311 JUMPI PUSH2 0x311 PUSH2 0x1131 JUMP JUMPDEST PUSH4 0x4E487B71 PUSH1 0xE0 SHL PUSH1 0x0 MSTORE PUSH1 0x32 PUSH1 0x4 MSTORE PUSH1 0x24 PUSH1 0x0 REVERT JUMPDEST PUSH1 0x0 DUP2 PUSH2 0x13C7 JUMPI PUSH2 0x13C7 PUSH2 0x1131 JUMP JUMPDEST POP PUSH1 0x0 NOT ADD SWAP1 JUMP INVALID LOG2 PUSH5 0x6970667358 0x22 SLT KECCAK256 0xF9 SLT DUP7 0xBA CALLDATACOPY SELFBALANCE EXTCODEHASH CALLDATALOAD ISZERO SUB 0xB7 0xEA 0x29 RETURN GASPRICE 0xAB NUMBER PUSH17 0xE35E95A6ECB2DC6F55F489CC4B764736F PUSH13 0x63430008130033000000000000 "},"methodIdentifiers":{"ADMIN_ROLE()":"75b238fc","COMPLIANCE_ROLE()":"062d3bd7","DEFAULT_ADMIN_ROLE()":"a217fddf","getRoleAdmin(bytes32)":"248a9ca3","getUserLicenses(address)":"75a106c3","grantLicense(address,string,uint256)":"850d3523","grantRole(bytes32,address)":"2f2ff15d","hasRole(bytes32,address)":"91d14854","isValidLicense(bytes32)":"ba810a4a","licenses(bytes32)":"cde74e51","pause()":"8456cb59","paused()":"5c975abb","renewLicense(bytes32,uint256)":"53be39d0","renounceRole(bytes32,address)":"36568abe","revokeLicense(bytes32)":"63c7ea91","revokeRole(bytes32,address)":"d547741f","supportsInterface(bytes4)":"01ffc9a7","unpause()":"3f4ba83a","userLicenses(address,uint256)":"454c1d31"}}}}}