{
  "_format": "hh-sol-artifact-1",
  "contractName": "LicenseManager",
  "sourceName": "contracts/LicenseManager.sol",
  "abi": [
    {
      "inputs": [
        {
          "internalType": "address",
          "name": "_token",
          "type": "address"
        },
        {
          "internalType": "address",
          "name": "_registry",
          "type": "address"
        },
        {
          "internalType": "uint256",
          "name": "_platformFee",
          "type": "uint256"
        }
      ],
      "stateMutability": "nonpayable",
      "type": "constructor"
    },
    {
      "anonymous": false,
      "inputs": [
        {
          "indexed": true,
          "internalType": "bytes32",
          "name": "licenseId",
          "type": "bytes32"
        },
        {
          "indexed": true,
          "internalType": "address",
          "name": "licensee",
          "type": "address"
        },
        {
          "indexed": false,
          "internalType": "string",
          "name": "datasetCid",
          "type": "string"
        },
        {
          "indexed": false,
          "internalType": "string",
          "name": "name",
          "type": "string"
        },
        {
          "indexed": false,
          "internalType": "string",
          "name": "description",
          "type": "string"
        },
        {
          "indexed": false,
          "internalType": "uint256",
          "name": "expirationTimestamp",
          "type": "uint256"
        }
      ],
      "name": "LicenseGranted",
      "type": "event"
    },
    {
      "anonymous": false,
      "inputs": [
        {
          "indexed": true,
          "internalType": "bytes32",
          "name": "licenseId",
          "type": "bytes32"
        },
        {
          "indexed": false,
          "internalType": "uint256",
          "name": "newExpirationTimestamp",
          "type": "uint256"
        }
      ],
      "name": "LicenseRenewed",
      "type": "event"
    },
    {
      "anonymous": false,
      "inputs": [
        {
          "indexed": true,
          "internalType": "bytes32",
          "name": "licenseId",
          "type": "bytes32"
        }
      ],
      "name": "LicenseRevoked",
      "type": "event"
    },
    {
      "anonymous": false,
      "inputs": [
        {
          "indexed": false,
          "internalType": "address",
          "name": "account",
          "type": "address"
        }
      ],
      "name": "Paused",
      "type": "event"
    },
    {
      "anonymous": false,
      "inputs": [
        {
          "indexed": false,
          "internalType": "uint256",
          "name": "newFee",
          "type": "uint256"
        }
      ],
      "name": "PlatformFeeUpdated",
      "type": "event"
    },
    {
      "anonymous": false,
      "inputs": [
        {
          "indexed": true,
          "internalType": "bytes32",
          "name": "role",
          "type": "bytes32"
        },
        {
          "indexed": true,
          "internalType": "bytes32",
          "name": "previousAdminRole",
          "type": "bytes32"
        },
        {
          "indexed": true,
          "internalType": "bytes32",
          "name": "newAdminRole",
          "type": "bytes32"
        }
      ],
      "name": "RoleAdminChanged",
      "type": "event"
    },
    {
      "anonymous": false,
      "inputs": [
        {
          "indexed": true,
          "internalType": "bytes32",
          "name": "role",
          "type": "bytes32"
        },
        {
          "indexed": true,
          "internalType": "address",
          "name": "account",
          "type": "address"
        },
        {
          "indexed": true,
          "internalType": "address",
          "name": "sender",
          "type": "address"
        }
      ],
      "name": "RoleGranted",
      "type": "event"
    },
    {
      "anonymous": false,
      "inputs": [
        {
          "indexed": true,
          "internalType": "bytes32",
          "name": "role",
          "type": "bytes32"
        },
        {
          "indexed": true,
          "internalType": "address",
          "name": "account",
          "type": "address"
        },
        {
          "indexed": true,
          "internalType": "address",
          "name": "sender",
          "type": "address"
        }
      ],
      "name": "RoleRevoked",
      "type": "event"
    },
    {
      "anonymous": false,
      "inputs": [
        {
          "indexed": false,
          "internalType": "address",
          "name": "account",
          "type": "address"
        }
      ],
      "name": "Unpaused",
      "type": "event"
    },
    {
      "inputs": [],
      "name": "ADMIN_ROLE",
      "outputs": [
        {
          "internalType": "bytes32",
          "name": "",
          "type": "bytes32"
        }
      ],
      "stateMutability": "view",
      "type": "function"
    },
    {
      "inputs": [],
      "name": "COMPLIANCE_ROLE",
      "outputs": [
        {
          "internalType": "bytes32",
          "name": "",
          "type": "bytes32"
        }
      ],
      "stateMutability": "view",
      "type": "function"
    },
    {
      "inputs": [],
      "name": "DEFAULT_ADMIN_ROLE",
      "outputs": [
        {
          "internalType": "bytes32",
          "name": "",
          "type": "bytes32"
        }
      ],
      "stateMutability": "view",
      "type": "function"
    },
    {
      "inputs": [
        {
          "internalType": "bytes32",
          "name": "role",
          "type": "bytes32"
        }
      ],
      "name": "getRoleAdmin",
      "outputs": [
        {
          "internalType": "bytes32",
          "name": "",
          "type": "bytes32"
        }
      ],
      "stateMutability": "view",
      "type": "function"
    },
    {
      "inputs": [
        {
          "internalType": "address",
          "name": "user",
          "type": "address"
        }
      ],
      "name": "getUserLicenses",
      "outputs": [
        {
          "internalType": "bytes32[]",
          "name": "",
          "type": "bytes32[]"
        }
      ],
      "stateMutability": "view",
      "type": "function"
    },
    {
      "inputs": [
        {
          "internalType": "bytes32",
          "name": "role",
          "type": "bytes32"
        },
        {
          "internalType": "address",
          "name": "account",
          "type": "address"
        }
      ],
      "name": "grantRole",
      "outputs": [],
      "stateMutability": "nonpayable",
      "type": "function"
    },
    {
      "inputs": [
        {
          "internalType": "bytes32",
          "name": "role",
          "type": "bytes32"
        },
        {
          "internalType": "address",
          "name": "account",
          "type": "address"
        }
      ],
      "name": "hasRole",
      "outputs": [
        {
          "internalType": "bool",
          "name": "",
          "type": "bool"
        }
      ],
      "stateMutability": "view",
      "type": "function"
    },
    {
      "inputs": [
        {
          "internalType": "bytes32",
          "name": "licenseId",
          "type": "bytes32"
        }
      ],
      "name": "isValidLicense",
      "outputs": [
        {
          "internalType": "bool",
          "name": "",
          "type": "bool"
        }
      ],
      "stateMutability": "view",
      "type": "function"
    },
    {
      "inputs": [
        {
          "internalType": "bytes32",
          "name": "",
          "type": "bytes32"
        }
      ],
      "name": "licenses",
      "outputs": [
        {
          "internalType": "address",
          "name": "licensee",
          "type": "address"
        },
        {
          "internalType": "string",
          "name": "datasetCid",
          "type": "string"
        },
        {
          "internalType": "uint256",
          "name": "purchaseTimestamp",
          "type": "uint256"
        },
        {
          "internalType": "uint256",
          "name": "expirationTimestamp",
          "type": "uint256"
        },
        {
          "internalType": "bool",
          "name": "isActive",
          "type": "bool"
        }
      ],
      "stateMutability": "view",
      "type": "function"
    },
    {
      "inputs": [],
      "name": "pause",
      "outputs": [],
      "stateMutability": "nonpayable",
      "type": "function"
    },
    {
      "inputs": [],
      "name": "paused",
      "outputs": [
        {
          "internalType": "bool",
          "name": "",
          "type": "bool"
        }
      ],
      "stateMutability": "view",
      "type": "function"
    },
    {
      "inputs": [],
      "name": "platformFee",
      "outputs": [
        {
          "internalType": "uint256",
          "name": "",
          "type": "uint256"
        }
      ],
      "stateMutability": "view",
      "type": "function"
    },
    {
      "inputs": [
        {
          "internalType": "string",
          "name": "datasetCid",
          "type": "string"
        }
      ],
      "name": "purchaseLicense",
      "outputs": [],
      "stateMutability": "nonpayable",
      "type": "function"
    },
    {
      "inputs": [],
      "name": "registry",
      "outputs": [
        {
          "internalType": "contract DatasetRegistry",
          "name": "",
          "type": "address"
        }
      ],
      "stateMutability": "view",
      "type": "function"
    },
    {
      "inputs": [
        {
          "internalType": "bytes32",
          "name": "role",
          "type": "bytes32"
        },
        {
          "internalType": "address",
          "name": "account",
          "type": "address"
        }
      ],
      "name": "renounceRole",
      "outputs": [],
      "stateMutability": "nonpayable",
      "type": "function"
    },
    {
      "inputs": [
        {
          "internalType": "string",
          "name": "datasetCid",
          "type": "string"
        },
        {
          "internalType": "address",
          "name": "licensee",
          "type": "address"
        }
      ],
      "name": "revokeLicense",
      "outputs": [],
      "stateMutability": "nonpayable",
      "type": "function"
    },
    {
      "inputs": [
        {
          "internalType": "bytes32",
          "name": "role",
          "type": "bytes32"
        },
        {
          "internalType": "address",
          "name": "account",
          "type": "address"
        }
      ],
      "name": "revokeRole",
      "outputs": [],
      "stateMutability": "nonpayable",
      "type": "function"
    },
    {
      "inputs": [
        {
          "internalType": "uint256",
          "name": "_platformFee",
          "type": "uint256"
        }
      ],
      "name": "setPlatformFee",
      "outputs": [],
      "stateMutability": "nonpayable",
      "type": "function"
    },
    {
      "inputs": [
        {
          "internalType": "bytes4",
          "name": "interfaceId",
          "type": "bytes4"
        }
      ],
      "name": "supportsInterface",
      "outputs": [
        {
          "internalType": "bool",
          "name": "",
          "type": "bool"
        }
      ],
      "stateMutability": "view",
      "type": "function"
    },
    {
      "inputs": [],
      "name": "token",
      "outputs": [
        {
          "internalType": "contract DatasetToken",
          "name": "",
          "type": "address"
        }
      ],
      "stateMutability": "view",
      "type": "function"
    },
    {
      "inputs": [],
      "name": "unpause",
      "outputs": [],
      "stateMutability": "nonpayable",
      "type": "function"
    },
    {
      "inputs": [
        {
          "internalType": "address",
          "name": "",
          "type": "address"
        },
        {
          "internalType": "string",
          "name": "",
          "type": "string"
        }
      ],
      "name": "userDatasetLicenses",
      "outputs": [
        {
          "internalType": "bytes32",
          "name": "",
          "type": "bytes32"
        }
      ],
      "stateMutability": "view",
      "type": "function"
    },
    {
      "inputs": [
        {
          "internalType": "address",
          "name": "",
          "type": "address"
        },
        {
          "internalType": "uint256",
          "name": "",
          "type": "uint256"
        }
      ],
      "name": "userLicenses",
      "outputs": [
        {
          "internalType": "bytes32",
          "name": "",
          "type": "bytes32"
        }
      ],
      "stateMutability": "view",
      "type": "function"
    }
  ],
  "bytecode": "0x608034620002e957601f620020f038819003918201601f191683019291906001600160401b03841183851017620002ee578160609284926040968752833981010312620002e957620000518162000304565b90602091836200006384840162000304565b92015160015490926001600160a01b039083821615620002a5571691821562000261576103e884116200021d576001600160a81b031990911660089190911b610100600160a81b031617600155600280546001600160a01b031916919091179055600355600080805280825282812033825282528281205460ff1615620001e5575b7fa49807205ce4d355092ef5a8a18f56e8913cf4a201fbe287825b095693c21775808252818352838220338352835260ff848320541615620001ab575b507f442a94f1a1fac79af32856af2a64f63648cfa2ef3b98610a5bb7cbec4cee698591828252818152838220338352815260ff84832054161562000170575b8351611db690816200031a8239f35b8282528181528382209033835252828120600160ff198254161790553391600080516020620020d0833981519152339280a438808062000161565b8082528183528382203383528352838220600160ff1982541617905533903390600080516020620020d08339815191528480a43862000122565b8080528082528281203382528252828120600160ff19825416179055333382600080516020620020d08339815191528180a4620000e5565b855162461bcd60e51b815260048101869052601560248201527f4665652063616e6e6f74206578636565642031302500000000000000000000006044820152606490fd5b855162461bcd60e51b815260048101869052601860248201527f496e76616c6964207265676973747279206164647265737300000000000000006044820152606490fd5b865162461bcd60e51b815260048101879052601560248201527f496e76616c696420746f6b656e206164647265737300000000000000000000006044820152606490fd5b600080fd5b634e487b7160e01b600052604160045260246000fd5b51906001600160a01b0382168203620002e95756fe608080604052600436101561001357600080fd5b60003560e01c90816301ffc9a7146115be57508063062d3bd71461158357806312e8e2c3146113dc578063248a9ca3146113ad57806326232a2e1461138f5780632f2ff15d146112dc57806331745c5d1461126157806336568abe146111cf5780633f4ba83a1461113b578063454c1d31146110e35780635c975abb146110c057806374e078dc14610db757806375a106c314610d0357806375b238fc14610cc85780637b10399914610c9f5780638456cb5914610c4657806391d1485414610bf9578063a217fddf14610bdd578063ba810a4a14610b35578063c5703e5e1461020d578063cde74e511461018f578063d547741f1461014e5763fc0c546a1461011c57600080fd5b346101495760003660031901126101495760015460405160089190911c6001600160a01b03168152602090f35b600080fd5b346101495760403660031901126101495761018d60043561016d611611565b90806000526000602052610188600160406000200154611a07565b611b11565b005b34610149576020366003190112610149576004356000526004602052604060002060018060a01b038154166101c66001830161176f565b9160028101549060ff6004600383015492015416906101f7604051958695865260a0602087015260a0860190611815565b9260408501526060840152151560808301520390f35b346101495760203660031901126101495760043567ffffffffffffffff81116101495761023e9036906004016116b3565b610246611cf7565b6002546040516307eec9a760e21b8152602060048201529060009082906001600160a01b0316818061027b6024820188611815565b03915afa9081156107c75760008091600093600091600090600092610a71575b50610a20576109e65780156109955733600052600660205260406000206020604051809288516102ce8184868d016116fa565b820190815203019020548015908115610978575b501561093a576003549182820292828404036106e8578161271084048103116106e857600154604051636eb1769f60e11b815233600482015230602482015260089190911c6001600160a01b031690602081604481855afa80156107c7578491600091610905575b50106108c05760206000916064604051809481936323b872dd60e01b83523360048401523060248401528860448401525af19081156107c757600091610886575b50156108495760015460405163a9059cbb60e01b8082526001600160a01b03938416600483015261271086049094036024820152916020918391604491839160009160081c165af19081156107c75760009161080f575b50156107d35761271082046106fe575b505060405160208101903360601b8252610431605482875161041b816034840160208c016116fa565b8101426034820152036034810184520182611675565b519020916301e13380420142116106e85760405161044e8161163d565b338152602081018581524260408301526301e13380420160608301526001608083015284600052600460205260406000209060018060a01b038351166bffffffffffffffffffffffff60a01b8354161782555180519067ffffffffffffffff821161060d576104c06001840154611735565b601f81116106a1575b50602090601f831160011461062e57918060809492600494600092610623575b50508160011b916000199060031b1c19161760018201555b604084015160028201556060840151600382015501910151151560ff8019835416911617905533600052600560205260406000209081546801000000000000000081101561060d577f0f7a6a93cc87f3c3ddcee49509d83978b1d5c57288095fd0b07e6ab7ae6a8c9293610581826105f89560016105ea9501815561171d565b81549060031b9088821b91600019901b191617905533600052600660205285604060002060206040518092826105bd8d848151938492016116fa565b820190815203019020556105dc60405197608089526080890190611815565b908782036020890152611815565b908582036040870152611815565b926301e13380420160608201528033940390a3005b634e487b7160e01b600052604160045260246000fd5b015190508a806104e9565b90601f198316916001850160005260206000209260005b81811061068957509260019285926004966080989610610670575b505050811b016001820155610501565b015160001960f88460031b161c191690558a8080610660565b92936020600181928786015181550195019301610645565b600184016000526020600020601f840160051c8101602085106106e1575b601f830160051c820181106106d55750506104c9565b600081556001016106bf565b50806106bf565b634e487b7160e01b600052601160045260246000fd5b600154604051918252306004830152612710909204602482015290602090829060081c6001600160a01b0316816000816044810103925af19081156107c75760009161078d575b50156107525783806103f2565b60405162461bcd60e51b8152602060048201526013602482015272119959481d1c985b9cd9995c8819985a5b1959606a1b6044820152606490fd5b90506020813d6020116107bf575b816107a860209383611675565b81010312610149576107b990611cea565b84610745565b3d915061079b565b6040513d6000823e3d90fd5b60405162461bcd60e51b815260206004820152601460248201527313dddb995c881c185e5b595b9d0819985a5b195960621b6044820152606490fd5b90506020813d602011610841575b8161082a60209383611675565b810103126101495761083b90611cea565b866103e2565b3d915061081d565b60405162461bcd60e51b8152602060048201526015602482015274151bdad95b881d1c985b9cd9995c8819985a5b1959605a1b6044820152606490fd5b90506020813d6020116108b8575b816108a160209383611675565b81010312610149576108b290611cea565b8761038b565b3d9150610894565b60405162461bcd60e51b815260206004820152601c60248201527f496e73756666696369656e7420746f6b656e20616c6c6f77616e6365000000006044820152606490fd5b9150506020813d602011610932575b8161092160209383611675565b81010312610149578390518961034a565b3d9150610914565b60405162461bcd60e51b81526020600482015260166024820152754c6963656e736520616c72656164792061637469766560501b6044820152606490fd5b9050600052600460205260ff6004604060002001541615866102e2565b60405162461bcd60e51b8152602060048201526024808201527f44617461736574207072696365206d75737420626520677265617465722074686044820152630616e20360e41b6064820152608490fd5b60405162461bcd60e51b815260206004820152601260248201527111185d185cd95d081a5cc81c995b5bdd995960721b6044820152606490fd5b60405162461bcd60e51b8152602060048201526024808201527f44617461736574206973207075626c69632c206e6f206c6963656e7365206e656044820152631959195960e21b6064820152608490fd5b955050505050503d806000833e610a888183611675565b81019061010081830312610149578051916001600160a01b038316830361014957602082015167ffffffffffffffff81116101495781610ac9918401611ca5565b50604082015167ffffffffffffffff81116101495781610aea918401611ca5565b9060608301519067ffffffffffffffff821161014957610b0b918401611ca5565b91608081015193610b2a60c0610b2360a08501611cea565b9301611cea565b90929394918761029b565b346101495760203660031901126101495760206080600435806000526004835260018060a01b0390610b6f82604060002054161515611d3b565b6000526004835260406000209060405190610b898261163d565b8254168152610b9a6001830161176f565b848201526002820154604082015260ff60046003840154938460608501520154161515928391015281610bd3575b506040519015158152f35b9050421082610bc8565b3461014957600036600319011261014957602060405160008152f35b3461014957604036600319011261014957610c12611611565b600435600052600060205260406000209060018060a01b0316600052602052602060ff604060002054166040519015158152f35b3461014957600036600319011261014957610c5f61183a565b610c67611cf7565b600160ff19815416176001557f62e78cea01bee320cd4e420270b5ea74000d11b0c9f74754ebdbfc544b05a2586020604051338152a1005b34610149576000366003190112610149576002546040516001600160a01b039091168152602090f35b346101495760003660031901126101495760206040517fa49807205ce4d355092ef5a8a18f56e8913cf4a201fbe287825b095693c217758152f35b3461014957602080600319360112610149576001600160a01b03610d25611627565b1660005260058152604060002060405190818382549182815201908192600052846000209060005b86828210610da3578686610d6382880383611675565b604051928392818401908285525180915260408401929160005b828110610d8c57505050500390f35b835185528695509381019392810192600101610d7d565b835485529093019260019283019201610d4d565b346101495760403660031901126101495760043567ffffffffffffffff811161014957610de89036906004016116b3565b610df0611611565b3360009081527f335573aa7cafba10a32e2694464d1e7e5294d917876d04d506249fbf84d791af6020908152604090912054909291907f442a94f1a1fac79af32856af2a64f63648cfa2ef3b98610a5bb7cbec4cee69859060ff1615610f305750610e86918391610e5f611cf7565b60018060a01b031660005260068252604060002082604051948386809551938492016116fa565b8201908152030190205490610e9c821515611d3b565b816000526004815260ff6004604060002001541615610ef4576004908260005252600460406000200160ff1981541690557f0cddff7d26fb450c5bd6fa66ef9bd79abd5f2424333c0381532898b0ef59638c600080a2005b6064906040519062461bcd60e51b8252600482015260156024820152744c6963656e7365206973206e6f742061637469766560581b6044820152fd5b83610f3a33611b96565b91604051610f4781611659565b604281528281019160603684378151156110aa576030835381516001908110156110aa57607860218401536041905b80821161106657505061102357610fef93610ffe9260489260405196879376020b1b1b2b9b9a1b7b73a3937b61d1030b1b1b7bab73a1604d1b88860152610fc6815180928a6037890191016116fa565b8401917001034b99036b4b9b9b4b733903937b6329607d1b6037840152518093868401906116fa565b01036028810185520183611675565b61101f60405192839262461bcd60e51b845260048401526024830190611815565b0390fd5b6064836040519062461bcd60e51b825280600483015260248201527f537472696e67733a20686578206c656e67746820696e73756666696369656e746044820152fd5b9091600f811660108110156110aa576f181899199a1a9b1b9c1cb0b131b232b360811b901a6110958486611b85565b5360041c9180156106e8576000190190610f76565b634e487b7160e01b600052603260045260246000fd5b3461014957600036600319011261014957602060ff600154166040519015158152f35b34610149576040366003190112610149576110fc611627565b6001600160a01b03166000908152600560205260409020805460243591908210156101495760209161112d9161171d565b90546040519160031b1c8152f35b346101495760003660031901126101495761115461183a565b60015460ff8116156111935760ff19166001557f5db9ee0a495bf2e6ff9c91a7834c1ba4fdd244a5e8aa4e537bd38aeae4b073aa6020604051338152a1005b60405162461bcd60e51b815260206004820152601460248201527314185d5cd8589b194e881b9bdd081c185d5cd95960621b6044820152606490fd5b34610149576040366003190112610149576111e8611611565b336001600160a01b038216036112045761018d90600435611b11565b60405162461bcd60e51b815260206004820152602f60248201527f416363657373436f6e74726f6c3a2063616e206f6e6c792072656e6f756e636560448201526e103937b632b9903337b91039b2b63360891b6064820152608490fd5b346101495760403660031901126101495761127a611627565b6024359067ffffffffffffffff82116101495760206112ca916112a2829436906004016116b3565b9060018060a01b031660005260068252604060002082604051948386809551938492016116fa565b82019081520301902054604051908152f35b34610149576040366003190112610149576004356112f8611611565b816000526000602052611312600160406000200154611a07565b81600052600060205260406000209060018060a01b0316908160005260205260ff604060002054161561134157005b8160005260006020526040600020816000526020526040600020600160ff1982541617905533917f2f8788117e7eff1d82e926ec794901d17c78024a50270940304540a733656f0d600080a4005b34610149576000366003190112610149576020600354604051908152f35b346101495760203660031901126101495760043560005260006020526020600160406000200154604051908152f35b346101495760208060031936011261014957600435907fa49807205ce4d355092ef5a8a18f56e8913cf4a201fbe287825b095693c217758060005260008252604060002033600052825260ff60406000205416156114a957506103e8821161146d57817f45610d581145924dd7090a5017e5f2b1d6f42213bb2e95707ff86846bbfcb1ca92600355604051908152a1005b6064906040519062461bcd60e51b8252600482015260156024820152744665652063616e6e6f74206578636565642031302560581b6044820152fd5b906114b333611b96565b916040516114c081611659565b604281528281019160603684378151156110aa576030835381516001908110156110aa57607860218401536041905b80821161153f57505061102357610fef93610ffe9260489260405196879376020b1b1b2b9b9a1b7b73a3937b61d1030b1b1b7bab73a1604d1b88860152610fc6815180928a6037890191016116fa565b9091600f811660108110156110aa576f181899199a1a9b1b9c1cb0b131b232b360811b901a61156e8486611b85565b5360041c9180156106e85760001901906114ef565b346101495760003660031901126101495760206040517f442a94f1a1fac79af32856af2a64f63648cfa2ef3b98610a5bb7cbec4cee69858152f35b34610149576020366003190112610149576004359063ffffffff60e01b821680920361014957602091637965db0b60e01b8114908115611600575b5015158152f35b6301ffc9a760e01b149050836115f9565b602435906001600160a01b038216820361014957565b600435906001600160a01b038216820361014957565b60a0810190811067ffffffffffffffff82111761060d57604052565b6080810190811067ffffffffffffffff82111761060d57604052565b90601f8019910116810190811067ffffffffffffffff82111761060d57604052565b67ffffffffffffffff811161060d57601f01601f191660200190565b81601f82011215610149578035906116ca82611697565b926116d86040519485611675565b8284526020838301011161014957816000926020809301838601378301015290565b60005b83811061170d5750506000910152565b81810151838201526020016116fd565b80548210156110aa5760005260206000200190600090565b90600182811c92168015611765575b602083101461174f57565b634e487b7160e01b600052602260045260246000fd5b91607f1691611744565b906040519182600082549261178384611735565b9081845260019485811690816000146117f257506001146117af575b50506117ad92500383611675565b565b9093915060005260209081600020936000915b8183106117da5750506117ad9350820101388061179f565b855488840185015294850194879450918301916117c2565b9150506117ad94506020925060ff191682840152151560051b820101388061179f565b9060209161182e815180928185528580860191016116fa565b601f01601f1916010190565b3360009081527fad3228b676f7d3cd4284a5443f17f1962b36e491b30a40b2405849e597ba5fb5602090815260408083205490929060ff161561187c57505050565b61188533611b96565b908084519061189382611659565b604282528482019260603685378251156119f357603084538251906001918210156119f35790607860218501536041915b8183116119855750505061194357604861101f93869361192793611918985198899376020b1b1b2b9b9a1b7b73a3937b61d1030b1b1b7bab73a1604d1b8a860152610fc6815180928c6037890191016116fa565b01036028810187520185611675565b5192839262461bcd60e51b845260048401526024830190611815565b60648486519062461bcd60e51b825280600483015260248201527f537472696e67733a20686578206c656e67746820696e73756666696369656e746044820152fd5b909192600f811660108110156119df576f181899199a1a9b1b9c1cb0b131b232b360811b901a6119b58587611b85565b5360041c9280156119cb576000190191906118c4565b634e487b7160e01b82526011600452602482fd5b634e487b7160e01b83526032600452602483fd5b634e487b7160e01b81526032600452602490fd5b600090808252602090828252604092838120338252835260ff848220541615611a305750505050565b611a3933611b96565b91845190611a4682611659565b604282528482019260603685378251156119f357603084538251906001918210156119f35790607860218501536041915b818311611acb5750505061194357604861101f93869361192793611918985198899376020b1b1b2b9b9a1b7b73a3937b61d1030b1b1b7bab73a1604d1b8a860152610fc6815180928c6037890191016116fa565b909192600f811660108110156119df576f181899199a1a9b1b9c1cb0b131b232b360811b901a611afb8587611b85565b5360041c9280156119cb57600019019190611a77565b9060009180835282602052604083209160018060a01b03169182845260205260ff604084205416611b4157505050565b80835282602052604083208284526020526040832060ff1981541690557ff6391f5c32d9c69d2a47ea670b442974b53935d1edc7fd64eb21e047a839171b339380a4565b9081518110156110aa570160200190565b604051906060820182811067ffffffffffffffff82111761060d57604052602a82526020820160403682378251156110aa576030905381516001908110156110aa57607860218401536029905b808211611c37575050611bf35790565b606460405162461bcd60e51b815260206004820152602060248201527f537472696e67733a20686578206c656e67746820696e73756666696369656e746044820152fd5b9091600f81166010811015611c90576f181899199a1a9b1b9c1cb0b131b232b360811b901a611c668486611b85565b5360041c918015611c7b576000190190611be3565b60246000634e487b7160e01b81526011600452fd5b60246000634e487b7160e01b81526032600452fd5b81601f82011215610149578051611cbb81611697565b92611cc96040519485611675565b8184526020828401011161014957611ce791602080850191016116fa565b90565b5190811515820361014957565b60ff60015416611d0357565b60405162461bcd60e51b815260206004820152601060248201526f14185d5cd8589b194e881c185d5cd95960821b6044820152606490fd5b15611d4257565b60405162461bcd60e51b8152602060048201526016602482015275131a58d95b9cd948191bd95cc81b9bdd08195e1a5cdd60521b6044820152606490fdfea2646970667358221220b0a6bd4b960dfaf50dfa14380de98bf783137c403f9ce6144c92e88062227b1864736f6c634300081300332f8788117e7eff1d82e926ec794901d17c78024a50270940304540a733656f0d",
  "linkReferences": {},
  "deployedLinkReferences": {}
}