{
  "_format": "hh-sol-artifact-1",
  "contractName": "LicenseManager",
  "sourceName": "contracts/LicenseManager.sol",
  "abi": [
    {
      "inputs": [
        {
          "internalType": "address",
          "name": "_token",
          "type": "address"
        },
        {
          "internalType": "address",
          "name": "_registry",
          "type": "address"
        },
        {
          "internalType": "uint256",
          "name": "_platformFee",
          "type": "uint256"
        }
      ],
      "stateMutability": "nonpayable",
      "type": "constructor"
    },
    {
      "anonymous": false,
      "inputs": [
        {
          "indexed": true,
          "internalType": "bytes32",
          "name": "licenseId",
          "type": "bytes32"
        },
        {
          "indexed": true,
          "internalType": "address",
          "name": "licensee",
          "type": "address"
        },
        {
          "indexed": false,
          "internalType": "string",
          "name": "datasetCid",
          "type": "string"
        },
        {
          "indexed": false,
          "internalType": "string",
          "name": "name",
          "type": "string"
        },
        {
          "indexed": false,
          "internalType": "string",
          "name": "description",
          "type": "string"
        },
        {
          "indexed": false,
          "internalType": "uint256",
          "name": "expirationTimestamp",
          "type": "uint256"
        }
      ],
      "name": "LicenseGranted",
      "type": "event"
    },
    {
      "anonymous": false,
      "inputs": [
        {
          "indexed": true,
          "internalType": "bytes32",
          "name": "licenseId",
          "type": "bytes32"
        },
        {
          "indexed": false,
          "internalType": "uint256",
          "name": "newExpirationTimestamp",
          "type": "uint256"
        }
      ],
      "name": "LicenseRenewed",
      "type": "event"
    },
    {
      "anonymous": false,
      "inputs": [
        {
          "indexed": true,
          "internalType": "bytes32",
          "name": "licenseId",
          "type": "bytes32"
        }
      ],
      "name": "LicenseRevoked",
      "type": "event"
    },
    {
      "anonymous": false,
      "inputs": [
        {
          "indexed": false,
          "internalType": "address",
          "name": "account",
          "type": "address"
        }
      ],
      "name": "Paused",
      "type": "event"
    },
    {
      "anonymous": false,
      "inputs": [
        {
          "indexed": false,
          "internalType": "uint256",
          "name": "newFee",
          "type": "uint256"
        }
      ],
      "name": "PlatformFeeUpdated",
      "type": "event"
    },
    {
      "anonymous": false,
      "inputs": [
        {
          "indexed": true,
          "internalType": "bytes32",
          "name": "role",
          "type": "bytes32"
        },
        {
          "indexed": true,
          "internalType": "bytes32",
          "name": "previousAdminRole",
          "type": "bytes32"
        },
        {
          "indexed": true,
          "internalType": "bytes32",
          "name": "newAdminRole",
          "type": "bytes32"
        }
      ],
      "name": "RoleAdminChanged",
      "type": "event"
    },
    {
      "anonymous": false,
      "inputs": [
        {
          "indexed": true,
          "internalType": "bytes32",
          "name": "role",
          "type": "bytes32"
        },
        {
          "indexed": true,
          "internalType": "address",
          "name": "account",
          "type": "address"
        },
        {
          "indexed": true,
          "internalType": "address",
          "name": "sender",
          "type": "address"
        }
      ],
      "name": "RoleGranted",
      "type": "event"
    },
    {
      "anonymous": false,
      "inputs": [
        {
          "indexed": true,
          "internalType": "bytes32",
          "name": "role",
          "type": "bytes32"
        },
        {
          "indexed": true,
          "internalType": "address",
          "name": "account",
          "type": "address"
        },
        {
          "indexed": true,
          "internalType": "address",
          "name": "sender",
          "type": "address"
        }
      ],
      "name": "RoleRevoked",
      "type": "event"
    },
    {
      "anonymous": false,
      "inputs": [
        {
          "indexed": true,
          "internalType": "address",
          "name": "user",
          "type": "address"
        },
        {
          "indexed": false,
          "internalType": "uint256",
          "name": "amount",
          "type": "uint256"
        }
      ],
      "name": "TokenApprovalChecked",
      "type": "event"
    },
    {
      "anonymous": false,
      "inputs": [
        {
          "indexed": true,
          "internalType": "address",
          "name": "buyer",
          "type": "address"
        },
        {
          "indexed": false,
          "internalType": "uint256",
          "name": "hbarAmount",
          "type": "uint256"
        },
        {
          "indexed": false,
          "internalType": "uint256",
          "name": "tokenAmount",
          "type": "uint256"
        }
      ],
      "name": "TokensPurchased",
      "type": "event"
    },
    {
      "anonymous": false,
      "inputs": [
        {
          "indexed": false,
          "internalType": "address",
          "name": "account",
          "type": "address"
        }
      ],
      "name": "Unpaused",
      "type": "event"
    },
    {
      "inputs": [],
      "name": "ADMIN_ROLE",
      "outputs": [
        {
          "internalType": "bytes32",
          "name": "",
          "type": "bytes32"
        }
      ],
      "stateMutability": "view",
      "type": "function"
    },
    {
      "inputs": [],
      "name": "COMPLIANCE_ROLE",
      "outputs": [
        {
          "internalType": "bytes32",
          "name": "",
          "type": "bytes32"
        }
      ],
      "stateMutability": "view",
      "type": "function"
    },
    {
      "inputs": [],
      "name": "DEFAULT_ADMIN_ROLE",
      "outputs": [
        {
          "internalType": "bytes32",
          "name": "",
          "type": "bytes32"
        }
      ],
      "stateMutability": "view",
      "type": "function"
    },
    {
      "inputs": [],
      "name": "EXCHANGE_RATE",
      "outputs": [
        {
          "internalType": "uint256",
          "name": "",
          "type": "uint256"
        }
      ],
      "stateMutability": "view",
      "type": "function"
    },
    {
      "inputs": [],
      "name": "GAS_LIMIT",
      "outputs": [
        {
          "internalType": "uint256",
          "name": "",
          "type": "uint256"
        }
      ],
      "stateMutability": "view",
      "type": "function"
    },
    {
      "inputs": [],
      "name": "HBAR_DECIMALS",
      "outputs": [
        {
          "internalType": "uint256",
          "name": "",
          "type": "uint256"
        }
      ],
      "stateMutability": "view",
      "type": "function"
    },
    {
      "inputs": [],
      "name": "TOKEN_DECIMALS",
      "outputs": [
        {
          "internalType": "uint256",
          "name": "",
          "type": "uint256"
        }
      ],
      "stateMutability": "view",
      "type": "function"
    },
    {
      "inputs": [
        {
          "internalType": "uint256",
          "name": "tokenAmount",
          "type": "uint256"
        }
      ],
      "name": "buyTokens",
      "outputs": [],
      "stateMutability": "payable",
      "type": "function"
    },
    {
      "inputs": [
        {
          "internalType": "uint256",
          "name": "amount",
          "type": "uint256"
        }
      ],
      "name": "checkAndApproveTokenAllowance",
      "outputs": [],
      "stateMutability": "nonpayable",
      "type": "function"
    },
    {
      "inputs": [
        {
          "internalType": "bytes32",
          "name": "role",
          "type": "bytes32"
        }
      ],
      "name": "getRoleAdmin",
      "outputs": [
        {
          "internalType": "bytes32",
          "name": "",
          "type": "bytes32"
        }
      ],
      "stateMutability": "view",
      "type": "function"
    },
    {
      "inputs": [
        {
          "internalType": "address",
          "name": "user",
          "type": "address"
        }
      ],
      "name": "getUserLicenses",
      "outputs": [
        {
          "internalType": "bytes32[]",
          "name": "",
          "type": "bytes32[]"
        }
      ],
      "stateMutability": "view",
      "type": "function"
    },
    {
      "inputs": [
        {
          "internalType": "bytes32",
          "name": "role",
          "type": "bytes32"
        },
        {
          "internalType": "address",
          "name": "account",
          "type": "address"
        }
      ],
      "name": "grantRole",
      "outputs": [],
      "stateMutability": "nonpayable",
      "type": "function"
    },
    {
      "inputs": [
        {
          "internalType": "bytes32",
          "name": "role",
          "type": "bytes32"
        },
        {
          "internalType": "address",
          "name": "account",
          "type": "address"
        }
      ],
      "name": "hasRole",
      "outputs": [
        {
          "internalType": "bool",
          "name": "",
          "type": "bool"
        }
      ],
      "stateMutability": "view",
      "type": "function"
    },
    {
      "inputs": [
        {
          "internalType": "bytes32",
          "name": "licenseId",
          "type": "bytes32"
        }
      ],
      "name": "isValidLicense",
      "outputs": [
        {
          "internalType": "bool",
          "name": "",
          "type": "bool"
        }
      ],
      "stateMutability": "view",
      "type": "function"
    },
    {
      "inputs": [
        {
          "internalType": "bytes32",
          "name": "",
          "type": "bytes32"
        }
      ],
      "name": "licenses",
      "outputs": [
        {
          "internalType": "address",
          "name": "licensee",
          "type": "address"
        },
        {
          "internalType": "string",
          "name": "datasetCid",
          "type": "string"
        },
        {
          "internalType": "uint256",
          "name": "purchaseTimestamp",
          "type": "uint256"
        },
        {
          "internalType": "uint256",
          "name": "expirationTimestamp",
          "type": "uint256"
        },
        {
          "internalType": "bool",
          "name": "isActive",
          "type": "bool"
        }
      ],
      "stateMutability": "view",
      "type": "function"
    },
    {
      "inputs": [],
      "name": "pause",
      "outputs": [],
      "stateMutability": "nonpayable",
      "type": "function"
    },
    {
      "inputs": [],
      "name": "paused",
      "outputs": [
        {
          "internalType": "bool",
          "name": "",
          "type": "bool"
        }
      ],
      "stateMutability": "view",
      "type": "function"
    },
    {
      "inputs": [],
      "name": "platformFee",
      "outputs": [
        {
          "internalType": "uint256",
          "name": "",
          "type": "uint256"
        }
      ],
      "stateMutability": "view",
      "type": "function"
    },
    {
      "inputs": [
        {
          "internalType": "string",
          "name": "datasetCid",
          "type": "string"
        }
      ],
      "name": "purchaseLicense",
      "outputs": [],
      "stateMutability": "payable",
      "type": "function"
    },
    {
      "inputs": [],
      "name": "registry",
      "outputs": [
        {
          "internalType": "contract DatasetRegistry",
          "name": "",
          "type": "address"
        }
      ],
      "stateMutability": "view",
      "type": "function"
    },
    {
      "inputs": [
        {
          "internalType": "bytes32",
          "name": "role",
          "type": "bytes32"
        },
        {
          "internalType": "address",
          "name": "account",
          "type": "address"
        }
      ],
      "name": "renounceRole",
      "outputs": [],
      "stateMutability": "nonpayable",
      "type": "function"
    },
    {
      "inputs": [
        {
          "internalType": "string",
          "name": "datasetCid",
          "type": "string"
        },
        {
          "internalType": "address",
          "name": "licensee",
          "type": "address"
        }
      ],
      "name": "revokeLicense",
      "outputs": [],
      "stateMutability": "nonpayable",
      "type": "function"
    },
    {
      "inputs": [
        {
          "internalType": "bytes32",
          "name": "role",
          "type": "bytes32"
        },
        {
          "internalType": "address",
          "name": "account",
          "type": "address"
        }
      ],
      "name": "revokeRole",
      "outputs": [],
      "stateMutability": "nonpayable",
      "type": "function"
    },
    {
      "inputs": [
        {
          "internalType": "uint256",
          "name": "_platformFee",
          "type": "uint256"
        }
      ],
      "name": "setPlatformFee",
      "outputs": [],
      "stateMutability": "nonpayable",
      "type": "function"
    },
    {
      "inputs": [
        {
          "internalType": "bytes4",
          "name": "interfaceId",
          "type": "bytes4"
        }
      ],
      "name": "supportsInterface",
      "outputs": [
        {
          "internalType": "bool",
          "name": "",
          "type": "bool"
        }
      ],
      "stateMutability": "view",
      "type": "function"
    },
    {
      "inputs": [],
      "name": "token",
      "outputs": [
        {
          "internalType": "contract DatasetToken",
          "name": "",
          "type": "address"
        }
      ],
      "stateMutability": "view",
      "type": "function"
    },
    {
      "inputs": [],
      "name": "unpause",
      "outputs": [],
      "stateMutability": "nonpayable",
      "type": "function"
    },
    {
      "inputs": [
        {
          "internalType": "address",
          "name": "",
          "type": "address"
        },
        {
          "internalType": "string",
          "name": "",
          "type": "string"
        }
      ],
      "name": "userDatasetLicenses",
      "outputs": [
        {
          "internalType": "bytes32",
          "name": "",
          "type": "bytes32"
        }
      ],
      "stateMutability": "view",
      "type": "function"
    },
    {
      "inputs": [
        {
          "internalType": "address",
          "name": "",
          "type": "address"
        },
        {
          "internalType": "uint256",
          "name": "",
          "type": "uint256"
        }
      ],
      "name": "userLicenses",
      "outputs": [
        {
          "internalType": "bytes32",
          "name": "",
          "type": "bytes32"
        }
      ],
      "stateMutability": "view",
      "type": "function"
    }
  ],
  "bytecode": "0x608034620002e957601f620023c138819003918201601f191683019291906001600160401b03841183851017620002ee578160609284926040968752833981010312620002e957620000518162000304565b90602091836200006384840162000304565b92015160015490926001600160a01b039083821615620002a5571691821562000261576103e884116200021d576001600160a81b031990911660089190911b610100600160a81b031617600155600280546001600160a01b031916919091179055600355600080805280825282812033825282528281205460ff1615620001e5575b7fa49807205ce4d355092ef5a8a18f56e8913cf4a201fbe287825b095693c21775808252818352838220338352835260ff848320541615620001ab575b507f442a94f1a1fac79af32856af2a64f63648cfa2ef3b98610a5bb7cbec4cee698591828252818152838220338352815260ff84832054161562000170575b835161208790816200031a8239f35b8282528181528382209033835252828120600160ff198254161790553391600080516020620023a1833981519152339280a438808062000161565b8082528183528382203383528352838220600160ff1982541617905533903390600080516020620023a18339815191528480a43862000122565b8080528082528281203382528252828120600160ff19825416179055333382600080516020620023a18339815191528180a4620000e5565b855162461bcd60e51b815260048101869052601560248201527f4665652063616e6e6f74206578636565642031302500000000000000000000006044820152606490fd5b855162461bcd60e51b815260048101869052601860248201527f496e76616c6964207265676973747279206164647265737300000000000000006044820152606490fd5b865162461bcd60e51b815260048101879052601560248201527f496e76616c696420746f6b656e206164647265737300000000000000000000006044820152606490fd5b600080fd5b634e487b7160e01b600052604160045260246000fd5b51906001600160a01b0382168203620002e95756fe608080604052600436101561001357600080fd5b600090813560e01c90816301ffc9a71461182c57508063062d3bd7146117f1578063091d2788146117d357806312e8e2c3146115eb57806314a8bd0d146115ce578063248a9ca3146115a257806326232a2e146115845780632f2ff15d146114d65780632f61efe9146114ba57806331745c5d1461143e5780633610724e146112af57806336568abe1461121c5780633f4ba83a14611187578063454c1d31146111315780635b7f415c146111155780635c975abb146110f257806374e078dc14610dd657806375a106c314610d2857806375b238fc14610ced5780637b10399914610cc45780638456cb5914610c6a57806391d1485414610c1f578063a217fddf14610c03578063ba810a4a14610b5e578063c5703e5e1461042c578063cde74e51146103af578063d547741f1461036f578063dd40222d1461018f5763fc0c546a1461016057600080fd5b3461018c578060031936011261018c5760015460405160089190911c6001600160a01b03168152602090f35b80fd5b503461018c5760208060031936011261036b5760043590811561032757600154604051636eb1769f60e11b815233600482015230602482015260089190911c6001600160a01b0316908281604481855afa801561031c57849186916102e7575b5010610225575b507fd77f6026a9a673fa73b17897e7995a1103bb5a14b6e6ff141f5a3d4eb835457c906040519283523392a280f35b60405163095ea7b360e01b8152306004820152602481018490529082908290604490829088905af19081156102dc5784916102a3575b501561026757386101f6565b6064906040519062461bcd60e51b825260048201526015602482015274151bdad95b88185c1c1c9bdd985b0819985a5b1959605a1b6044820152fd5b90508181813d83116102d5575b6102ba8183611900565b810103126102d1576102cb90611ef4565b3861025b565b8380fd5b503d6102b0565b6040513d86823e3d90fd5b809250848092503d8311610315575b6103008183611900565b8101031261031157839051386101ef565b8480fd5b503d6102f6565b6040513d87823e3d90fd5b6064906040519062461bcd60e51b82526004820152601d60248201527f416d6f756e74206d7573742062652067726561746572207468616e20300000006044820152fd5b5080fd5b503461018c57604036600319011261018c576103ac60043561038f611881565b90808452836020526103a76001604086200154611c56565b611d60565b80f35b503461018c57602036600319011261018c576004803582526020526040902080546001600160a01b03166103e5600183016119fa565b9160028101549060ff600460038301549201541690610416604051958695865260a0602087015260a0860190611aa0565b9260408501526060840152151560808301520390f35b50602036600319011261018c5767ffffffffffffffff600435818111610b5a5761045a90369060040161193e565b90610463611fc8565b6002546040516307eec9a760e21b8152602060048201526001600160a01b039291602490869083908616818061049b8682018b611aa0565b03915afa928315610b4f57868793889589918a908b92610a9a575b50610a4957610a105780156109bf5733895260066020526040892060206040518092826104e98d84815193849201611985565b8201908152030190205480159081156109a4575b501561096757600354808202908282040361095257876127108b9204936105248585611f46565b9361053181341015611f53565b8034116108f3575b50829383928392165af161054b611f98565b50156108af57808891610859575b505060405160208101903360601b82526105996054828a51610583818d6020603486019101611985565b8101426034820152036034810184520182611900565b519020946301e133804201421161084657604051916105b7836118b2565b338352602083018881524260408501526301e133804201606085015260016080850152878a52600460205260408a20928451166bffffffffffffffffffffffff60a01b8454161783555180519182116108335761061760018401546119c0565b601f81116107ee575b50602090601f831160011461077f579180608094926004948d92610774575b50508160011b916000199060031b1c19161760018201555b604084015160028201556060840151600382015501910151151560ff8019835416911617905533865260056020526040862080549168010000000000000000831015610762575061074c926106d78361073e9360017f0f7a6a93cc87f3c3ddcee49509d83978b1d5c57288095fd0b07e6ab7ae6a8c9298960181556119a8565b81549060031b9088821b91600019901b19161790553388526006602052856040892060206040518092826107118d84815193849201611985565b8201908152030190205561073060405197608089526080890190611aa0565b908782036020890152611aa0565b908582036040870152611aa0565b926301e13380420160608201528033940390a380f35b634e487b7160e01b8852604160045287fd5b01519050388061063f565b600184018b5260208b209190601f1984168c5b8181106107d6575092600192859260049660809896106107bd575b505050811b016001820155610657565b015160001960f88460031b161c191690553880806107ad565b92936020600181928786015181550195019301610792565b600184018b5260208b20601f840160051c81016020851061082c575b601f830160051c82018110610820575050610620565b6000815560010161080a565b508061080a565b634e487b7160e01b8a526041600452848afd5b634e487b7160e01b885260116004528288fd5b81808092305af1610868611f98565b5015610875578638610559565b60405162461bcd60e51b81526020600482015260138184015272119959481d1c985b9cd9995c8819985a5b1959606a1b6044820152606490fd5b60405162461bcd60e51b8152602060048201526017818501527f5061796d656e7420746f206f776e6572206661696c65640000000000000000006044820152606490fd5b838093506109048193959234611f46565b335af161090f611f98565b501561091e57878a9138610539565b60405162461bcd60e51b815260206004820152600d818701526c1499599d5b990819985a5b1959609a1b6044820152606490fd5b84634e487b7160e01b60005260116004526000fd5b60405162461bcd60e51b815260206004820152601681860152754c6963656e736520616c72656164792061637469766560501b6044820152606490fd5b90508952600460205260ff600460408b2001541615386104fd565b60405162461bcd60e51b8152602060048201528085018590527f44617461736574207072696365206d75737420626520677265617465722074686044820152630616e20360e41b6064820152608490fd5b60405162461bcd60e51b8152602060048201526012818601527111185d185cd95d081a5cc81c995b5bdd995960721b6044820152606490fd5b60405162461bcd60e51b8152602060048201528086018690527f44617461736574206973207075626c69632c206e6f206c6963656e7365206e656044820152631959195960e21b6064820152608490fd5b96505050505092503d8087843e610ab18184611900565b82019261010083850312610b4b578251938585168503610b47576020840151828111610b435781610ae3918601611f01565b506040840151828111610b435781610afc918601611f01565b90606085015190838211610b3f57610b15918601611f01565b93608081015195610b3460c0610b2d60a08501611ef4565b9301611ef4565b9092959691386104b6565b8980fd5b8880fd5b8780fd5b8680fd5b6040513d88823e3d90fd5b8280fd5b503461018c57602036600319011261018c5760806020916040600435918281526004855260018060a01b0392610b9a848484205416151561200c565b815260048552209060405190610baf826118b2565b8254168152610bc0600183016119fa565b848201526002820154604082015260ff60046003840154938460608501520154161515928391015281610bf9575b506040519015158152f35b9050421038610bee565b503461018c578060031936011261018c57602090604051908152f35b503461018c57604036600319011261018c576040610c3b611881565b91600435815280602052209060018060a01b0316600052602052602060ff604060002054166040519015158152f35b503461018c578060031936011261018c57610c83611ac5565b610c8b611fc8565b600160ff19815416176001557f62e78cea01bee320cd4e420270b5ea74000d11b0c9f74754ebdbfc544b05a2586020604051338152a180f35b503461018c578060031936011261018c576002546040516001600160a01b039091168152602090f35b503461018c578060031936011261018c5760206040517fa49807205ce4d355092ef5a8a18f56e8913cf4a201fbe287825b095693c217758152f35b503461018c5760208060031936011261036b576001600160a01b03610d4b61189c565b168252600581526040822060405192838383549182815201908193835284832090835b818110610dc25750505084610d84910385611900565b60405193838594850191818652518092526040850193925b828110610dab57505050500390f35b835185528695509381019392810192600101610d9c565b825484529286019260019283019201610d6e565b503461018c57604036600319011261018c5760043567ffffffffffffffff811161036b57610e0890369060040161193e565b610e10611881565b3360009081527f335573aa7cafba10a32e2694464d1e7e5294d917876d04d506249fbf84d791af6020908152604090912054909291907f442a94f1a1fac79af32856af2a64f63648cfa2ef3b98610a5bb7cbec4cee69859060ff1615610f4c5750610ea6918391610e7f611fc8565b6001600160a01b031685526006825260408086209051825190948593829085908701611985565b8201908152030190205490610ebc82151561200c565b8183526004815260ff60046040852001541615610f1057600490828452526004604083200160ff1981541690557f0cddff7d26fb450c5bd6fa66ef9bd79abd5f2424333c0381532898b0ef59638c8280a280f35b6064906040519062461bcd60e51b8252600482015260156024820152744c6963656e7365206973206e6f742061637469766560581b6044820152fd5b83610f5633611de5565b91604051610f63816118e4565b604281528281019160603684378151156110dc576030835381516001908110156110dc57607860218401536041905b80821161108257505061103f5761100b9361101a9260489260405196879376020b1b1b2b9b9a1b7b73a3937b61d1030b1b1b7bab73a1604d1b88860152610fe2815180928a603789019101611985565b8401917001034b99036b4b9b9b4b733903937b6329607d1b603784015251809386840190611985565b01036028810185520183611900565b61103b60405192839262461bcd60e51b845260048401526024830190611aa0565b0390fd5b6064836040519062461bcd60e51b825280600483015260248201527f537472696e67733a20686578206c656e67746820696e73756666696369656e746044820152fd5b9091600f811660108110156110dc576f181899199a1a9b1b9c1cb0b131b232b360811b901a6110b18486611dd4565b5360041c9180156110c6576000190190610f92565b634e487b7160e01b600052601160045260246000fd5b634e487b7160e01b600052603260045260246000fd5b503461018c578060031936011261018c57602060ff600154166040519015158152f35b503461018c578060031936011261018c57602060405160088152f35b503461018c57604036600319011261018c5761114b61189c565b6001600160a01b031681526005602052604081208054602435929083101561018c57602061117984846119a8565b90546040519160031b1c8152f35b503461018c578060031936011261018c576111a0611ac5565b60015460ff8116156111e05760ff19166001557f5db9ee0a495bf2e6ff9c91a7834c1ba4fdd244a5e8aa4e537bd38aeae4b073aa6020604051338152a180f35b60405162461bcd60e51b815260206004820152601460248201527314185d5cd8589b194e881b9bdd081c185d5cd95960621b6044820152606490fd5b503461018c57604036600319011261018c57611236611881565b336001600160a01b03821603611252576103ac90600435611d60565b60405162461bcd60e51b815260206004820152602f60248201527f416363657373436f6e74726f6c3a2063616e206f6e6c792072656e6f756e636560448201526e103937b632b9903337b91039b2b63360891b6064820152608490fd5b50602036600319011261018c576004356112c7611fc8565b80156113ed576103e88104906112df82341015611f53565b60015460081c6001600160a01b0316803b156102d1576040516340c10f1960e01b8152336004820152602481018390529084908290604490829084905af180156102dc576113bd575b50813411611365575b60405191825260208201527f8fafebcaf9d154343dad25669bfa277f4fbacd7ac6b0c4fed522580e040a0f3360403392a280f35b828080806113738634611f46565b335af161137e611f98565b506113315760405162461bcd60e51b815260206004820152601260248201527112109054881c99599d5b990819985a5b195960721b6044820152606490fd5b67ffffffffffffffff81949294116113d9576040529138611328565b634e487b7160e01b82526041600452602482fd5b60405162461bcd60e51b815260206004820152602360248201527f546f6b656e20616d6f756e74206d75737420626520677265617465722074686160448201526206e20360ec1b6064820152608490fd5b503461018c57604036600319011261018c5761145861189c565b60243567ffffffffffffffff8111610b5a576114a89160406020946114828694369060040161193e565b6001600160a01b0390931681526006845220604051825190948593829085908701611985565b82019081520301902054604051908152f35b503461018c578060031936011261018c57602060405160128152f35b503461018c57604036600319011261018c576004356114f3611881565b8183528260205261150a6001604085200154611c56565b818352602083815260408085206001600160a01b039093168086529290915283205460ff1615611538578280f35b818352826020526040832081845260205260408320600160ff1982541617905533917f2f8788117e7eff1d82e926ec794901d17c78024a50270940304540a733656f0d8480a438808280f35b503461018c578060031936011261018c576020600354604051908152f35b503461018c57602036600319011261018c57600160406020926004358152808452200154604051908152f35b503461018c578060031936011261018c5760206040516103e88152f35b503461018c5760208060031936011261036b576004357fa49807205ce4d355092ef5a8a18f56e8913cf4a201fbe287825b095693c2177580845283835260408420338552835260ff604085205416156116b657506103e881116116795790817f45610d581145924dd7090a5017e5f2b1d6f42213bb2e95707ff86846bbfcb1ca92600355604051908152a180f35b60405162461bcd60e51b81526004810183905260156024820152744665652063616e6e6f74206578636565642031302560581b6044820152606490fd5b82846116c133611de5565b92604051906116cf826118e4565b604282528382019260603685378251156117bf57603084538251906001918210156117bf5790607860218501536041915b8183116117515750505061103f5761100b9361101a9260489260405196879376020b1b1b2b9b9a1b7b73a3937b61d1030b1b1b7bab73a1604d1b88860152610fe2815180928a603789019101611985565b909192600f811660108110156117ab576f181899199a1a9b1b9c1cb0b131b232b360811b901a6117818587611dd4565b5360041c92801561179757600019019190611700565b634e487b7160e01b82526011600452602482fd5b634e487b7160e01b83526032600452602483fd5b634e487b7160e01b81526032600452602490fd5b503461018c578060031936011261018c5760206040516207a1208152f35b503461018c578060031936011261018c5760206040517f442a94f1a1fac79af32856af2a64f63648cfa2ef3b98610a5bb7cbec4cee69858152f35b90503461036b57602036600319011261036b5760043563ffffffff60e01b8116809103610b5a5760209250637965db0b60e01b8114908115611870575b5015158152f35b6301ffc9a760e01b14905038611869565b602435906001600160a01b038216820361189757565b600080fd5b600435906001600160a01b038216820361189757565b60a0810190811067ffffffffffffffff8211176118ce57604052565b634e487b7160e01b600052604160045260246000fd5b6080810190811067ffffffffffffffff8211176118ce57604052565b90601f8019910116810190811067ffffffffffffffff8211176118ce57604052565b67ffffffffffffffff81116118ce57601f01601f191660200190565b81601f820112156118975780359061195582611922565b926119636040519485611900565b8284526020838301011161189757816000926020809301838601378301015290565b60005b8381106119985750506000910152565b8181015183820152602001611988565b80548210156110dc5760005260206000200190600090565b90600182811c921680156119f0575b60208310146119da57565b634e487b7160e01b600052602260045260246000fd5b91607f16916119cf565b9060405191826000825492611a0e846119c0565b908184526001948581169081600014611a7d5750600114611a3a575b5050611a3892500383611900565b565b9093915060005260209081600020936000915b818310611a65575050611a3893508201013880611a2a565b85548884018501529485019487945091830191611a4d565b915050611a3894506020925060ff191682840152151560051b8201013880611a2a565b90602091611ab981518092818552858086019101611985565b601f01601f1916010190565b3360009081527fad3228b676f7d3cd4284a5443f17f1962b36e491b30a40b2405849e597ba5fb5602090815260408083205490929060ff1615611b0757505050565b611b1033611de5565b9080845190611b1e826118e4565b604282528482019260603685378251156117bf57603084538251906001918210156117bf5790607860218501536041915b818311611c1057505050611bce57604861103b938693611bb293611ba3985198899376020b1b1b2b9b9a1b7b73a3937b61d1030b1b1b7bab73a1604d1b8a860152610fe2815180928c603789019101611985565b01036028810187520185611900565b5192839262461bcd60e51b845260048401526024830190611aa0565b60648486519062461bcd60e51b825280600483015260248201527f537472696e67733a20686578206c656e67746820696e73756666696369656e746044820152fd5b909192600f811660108110156117ab576f181899199a1a9b1b9c1cb0b131b232b360811b901a611c408587611dd4565b5360041c92801561179757600019019190611b4f565b600090808252602090828252604092838120338252835260ff848220541615611c7f5750505050565b611c8833611de5565b91845190611c95826118e4565b604282528482019260603685378251156117bf57603084538251906001918210156117bf5790607860218501536041915b818311611d1a57505050611bce57604861103b938693611bb293611ba3985198899376020b1b1b2b9b9a1b7b73a3937b61d1030b1b1b7bab73a1604d1b8a860152610fe2815180928c603789019101611985565b909192600f811660108110156117ab576f181899199a1a9b1b9c1cb0b131b232b360811b901a611d4a8587611dd4565b5360041c92801561179757600019019190611cc6565b9060009180835282602052604083209160018060a01b03169182845260205260ff604084205416611d9057505050565b80835282602052604083208284526020526040832060ff1981541690557ff6391f5c32d9c69d2a47ea670b442974b53935d1edc7fd64eb21e047a839171b339380a4565b9081518110156110dc570160200190565b604051906060820182811067ffffffffffffffff8211176118ce57604052602a82526020820160403682378251156110dc576030905381516001908110156110dc57607860218401536029905b808211611e86575050611e425790565b606460405162461bcd60e51b815260206004820152602060248201527f537472696e67733a20686578206c656e67746820696e73756666696369656e746044820152fd5b9091600f81166010811015611edf576f181899199a1a9b1b9c1cb0b131b232b360811b901a611eb58486611dd4565b5360041c918015611eca576000190190611e32565b60246000634e487b7160e01b81526011600452fd5b60246000634e487b7160e01b81526032600452fd5b5190811515820361189757565b81601f82011215611897578051611f1781611922565b92611f256040519485611900565b8184526020828401011161189757611f439160208085019101611985565b90565b919082039182116110c657565b15611f5a57565b60405162461bcd60e51b8152602060048201526016602482015275125b9cdd59999a58da595b9d0812109054881cd95b9d60521b6044820152606490fd5b3d15611fc3573d90611fa982611922565b91611fb76040519384611900565b82523d6000602084013e565b606090565b60ff60015416611fd457565b60405162461bcd60e51b815260206004820152601060248201526f14185d5cd8589b194e881c185d5cd95960821b6044820152606490fd5b1561201357565b60405162461bcd60e51b8152602060048201526016602482015275131a58d95b9cd948191bd95cc81b9bdd08195e1a5cdd60521b6044820152606490fdfea264697066735822122036354a00edfd74cbf7f3f0a2bd64d1644adb91c09631d05722359c9707179b5364736f6c634300081300332f8788117e7eff1d82e926ec794901d17c78024a50270940304540a733656f0d",
  "linkReferences": {},
  "deployedLinkReferences": {}
}