{
  "_format": "hh-sol-artifact-1",
  "contractName": "LicenseManager",
  "sourceName": "contracts/LicenseManager.sol",
  "abi": [
    {
      "inputs": [
        {
          "internalType": "address",
          "name": "_token",
          "type": "address"
        },
        {
          "internalType": "address",
          "name": "_registry",
          "type": "address"
        },
        {
          "internalType": "uint256",
          "name": "_platformFee",
          "type": "uint256"
        }
      ],
      "stateMutability": "nonpayable",
      "type": "constructor"
    },
    {
      "anonymous": false,
      "inputs": [
        {
          "indexed": true,
          "internalType": "bytes32",
          "name": "licenseId",
          "type": "bytes32"
        },
        {
          "indexed": true,
          "internalType": "address",
          "name": "licensee",
          "type": "address"
        },
        {
          "indexed": false,
          "internalType": "string",
          "name": "datasetCid",
          "type": "string"
        },
        {
          "indexed": false,
          "internalType": "string",
          "name": "name",
          "type": "string"
        },
        {
          "indexed": false,
          "internalType": "string",
          "name": "description",
          "type": "string"
        },
        {
          "indexed": false,
          "internalType": "uint256",
          "name": "expirationTimestamp",
          "type": "uint256"
        }
      ],
      "name": "LicenseGranted",
      "type": "event"
    },
    {
      "anonymous": false,
      "inputs": [
        {
          "indexed": true,
          "internalType": "bytes32",
          "name": "licenseId",
          "type": "bytes32"
        },
        {
          "indexed": false,
          "internalType": "uint256",
          "name": "newExpirationTimestamp",
          "type": "uint256"
        }
      ],
      "name": "LicenseRenewed",
      "type": "event"
    },
    {
      "anonymous": false,
      "inputs": [
        {
          "indexed": true,
          "internalType": "bytes32",
          "name": "licenseId",
          "type": "bytes32"
        }
      ],
      "name": "LicenseRevoked",
      "type": "event"
    },
    {
      "anonymous": false,
      "inputs": [
        {
          "indexed": false,
          "internalType": "address",
          "name": "account",
          "type": "address"
        }
      ],
      "name": "Paused",
      "type": "event"
    },
    {
      "anonymous": false,
      "inputs": [
        {
          "indexed": false,
          "internalType": "uint256",
          "name": "newFee",
          "type": "uint256"
        }
      ],
      "name": "PlatformFeeUpdated",
      "type": "event"
    },
    {
      "anonymous": false,
      "inputs": [
        {
          "indexed": true,
          "internalType": "bytes32",
          "name": "role",
          "type": "bytes32"
        },
        {
          "indexed": true,
          "internalType": "bytes32",
          "name": "previousAdminRole",
          "type": "bytes32"
        },
        {
          "indexed": true,
          "internalType": "bytes32",
          "name": "newAdminRole",
          "type": "bytes32"
        }
      ],
      "name": "RoleAdminChanged",
      "type": "event"
    },
    {
      "anonymous": false,
      "inputs": [
        {
          "indexed": true,
          "internalType": "bytes32",
          "name": "role",
          "type": "bytes32"
        },
        {
          "indexed": true,
          "internalType": "address",
          "name": "account",
          "type": "address"
        },
        {
          "indexed": true,
          "internalType": "address",
          "name": "sender",
          "type": "address"
        }
      ],
      "name": "RoleGranted",
      "type": "event"
    },
    {
      "anonymous": false,
      "inputs": [
        {
          "indexed": true,
          "internalType": "bytes32",
          "name": "role",
          "type": "bytes32"
        },
        {
          "indexed": true,
          "internalType": "address",
          "name": "account",
          "type": "address"
        },
        {
          "indexed": true,
          "internalType": "address",
          "name": "sender",
          "type": "address"
        }
      ],
      "name": "RoleRevoked",
      "type": "event"
    },
    {
      "anonymous": false,
      "inputs": [
        {
          "indexed": true,
          "internalType": "address",
          "name": "user",
          "type": "address"
        },
        {
          "indexed": false,
          "internalType": "uint256",
          "name": "amount",
          "type": "uint256"
        }
      ],
      "name": "TokenApprovalChecked",
      "type": "event"
    },
    {
      "anonymous": false,
      "inputs": [
        {
          "indexed": true,
          "internalType": "address",
          "name": "buyer",
          "type": "address"
        },
        {
          "indexed": false,
          "internalType": "uint256",
          "name": "hbarAmount",
          "type": "uint256"
        },
        {
          "indexed": false,
          "internalType": "uint256",
          "name": "tokenAmount",
          "type": "uint256"
        }
      ],
      "name": "TokensPurchased",
      "type": "event"
    },
    {
      "anonymous": false,
      "inputs": [
        {
          "indexed": false,
          "internalType": "address",
          "name": "account",
          "type": "address"
        }
      ],
      "name": "Unpaused",
      "type": "event"
    },
    {
      "inputs": [],
      "name": "ADMIN_ROLE",
      "outputs": [
        {
          "internalType": "bytes32",
          "name": "",
          "type": "bytes32"
        }
      ],
      "stateMutability": "view",
      "type": "function"
    },
    {
      "inputs": [],
      "name": "COMPLIANCE_ROLE",
      "outputs": [
        {
          "internalType": "bytes32",
          "name": "",
          "type": "bytes32"
        }
      ],
      "stateMutability": "view",
      "type": "function"
    },
    {
      "inputs": [],
      "name": "DEFAULT_ADMIN_ROLE",
      "outputs": [
        {
          "internalType": "bytes32",
          "name": "",
          "type": "bytes32"
        }
      ],
      "stateMutability": "view",
      "type": "function"
    },
    {
      "inputs": [],
      "name": "EXCHANGE_RATE",
      "outputs": [
        {
          "internalType": "uint256",
          "name": "",
          "type": "uint256"
        }
      ],
      "stateMutability": "view",
      "type": "function"
    },
    {
      "inputs": [],
      "name": "GAS_LIMIT",
      "outputs": [
        {
          "internalType": "uint256",
          "name": "",
          "type": "uint256"
        }
      ],
      "stateMutability": "view",
      "type": "function"
    },
    {
      "inputs": [],
      "name": "HBAR_DECIMALS",
      "outputs": [
        {
          "internalType": "uint256",
          "name": "",
          "type": "uint256"
        }
      ],
      "stateMutability": "view",
      "type": "function"
    },
    {
      "inputs": [],
      "name": "TOKEN_DECIMALS",
      "outputs": [
        {
          "internalType": "uint256",
          "name": "",
          "type": "uint256"
        }
      ],
      "stateMutability": "view",
      "type": "function"
    },
    {
      "inputs": [
        {
          "internalType": "uint256",
          "name": "tokenAmount",
          "type": "uint256"
        }
      ],
      "name": "buyTokens",
      "outputs": [],
      "stateMutability": "payable",
      "type": "function"
    },
    {
      "inputs": [
        {
          "internalType": "uint256",
          "name": "amount",
          "type": "uint256"
        }
      ],
      "name": "checkAndApproveTokenAllowance",
      "outputs": [],
      "stateMutability": "nonpayable",
      "type": "function"
    },
    {
      "inputs": [
        {
          "internalType": "bytes32",
          "name": "role",
          "type": "bytes32"
        }
      ],
      "name": "getRoleAdmin",
      "outputs": [
        {
          "internalType": "bytes32",
          "name": "",
          "type": "bytes32"
        }
      ],
      "stateMutability": "view",
      "type": "function"
    },
    {
      "inputs": [
        {
          "internalType": "address",
          "name": "user",
          "type": "address"
        }
      ],
      "name": "getUserLicenses",
      "outputs": [
        {
          "internalType": "bytes32[]",
          "name": "",
          "type": "bytes32[]"
        }
      ],
      "stateMutability": "view",
      "type": "function"
    },
    {
      "inputs": [
        {
          "internalType": "bytes32",
          "name": "role",
          "type": "bytes32"
        },
        {
          "internalType": "address",
          "name": "account",
          "type": "address"
        }
      ],
      "name": "grantRole",
      "outputs": [],
      "stateMutability": "nonpayable",
      "type": "function"
    },
    {
      "inputs": [
        {
          "internalType": "bytes32",
          "name": "role",
          "type": "bytes32"
        },
        {
          "internalType": "address",
          "name": "account",
          "type": "address"
        }
      ],
      "name": "hasRole",
      "outputs": [
        {
          "internalType": "bool",
          "name": "",
          "type": "bool"
        }
      ],
      "stateMutability": "view",
      "type": "function"
    },
    {
      "inputs": [
        {
          "internalType": "bytes32",
          "name": "licenseId",
          "type": "bytes32"
        }
      ],
      "name": "isValidLicense",
      "outputs": [
        {
          "internalType": "bool",
          "name": "",
          "type": "bool"
        }
      ],
      "stateMutability": "view",
      "type": "function"
    },
    {
      "inputs": [
        {
          "internalType": "bytes32",
          "name": "",
          "type": "bytes32"
        }
      ],
      "name": "licenses",
      "outputs": [
        {
          "internalType": "address",
          "name": "licensee",
          "type": "address"
        },
        {
          "internalType": "string",
          "name": "datasetCid",
          "type": "string"
        },
        {
          "internalType": "uint256",
          "name": "purchaseTimestamp",
          "type": "uint256"
        },
        {
          "internalType": "uint256",
          "name": "expirationTimestamp",
          "type": "uint256"
        },
        {
          "internalType": "bool",
          "name": "isActive",
          "type": "bool"
        }
      ],
      "stateMutability": "view",
      "type": "function"
    },
    {
      "inputs": [],
      "name": "pause",
      "outputs": [],
      "stateMutability": "nonpayable",
      "type": "function"
    },
    {
      "inputs": [],
      "name": "paused",
      "outputs": [
        {
          "internalType": "bool",
          "name": "",
          "type": "bool"
        }
      ],
      "stateMutability": "view",
      "type": "function"
    },
    {
      "inputs": [],
      "name": "platformFee",
      "outputs": [
        {
          "internalType": "uint256",
          "name": "",
          "type": "uint256"
        }
      ],
      "stateMutability": "view",
      "type": "function"
    },
    {
      "inputs": [
        {
          "internalType": "string",
          "name": "datasetCid",
          "type": "string"
        }
      ],
      "name": "purchaseLicense",
      "outputs": [],
      "stateMutability": "nonpayable",
      "type": "function"
    },
    {
      "inputs": [],
      "name": "registry",
      "outputs": [
        {
          "internalType": "contract DatasetRegistry",
          "name": "",
          "type": "address"
        }
      ],
      "stateMutability": "view",
      "type": "function"
    },
    {
      "inputs": [
        {
          "internalType": "bytes32",
          "name": "role",
          "type": "bytes32"
        },
        {
          "internalType": "address",
          "name": "account",
          "type": "address"
        }
      ],
      "name": "renounceRole",
      "outputs": [],
      "stateMutability": "nonpayable",
      "type": "function"
    },
    {
      "inputs": [
        {
          "internalType": "string",
          "name": "datasetCid",
          "type": "string"
        },
        {
          "internalType": "address",
          "name": "licensee",
          "type": "address"
        }
      ],
      "name": "revokeLicense",
      "outputs": [],
      "stateMutability": "nonpayable",
      "type": "function"
    },
    {
      "inputs": [
        {
          "internalType": "bytes32",
          "name": "role",
          "type": "bytes32"
        },
        {
          "internalType": "address",
          "name": "account",
          "type": "address"
        }
      ],
      "name": "revokeRole",
      "outputs": [],
      "stateMutability": "nonpayable",
      "type": "function"
    },
    {
      "inputs": [
        {
          "internalType": "uint256",
          "name": "_platformFee",
          "type": "uint256"
        }
      ],
      "name": "setPlatformFee",
      "outputs": [],
      "stateMutability": "nonpayable",
      "type": "function"
    },
    {
      "inputs": [
        {
          "internalType": "bytes4",
          "name": "interfaceId",
          "type": "bytes4"
        }
      ],
      "name": "supportsInterface",
      "outputs": [
        {
          "internalType": "bool",
          "name": "",
          "type": "bool"
        }
      ],
      "stateMutability": "view",
      "type": "function"
    },
    {
      "inputs": [],
      "name": "token",
      "outputs": [
        {
          "internalType": "contract DatasetToken",
          "name": "",
          "type": "address"
        }
      ],
      "stateMutability": "view",
      "type": "function"
    },
    {
      "inputs": [],
      "name": "unpause",
      "outputs": [],
      "stateMutability": "nonpayable",
      "type": "function"
    },
    {
      "inputs": [
        {
          "internalType": "address",
          "name": "",
          "type": "address"
        },
        {
          "internalType": "string",
          "name": "",
          "type": "string"
        }
      ],
      "name": "userDatasetLicenses",
      "outputs": [
        {
          "internalType": "bytes32",
          "name": "",
          "type": "bytes32"
        }
      ],
      "stateMutability": "view",
      "type": "function"
    },
    {
      "inputs": [
        {
          "internalType": "address",
          "name": "",
          "type": "address"
        },
        {
          "internalType": "uint256",
          "name": "",
          "type": "uint256"
        }
      ],
      "name": "userLicenses",
      "outputs": [
        {
          "internalType": "bytes32",
          "name": "",
          "type": "bytes32"
        }
      ],
      "stateMutability": "view",
      "type": "function"
    }
  ],
  "bytecode": "0x608034620002e957601f6200261938819003918201601f191683019291906001600160401b03841183851017620002ee578160609284926040968752833981010312620002e957620000518162000304565b90602091836200006384840162000304565b92015160015490926001600160a01b039083821615620002a5571691821562000261576103e884116200021d576001600160a81b031990911660089190911b610100600160a81b031617600155600280546001600160a01b031916919091179055600355600080805280825282812033825282528281205460ff1615620001e5575b7fa49807205ce4d355092ef5a8a18f56e8913cf4a201fbe287825b095693c21775808252818352838220338352835260ff848320541615620001ab575b507f442a94f1a1fac79af32856af2a64f63648cfa2ef3b98610a5bb7cbec4cee698591828252818152838220338352815260ff84832054161562000170575b83516122df90816200031a8239f35b8282528181528382209033835252828120600160ff198254161790553391600080516020620025f9833981519152339280a438808062000161565b8082528183528382203383528352838220600160ff1982541617905533903390600080516020620025f98339815191528480a43862000122565b8080528082528281203382528252828120600160ff19825416179055333382600080516020620025f98339815191528180a4620000e5565b855162461bcd60e51b815260048101869052601560248201527f4665652063616e6e6f74206578636565642031302500000000000000000000006044820152606490fd5b855162461bcd60e51b815260048101869052601860248201527f496e76616c6964207265676973747279206164647265737300000000000000006044820152606490fd5b865162461bcd60e51b815260048101879052601560248201527f496e76616c696420746f6b656e206164647265737300000000000000000000006044820152606490fd5b600080fd5b634e487b7160e01b600052604160045260246000fd5b51906001600160a01b0382168203620002e95756fe608080604052600436101561001357600080fd5b600090813560e01c90816301ffc9a714611b0357508063062d3bd714611ac8578063091d278814611aaa57806312e8e2c3146118c257806314a8bd0d146118a5578063248a9ca31461187957806326232a2e1461185b5780632f2ff15d146117ad5780632f61efe91461179157806331745c5d146117125780633610724e1461150057806336568abe1461146d5780633f4ba83a146113d8578063454c1d31146113825780635b7f415c146113665780635c975abb1461134357806374e078dc1461103e57806375a106c314610f9057806375b238fc14610f555780637b10399914610f2c5780638456cb5914610ed257806391d1485414610e87578063a217fddf14610e6b578063ba810a4a14610dc6578063c5703e5e1461042d578063cde74e51146103b0578063d547741f14610370578063dd40222d1461018f5763fc0c546a1461016057600080fd5b3461018c578060031936011261018c5760015460405160089190911c6001600160a01b03168152602090f35b80fd5b503461018c5760208060031936011261036c5760043590811561032857600154604051636eb1769f60e11b815233600482015230602482015260089190911c6001600160a01b0316908281604481855afa801561031d57849186916102e7575b5010610225575b507fd77f6026a9a673fa73b17897e7995a1103bb5a14b6e6ff141f5a3d4eb835457c906040519283523392a280f35b60405163095ea7b360e01b8152306004820152602481018490529082908290604490829088905af19081156102dc5784916102a3575b501561026757386101f6565b6064906040519062461bcd60e51b825260048201526015602482015274151bdad95b88185c1c1c9bdd985b0819985a5b1959605a1b6044820152fd5b90508181813d83116102d5575b6102ba8183611bd0565b810103126102d1576102cb906121c1565b3861025b565b8380fd5b503d6102b0565b6040513d86823e3d90fd5b809250848092503d8311610316575b6103008183611bd0565b8101031261031157839051386101ef565b600080fd5b503d6102f6565b6040513d87823e3d90fd5b6064906040519062461bcd60e51b82526004820152601d60248201527f416d6f756e74206d7573742062652067726561746572207468616e20300000006044820152fd5b5080fd5b503461018c57604036600319011261018c576103ad600435610390611b58565b90808452836020526103a86001604086200154611f24565b61202e565b80f35b503461018c57602036600319011261018c576004803582526020526040902080546001600160a01b03166103e660018301611cc8565b9160028101549060ff600460038301549201541690610417604051958695865260a0602087015260a0860190611d6e565b9260408501526060840152151560808301520390f35b503461018c57602036600319011261018c576004356001600160401b03811161036c5761045e903690600401611c0c565b610466612220565b6002546040516307eec9a760e21b81526020600482015290839082906001600160a01b0316818061049a6024820188611d6e565b03915afa8015610dbb57839184928592869287908892610cf7575b50610ca657610c6c578115610c1b573386526006602052604086206020604051809288516104e68184868d01611c53565b820190815203019020548015908115610c00575b5015610bc257600354918281029281840403610bac5761051e612710840482612213565b600154604051636eb1769f60e11b8152336004820152306024820152919260089190911c6001600160a01b031691602081604481865afa8015610ba15782918b91610b6c575b5010610aeb578891606460209260405194859384926323b872dd60e01b845233600485015230602485015260448401525af1908115610ae0578891610aa2575b5015610a655760015460405163a9059cbb60e01b8082526001600160a01b03948516600483015260248201939093529192602091839160449183918c9160081c165af1908115610a5a578791610a1c575b50156109e0576127108204610915575b505060405160208101903360601b8252610644605482875161062e816034840160208c01611c53565b8101426034820152036034810184520182611bd0565b519020916301e13380420142116109015760405161066181611b84565b338152602081018581524260408301526301e1338042016060830152600160808301528487526004602052604087209060018060a01b038351166bffffffffffffffffffffffff60a01b835416178255518051906001600160401b0382116108ed576106d06001840154611c8e565b601f81116108a8575b50602090601f8311600114610839579180608094926004948c9261082e575b50508160011b916000199060031b1c19161760018201555b604084015160028201556060840151600382015501910151151560ff801983541691161790553385526005602052604085208054906801000000000000000082101561081a576108049261078f836107f69360017f0f7a6a93cc87f3c3ddcee49509d83978b1d5c57288095fd0b07e6ab7ae6a8c929896018155611c76565b81549060031b9088821b91600019901b19161790553388526006602052856040892060206040518092826107c98d84815193849201611c53565b820190815203019020556107e860405197608089526080890190611d6e565b908782036020890152611d6e565b908582036040870152611d6e565b926301e13380420160608201528033940390a380f35b634e487b7160e01b87526041600452602487fd5b0151905038806106f8565b600184018a5260208a209190601f1984168b5b81811061089057509260019285926004966080989610610877575b505050811b016001820155610710565b015160001960f88460031b161c19169055388080610867565b9293602060018192878601518155019501930161084c565b600184018a5260208a20601f840160051c8101602085106108e6575b601f830160051c820181106108da5750506106d9565b600081556001016108c4565b50806108c4565b634e487b7160e01b89526041600452602489fd5b634e487b7160e01b85526011600452602485fd5b600154604051918252306004830152612710909204602482015290602090829060081c6001600160a01b03168188816044810103925af190811561031d5785916109a2575b5015610967573880610605565b60405162461bcd60e51b8152602060048201526013602482015272119959481d1c985b9cd9995c8819985a5b1959606a1b6044820152606490fd5b90506020813d6020116109d8575b816109bd60209383611bd0565b810103126109d4576109ce906121c1565b3861095a565b8480fd5b3d91506109b0565b60405162461bcd60e51b815260206004820152601460248201527313dddb995c881c185e5b595b9d0819985a5b195960621b6044820152606490fd5b90506020813d602011610a52575b81610a3760209383611bd0565b81010312610a4e57610a48906121c1565b386105f5565b8680fd5b3d9150610a2a565b6040513d89823e3d90fd5b60405162461bcd60e51b8152602060048201526015602482015274151bdad95b881d1c985b9cd9995c8819985a5b1959605a1b6044820152606490fd5b90506020813d602011610ad8575b81610abd60209383611bd0565b81010312610ad457610ace906121c1565b386105a4565b8780fd5b3d9150610ab0565b6040513d8a823e3d90fd5b60405162461bcd60e51b815260206004820152604d60248201527f496e73756666696369656e7420746f6b656e20616c6c6f77616e63652e20506c60448201527f656173652063616c6c20636865636b416e64417070726f7665546f6b656e416c60648201526c1b1bddd85b98d948199a5c9cdd609a1b608482015260a490fd5b9150506020813d602011610b99575b81610b8860209383611bd0565b810103126103115781905138610564565b3d9150610b7b565b6040513d8c823e3d90fd5b634e487b7160e01b600052601160045260246000fd5b60405162461bcd60e51b81526020600482015260166024820152754c6963656e736520616c72656164792061637469766560501b6044820152606490fd5b90508652600460205260ff60046040882001541615386104fa565b60405162461bcd60e51b8152602060048201526024808201527f44617461736574207072696365206d75737420626520677265617465722074686044820152630616e20360e41b6064820152608490fd5b60405162461bcd60e51b815260206004820152601260248201527111185d185cd95d081a5cc81c995b5bdd995960721b6044820152606490fd5b60405162461bcd60e51b8152602060048201526024808201527f44617461736574206973207075626c69632c206e6f206c6963656e7365206e656044820152631959195960e21b6064820152608490fd5b955050505050503d8084833e610d0d8183611bd0565b810190610100818303126102d1578051906001600160a01b03821682036109d45760208101516001600160401b038111610db75783610d4d9183016121ce565b5060408101516001600160401b038111610db75783610d6d9183016121ce565b926060820151906001600160401b038211610a4e57610d8d9183016121ce565b92608082015192610dac60c0610da560a086016121c1565b94016121c1565b9091949392386104b5565b8580fd5b6040513d85823e3d90fd5b503461018c57602036600319011261018c5760806020916040600435918281526004855260018060a01b0392610e028484842054161515612264565b815260048552209060405190610e1782611b84565b8254168152610e2860018301611cc8565b848201526002820154604082015260ff60046003840154938460608501520154161515928391015281610e61575b506040519015158152f35b9050421038610e56565b503461018c578060031936011261018c57602090604051908152f35b503461018c57604036600319011261018c576040610ea3611b58565b91600435815280602052209060018060a01b0316600052602052602060ff604060002054166040519015158152f35b503461018c578060031936011261018c57610eeb611d93565b610ef3612220565b600160ff19815416176001557f62e78cea01bee320cd4e420270b5ea74000d11b0c9f74754ebdbfc544b05a2586020604051338152a180f35b503461018c578060031936011261018c576002546040516001600160a01b039091168152602090f35b503461018c578060031936011261018c5760206040517fa49807205ce4d355092ef5a8a18f56e8913cf4a201fbe287825b095693c217758152f35b503461018c5760208060031936011261036c576001600160a01b03610fb3611b6e565b168252600581526040822060405192838383549182815201908193835284832090835b81811061102a5750505084610fec910385611bd0565b60405193838594850191818652518092526040850193925b82811061101357505050500390f35b835185528695509381019392810192600101611004565b825484529286019260019283019201610fd6565b503461018c57604036600319011261018c576004356001600160401b03811161036c5761106f903690600401611c0c565b611077611b58565b3360009081527f335573aa7cafba10a32e2694464d1e7e5294d917876d04d506249fbf84d791af6020908152604090912054909291907f442a94f1a1fac79af32856af2a64f63648cfa2ef3b98610a5bb7cbec4cee69859060ff16156111b3575061110d9183916110e6612220565b6001600160a01b031685526006825260408086209051825190948593829085908701611c53565b8201908152030190205490611123821515612264565b8183526004815260ff6004604085200154161561117757600490828452526004604083200160ff1981541690557f0cddff7d26fb450c5bd6fa66ef9bd79abd5f2424333c0381532898b0ef59638c8280a280f35b6064906040519062461bcd60e51b8252600482015260156024820152744c6963656e7365206973206e6f742061637469766560581b6044820152fd5b836111bd336120b3565b916040516111ca81611bb5565b6042815282810191606036843781511561132d5760308353815160019081101561132d57607860218401536041905b8082116112e95750506112a657611272936112819260489260405196879376020b1b1b2b9b9a1b7b73a3937b61d1030b1b1b7bab73a1604d1b88860152611249815180928a603789019101611c53565b8401917001034b99036b4b9b9b4b733903937b6329607d1b603784015251809386840190611c53565b01036028810185520183611bd0565b6112a260405192839262461bcd60e51b845260048401526024830190611d6e565b0390fd5b6064836040519062461bcd60e51b825280600483015260248201527f537472696e67733a20686578206c656e67746820696e73756666696369656e746044820152fd5b9091600f8116601081101561132d576f181899199a1a9b1b9c1cb0b131b232b360811b901a61131884866120a2565b5360041c918015610bac5760001901906111f9565b634e487b7160e01b600052603260045260246000fd5b503461018c578060031936011261018c57602060ff600154166040519015158152f35b503461018c578060031936011261018c57602060405160088152f35b503461018c57604036600319011261018c5761139c611b6e565b6001600160a01b031681526005602052604081208054602435929083101561018c5760206113ca8484611c76565b90546040519160031b1c8152f35b503461018c578060031936011261018c576113f1611d93565b60015460ff8116156114315760ff19166001557f5db9ee0a495bf2e6ff9c91a7834c1ba4fdd244a5e8aa4e537bd38aeae4b073aa6020604051338152a180f35b60405162461bcd60e51b815260206004820152601460248201527314185d5cd8589b194e881b9bdd081c185d5cd95960621b6044820152606490fd5b503461018c57604036600319011261018c57611487611b58565b336001600160a01b038216036114a3576103ad9060043561202e565b60405162461bcd60e51b815260206004820152602f60248201527f416363657373436f6e74726f6c3a2063616e206f6e6c792072656e6f756e636560448201526e103937b632b9903337b91039b2b63360891b6064820152608490fd5b5060208060031936011261036c57600435611519612220565b80156116c1576402540be40081026402540be3ff19828204016116ad576103e89004918234106116705760015460081c6001600160a01b0316803b156109d4576040516340c10f1960e01b8152336004820152602481018490529085908290604490829084905af1801561031d57611641575b508234116115c7575b6040519283528201527f8fafebcaf9d154343dad25669bfa277f4fbacd7ac6b0c4fed522580e040a0f3360403392a280f35b838080806115d58734612213565b335af13d1561163c573d6115e881611bf1565b906115f66040519283611bd0565b815285833d92013e5b611595576064906040519062461bcd60e51b82526004820152601260248201527112109054881c99599d5b990819985a5b195960721b6044820152fd5b6115ff565b6001600160401b03819592951161165c57604052923861158c565b634e487b7160e01b82526041600452602482fd5b6064906040519062461bcd60e51b825260048201526016602482015275125b9cdd59999a58da595b9d0812109054881cd95b9d60521b6044820152fd5b634e487b7160e01b84526011600452602484fd5b60405162461bcd60e51b815260048101839052602360248201527f546f6b656e20616d6f756e74206d75737420626520677265617465722074686160448201526206e20360ec1b6064820152608490fd5b503461018c57604036600319011261018c5761172c611b6e565b6024356001600160401b03811161178d5761177b91604060209461175586943690600401611c0c565b6001600160a01b0390931681526006845220604051825190948593829085908701611c53565b82019081520301902054604051908152f35b8280fd5b503461018c578060031936011261018c57602060405160128152f35b503461018c57604036600319011261018c576004356117ca611b58565b818352826020526117e16001604085200154611f24565b818352602083815260408085206001600160a01b039093168086529290915283205460ff161561180f578280f35b818352826020526040832081845260205260408320600160ff1982541617905533917f2f8788117e7eff1d82e926ec794901d17c78024a50270940304540a733656f0d8480a438808280f35b503461018c578060031936011261018c576020600354604051908152f35b503461018c57602036600319011261018c57600160406020926004358152808452200154604051908152f35b503461018c578060031936011261018c5760206040516103e88152f35b503461018c5760208060031936011261036c576004357fa49807205ce4d355092ef5a8a18f56e8913cf4a201fbe287825b095693c2177580845283835260408420338552835260ff6040852054161561198d57506103e881116119505790817f45610d581145924dd7090a5017e5f2b1d6f42213bb2e95707ff86846bbfcb1ca92600355604051908152a180f35b60405162461bcd60e51b81526004810183905260156024820152744665652063616e6e6f74206578636565642031302560581b6044820152606490fd5b8284611998336120b3565b92604051906119a682611bb5565b60428252838201926060368537825115611a965760308453825190600191821015611a965790607860218501536041915b818311611a28575050506112a657611272936112819260489260405196879376020b1b1b2b9b9a1b7b73a3937b61d1030b1b1b7bab73a1604d1b88860152611249815180928a603789019101611c53565b909192600f81166010811015611a82576f181899199a1a9b1b9c1cb0b131b232b360811b901a611a5885876120a2565b5360041c928015611a6e576000190191906119d7565b634e487b7160e01b82526011600452602482fd5b634e487b7160e01b83526032600452602483fd5b634e487b7160e01b81526032600452602490fd5b503461018c578060031936011261018c5760206040516207a1208152f35b503461018c578060031936011261018c5760206040517f442a94f1a1fac79af32856af2a64f63648cfa2ef3b98610a5bb7cbec4cee69858152f35b90503461036c57602036600319011261036c5760043563ffffffff60e01b811680910361178d5760209250637965db0b60e01b8114908115611b47575b5015158152f35b6301ffc9a760e01b14905038611b40565b602435906001600160a01b038216820361031157565b600435906001600160a01b038216820361031157565b60a081019081106001600160401b03821117611b9f57604052565b634e487b7160e01b600052604160045260246000fd5b608081019081106001600160401b03821117611b9f57604052565b90601f801991011681019081106001600160401b03821117611b9f57604052565b6001600160401b038111611b9f57601f01601f191660200190565b81601f8201121561031157803590611c2382611bf1565b92611c316040519485611bd0565b8284526020838301011161031157816000926020809301838601378301015290565b60005b838110611c665750506000910152565b8181015183820152602001611c56565b805482101561132d5760005260206000200190600090565b90600182811c92168015611cbe575b6020831014611ca857565b634e487b7160e01b600052602260045260246000fd5b91607f1691611c9d565b9060405191826000825492611cdc84611c8e565b908184526001948581169081600014611d4b5750600114611d08575b5050611d0692500383611bd0565b565b9093915060005260209081600020936000915b818310611d33575050611d0693508201013880611cf8565b85548884018501529485019487945091830191611d1b565b915050611d0694506020925060ff191682840152151560051b8201013880611cf8565b90602091611d8781518092818552858086019101611c53565b601f01601f1916010190565b3360009081527fad3228b676f7d3cd4284a5443f17f1962b36e491b30a40b2405849e597ba5fb5602090815260408083205490929060ff1615611dd557505050565b611dde336120b3565b9080845190611dec82611bb5565b60428252848201926060368537825115611a965760308453825190600191821015611a965790607860218501536041915b818311611ede57505050611e9c5760486112a2938693611e8093611e71985198899376020b1b1b2b9b9a1b7b73a3937b61d1030b1b1b7bab73a1604d1b8a860152611249815180928c603789019101611c53565b01036028810187520185611bd0565b5192839262461bcd60e51b845260048401526024830190611d6e565b60648486519062461bcd60e51b825280600483015260248201527f537472696e67733a20686578206c656e67746820696e73756666696369656e746044820152fd5b909192600f81166010811015611a82576f181899199a1a9b1b9c1cb0b131b232b360811b901a611f0e85876120a2565b5360041c928015611a6e57600019019190611e1d565b600090808252602090828252604092838120338252835260ff848220541615611f4d5750505050565b611f56336120b3565b91845190611f6382611bb5565b60428252848201926060368537825115611a965760308453825190600191821015611a965790607860218501536041915b818311611fe857505050611e9c5760486112a2938693611e8093611e71985198899376020b1b1b2b9b9a1b7b73a3937b61d1030b1b1b7bab73a1604d1b8a860152611249815180928c603789019101611c53565b909192600f81166010811015611a82576f181899199a1a9b1b9c1cb0b131b232b360811b901a61201885876120a2565b5360041c928015611a6e57600019019190611f94565b9060009180835282602052604083209160018060a01b03169182845260205260ff60408420541661205e57505050565b80835282602052604083208284526020526040832060ff1981541690557ff6391f5c32d9c69d2a47ea670b442974b53935d1edc7fd64eb21e047a839171b339380a4565b90815181101561132d570160200190565b60405190606082018281106001600160401b03821117611b9f57604052602a825260208201604036823782511561132d5760309053815160019081101561132d57607860218401536029905b80821161215357505061210f5790565b606460405162461bcd60e51b815260206004820152602060248201527f537472696e67733a20686578206c656e67746820696e73756666696369656e746044820152fd5b9091600f811660108110156121ac576f181899199a1a9b1b9c1cb0b131b232b360811b901a61218284866120a2565b5360041c9180156121975760001901906120ff565b60246000634e487b7160e01b81526011600452fd5b60246000634e487b7160e01b81526032600452fd5b5190811515820361031157565b81601f820112156103115780516121e481611bf1565b926121f26040519485611bd0565b81845260208284010111610311576122109160208085019101611c53565b90565b91908203918211610bac57565b60ff6001541661222c57565b60405162461bcd60e51b815260206004820152601060248201526f14185d5cd8589b194e881c185d5cd95960821b6044820152606490fd5b1561226b57565b60405162461bcd60e51b8152602060048201526016602482015275131a58d95b9cd948191bd95cc81b9bdd08195e1a5cdd60521b6044820152606490fdfea264697066735822122044c505263748291d0b81ed26e67e72b52a5e9b7abc6a34b755e4e304fc6301dd64736f6c634300081300332f8788117e7eff1d82e926ec794901d17c78024a50270940304540a733656f0d",
  "linkReferences": {},
  "deployedLinkReferences": {}
}