{
  "_format": "hh-sol-artifact-1",
  "contractName": "LicenseManager",
  "sourceName": "contracts/LicenseManager.sol",
  "abi": [
    {
      "inputs": [
        {
          "internalType": "address",
          "name": "_token",
          "type": "address"
        },
        {
          "internalType": "address",
          "name": "_registry",
          "type": "address"
        },
        {
          "internalType": "uint256",
          "name": "_platformFee",
          "type": "uint256"
        }
      ],
      "stateMutability": "nonpayable",
      "type": "constructor"
    },
    {
      "anonymous": false,
      "inputs": [
        {
          "indexed": true,
          "internalType": "bytes32",
          "name": "licenseId",
          "type": "bytes32"
        },
        {
          "indexed": true,
          "internalType": "address",
          "name": "licensee",
          "type": "address"
        },
        {
          "indexed": false,
          "internalType": "string",
          "name": "datasetCid",
          "type": "string"
        },
        {
          "indexed": false,
          "internalType": "uint256",
          "name": "expirationTimestamp",
          "type": "uint256"
        }
      ],
      "name": "LicenseGranted",
      "type": "event"
    },
    {
      "anonymous": false,
      "inputs": [
        {
          "indexed": true,
          "internalType": "bytes32",
          "name": "licenseId",
          "type": "bytes32"
        },
        {
          "indexed": false,
          "internalType": "uint256",
          "name": "newExpirationTimestamp",
          "type": "uint256"
        }
      ],
      "name": "LicenseRenewed",
      "type": "event"
    },
    {
      "anonymous": false,
      "inputs": [
        {
          "indexed": true,
          "internalType": "bytes32",
          "name": "licenseId",
          "type": "bytes32"
        }
      ],
      "name": "LicenseRevoked",
      "type": "event"
    },
    {
      "anonymous": false,
      "inputs": [
        {
          "indexed": false,
          "internalType": "address",
          "name": "account",
          "type": "address"
        }
      ],
      "name": "Paused",
      "type": "event"
    },
    {
      "anonymous": false,
      "inputs": [
        {
          "indexed": false,
          "internalType": "uint256",
          "name": "newFee",
          "type": "uint256"
        }
      ],
      "name": "PlatformFeeUpdated",
      "type": "event"
    },
    {
      "anonymous": false,
      "inputs": [
        {
          "indexed": true,
          "internalType": "bytes32",
          "name": "role",
          "type": "bytes32"
        },
        {
          "indexed": true,
          "internalType": "bytes32",
          "name": "previousAdminRole",
          "type": "bytes32"
        },
        {
          "indexed": true,
          "internalType": "bytes32",
          "name": "newAdminRole",
          "type": "bytes32"
        }
      ],
      "name": "RoleAdminChanged",
      "type": "event"
    },
    {
      "anonymous": false,
      "inputs": [
        {
          "indexed": true,
          "internalType": "bytes32",
          "name": "role",
          "type": "bytes32"
        },
        {
          "indexed": true,
          "internalType": "address",
          "name": "account",
          "type": "address"
        },
        {
          "indexed": true,
          "internalType": "address",
          "name": "sender",
          "type": "address"
        }
      ],
      "name": "RoleGranted",
      "type": "event"
    },
    {
      "anonymous": false,
      "inputs": [
        {
          "indexed": true,
          "internalType": "bytes32",
          "name": "role",
          "type": "bytes32"
        },
        {
          "indexed": true,
          "internalType": "address",
          "name": "account",
          "type": "address"
        },
        {
          "indexed": true,
          "internalType": "address",
          "name": "sender",
          "type": "address"
        }
      ],
      "name": "RoleRevoked",
      "type": "event"
    },
    {
      "anonymous": false,
      "inputs": [
        {
          "indexed": false,
          "internalType": "address",
          "name": "account",
          "type": "address"
        }
      ],
      "name": "Unpaused",
      "type": "event"
    },
    {
      "inputs": [],
      "name": "ADMIN_ROLE",
      "outputs": [
        {
          "internalType": "bytes32",
          "name": "",
          "type": "bytes32"
        }
      ],
      "stateMutability": "view",
      "type": "function"
    },
    {
      "inputs": [],
      "name": "COMPLIANCE_ROLE",
      "outputs": [
        {
          "internalType": "bytes32",
          "name": "",
          "type": "bytes32"
        }
      ],
      "stateMutability": "view",
      "type": "function"
    },
    {
      "inputs": [],
      "name": "DEFAULT_ADMIN_ROLE",
      "outputs": [
        {
          "internalType": "bytes32",
          "name": "",
          "type": "bytes32"
        }
      ],
      "stateMutability": "view",
      "type": "function"
    },
    {
      "inputs": [
        {
          "internalType": "bytes32",
          "name": "role",
          "type": "bytes32"
        }
      ],
      "name": "getRoleAdmin",
      "outputs": [
        {
          "internalType": "bytes32",
          "name": "",
          "type": "bytes32"
        }
      ],
      "stateMutability": "view",
      "type": "function"
    },
    {
      "inputs": [
        {
          "internalType": "address",
          "name": "user",
          "type": "address"
        }
      ],
      "name": "getUserLicenses",
      "outputs": [
        {
          "internalType": "bytes32[]",
          "name": "",
          "type": "bytes32[]"
        }
      ],
      "stateMutability": "view",
      "type": "function"
    },
    {
      "inputs": [
        {
          "internalType": "bytes32",
          "name": "role",
          "type": "bytes32"
        },
        {
          "internalType": "address",
          "name": "account",
          "type": "address"
        }
      ],
      "name": "grantRole",
      "outputs": [],
      "stateMutability": "nonpayable",
      "type": "function"
    },
    {
      "inputs": [
        {
          "internalType": "bytes32",
          "name": "role",
          "type": "bytes32"
        },
        {
          "internalType": "address",
          "name": "account",
          "type": "address"
        }
      ],
      "name": "hasRole",
      "outputs": [
        {
          "internalType": "bool",
          "name": "",
          "type": "bool"
        }
      ],
      "stateMutability": "view",
      "type": "function"
    },
    {
      "inputs": [
        {
          "internalType": "bytes32",
          "name": "licenseId",
          "type": "bytes32"
        }
      ],
      "name": "isValidLicense",
      "outputs": [
        {
          "internalType": "bool",
          "name": "",
          "type": "bool"
        }
      ],
      "stateMutability": "view",
      "type": "function"
    },
    {
      "inputs": [
        {
          "internalType": "bytes32",
          "name": "",
          "type": "bytes32"
        }
      ],
      "name": "licenses",
      "outputs": [
        {
          "internalType": "address",
          "name": "licensee",
          "type": "address"
        },
        {
          "internalType": "string",
          "name": "datasetCid",
          "type": "string"
        },
        {
          "internalType": "uint256",
          "name": "purchaseTimestamp",
          "type": "uint256"
        },
        {
          "internalType": "uint256",
          "name": "expirationTimestamp",
          "type": "uint256"
        },
        {
          "internalType": "bool",
          "name": "isActive",
          "type": "bool"
        }
      ],
      "stateMutability": "view",
      "type": "function"
    },
    {
      "inputs": [],
      "name": "pause",
      "outputs": [],
      "stateMutability": "nonpayable",
      "type": "function"
    },
    {
      "inputs": [],
      "name": "paused",
      "outputs": [
        {
          "internalType": "bool",
          "name": "",
          "type": "bool"
        }
      ],
      "stateMutability": "view",
      "type": "function"
    },
    {
      "inputs": [],
      "name": "platformFee",
      "outputs": [
        {
          "internalType": "uint256",
          "name": "",
          "type": "uint256"
        }
      ],
      "stateMutability": "view",
      "type": "function"
    },
    {
      "inputs": [
        {
          "internalType": "string",
          "name": "datasetCid",
          "type": "string"
        }
      ],
      "name": "purchaseLicense",
      "outputs": [],
      "stateMutability": "nonpayable",
      "type": "function"
    },
    {
      "inputs": [],
      "name": "registry",
      "outputs": [
        {
          "internalType": "contract DatasetRegistry",
          "name": "",
          "type": "address"
        }
      ],
      "stateMutability": "view",
      "type": "function"
    },
    {
      "inputs": [
        {
          "internalType": "bytes32",
          "name": "role",
          "type": "bytes32"
        },
        {
          "internalType": "address",
          "name": "account",
          "type": "address"
        }
      ],
      "name": "renounceRole",
      "outputs": [],
      "stateMutability": "nonpayable",
      "type": "function"
    },
    {
      "inputs": [
        {
          "internalType": "string",
          "name": "datasetCid",
          "type": "string"
        },
        {
          "internalType": "address",
          "name": "licensee",
          "type": "address"
        }
      ],
      "name": "revokeLicense",
      "outputs": [],
      "stateMutability": "nonpayable",
      "type": "function"
    },
    {
      "inputs": [
        {
          "internalType": "bytes32",
          "name": "role",
          "type": "bytes32"
        },
        {
          "internalType": "address",
          "name": "account",
          "type": "address"
        }
      ],
      "name": "revokeRole",
      "outputs": [],
      "stateMutability": "nonpayable",
      "type": "function"
    },
    {
      "inputs": [
        {
          "internalType": "uint256",
          "name": "_platformFee",
          "type": "uint256"
        }
      ],
      "name": "setPlatformFee",
      "outputs": [],
      "stateMutability": "nonpayable",
      "type": "function"
    },
    {
      "inputs": [
        {
          "internalType": "bytes4",
          "name": "interfaceId",
          "type": "bytes4"
        }
      ],
      "name": "supportsInterface",
      "outputs": [
        {
          "internalType": "bool",
          "name": "",
          "type": "bool"
        }
      ],
      "stateMutability": "view",
      "type": "function"
    },
    {
      "inputs": [],
      "name": "token",
      "outputs": [
        {
          "internalType": "contract DatasetToken",
          "name": "",
          "type": "address"
        }
      ],
      "stateMutability": "view",
      "type": "function"
    },
    {
      "inputs": [],
      "name": "unpause",
      "outputs": [],
      "stateMutability": "nonpayable",
      "type": "function"
    },
    {
      "inputs": [
        {
          "internalType": "address",
          "name": "",
          "type": "address"
        },
        {
          "internalType": "string",
          "name": "",
          "type": "string"
        }
      ],
      "name": "userDatasetLicenses",
      "outputs": [
        {
          "internalType": "bytes32",
          "name": "",
          "type": "bytes32"
        }
      ],
      "stateMutability": "view",
      "type": "function"
    },
    {
      "inputs": [
        {
          "internalType": "address",
          "name": "",
          "type": "address"
        },
        {
          "internalType": "uint256",
          "name": "",
          "type": "uint256"
        }
      ],
      "name": "userLicenses",
      "outputs": [
        {
          "internalType": "bytes32",
          "name": "",
          "type": "bytes32"
        }
      ],
      "stateMutability": "view",
      "type": "function"
    }
  ],
  "bytecode": "0x60806040523480156200001157600080fd5b5060405162001f2538038062001f258339810160408190526200003491620002c5565b6001805460ff191690556001600160a01b0383166200009a5760405162461bcd60e51b815260206004820152601560248201527f496e76616c696420746f6b656e2061646472657373000000000000000000000060448201526064015b60405180910390fd5b6001600160a01b038216620000f25760405162461bcd60e51b815260206004820152601860248201527f496e76616c696420726567697374727920616464726573730000000000000000604482015260640162000091565b6103e8811115620001465760405162461bcd60e51b815260206004820152601560248201527f4665652063616e6e6f7420657863656564203130250000000000000000000000604482015260640162000091565b60018054610100600160a81b0319166101006001600160a01b038681169190910291909117909155600280546001600160a01b031916918416919091179055600381905562000197600033620001f8565b620001c37fa49807205ce4d355092ef5a8a18f56e8913cf4a201fbe287825b095693c2177533620001f8565b620001ef7f442a94f1a1fac79af32856af2a64f63648cfa2ef3b98610a5bb7cbec4cee698533620001f8565b50505062000306565b62000204828262000208565b5050565b6000828152602081815260408083206001600160a01b038516845290915290205460ff1662000204576000828152602081815260408083206001600160a01b03851684529091529020805460ff19166001179055620002643390565b6001600160a01b0316816001600160a01b0316837f2f8788117e7eff1d82e926ec794901d17c78024a50270940304540a733656f0d60405160405180910390a45050565b80516001600160a01b0381168114620002c057600080fd5b919050565b600080600060608486031215620002db57600080fd5b620002e684620002a8565b9250620002f660208501620002a8565b9150604084015190509250925092565b611c0f80620003166000396000f3fe608060405234801561001057600080fd5b506004361061014d5760003560e01c806374e078dc116100c3578063a217fddf1161007c578063a217fddf14610318578063ba810a4a14610320578063c5703e5e14610333578063cde74e5114610346578063d547741f1461036a578063fc0c546a1461037d57600080fd5b806374e078dc1461027857806375a106c31461028b57806375b238fc146102ab5780637b103999146102d25780638456cb59146102fd57806391d148541461030557600080fd5b80632f2ff15d116101155780632f2ff15d146101f057806331745c5d1461020357806336568abe1461023f5780633f4ba83a14610252578063454c1d311461025a5780635c975abb1461026d57600080fd5b806301ffc9a714610152578063062d3bd71461017a57806312e8e2c3146101af578063248a9ca3146101c457806326232a2e146101e7575b600080fd5b6101656101603660046114a0565b610395565b60405190151581526020015b60405180910390f35b6101a17f442a94f1a1fac79af32856af2a64f63648cfa2ef3b98610a5bb7cbec4cee698581565b604051908152602001610171565b6101c26101bd3660046114ca565b6103cc565b005b6101a16101d23660046114ca565b60009081526020819052604090206001015490565b6101a160035481565b6101c26101fe3660046114f8565b610481565b6101a16102113660046115ed565b6006602090815260009283526040909220815180830184018051928152908401929093019190912091525481565b6101c261024d3660046114f8565b6104ab565b6101c2610529565b6101a161026836600461163d565b61053f565b60015460ff16610165565b6101c2610286366004611669565b610570565b61029e6102993660046116b0565b6106c2565b60405161017191906116cd565b6101a17fa49807205ce4d355092ef5a8a18f56e8913cf4a201fbe287825b095693c2177581565b6002546102e5906001600160a01b031681565b6040516001600160a01b039091168152602001610171565b6101c261072e565b6101656103133660046114f8565b610741565b6101a1600081565b61016561032e3660046114ca565b61076a565b6101c2610341366004611711565b6108c9565b6103596103543660046114ca565b610f9d565b60405161017195949392919061179e565b6101c26103783660046114f8565b611063565b6001546102e59061010090046001600160a01b031681565b60006001600160e01b03198216637965db0b60e01b14806103c657506301ffc9a760e01b6001600160e01b03198316145b92915050565b7fa49807205ce4d355092ef5a8a18f56e8913cf4a201fbe287825b095693c217756103f681611088565b6103e88211156104455760405162461bcd60e51b81526020600482015260156024820152744665652063616e6e6f74206578636565642031302560581b60448201526064015b60405180910390fd5b60038290556040518281527f45610d581145924dd7090a5017e5f2b1d6f42213bb2e95707ff86846bbfcb1ca9060200160405180910390a15050565b60008281526020819052604090206001015461049c81611088565b6104a68383611092565b505050565b6001600160a01b038116331461051b5760405162461bcd60e51b815260206004820152602f60248201527f416363657373436f6e74726f6c3a2063616e206f6e6c792072656e6f756e636560448201526e103937b632b9903337b91039b2b63360891b606482015260840161043c565b6105258282611116565b5050565b600061053481611088565b61053c61117b565b50565b6005602052816000526040600020818154811061055b57600080fd5b90600052602060002001600091509150505481565b7f442a94f1a1fac79af32856af2a64f63648cfa2ef3b98610a5bb7cbec4cee698561059a81611088565b6105a26111cd565b6001600160a01b03821660009081526006602052604080822090516105c89086906117e1565b908152604051908190036020019020549050806106205760405162461bcd60e51b8152602060048201526016602482015275131a58d95b9cd948191bd95cc81b9bdd08195e1a5cdd60521b604482015260640161043c565b6000818152600460208190526040909120015460ff1661067a5760405162461bcd60e51b81526020600482015260156024820152744c6963656e7365206973206e6f742061637469766560581b604482015260640161043c565b6000818152600460208190526040808320909101805460ff191690555182917f0cddff7d26fb450c5bd6fa66ef9bd79abd5f2424333c0381532898b0ef59638c91a250505050565b6001600160a01b03811660009081526005602090815260409182902080548351818402810184019094528084526060939283018282801561072257602002820191906000526020600020905b81548152602001906001019080831161070e575b50505050509050919050565b600061073981611088565b61053c611215565b6000918252602082815260408084206001600160a01b0393909316845291905290205460ff1690565b6000818152600460205260408120546001600160a01b03166107c75760405162461bcd60e51b8152602060048201526016602482015275131a58d95b9cd948191bd95cc81b9bdd08195e1a5cdd60521b604482015260640161043c565b6000828152600460209081526040808320815160a0810190925280546001600160a01b031682526001810180549293919291840191610805906117fd565b80601f0160208091040260200160405190810160405280929190818152602001828054610831906117fd565b801561087e5780601f106108535761010080835404028352916020019161087e565b820191906000526020600020905b81548152906001019060200180831161086157829003601f168201915b5050509183525050600282015460208201526003820154604082015260049091015460ff161515606090910152608081015190915080156108c25750806060015142105b9392505050565b6108d16111cd565b6002546040516307eec9a760e21b81526000918291829182916001600160a01b0390911690631fbb269c9061090a908890600401611837565b600060405180830381865afa158015610927573d6000803e3d6000fd5b505050506040513d6000823e601f3d908101601f1916820160405261094f919081019061185f565b5094509450945050935081156109b35760405162461bcd60e51b8152602060048201526024808201527f44617461736574206973207075626c69632c206e6f206c6963656e7365206e656044820152631959195960e21b606482015260840161043c565b80156109f65760405162461bcd60e51b815260206004820152601260248201527111185d185cd95d081a5cc81c995b5bdd995960721b604482015260640161043c565b60008311610a525760405162461bcd60e51b8152602060048201526024808201527f44617461736574207072696365206d75737420626520677265617465722074686044820152630616e20360e41b606482015260840161043c565b336000908152600660205260408082209051610a6f9088906117e1565b908152604051908190036020019020549050801580610aa157506000818152600460208190526040909120015460ff16155b610ae65760405162461bcd60e51b81526020600482015260166024820152754c6963656e736520616c72656164792061637469766560501b604482015260640161043c565b600061271060035486610af99190611935565b610b03919061194c565b90506000610b11828761196e565b600154604051636eb1769f60e11b815233600482015230602482015291925087916101009091046001600160a01b03169063dd62ed3e90604401602060405180830381865afa158015610b68573d6000803e3d6000fd5b505050506040513d601f19601f82011682018060405250810190610b8c9190611981565b1015610bda5760405162461bcd60e51b815260206004820152601c60248201527f496e73756666696369656e7420746f6b656e20616c6c6f77616e636500000000604482015260640161043c565b6001546040516323b872dd60e01b8152336004820152306024820152604481018890526101009091046001600160a01b0316906323b872dd906064016020604051808303816000875af1158015610c35573d6000803e3d6000fd5b505050506040513d601f19601f82011682018060405250810190610c59919061199a565b610c9d5760405162461bcd60e51b8152602060048201526015602482015274151bdad95b881d1c985b9cd9995c8819985a5b1959605a1b604482015260640161043c565b60015460405163a9059cbb60e01b81526001600160a01b038981166004830152602482018490526101009092049091169063a9059cbb906044016020604051808303816000875af1158015610cf6573d6000803e3d6000fd5b505050506040513d601f19601f82011682018060405250810190610d1a919061199a565b610d5d5760405162461bcd60e51b815260206004820152601460248201527313dddb995c881c185e5b595b9d0819985a5b195960621b604482015260640161043c565b8115610e1e5760015460405163a9059cbb60e01b8152306004820152602481018490526101009091046001600160a01b03169063a9059cbb906044016020604051808303816000875af1158015610db8573d6000803e3d6000fd5b505050506040513d601f19601f82011682018060405250810190610ddc919061199a565b610e1e5760405162461bcd60e51b8152602060048201526013602482015272119959481d1c985b9cd9995c8819985a5b1959606a1b604482015260640161043c565b6040514290600090610e389033908c9085906020016119b5565b6040516020818303038152906040528051906020012090506000826301e13380610e6291906119f4565b6040805160a08101825233815260208082018f8152828401889052606083018590526001608084018190526000888152600490935293909120825181546001600160a01b0319166001600160a01b03909116178155905193945090929091820190610ecd9082611a55565b506040828101516002830155606083015160038301556080909201516004909101805460ff19169115159190911790553360008181526005602090815283822080546001810182559083528183200186905591815260069091528190209051839190610f3a908e906117e1565b908152602001604051809103902081905550336001600160a01b0316827f7c2b58e1436c444b1aa108fdc88ecd7742033a4073d4d6e4946edbb106a8e4168d84604051610f88929190611b15565b60405180910390a35050505050505050505050565b600460205260009081526040902080546001820180546001600160a01b039092169291610fc9906117fd565b80601f0160208091040260200160405190810160405280929190818152602001828054610ff5906117fd565b80156110425780601f1061101757610100808354040283529160200191611042565b820191906000526020600020905b81548152906001019060200180831161102557829003601f168201915b50505050600283015460038401546004909401549293909290915060ff1685565b60008281526020819052604090206001015461107e81611088565b6104a68383611116565b61053c8133611250565b61109c8282610741565b610525576000828152602081815260408083206001600160a01b03851684529091529020805460ff191660011790556110d23390565b6001600160a01b0316816001600160a01b0316837f2f8788117e7eff1d82e926ec794901d17c78024a50270940304540a733656f0d60405160405180910390a45050565b6111208282610741565b15610525576000828152602081815260408083206001600160a01b0385168085529252808320805460ff1916905551339285917ff6391f5c32d9c69d2a47ea670b442974b53935d1edc7fd64eb21e047a839171b9190a45050565b6111836112a9565b6001805460ff191690557f5db9ee0a495bf2e6ff9c91a7834c1ba4fdd244a5e8aa4e537bd38aeae4b073aa335b6040516001600160a01b03909116815260200160405180910390a1565b60015460ff16156112135760405162461bcd60e51b815260206004820152601060248201526f14185d5cd8589b194e881c185d5cd95960821b604482015260640161043c565b565b61121d6111cd565b6001805460ff1916811790557f62e78cea01bee320cd4e420270b5ea74000d11b0c9f74754ebdbfc544b05a258336111b0565b61125a8282610741565b61052557611267816112f2565b611272836020611304565b604051602001611283929190611b37565b60408051601f198184030181529082905262461bcd60e51b825261043c91600401611837565b60015460ff166112135760405162461bcd60e51b815260206004820152601460248201527314185d5cd8589b194e881b9bdd081c185d5cd95960621b604482015260640161043c565b60606103c66001600160a01b03831660145b60606000611313836002611935565b61131e9060026119f4565b67ffffffffffffffff81111561133657611336611528565b6040519080825280601f01601f191660200182016040528015611360576020820181803683370190505b509050600360fc1b8160008151811061137b5761137b611bac565b60200101906001600160f81b031916908160001a905350600f60fb1b816001815181106113aa576113aa611bac565b60200101906001600160f81b031916908160001a90535060006113ce846002611935565b6113d99060016119f4565b90505b6001811115611451576f181899199a1a9b1b9c1cb0b131b232b360811b85600f166010811061140d5761140d611bac565b1a60f81b82828151811061142357611423611bac565b60200101906001600160f81b031916908160001a90535060049490941c9361144a81611bc2565b90506113dc565b5083156108c25760405162461bcd60e51b815260206004820181905260248201527f537472696e67733a20686578206c656e67746820696e73756666696369656e74604482015260640161043c565b6000602082840312156114b257600080fd5b81356001600160e01b0319811681146108c257600080fd5b6000602082840312156114dc57600080fd5b5035919050565b6001600160a01b038116811461053c57600080fd5b6000806040838503121561150b57600080fd5b82359150602083013561151d816114e3565b809150509250929050565b634e487b7160e01b600052604160045260246000fd5b604051601f8201601f1916810167ffffffffffffffff8111828210171561156757611567611528565b604052919050565b600067ffffffffffffffff82111561158957611589611528565b50601f01601f191660200190565b600082601f8301126115a857600080fd5b81356115bb6115b68261156f565b61153e565b8181528460208386010111156115d057600080fd5b816020850160208301376000918101602001919091529392505050565b6000806040838503121561160057600080fd5b823561160b816114e3565b9150602083013567ffffffffffffffff81111561162757600080fd5b61163385828601611597565b9150509250929050565b6000806040838503121561165057600080fd5b823561165b816114e3565b946020939093013593505050565b6000806040838503121561167c57600080fd5b823567ffffffffffffffff81111561169357600080fd5b61169f85828601611597565b925050602083013561151d816114e3565b6000602082840312156116c257600080fd5b81356108c2816114e3565b6020808252825182820181905260009190848201906040850190845b81811015611705578351835292840192918401916001016116e9565b50909695505050505050565b60006020828403121561172357600080fd5b813567ffffffffffffffff81111561173a57600080fd5b61174684828501611597565b949350505050565b60005b83811015611769578181015183820152602001611751565b50506000910152565b6000815180845261178a81602086016020860161174e565b601f01601f19169290920160200192915050565b6001600160a01b038616815260a0602082018190526000906117c290830187611772565b6040830195909552506060810192909252151560809091015292915050565b600082516117f381846020870161174e565b9190910192915050565b600181811c9082168061181157607f821691505b60208210810361183157634e487b7160e01b600052602260045260246000fd5b50919050565b6020815260006108c26020830184611772565b8051801515811461185a57600080fd5b919050565b60008060008060008060c0878903121561187857600080fd5b8651611883816114e3565b602088015190965067ffffffffffffffff8111156118a057600080fd5b8701601f810189136118b157600080fd5b80516118bf6115b68261156f565b8181528a60208385010111156118d457600080fd5b6118e582602083016020860161174e565b809750505050604087015193506118fe6060880161184a565b925061190c6080880161184a565b915060a087015190509295509295509295565b634e487b7160e01b600052601160045260246000fd5b80820281158282048414176103c6576103c661191f565b60008261196957634e487b7160e01b600052601260045260246000fd5b500490565b818103818111156103c6576103c661191f565b60006020828403121561199357600080fd5b5051919050565b6000602082840312156119ac57600080fd5b6108c28261184a565b6bffffffffffffffffffffffff198460601b168152600083516119df81601485016020880161174e565b60149201918201929092526034019392505050565b808201808211156103c6576103c661191f565b601f8211156104a657600081815260208120601f850160051c81016020861015611a2e5750805b601f850160051c820191505b81811015611a4d57828155600101611a3a565b505050505050565b815167ffffffffffffffff811115611a6f57611a6f611528565b611a8381611a7d84546117fd565b84611a07565b602080601f831160018114611ab85760008415611aa05750858301515b600019600386901b1c1916600185901b178555611a4d565b600085815260208120601f198616915b82811015611ae757888601518255948401946001909101908401611ac8565b5085821015611b055787850151600019600388901b60f8161c191681555b5050505050600190811b01905550565b604081526000611b286040830185611772565b90508260208301529392505050565b7f416363657373436f6e74726f6c3a206163636f756e7420000000000000000000815260008351611b6f81601785016020880161174e565b7001034b99036b4b9b9b4b733903937b6329607d1b6017918401918201528351611ba081602884016020880161174e565b01602801949350505050565b634e487b7160e01b600052603260045260246000fd5b600081611bd157611bd161191f565b50600019019056fea26469706673582212200c33a2fe783815faae7b2d77a9323aae75b5fbf1fef0a3e117f8038d4b6c677d64736f6c63430008130033",
  "linkReferences": {},
  "deployedLinkReferences": {}
}